:020000040800F2
:10100000080C0020E1100008011B0008E91A000884
:1010100000000000000000000000000000000000D0
:10102000000000000000000000000000E11B0008BC
:101030000000000000000000031B0008E31B000884
:10104000F3100008F3100008F3100008F310000874
:10105000F3100008F3100008F3100008D51A000878
:1010600000000000F3100008F3100008111A000837
:10107000DB180008F3100008F3100008000000005F
:10108000E91F0008F310000800000000991F000885
:10109000B11F0008BD1F0008F3100008F31000087E
:1010A000F3100008F3100008F3100008F310000814
:1010B000C520000800000000000000000000000043
:1010C000F310000800000000F310000803488546F4
:1010D00000F0C6FB00480047E1400008080C002073
:1010E0000448804704480047FEE7FEE7FEE7FEE7C6
:1010F000FEE7FEE7E91B0008CD10000803460B439E
:101100009B0703D009E008C9121F08C0042AFAD2BD
:1011100003E00B780370401C491C521EF9D2704743
:10112000D2B201E00270401C491EFBD2704700227F
:10113000F6E710B513460A4604461946FFF7F0FFD6
:10114000204610BDF8B502464A40D40F42004B007D
:1011500052085B089A4202D20246084611464A00EB
:1011600023D0C30D4A00DDB2120EAD1A202D35DAA0
:1011700049020126490AF6058A19002C00D052427C
:1011800020214F1B1146B9402A411018C20D9A4226
:1011900021D0002C17D0012D08DCDA05801AD20FDF
:1011A0008019D207DBB200F0C3FAF8BDDA05801A65
:1011B000012340001B06C01880185A428018CA0F2D
:1011C0001043490007E04908C2071143DA05801AB5
:1011D00080194008801800F0A3FAF8BD61000122D0
:1011E000511A001BF7E70122D2075140AAE701225A
:1011F000D2075040A6E770B502464A40D50F4000DE
:101200004A00ED0740085208002814D0002A12D0E6
:10121000C40DD30D41020120C0055202490A520AF1
:10122000E41A091812187D34914201D3641C00E0BD
:101230004900002C01DA002070BD0023914201D347
:10124000891A0343400849000028F7D100290AD031
:10125000914202D10121C90705E0914201D2012149
:1012600001E00121C943E005C018401900F058FA17
:1012700070BD0000F0B507460846584087B0C00F63
:10128000049048000E46590040084908BC1A88419D
:1012900005D2384631461E4617460B4602465800D0
:1012A000400810434CD0300D039040055900400DCC
:1012B000490D0590401A0290402872DA1803012166
:1012C000000B09050843019004980092002805D0FE
:1012D00001995242002088410092019002984021D9
:1012E0000A1A0199009800F0E7F905460C466B468A
:1012F00007CB00F002FAC0197141039A0E0D0023CA
:10130000D71756401A467A40164344D0049A002A0A
:101310002DD0029A012A039A15DC1205C01A9141B8
:1013200001263605001C7141D20F059ED20700939D
:10133000019202962A46234600F040FA07B0F0BD1B
:1013400038463146FAE71605224A0F46B218C01A47
:10135000B74101210905001C4F4100187F4111468A
:1013600018187941E20F10436D19644113E0E20748
:101370006D0815436408C2071443039A0126120539
:10138000C01A91413605001C7141CE074008304318
:101390004908C01851412A46234600F002FACDE719
:1013A000FFE7049801224000C117121A00238B4165
:1013B00004983146C417381AA141EEE730B401242D
:1013C000E407634030BC55E730B40124E4076140D2
:1013D00030BC4FE70000E0FFF0B51FB488B00B99B8
:1013E0000998002448400999C00F4900490809910B
:1013F000C0070B990090490049080B91099908987A
:10140000A64608431CD00B990A98084318D009989F
:1014100001244000420D4800410D099824050003B5
:10142000000B204309900B980003000B20430B9006
:1014300050181C494018002201901446104605E03F
:10144000002001460DB0F0BD032801DA034600E09C
:1014500003239C46C11A0AAE0AE05F0008ADED5BAB
:101460004F00F75B7D430027AA187C41491C5B1E97
:101470006145F2DD410004AB5A522104120C0A43CB
:10148000240C401C0828DFDB01980290009970466C
:1014900001910090059B049A0799069800F08EF937
:1014A000D0E700000DFCFFFFF0B50C465C4085B0B6
:1014B000E40FE40703944C000026640859009446A6
:1014C000490802460296224321D062460A431ED0B2
:1014D0006200570D4A000E032303550D01240246F6
:1014E0002C492405781B1B0B360B4018234326433D
:1014F000614600901C46501AB44103D30098401C2A
:10150000009002E0921800985B41002803DA002066
:10151000014605B0F0BD00200121090507468646B9
:1015200011E064461D46141BB54106D36546521BA7
:10153000B341744607430C43A646CD07400849080B
:10154000284392185B4105460D43EAD110461843E3
:1015500013D06046194650407140084306D060469B
:10156000101AB34106D20122002306E00022012313
:10157000DB0702E00122D2435310009874460105B4
:10158000381C6141029C039D0019694100F009F972
:10159000BFE70000FD0300000122D207002800DBA6
:1015A000101A002900DB511A814201D8012070472E
:1015B000002070470122D207002800DB101A002902
:1015C00000DB511A814201D2012070470020704790
:1015D0000122D207002800DB101A002900DB511A73
:1015E000814201D301207047002070470122D207B9
:1015F000002800DB101A002900DB511A814201D9B2
:101600000120704700207047C217C10F504010B52D
:101610004018CA079623002100F08AF810BD000088
:101620000EB505490291002100910A460B46019131
:1016300000F0C4F803B000BD33040000C20F410045
:1016400040020123400ADB05D207090EC0187F299A
:1016500001DA00207047962903DC9623591AC84006
:1016600001E096398840002AF4D0404270470000DB
:1016700070B5CD0F4A0009030123090B1B0519435F
:101680000B4BED070024520D9A4201DA002070BD89
:10169000074B34339A4203DC9A1A00F01DF802E03B
:1016A0000449511888402C43F1D0404270BD0000DD
:1016B000FF030000CDFBFFFF10B5202A04DB01462D
:1016C000203A9140002010BD914020239C1A0346EF
:1016D000E3401943904010BD10B5202A04DB0846B2
:1016E000203AD040002110BD0B46D340D0402024EA
:1016F000A21A91400843194610BD10B5202A06DBF6
:10170000CB170846203A1041C1170B4306E00B46A1
:101710001341D0402024A21A91400843194610BD1D
:10172000002904DA401C490001D1400840007047FC
:1017300070B40024050C05D11024000402D1002946
:1017400021D01124050E01D100020834050F01D16A
:101750000001241D850F01D18000A41C002801DB9D
:101760004000641C002908D020252E1B0D46F540A2
:10177000A14000D001212943084301061B1B000A98
:10178000DB1D02D5002070BC7047DB0518188018DF
:101790000029F8DA401C4900F5D170BC400840002F
:1017A000704710B5002B08DA0024401C61419218E4
:1017B0005B411A4301D14008400010BDF0B51FB491
:1017C00082B005460C0003D0084605F0EBFE02E0AF
:1017D00005F0E8FE20300246009021462846FFF73B
:1017E0006BFF049B059A04460F46184311430843B8
:1017F00014D0184610431BD0009840210A1A1846EE
:101800000599FFF769FF05460E46009A0599049869
:10181000FFF752FF084305D0012004E02046394677
:1018200007B0F0BD0020C11705430E432C433743DA
:1018300000990E986305401A7905E40A00220C43CA
:10184000FD0A0A3002D500200146E9E7010510191A
:1018500069410C9C0D9D00196941FFF7A2FFDFE76C
:10186000064C0125064E05E0E36807CC2B430C3CF3
:1018700098471034B442F7D3FFF72CFC08760008E1
:101880002876000870B58C180578401C6B075B0F34
:1018900001D10378401C2A1106D10278401C03E0D4
:1018A00006780E70401C491C5B1EF9D12B0705D42D
:1018B0000023521E0DD40B70491CFAE70378401C1C
:1018C000CB1A921C03E01D780D70491C5B1C521E44
:1018D000F9D5A142D8D3002070BD10B50120440530
:1018E000204601F0EFFC38B1204601F0ADFC10BC01
:1018F00001BC864602F02ABA10BD00004348818828
:10190000044A11804188044A1180008803490880F4
:101910007047C0469A0400209E04002086040020E0
:10192000F0B589B040F20050113004F025F9354887
:1019300004F022F940F2005004F01EF90620019054
:1019400003F0DAFF0920C0060325002648232946B4
:10195000324601F0A9FF304601F04CFB02A940F2EB
:10196000001008838E76284A0292284A049240F298
:10197000E8321832039005A864C0304601F050FBED
:10198000304601F02FFB304601F01CFB0220009096
:10199000314600F087FC012740F20010394600F084
:1019A00081FC304600F0D2FB3846294600F0AEFB01
:1019B00000F0B2FC052430462946224600F018FC0F
:1019C00038460199224600F013FC10210098224667
:1019D00000F00EFC07204104384600F0F5FB3846C5
:1019E000394600F0D1FB00F0C5FB40F2E83001F0D1
:1019F000A3F900F069FB00F0B5FB384600F03EFCAF
:101A000009B0F0BD090600004C240140D4040020B8
:101A100010B52948007898B12648007880B12A4846
:101A2000016841F200020A430260016C0124A143F3
:101A300001642648007890B304F0E6F8022430E010
:101A40000320042101F030FB58B11C48007840B15C
:101A50001B48016802220A4302600320042101F0AE
:101A600019FB0320022101F01FFB01280AD10324E6
:101A70000121204601F00EFB204601F09BFA05F003
:101A8000FDFB10E00320082101F00EFB012810D11E
:101A90000320012110BC04BC964601F0FBBA04F0FF
:101AA000FFF90B4804700748016848F200020A4336
:101AB000026010BD5B040020540400205E0400207E
:101AC0002004004010040140040002401C040020D7
:101AD0003D04002080B548F2000001F0B5FB80BC59
:101AE00001BC864603F0B4BEFEE780B5022140F695
:101AF000A07001F0CFFD80BC01BC864601F01CBE89
:101B00007047704770B5314801680125A9430160ED
:101B10002F4CA07FA17E01290AD1401CA077C1B221
:101B2000072903D32B480575A5772846284009E0E7
:101B3000411EA177080603D1264805750621A17725
:101B4000284688436076EFF3108072B6214EF07D10
:101B500010B9A07F00F0D0FC62B600F069FCB06F55
:101B600040F2D071884202D96575002002E0617DA3
:101B700048424841232100227254242172544C21AE
:101B8000725A5023E15A03254D43AA189508E5528D
:101B90005309E5795D439203520C521B4623F252DE
:101BA000A27F52000C4C1219D181B58720B9606810
:101BB0000A49884206D970BD01F0AEFA606807494B
:101BC0008842F8D8401C606070BDC0460C4401409B
:101BD000000000203C040020B80400200F27000073
:101BE000704701F0DFB80000F0B481B06748021F11
:101BF000136801210B43136013689B0708D4136813
:101C00009B0705D413689B0702D413689B07F3D581
:101C1000036880241C43046000240094009B7F2BF5
:101C200017D8009B5B1C0093009B7F2B11D8009B57
:101C30005B1C0093009B7F2B0BD8009B5B1C0093CD
:101C4000009B7F2B05D8009B5B1C0093009B802B87
:101C5000E7D3036890251D4305600094009B7F2B0C
:101C600017D8009B5B1C0093009B7F2B11D8009B17
:101C70005B1C0093009B7F2B0BD8009B5B1C00938D
:101C8000009B7F2B05D8009B5B1C0093009B802B47
:101C9000E7D30323DD4306682E40066015683C4EFB
:101CA0002E40166005683B4E2E40066005683A4E91
:101CB0002E400660856A0F26B5438562C56A40F2EC
:101CC0000316B543C5620D04C66AAE43C662CD07AE
:101CD000C66AAE43C662056B8D43056344601468F3
:101CE0000C4314602D4C1568AD070CD41568AD0776
:101CF00009D41568AD0706D41568AD0703D4251FB0
:101D0000002C2C46EFD11468A40700D4FEE7244D24
:101D10002E68022426430527BE432E600568056011
:101D2000056805600568056005681E4E2E40066062
:101D300005681D4E2E4306600D0616682E4316607C
:101D40004D0616682E4208D116682E4205D1166837
:101D50002E4202D116682E42F3D002689A430260E6
:101D60000268224302600268120708D40268120760
:101D700005D40268120702D402681207F3D5C80618
:101D800041F2000101B0F0BC03F0DABB04100240E4
:101D9000FFFFF2FE0C00FF08FFFFC277FC0400000B
:101DA00000200240FFFFC2F700000408F0B58FB02A
:101DB0007548FA3003F0E0FE744F384605F0EAF853
:101DC00008AD284605F050FA00242C7370480A909C
:101DD000089409943846294605F022F90CAE30469D
:101DE00005F0CFF80E940D940C94384621463246F7
:101DF00004F030FF012103913846324604F02AFFF7
:101E0000022538462946324604F024FF6022029219
:101E100038463E46214605F02BF808273046214635
:101E20003A4605F053F83046039E3146029A05F0D3
:101E30001FF8564831463A4605F048F8534E3046AA
:101E40002946029A05F014F8304629463A4605F02C
:101E50003DF804AE304604F0D2FEB48106944D48FD
:101E600005900494494F3846314604F0B9FE2021CC
:101E7000384605F0DFF980210291384605F0DAF99D
:101E8000384604F0A8FE404E304603F075FE701C44
:101E900003F072FE814E3046294622462B4601F061
:101EA00003FD0327304621463A4601972B4601F0B1
:101EB00001FE304629462246039E334601F0F4FCDB
:101EC000764821463A46334601F0F4FD0920C6061D
:101ED000304629462246029F3B4601F0E5FC30464B
:101EE0002146019A3B4601F0E5FD6C4F38462946F4
:101EF0002A4601F041FC38462946039A01F03CFC91
:101F000030462946029A01F037FC304629462246DF
:101F100040F2004301F0C8FC38462146019F3A4692
:101F200040F2004301F0C6FD30462946224640F209
:101F3000002301F0B9FC594821463A4640F20023FB
:101F400001F0B8FD30462946224640F2001301F068
:101F5000ABFC524821463A4640F2001301F0AAFD7C
:101F60003046294640F2004201F006FC3046294640
:101F700040F2002201F000FC3046294640F20012F7
:101F800001F0FAFB0FB0F0BD11050000002C01407C
:101F9000B80B00003200002080B50448012105F094
:101FA0004DF980BC01BC864604F010BC0020004006
:101FB0000148012105F031B800400140B0B5074C9F
:101FC0002068074D28600748012105F037F9FFF721
:101FD00099FD20682968401A2860B0BD2448014056
:101FE000340700200044014070470000F0B585B080
:101FF00040F20050123003F0BFFD40F2005003F0F9
:10200000BBFDE74F002101910326102438463246DC
:102010002346029401F04EFD01253846294622460A
:1020200001F0AAFB1E4F39463431304601F062F808
:102030001C49304601F056F81B481C490160FF203E
:1020400000061B490A688243A8071018086019484F
:1020500040F600010160184803F08EFD1748F86251
:102060000A20B862384604F0B1FD03AD284604F0FA
:10207000EAFD019C049412480390384621462A4602
:1020800005F026F8384604F0BFFF0221E748224653
:10209000029B01F009FC05B0F0BDC04600040048F9
:1020A00000040040EC040020440002408A090000C3
:1020B00008E400E000E100E001070000FFFF00008D
:1020C0000A000100704700009748016808220A438F
:1020D00002600168090708D50168090705D501688C
:1020E000090702D501680907F3D4016804220A43ED
:1020F00002600168490708D50168490705D50168EC
:10210000490702D501684907F3D4704702280ED069
:10211000012818D10F2000050B4A13688343136070
:102120000905091801401068084310607047032032
:102130000005054AD3688343D360090509180140A7
:10214000D0680843D06070472C240140411E88416C
:10215000C00275490A6840F600039A4310180860E7
:102160007047C0467048016840F200120A4302609E
:102170007047C0466C480168C90703D10168012255
:102180000A4302607047C04610B5012304461C4054
:10219000654A59B11CB1190513680B4313608007D8
:1021A00010D5116848F2000008430AE01CB1190577
:1021B00013688B431360800704D5106848F2000150
:1021C0008843106010BDC046012803D0022809D101
:1021D000064800E00448544A13680340136010683E
:1021E000084310607047C046FFFFF1FFFF8FFFFFFD
:1021F000B0B5214B05280AD8052444430846A04021
:102200001F25A5409C6AAC4304439C621AE00B283E
:102210000BD8052444431E3C0846A0401F25A5407A
:102220005C6AAC4304435C620CE010280AD20524CB
:1022300044433C3C0846A0401F25A5401C6AAC43D3
:1022400004431C62092909D803204843824007211E
:1022500081405868884310435860B0BD122909D89E
:10226000032048431E388240072181401868884374
:1022700010431860B0BDC0460C240140C1072A4974
:1022800002D1800707D47047012292050B681343DF
:102290000B608007F7D5012040050A6802430A60F9
:1022A0007047C04610B540F2001304461C40194A5E
:1022B00029B154B941050DD4800712D410BDACB971
:1022C00041051AD48007F9D51EE011681943116041
:1022D0004105F1D540F2004113680B4313608007BC
:1022E000ECD5516802200843506010BD116840F2DF
:1022F0000013994311604105E4D5116840F2004391
:10230000994311608007D9D55068022188435060F5
:1023100010BDC046042401400120C00502490A68DE
:1023200002430A607047C0460824014070B53F4B25
:1023300018680421014308208143196002249C622B
:1023400003210A050920C0060568954301221605E8
:10235000AD19056040F2004585621D681543A5432F
:102360001D609A628B0404689C439304E318036025
:1023700040F20023836203684CF20004A34344F25A
:1023800000041B19036080238362090403688B43E4
:1023900011045918016040F20011816270BDC046FD
:1023A0000004004870B5F8490A78F64C20680C2300
:1023B00098431AB108221043206004E0042210431D
:1023C00020600220A062032213050920C0060568D0
:1023D0009D4301235E05AD1905600E782568954380
:1023E0001EB102263543256002E01D432560A3622D
:1023F00094040568A543DC042C1904600C7801687A
:102400004CF20005A94324B148F2000421430160C5
:1024100005E044F20004214301608021816211043F
:1024200002688A4359045118016070BD00040048D5
:1024300010B5154A11782F48042901D0012902D17D
:10244000512101601178052901D0022902D16121B1
:1024500001601178062901D0032901D141210160D1
:102460000A4804780120410509480368094A2CB14B
:102470001340036043680B43436010BD0B4303608C
:1024800043681340436010BD1E0000201900002067
:1024900008040140FFFFDFFF1648016801220A43DC
:1024A00002607047B0B5134B1C68064D254080078D
:1024B000000F4907490E08189107890C4018401968
:1024C0001860B0BD83CFFFFF491E4A424A41D10286
:1024D0004007400D081807490A6840F600739A4300
:1024E000801808607047C046024800684004C00F6A
:1024F0007047C0461C000140F0B5411E052900D9B7
:102500003EE10920C0068A0001A39A189746C046FA
:1025100000F00AB800F02DB800F05BB800F08CB8FD
:1025200000F0BCB800F0EBB801684CF20002914337
:1025300044F20002891801608021816203221104A3
:1025400003688B4301210C041B19036040F2001344
:1025500083628C4B1D680D430224A5431D60996165
:102560009204056895438A04AA18026040F200228A
:10257000E9E084490A6804231343082293430B606B
:1025800002248C6203231A0505689543012216056F
:10259000AD19056040F2004585620D681543A543FD
:1025A0000D608A61990403688B4391045918016096
:1025B00040F20021816274490C7803684CF20001FA
:1025C0008B435104734A84B348F2000423430360ED
:1025D000D2E06C4A146801210C4302239C4314602E
:1025E00091620324A5040668AE438D047519056045
:1025F00040F200258562156804262E430825AE4367
:10260000166093612205036893430A059A180260D5
:1026100040F2004282625C4A147803684CF2000285
:10262000934349045B4A002CCED144F20004234377
:102630000360802383629FE001684CF200029143B3
:1026400044F20002891801608021816203210A049A
:102650000468944301231A04A218026040F2001295
:102660008262484C22680425154308229543256060
:102670000225A5610A05066896431A05B21802608C
:1026800040F200428262404A177826688E43D9049D
:102690003F4A002F69D02E4326606DE0394B196800
:1026A00004220A4308218A431A6002249C620321FF
:1026B0000A050668964301252A05B218026040F211
:1026C0000042826202684CF20006B24344F2000605
:1026D00092190260802282610A04066896432A04E5
:1026E000B218026040F200128262274A17781E6810
:1026F0008E43E904264AE7B326431E603CE0214BA3
:102700001A6801210A430224A2431A609962032233
:1027100095040668AE438D047519056040F20025E6
:10272000856205684CF20006B54344F20006AD1917
:102730000560802585611204056895430A04AA187E
:10274000026040F2001282620F4A16781D680C2265
:10275000954349050D4A1EB1082425431D600BE031
:10276000042635431D609C6206E01E432660A3627A
:1027700002E02E431E609D62036813400B4303601A
:10278000F0BDC0460004004801000020FFFFCFFF5D
:10279000FFFFF3FFFFFFFCFFF0B58DB0F3480168CA
:1027A000C56F6A1AF24F7A8193B25A093A81F24C94
:1027B0002488A34200D818E1EE4C2488A34200D319
:1027C00013E10C95ED4B00251D804368591A012635
:1027D0009142314600D829460B91F9618168C3685E
:1027E000591A9142314600D829460A913962016945
:1027F0004369591A9142314600D8294608917962B5
:102800008169C369591A9142314600D82946079116
:10281000B962016A436A591A9142314600D8294681
:102820000691F962816AC36A591A9142314600D809
:1028300029463963036B446BE31A9342334600D84D
:102840002B467B63846BC76B3C1B9442374600D896
:102850002F46C74C0997A763046C476C3C1B9442F6
:10286000374600D82F46C24C0497E763846CC76C88
:102870003C1B9442374600D82F46BD4C0397276433
:10288000046D476D3C1B9442374600D82F46B84C28
:1028900002976764846DC76D3C1B9442374600D82D
:1028A0002F46B34C0597A764046E476E3C1B9442B9
:1028B000374600D82F46AE4C0197E764846EC76E4A
:1028C0003C1B9442374600D82F46A94C00972765F9
:1028D000076F446FE41B9442374600D82F46A44C40
:1028E0006765806F0C9C201A904200D82E46A04845
:1028F00086650B98069A424004984240D0000A9A96
:102900005140039A514089000A18089843400298A0
:1029100043405D00099B079843400198C00000991F
:102920008900081879004718954C2078954909784E
:10293000014314D10C971F462C46154600F014FF96
:102940002A4625468E4C3B460C9F40B18849087963
:10295000401C0871C0B2652801D301202070B8194D
:102960005119059A534022780AB10F225040804EE7
:102970001943884236D11C367CCE7D48076B7C4893
:10298000416B7B48806B92025B02134322021A4325
:10299000EB011343B2011A437B01754E1343090146
:1029A0001943C000084334463C341ECC8D00054317
:1029B0005100294319430020D74A1080B289521C84
:1029C000B281012C02D1704A0123137030290EDB31
:1029D000727862B16D4800220270D5480180B270F1
:1029E0000DB0F0BDF089401CF0810DB0F0BD4A1E65
:1029F0002E2A06D865480170CD4800220280C8B250
:102A00000DE011B16148007809E03178012901D168
:102A1000002171705D490870C5490880B0700028B8
:102A2000E3D05B4909780029DFD1564909780029AC
:102A3000DBD0F178884202D00021B170F070052817
:102A400005D3B178491CB170C9B20629CDD3002590
:102A5000B570411E142900D982E08A0001A39A189A
:102A60009746C04600F028B800F030B800F032B801
:102A700000F034B800F036B800F072B800F036B8A4
:102A800000F03BB800F040B800F042B800F068B881
:102A900000F043B800F04BB800F054B800F060B854
:102AA00000F05EB800F05CB800F05AB800F058B81A
:102AB00000F04FB800F004B83849012008704FE02A
:102AC0003448007834490870152049E03349022021
:102AD000087045E031490320087041E02F49042087
:102AE00008703DE02D490520087039E02A48012191
:102AF000017028480570072032E0274805702548F6
:102B00000121017008202BE087480570092027E08B
:102B10008548012101700A2022E003F0BDF81D481C
:102B20000078401C1D4908701848007818E040F6ED
:102B30000060F0800121717132780D20012A0FD1DF
:102B400071700DE0757140F60060FF30F0800E206E
:102B500006E0104800780121081A0F490870142077
:102B60000A490D700E4908700DB0F0BDEC0400204C
:102B7000C0030020640000202C04002084040020F6
:102B8000540400205B04002052040020EC050020C7
:102B9000570400203E0400201A0000204F040020AB
:102BA00038070020F0B581B0FB4F03CF081A40F280
:102BB0002131411A574A083F91420CD8564D002402
:102BC0002C80F64E717841B1F178002960D1B1784E
:102BD00061B330892BE04D4D80E05349097871B1E4
:102BE00052490A8840F2E833904216D94B490C8882
:102BF00040F2D0710091511C5B1C224611E0474904
:102C00000A884849098840F2D0732F3300932F2354
:102C100002F032FC312806DA06E0424909880093C6
:102C2000002302F029FC0446346157E03081491C3E
:102C3000B1703A49098880B200F08CFD332801DB7D
:102C400074701EE0354B18880721414305CF101AD8
:102C50004018C0081880B178083F3329194611D3AD
:102C6000193881B240F2D662891ACA0F8918490808
:102C700021222B4B99540121F1702849088002F040
:102C800023FD264908883081F07838B303CF081A2D
:102C9000317940F2E832FA32904208D2491C31715F
:102CA000204A138807275F433818C0081080C8B22D
:102CB0004C2813D316481B490A88193293B2C018FE
:102CC0003330C30FC01840082023154FF8547470D8
:102CD0000A8002F0E1FF347102F0D2FC002028806B
:102CE00013480288AD4909698C1A124B1B689C4233
:102CF00001DDD11806E0541A9C4203DDD11A01808F
:102D000001B0F0BD018001B0F0BDC0467A040020E2
:102D1000DFFCFFFF76050000840400202A0000206D
:102D2000ED050020280000203F0400202C0000209A
:102D30007E040020E4000020184900220A600A688E
:102D4000824208D20A68824205D20A68824202D2CE
:102D50000A688242F3D3704770B505460F4E0020D3
:102D600030603446243C0E490122204604F069FAC2
:102D700068003168814208D23168814205D23168E9
:102D8000814202D231688142F3D34821716001222D
:102D9000204670BC08BC9E4604F053BA244801404B
:102DA00050C300000348016811B10168491E016069
:102DB0007047C046E8040020F0B5754BC93375482C
:102DC000438075490F6800252A4603E052182835CC
:102DD000782D77D070494E197168CF1B1BD1B76819
:102DE000791A21D1F168CF1B27D13769791A2DD1F2
:102DF0007169CF1B33D1B769791A39D1F169CF1B0A
:102E00003FD1376A791A45D1716ACF1B4BD1B76A66
:102E1000791ADCD050E09CB2A74201D247803B46F1
:102E2000D219B768791ADDD09CB2A14201D2418093
:102E30000B465218F168CF1BD7D09CB2A74201D2E3
:102E400047803B46D2193769791AD1D09CB2A1424A
:102E500001D241800B4652187169CF1BCBD09CB276
:102E6000A74201D247803B46D219B769791AC5D02B
:102E70009CB2A14201D241800B465218F169CF1B8E
:102E8000BFD09CB2A74201D247803B46D219376AD5
:102E9000791AB9D09CB2A14201D241800B46521896
:102EA000716ACF1BB3D09CB2A74201D247803B4688
:102EB000D219B76A791A8AD09CB2A14286D24180CF
:102EC0000B4683E75109354DA961354C217801291D
:102ED00025D1591E89B202290AD840F280718A424E
:102EE00006D20021A9712F4E31700E262C490EE01A
:102EF000191F89B2042912D840F680418A420ED2A5
:102F0000284901260E7026490E70A91D0726264F56
:102F10003E7001260E702021017024490E70244E4F
:102F2000317801290BD1C93B99B2194A91422ED26D
:102F30001C4947220A7001213170022123E02778C1
:102F40002FBB21BB591E89B2022909D840F28071DA
:102F50008A4205D20021A971124A11700E210DE09A
:102F6000191F89B20429DED840F680418A42DAD29C
:102F70000C4901220A702270AC1D07210A4A117007
:102F8000012121702021094A012313700170F0BD35
:102F9000574D000060000020EC04002020040020B9
:102FA0005D040020E00000201D0400205C040020DF
:102FB0005E0400201421414335480A5801239A43F6
:102FC0000A5070471421414331480A5801231343E2
:102FD0000B507047142141432D480A5820239A432F
:102FE0000A5070471421414329480A5820231343AB
:102FF0000B50704710B5142242432A4952185368A7
:103000000124A3435360002353609360D360136192
:1030100080000F22824008681043086010BDC0463F
:10302000B0B5142242431A4813580124A343135045
:1030300013180C689C608C68DC600C8A5C60135808
:1030400043F60074A3434C681C43CB6823434C698C
:103050001C4314500B7E5B1E5C425C41A301145860
:103060004025AC43E31813504B7E5B1E5C425C4131
:10307000E30114588025AC43E3181350897E4B1E9E
:103080009941090113581024A34359181150B0BD98
:103090000800024080008140024802680A43026042
:1030A0007047C0460400024010B50022082915D818
:1030B00001238B4040F2141423420FD082000C46AF
:1030C0009440074A136823405C1EA34114244443E0
:1030D000A01882680A40501E82411A40104610BD56
:1030E0000000024014224243014811507047C0467C
:1030F0001400024014224243014811507047C04658
:1031000010000240002181760183016041608160EE
:10311000C1600161416170470120400549490A6869
:1031200002430A607047C046F0B581B03D4E0021B1
:10313000009101243046224603F0F6FE3046214637
:10314000224603F0F1FE022730463946224603F0BC
:10315000EBFE0425304600992A4603F059FD30461F
:1031600021462A4603F054FD304639462A4603F0EC
:103170004FFD3068204330603046214604F069F846
:10318000294D2868204328602846214603F041FF46
:10319000E868A043E86025480168214301602448AD
:1031A000016821430160214603F033FF214D286867
:1031B000204328602846214603F02BFFE86820437F
:1031C000E860FEF7ADFBFFF767F940F2E830FFF784
:1031D000B3FD194D28460099224603F0A5FE286844
:1031E0002043286040F20050123002F0BBFC40F255
:1031F000005002F0B7FCFF20000610490A68824325
:10320000E007101808600E48802101600D48016831
:1032100048F200020A43026001B0F0BC01BC8646DD
:10322000FEF7E4BE002C014000440140004801408C
:1032300000100040002000400004004004E400E0D2
:1032400000E100E000040140214908607047C046E9
:1032500070B5194B1C46083C2568854325601D1F29
:103260002E6886432E601E6886431E605E68864315
:103270005E6001290FD011B9216801432160022A43
:103280000ED0C143012A0FD0A2B91A6802431A60B6
:103290005A680A400DE0296801432960022AF0D1EA
:1032A00019680143196002E01A680A401A605A68F6
:1032B00002435A6070BDC0460804014004490860DA
:1032C0007047C046024909680840411E884170475E
:1032D00014040140CA4908607047C04602480168AA
:1032E00080220A430260704710200240B0B50146B8
:1032F000C34AC44B05201C461568ED0747D0156826
:10330000ED0744D01568ED0741D01568ED073ED0B4
:103310001568ED073BD01568ED0738D01568ED0747
:1033200035D01568ED0732D01568ED072FD0156838
:10333000ED072CD01568ED0729D01568ED0726D0CC
:103340001568ED0723D01568ED0720D01568ED0747
:103350001DD01568ED071AD01568ED0717D0156850
:10336000ED0714D01568ED0711D01568ED070ED0E4
:103370001568ED070BD01568ED0708D01568ED0747
:1033800005D01568ED0702D01834B5D168E0106893
:10339000C00658D4106840080224204060D150680C
:1033A00020435060916050684021014351600520E6
:1033B0001168C90749D01168C90746D01168C90703
:1033C00043D01168C90740D01168C9073DD01168C2
:1033D000C9073AD01168C90737D01168C90734D076
:1033E0001168C90731D01168C9072ED01168C90703
:1033F0002BD01168C90728D01168C90725D01168DA
:10340000C90722D01168C9071FD01168C9071CD08D
:103410001168C90719D01168C90716D01168C90702
:1034200013D01168C90710D01168C9070DD01168F1
:10343000C9070AD01168C90707D01168C90704D0A5
:103440001833B5D109E00420B0BD1068C00603D41C
:1034500010684008204000E004205168A1435160FA
:10346000B0BDC0466C48016810220A430260704734
:103470000448C168090603D5034901600349016096
:103480007047C0460420024023016745AB89EFCD59
:1034900070B502465A4B5B4C052025461E68F60760
:1034A00047D01E68F60744D01E68F60741D01E6854
:1034B000F6073ED01E68F6073BD01E68F60738D0E8
:1034C0001E68F60735D01E68F60732D01E68F6076C
:1034D0002FD01E68F6072CD01E68F60729D01E686C
:1034E000F60726D01E68F60723D01E68F60720D000
:1034F0001E68F6071DD01E68F6071AD01E68F6076C
:1035000017D01E68F60714D01E68F60711D01E6883
:10351000F6070ED01E68F6070BD01E68F60708D017
:103520001E68F60705D01E68F60702D01835B5D11B
:1035300065E01868C00655D4186840080226304077
:103540005DD158680125284358601160052019682D
:10355000C90749D01968C90746D01968C90743D0B7
:103560001968C90740D01968C9073DD01968C9074B
:103570003AD01968C90737D01968C90734D0196813
:10358000C90731D01968C9072ED01968C9072BD0CF
:103590001968C90728D01968C90725D01968C9074B
:1035A00022D01968C9071FD01968C9071CD019682B
:1035B000C90719D01968C90716D01968C90713D0E7
:1035C0001968C90710D01968C9070DD01968C9074B
:1035D0000AD01968C90707D01968C90704D0183478
:1035E000B5D109E0042070BD1868C00603D418687E
:1035F0004008304000E004205968A943596070BD7C
:103600000C2002400000F1FF03490A6807239A4397
:1036100002430A607047C0460020024070B51C4B50
:1036200018680421014308208143196002249C6129
:1036300003210A050920C0060568954301221605E5
:10364000AD19056040F2004585621D681543A5432C
:103650001D609A618B0404689C439304E318036023
:1036600040F20023836203684CF20004A34344F257
:1036700000041B19036080238361090403688B43E2
:1036800011045918016040F20011816270BDC046FA
:1036900000040048F0B581B00090204C23460C3B5C
:1036A0001F4818601F4D01202E462768FF0711D0C4
:1036B0002768FF070ED0276807403EB137B127685B
:1036C0000740721C02D0361D002FEED117B100202A
:1036D00001B0F0BD2246083A11600221226892072B
:1036E00013D52268920710D527680F407E0845B190
:1036F0003FB127680F407E086A1C02D02D1D002FA5
:10370000ECD116B1002001B0F0BD0749009A0A4083
:10371000211F0A600749196001B0F0BD0C3000405C
:10372000555500000400F0FFFF0F00000448014958
:1037300001607047AAAA0000014802490160704771
:1037400000300040CCCC00000148012103F061BCF6
:10375000002C0140401AC1174840401A704780B5FC
:10376000FEF7C2FEC0B280BD0248016810200840CA
:103770007047C04610040048F0B588B00F23DD4301
:10378000036AD40701D02B400B430395F024E64392
:103790000F0194070297054601D533403B433C4F48
:1037A00008025407069001D53B400343394F0803F4
:1037B0001407079501D53B4003430F04D406019637
:1037C000009702D5344C23403B43344E0F059406FA
:1037D00001D533403B43324D0E065406049601D5C5
:1037E0002B40334305972F4D0F07140601D52B406F
:1037F000DB19079D6C6A2B62D30519D4069B244DF7
:1038000091051CD4234E510520D4244B254D110580
:1038100022D4D10424D40598910428D40498204BB0
:1038200051042AD411042CD40798446208B0F0BD86
:10383000039B1C400C43069B154D9105E2D5019955
:103840000C4002990C43134E5105DED52C401C430D
:10385000124B144D1105DCD534400443D104DAD5A4
:103860000D4804400098044305989104D6D51C40A7
:10387000044304980A4B5104D4D51C40044311045A
:10388000D2D52C40E4190798446208B0F0BDC04678
:10389000FFF0FFFFFF0FFFFFFFFFF0FFFFFF0FFF36
:1038A000FFFFFFF0FFFFFF0FF0B581B001261E40C4
:1038B0000324E5430468002E00D088E0C768002E8A
:1038C00000D08AE00090980700D58CE025463E465F
:1038D000580700D492E03020C04306401701374318
:1038E00005400C012C43180700D48CE0C020C043D5
:1038F000074096013E4304408D012543D80600D47D
:1039000086E0604806401702374305400C022C430E
:10391000980600D481E05C48074096023E4304408C
:103920008D02254358067CD5584806401703374377
:1039300005400C032C43180677D5554807409603DD
:103940003E4304408D032543D80572D551480640B7
:103950001704374305400C042C4398056DD54E4899
:10396000074096043E4304408D042543580568D51E
:103970004A4806401705374305400C052C431805F7
:1039800063D54748074096053E4304408D052543CF
:10399000D8045ED5434806401706374305400C0659
:1039A0002C43980459D5404D2F40900638432C4065
:1039B0008E0626435C0454D53C4D2840140704432E
:1039C0002E400D0735431804009B56D54EE02C4081
:1039D0000C43C768002E00D174E72F4017430090B6
:1039E000980700D472E70C20C043074096003E437E
:1039F00004408D002543580700D56CE72C46374618
:103A0000180700D572E725463E46D80600D578E768
:103A10002C463746980600D57DE725463E46580693
:103A200082D42C463746180687D425463E46D8050C
:103A30008CD42C463746980591D425463E465805E9
:103A400096D42C46374618059BD425463E46D804C6
:103A5000A0D42C4637469804A5D4264638465C04A4
:103A6000AAD4354604461804009B06D510480440E5
:103A70009207A418054088072D181D60DC6001B06E
:103A8000F0BDC046FFFCFFFFFFF3FFFFFFCFFFFFCE
:103A9000FF3FFFFFFFFFFCFFFFFFF3FFFFFFCFFF35
:103AA000FFFF3FFFFFFFFFFCFFFFFFF3FFFFFFCF25
:103AB000FFFFFF3FB0B5012902D14168194301E082
:103AC00041689943416084680321DD0701D08C433C
:103AD00014439D072DD50C25AC43950025435C0769
:103AE0002AD42C461D072DD42546DC0630D42C467E
:103AF0009D0634D425465C0638D42C461D063CD49D
:103B00002546DC0540D42C469D0543D425465C055E
:103B100046D42C461D0549D42546DC044CD42C46FD
:103B20009D044FD425465C0452D42C461B0459D521
:103B300054E025465C07D4D53024A54314012C431A
:103B40001D07D1D5C025AC4395012543DC06CED554
:103B500040F20034A54314022C439D06CAD540F61A
:103B60000045AC43950225435C06C6D543F20004EC
:103B7000A54314032C431D06C2D54CF20005AC43EB
:103B800095032543DC05BED50C04A54314042C4342
:103B90009D05BBD58D04AC43950425435C05B8D584
:103BA0000C05A54314052C431D05B5D58D05AC4367
:103BB00095052543DC04B2D50C06A54314062C4319
:103BC0009D04AFD58D06AC43950625435C04ACD56A
:103BD0000C07A54314072C431B0403D589078C430A
:103BE000910764188460B0BD80B562B60220FFF70B
:103BF0000BFD80BC01BC8646FFF734BCF0B585B038
:103C000040F2005740F2005001F0B6FFFF20039051
:103C10000004464B1968814303200490800508186E
:103C20001860434940F200400860FEF7BFF8414881
:103C300001F0A2FF4048414941600C46232606603E
:103C4000029640F20060123001F096FF3C4DEC62AB
:103C5000AE62284602F0BFFF284603F0D5F91137BF
:103C6000384601F089FF0920C506002702232846AF
:103C7000049C21463A46FFF717FE40F2006001F02F
:103C80007BFF2023284621463A46FFF70DFE0521FB
:103C900038463A46FEF706FC38463946FEF714FC2D
:103CA000012001904505284639463A46FFF7D0FAEB
:103CB0002846FFF703FB0C20394601F015FC40F2C3
:103CC0000060113001F058FF1E4E1C48F06202984F
:103CD000B062304602F07FFF304603F095F9134C96
:103CE000E0684FF60071884344F200014018E0603C
:103CF0000F4E35600F48001D01F03EFF1248322183
:103D0000C1624721816203990906A2688A43049926
:103D100089075118A1600199C904316003F074F951
:103D200005B0F0BC01BC864602F0E8BC08E400E047
:103D300000E100E00407000028100040FFFF000041
:103D400000480140004401400020004070B5D84CBC
:103D5000A06F7E2819D321480068214D7C2809D8FE
:103D60004420205AC0084A2804D8686880087D2862
:103D700000D270BD607F401C6077C0B2652804D35C
:103D800001F0A8FB0020686070BDC74DE87D48B118
:103D90000026FFF7E4FC697E8842EAD0761CE87DC5
:103DA0008642F6D3EFF3108072B601F093FB0B4816
:103DB00001684C22A152002101604620225A2B7D2D
:103DC000DA40225207488161521C02624160016858
:103DD00001220A43026062B670BDC0462410004052
:103DE000B80400200C440140F0B585B0AE4EF16D32
:103DF000AE4DB022284601F0DFFE687C401E4142F5
:103E00004141AB4FB970A87C401E41424141F9701D
:103E1000E87C012801D10120B871E87D042800D395
:103E20000220B071287D401E414241417170687D81
:103E3000401E41424141B170A87D401E4142414176
:103E4000F170287E014608399A4C28291DD8182877
:103E50001ED39949009118213022234601F00CFB12
:103E600040217052287E01460C390B2914D9FC21BF
:103E7000014008291DD19249009107211022914B40
:103E800001F0FAFA4021705215E08A48F08713E0F9
:103E900001460C390B29EAD800940C211822874BD3
:103EA00001F0EAFA40217052287EFC2101400829E5
:103EB000E1D04020305A84B2834918390C60687EC2
:103EC00001463239642907D8F0860321B0FBF1F0AE
:103ED00070870A30B08703E0552070879620F086FF
:103EE000E87E3072A87E2824604314303084287F16
:103EF000401E414241413971687F401E414241416B
:103F00007971022002F0F0FB6878002800D1ABE064
:103F1000A87F0B2800D9052002F0E6FB00213972AA
:103F20002320285CB073222003902A5C674BD218B0
:103F3000B2852522AA5CFA32F285202004902B5CFF
:103F40005B00634A9A1832852123EA5C520061487B
:103F500010187085E87F401E42424241FA712420C9
:103F6000285C401E42424241BA722620285C401E14
:103F700042424241FA722C5D601F142800D87473CB
:103F800029202C5C601E092800D8B4722A202C5CE1
:103F9000601EC0B208281CD84820325A0291194627
:103FA0000923DB436343383BDFB2D2193252F47248
:103FB00033730B460299687E4208D2197287C01982
:103FC000F086308FC01930873F4A10683843384F29
:103FD00010602B202C5C20464638462800D874718F
:103FE0002C202C5C601E622803D80120B87360006E
:103FF00070842D202C5C601E092800D874722E203D
:104000002D5C092D12D8042D16D83C462234A80068
:1040100001A210188746C04600F008B800F039B871
:1040200000F008B800F008B800F036B8039839542A
:10403000F954294C01202070308C82084A2A00D87B
:1040400031741121B0FBF1F1327A049BB3FBF2F22F
:10405000B1FBF2F14623F1526421B0FBF1F1B1FB67
:10406000F2F14422B15200E0308C124A40F22C119D
:10407000C831009140F22C1140F2E83301F0FCF914
:104080007086707808B105B0F0BD0020F87005B0FA
:10409000F0BD0120F854CCE70F4801700F48012211
:1040A00002703C462134C5E700000020ED050020E9
:1040B0003C040020B80B0000DC0500007017000075
:1040C0009411000028230000442C01405E050000EC
:1040D000EE020000D6060000C1030020C00300204D
:1040E00000B58BB0FFF780FDFFF788FDFFF71CF8E8
:1040F000FFF77AFEC9480068F82802D1C848C949C4
:10410000C165C94C21790F204140E2780223029316
:104110005A400A4330D020710220E070601DC3A1D4
:104120000C22FCF7EBFFBE48017861708179E175E4
:10413000C2498A78521E534253416374CA78521E50
:1041400053425341A3748979491E4A424A41E27459
:104150004178491E4A424A4122758178491E4A42A5
:104160004A416275C178491E4A424A41A275C26DF0
:10417000B021204601F0C2FD4020A94D0A90285AE6
:10418000E887AE4FB878401E411E8841A87668780F
:10419000002801D100F052FDF87A40F2E83188B1F0
:1041A000482029520020B8710121F97029746880D3
:1041B0006870688F32306887A88F3230A887E88EA1
:1041C0003230E88601F0FEFA00200590F887FDF70E
:1041D0008CFCFFF7ABFA01F017FD387808B101202D
:1041E00078730120089002F067FA22E01E4601244D
:1041F0007C723879002800D131E30A98285AA97ACC
:104200004900411813394422B95289B2EA8F4A430E
:10421000B2FBF0F1401A401C5A25785301F034FBF0
:10422000785B7F4D8649086048608860FC755C203B
:104230003E52FFF77BFA834A508A118A0818918A06
:104240004018D18A4018118B4018518B4018001D1E
:1042500040089060A87850B15020285A0A99695AAD
:1042600000914B086021C82201F006F9E887482236
:10427000B85A7549884209D3F97F002901D000F066
:104280009DFC7249884201D300F0B8FC0792388E39
:104290006F4988423BD332203E5E3046FDF7B4F989
:1042A0006C49FCF7A8FF0146386FFCF74BFF3867F5
:1042B0006948007803280BD0022819D0012824D19E
:1042C0002520395C40F2671099300843029918E0C4
:1042D0005620385A61494143090C401A4008401899
:1042E0000009C1B240F2E83018300843012108E06B
:1042F000B0B2C0B229214143C90A59482430084309
:104300000321554A11705749088000203886398F9B
:104310000122C8291346544E00D3059B49484068E2
:10432000642800D8059A4C424C4140F2E835A84236
:10433000089D00D825460DB91A4001D00022BA7652
:10434000BA79374C1AB19F2901D80022BA763A7C43
:104350003AB140F267122932914208D20021B9766F
:1043600005E0952901D8642100E00A2161743549EE
:1043700089680322069291FBF2F1B9673A7D8AB30C
:104380000B282FD32F48C068FFF7E4F9B96F40F22C
:10439000D072914222D24A0890421FD90020294A65
:1043A0005060FA7B521CFA735022A25A40F2E83352
:1043B0009A4200D901200A9ABA5A2F2A089A00D89C
:1043C00043E2FB78002B00D044E2012A01D1002017
:1043D000F87601206075E08E4008B8861948C16003
:1043E0000020387550200990235A3C7EFF20050696
:1043F00031460C390A68AA43D4B3332B38D30A6048
:1044000030681A49084044F20001084330603046E1
:10441000083801680A980143BF2034E0E00F000823
:104420000000002000F80008ED0500205248494E29
:104430004F34304120453233000000003C0400205E
:10444000342C0140B804002011270000419C0000DA
:10445000214E00000000B443C5030020AF47000018
:10446000DC050000C603002014E400E0FF00FFFFAD
:1044700001239B07D2180A603168FC4A1140316061
:104480003146083909688143304608380160B87DF3
:1044900088B1386FFDF7D2F803465620395A2520E7
:1044A000385C5C22BC5A7A8E009400F0EBFB01F081
:1044B0003FFD0020B875787D401C7875C0B2C928D2
:1044C000099E00D288E0FDF719FA5E20385AFDF700
:1044D000A7F8E74AE74BFCF77FFF00242246E64BAC
:1044E000FCF77AFFE54AE64BFCF7C4FE224604944B
:1044F000E44BFCF771FFE44AE44BFCF7D5FF22469E
:10450000E34BFCF7B7FEFDF7B3F860243853012006
:10451000FDF7B4FE385D252178547B7E5800DD49D7
:104520000A5A03924A22BA5A0A525625785B3E46E4
:10453000072747436220305AD7494843D749B0FB41
:10454000F1F0D749898E41436424B1FBF4F0C019DE
:104550003746049EC00878535B1CD9B263293546A0
:1045600000D81D467D76CF4B1968039D491B8918DD
:104570001960B1FBF4F1798789B27967C64A514372
:1045800040F23432B1FBF2F10A0400D531467986AB
:10459000B97AC34A099EE9B1797CD28D4A4380B287
:1045A000824215D9F88D401CF885397FBE4A5143A7
:1045B000BE4A891880B281420CDA00240A983C5223
:1045C000FDF7B4FE00F086FFFC87FC76FC7701E087
:1045D0000020F8850020787500237B77387F00283D
:1045E00000D1A3E00A98385A3128AD4D00D2FDE53C
:1045F000F97F002900D1F9E5882800D9FFE0787A11
:1046000070B1AB4A106801218843106000F062FF6E
:104610000024A848046044608460FDF7C3FE7C72F7
:104620004E26B85BA97E002900D1DBE1411E08B20D
:10463000002840F2671000D40846B85350217A5A37
:10464000521E13B2002B40F2671300D413467B5264
:104650005221795A4A1E11B2002940F2671100D442
:10466000114652220992B9528D4DA95B00B2400009
:10467000914A105E08180A9AA95A1446414340F21A
:10468000D07091FBF0F0697A414307960A200690BA
:1046900091FBF0F080B202F015F8A85B5021795E32
:1046A0004900854A515E4018295B2646414340F245
:1046B000D07091FBF0F0697A4143069C91FBF4F0D5
:1046C00080B202F005F80798285A0999795E4900E6
:1046D000794A515E4018A95B414340F2D07091FB8A
:1046E000F0F0697A414391FBF4F080B201F0F6FFFB
:1046F000B85B40F2E831BE3989B22A7AB1FBF2F1F7
:1047000000916E49B1FBF2F33021782200F0B4FE43
:104710004C24285380B2FEF70FFB285B40F2671150
:10472000F131B1FBF0F05C21785282E55D488068A0
:10473000634991FBF0F0F97E41435C20395288B225
:1047400060494843C00C64217852554D297C61B1C1
:1047500007996B5A46216A5A4421695A4A242C5BAC
:10476000009400F089FE422168522520385C6A7965
:1047700090420BD94A21695A012300934B081146F4
:104780000A390A3200F078FE422168525024454826
:10479000406863280AD8295B40F267108D30814257
:1047A00004D90C20484A32290DD30DE0B86F0C21F2
:1047B00000916421022340F2F41200F05DFE295BB7
:1047C000414A322900D20120E87510683F498842E9
:1047D00000D22EE5F87E012800D02AE5B87E401CE4
:1047E000B87600F077FE2B460120079068750A988E
:1047F000385A30286ED20020F87635486BE0012018
:10480000079078724E24385BA97E0029049300D16A
:1048100007E1411E08B2002840F2671000D40846A4
:104820003853B95B491E0AB2002A40F2671200D41D
:104830000A46BA535221795A4A1E11B2002940F24F
:10484000671100D50EE111460CE10246FB78002B02
:1048500000D1BAE50246012A00D1B8E5B9E515480C
:10486000066046608660FDF761FDE0E4FF00FFFF43
:104870006666666666660AC00000303FE17A14AE7E
:1048800047E1F63F00408F40333333333333114039
:10489000000039403A070020E40C0000FF0F000040
:1048A00000000020B80400207CFCFFFF204E000028
:1048B0000C440140342C0140EA000020581B000049
:1048C000C0270900CDCC000024100040C9AF000073
:1048D00088130000185B25460024E44E7460E04E07
:1048E00031684C22B952069A424388B210188008A7
:1048F00009955853346080B2197EB0FBF1F140083D
:10490000401A4622B852B98780B2D8494968052969
:1049100013D23168D4490862CE4A907F917E012932
:10492000079D17D1401C9077C1B2072903D33D756D
:10493000C84885772846284016E031688142E9D288
:1049400031688142E6D231688142E3D231688142E6
:10495000F3D3DFE7411E9177080603D13D750621A9
:10496000BC48817728468843BA494876EFF31080DF
:1049700072B6F87D18B9B748807FFDF7BDFD62B605
:10498000FDF756FDB86F40F2D071884201D9B148A9
:10499000457523203C5424203C54BC77B34B5868C5
:1049A000411C5960AB4D0998285AAA7F5200D21871
:1049B000D081FA7A531E9A417B79002B089B00D153
:1049C0001346012B06D1142900D232E4AC498842A7
:1049D00004D32EE4A049884200D32AE46C75FEF784
:1049E0009BFB26E4421C10B2002140F26713984260
:1049F000084600DC1046B8535022BB5A5B1C1DB25F
:104A000040F26714A5420D4600DC1D46BD525222FD
:104A1000BA5A521C13B240F26714A34200DC1FE6DC
:104A20001FE6411C08B240F267129042184600DCB3
:104A300008462646385350217A5A521C13B240F287
:104A40006714A342049C234600DC13467B52522188
:104A5000795A4A1C11B240F267139942214600DC90
:104A60001146344652220692B952295B00B24000E8
:104A7000824A105E08180A99695A414340F2D07080
:104A800091FBF0F0697A41430A2691FBF6F080B27F
:104A900001F018FE285B0999795E4900774A515E5A
:104AA00040180A99695A414340F2D07091FBF0F0E6
:104AB000697A414391FBF6F080B201F009FE03945C
:104AC000285B0699795E49006C4A515E40180A9C41
:104AD000295B414340F2D07091FBF0F0697A414389
:104AE00091FBF6F080B201F0F9FD385BC8280CD9D3
:104AF0004C20099C2C520498039EB8532046FEF784
:104B00001BF9B85B60B1FFF794FB4C20285A099C55
:104B1000039EFEF711F9B85B002801D0FFF789FB6F
:104B20004E4828530799F976049B3B776975B86717
:104B30004E4AD0604A4908601E46FB7514205060FA
:104B4000787908B1A88FB886A87DA97E01290AD1F5
:104B5000401CA877C1B2072902D307983875A877F7
:104B60000799084009E0411EA977080603D1079874
:104B700038750621A977079888436876EFF3108087
:104B800072B6F87D10B9A87FFDF7B6FC62B6FDF7E6
:104B90004FFCB86F40F2D071884201D90798687510
:104BA00023203E5424203E54285BA97F49002F4AED
:104BB0008918C881FEF7C8FDFFF73BFBFDF7B6FB80
:104BC0002020002139540A983952F977254801608C
:104BD0004160F987816001F057F8254840F20011E3
:104BE000FCF7A5FABFF34F8F224823490160BFF3BA
:104BF0004F8F00BF00BF00BF00BFFAE7FDF796FB75
:104C00002020002139540A983952F977154801605B
:104C10004160F987816001F037F8154840F20011D2
:104C2000FCF785FABFF34F8F124813490160BFF3B9
:104C30004F8F00BF00BF00BF00BFFAE70020B87170
:104C4000F87A40F2E831002801D0FFF7A9FAFFF71F
:104C5000B9FAC04600000020DC050000282300004F
:104C600024100040342C01400C440140B8040020C2
:104C7000EC0400200CED00E00400FA05EA0000203E
:104C8000D1070000F0B583B0EF4C089D2572A371E9
:104C90002271A170207002952D0A0195E571009393
:104CA0001B0A6371170AE7700E0A66704400072535
:104CB00040B2002800D571E1600064B2002C00D53C
:104CC00072E1440040B2002800D573E1600064B294
:104CD000002C00D574E1440040B2002800D575E1F5
:104CE000600064B2002C00D576E1440040B2002898
:104CF00000D577E1600064B2002C00D568407040B8
:104D0000440040B2002800D573E1600064B2002C7A
:104D100000D574E1440040B2002800D575E1600080
:104D200064B2002C00D576E1440040B2002800D5E2
:104D300077E1600064B2002C00D578E1440040B215
:104D4000002800D579E1600064B2002C00D56840ED
:104D50004840410040B2002800D577E1480049B200
:104D6000002900D578E1410040B2002800D579E162
:104D7000480049B2002900D57AE1410040B200283C
:104D800000D57BE1480049B2002900D57CE1410013
:104D900040B2002800D57DE1480049B2002900D585
:104DA00068404740780079B2002900D579E1410098
:104DB00040B2002800D57AE1480049B2002900D568
:104DC0007BE1410040B2002800D57CE1480049B2B7
:104DD000002900D57DE1410040B2002800D57EE1E8
:104DE000480049B2002900D57FE1410040B20028C7
:104DF00000D569404A40500051B2002900D57BE1FE
:104E0000410040B2002800D57CE1480049B20029A9
:104E100000D57DE1410040B2002800D57EE1480088
:104E200049B2002900D57FE1410040B2002800D5F9
:104E300080E1480049B2002900D581E1410040B23B
:104E4000002800D569404B40580059B2002900D5D0
:104E50007DE1410040B2002800D57EE1480049B222
:104E6000002900D57FE1410040B2002800D580E153
:104E7000480049B2002900D581E1410040B2002834
:104E800000D582E1480049B2002900D583E1410004
:104E900040B2002800D56940009A4A40500051B203
:104EA000002900D57EE1410040B2002800D57FE115
:104EB000480049B2002900D580E1410040B20028F5
:104EC00000D581E1480049B2002900D582E14100C6
:104ED00040B2002800D583E1480049B2002900D53E
:104EE00084E1410040B2002800D56940019A4A405F
:104EF000500051B2002900D57FE1410040B20028A6
:104F000000D580E1480049B2002900D581E1410087
:104F100040B2002800D582E1480049B2002900D5FE
:104F200083E1410040B2002800D584E1480049B245
:104F3000002900D585E1410040B2002800D5694034
:104F4000029A4A40500051B2002900D580E1410048
:104F500040B2002800D581E1480049B2002900D5BF
:104F600082E1410040B2002800D583E1480049B207
:104F7000002900D584E1410040B2002800D585E138
:104F8000480049B2002900D586E1410040B200281E
:104F900000D587E1C648417203B0F0BD6C406000A7
:104FA00064B2002C00D48CE66840440040B2002873
:104FB00000D48BE66C40600064B2002C00D48AE61A
:104FC0006840440040B2002800D489E66C4060008C
:104FD00064B2002C00D488E66840440040B2002847
:104FE00000D487E66C40600064B2002C00D585E6F2
:104FF00085E66C40600064B2002C00D48AE668400C
:10500000440040B2002800D489E66C40600064B2DD
:10501000002C00D488E66840440040B2002800D448
:1050200087E66C40600064B2002C00D486E66840DD
:10503000440040B2002800D485E66C40600064B2B1
:10504000002C00D583E683E6DA040020694048009E
:1050500049B2002900D486E66840410040B20028E9
:1050600000D485E66940480049B2002900D484E6AE
:105070006840410040B2002800D483E669404800FF
:1050800049B2002900D482E66840410040B20028BD
:1050900000D481E66940480049B2002900D57FE686
:1050A0007FE66840410040B2002800D484E66940B1
:1050B000480049B2002900D483E66840410040B26C
:1050C000002800D482E66940480049B2002900D493
:1050D00081E66840410040B2002800D480E6694083
:1050E000480049B2002900D47FE66840410040B240
:1050F000002800D57DE67DE66840410040B20028EA
:1051000000D482E66940480049B2002900D481E613
:105110006840410040B2002800D480E66940480061
:1051200049B2002900D47FE66840410040B200281F
:1051300000D47EE66940480049B2002900D47DE6EB
:105140006840410040B2002800D57BE67BE668401D
:10515000410040B2002800D480E66940480049B2CE
:10516000002900D47FE66840410040B2002800D406
:105170007EE66940480049B2002900D47DE66840D7
:10518000410040B2002800D47CE66940480049B2A2
:10519000002900D47BE66840410040B2002800D5D9
:1051A00079E679E66840410040B2002800D47FE605
:1051B0006940480049B2002900D47EE668404100B9
:1051C00040B2002800D47DE66940480049B2002979
:1051D00000D47CE66840410040B2002800D47BE661
:1051E0006940480049B2002900D47AE6684041008D
:1051F00040B2002800D578E678E66840410040B229
:10520000002800D47EE66940480049B2002900D455
:105210007DE66840410040B2002800D47CE6694049
:10522000480049B2002900D47BE66840410040B202
:10523000002800D47AE66940480049B2002900D429
:1052400079E66840410040B2002800D577E677E66D
:105250006840410040B2002800D47DE66940480023
:1052600049B2002900D47CE66840410040B20028E1
:1052700000D47BE66940480049B2002900D47AE6B0
:105280006840410040B2002800D479E669404800F7
:1052900049B2002900D478E66840410040B20028B5
:1052A00000D477E669400248417203B0F0BDC046C1
:1052B000DA040020F0B584B0694BDD8815B1002018
:1052C000D88014E06749097801B96748C10B09D152
:1052D0004CF20001014044F20002914200D091E002
:1052E000062100E007211961C8404D0205435F48CF
:1052F0000078800002905E490C1880236360290AC0
:105300005C48405C0190C20018469043A0602F09A1
:10531000794069400F2603968E4329018919504A26
:10532000516101990A011A404240E260C8030090AD
:10533000039807404F49C85D0F46019081020098CD
:10534000014303980540785D3D46039047010F43B4
:10535000AE5D3D46354342488561880A184050405D
:1053600020614A0A1A4042406261080A18405040CF
:10537000A061019AD10019404140E16112011A4037
:105380004A4022627F20C0430240790919405140BF
:1053900061623A091A404A40A262F9081940514034
:1053A000E162039FFA001A404A4022633901194022
:1053B000514061632A461A404A40A2630240690094
:1053C00019405140E163AA001A404A40226400217A
:1053D000274D029FE951F1001940514061643201AB
:1053E0001A404A40A264710119405140E164B2017F
:1053F0001A404A4022650240F001C0B25040606548
:1054000004B0F0BD4EF20001014042F200029142B0
:1054100001D1052167E74FF20001014041F200028E
:10542000914201D104215EE74FF60001014040F6B0
:105430000002914201D1032155E74FF6004101409E
:1054400040F20042914201D102214CE74FF6006147
:10545000014040F200228A1A5142514143E7C046BE
:10546000C003002057040020FFFF00001D0400209F
:10547000A0060020F8750008F0B5059C88421EDDE6
:105480000F461D46264682421EDD1346974210DC1B
:10549000B5421BD071194C10D9194A10974217D038
:1054A0008242EFDA511C1A46234634468142E7DB3A
:1054B00005E019463A4633462C468142E0DB8242FB
:1054C00000DC23461846F0BD3046F0BD2846F0BD4E
:1054D0002046F0BD0120400502490A6882430A6067
:1054E0004861704700040140B0B542B2002A05D4BB
:1054F000032314469C43104BE31803E00C23134092
:105500000C4C1B199407E40E8907090EA140FF25D6
:10551000A5401C68AC430C431C60002A09D41F2121
:10552000014001228A40C0080449401803218843F1
:105530000260B0BD14ED00E000E400E000E100E036
:10554000034A0A40024303480260BFF34F8F70478B
:1055500080FFFF1F08ED00E0F0B581B0B74DB848FF
:105560006860EFF3108072B6B6480078E860286192
:105570006861792614270A24B61EFEF7D7F8B6FB11
:10558000F7F0FCF7B9FF70080A3028602046FDF7F5
:10559000E3FB022EF0D8FCF7C9FE00202860AA49E0
:1055A0000880AA480088686062B601B0F0BDC046B5
:1055B000F0B581B00320FCF79FFF00253227A24EF3
:1055C000009503E06D1CBF1CAE2F41D2FEF7AEF874
:1055D000009830802648C1198878FF28F2D0C97811
:1055E00039B30A22954C2260F7224A4340F6A07153
:1055F0005118204AB2FBF1F11F4AB2FBF1F262608E
:10560000904B1B7853438E4AB3FBF2F2E260226167
:105610006261EAB2FE2353431818184AB2FBF1F153
:1056200041436420B1FBF0F080B2FDF795FB00250B
:10563000C9E7344600268149CE600E614E61E9B269
:10564000FE224A431018FDF787FB35462646BAE787
:10565000FCF76CFE00207949086030807B480088A8
:10566000486001B0F0BC01BC8646FEF75FB8C0469A
:10567000ED0500208096980000DD6D00A0860100F9
:10568000B0B56E4D6E486860282028606D4800787F
:10569000E860286168610220FCF72EFF962420460E
:1056A000FDF75AFBFEF742F8502028602046FDF730
:1056B00053FBFCF73BFE00202860634908806348E9
:1056C00000886860B0BDC046B0B55C4D5C4868609D
:1056D000322028605B480078E86028616861022019
:1056E000FCF70AFF96242046FDF736FBFEF71EF86E
:1056F0001E2028602046FDF72FFBFCF717FE002038
:10570000286051490880514800886860B0BDC04693
:10571000B0B5EFF3108072B6484D49486860FEF7A7
:1057200005F85020286047480078E86028616861E3
:105730000320FCF7E1FE64242046FDF70DFB462024
:1057400028602046FDF708FB282028602046FDF74A
:1057500003FBFCF7EBFD002028603B4908803B4839
:105760000088686062B6B0BDB0B5344D344868603A
:10577000EFF3108072B6FDF7D9FF3C202860314866
:105780000078E860286168610120FCF7B5FE4B24D1
:105790002046FDF7E1FA502028602046FDF7DCFAAC
:1057A0005A202860FDF7C2FF2046FDF7D5FAFCF726
:1057B000BDFD0020286024490880244800886860D6
:1057C00062B6B0BDB0B5EFF3108072B61A4800688B
:1057D0003021405C194DFF2802D0FFF7E9FE25E09B
:1057E0001748686017480078E860286168610320FE
:1057F000FCF782FE37202860C8242046FDF7ACFA6B
:105800000520FCF779FE282028602046FDF7A4FA41
:105810000620FCF771FE192028602046FDF79CFA4F
:10582000FCF784FD084800210180296007480088B2
:10583000686062B6B0BDC0465C000020282C014004
:10584000B80B0000E4040020840400204000002085
:1058500010B50B4C607802280AD0012803D1FCF760
:105860009BFF0020607010BC01BC864600F086BB28
:1058700004480089FFF71EFD0020607010BDC0467F
:105880003C040020B804002010B5032211050920B3
:10589000C00603688B4301210C051B19036040F20D
:1058A00000438362930404689C438B04E318036001
:1058B00040F2002383621204036893430A049A1897
:1058C000026040F2001282620A4A136808241C43F4
:1058D00004239C431460136802241C438C4314600B
:1058E00001684CF20002914348F2000289180160FD
:1058F00010BDC0460004004810B531490A462C3A94
:1059000013684CF20004A34313600B682D4C1C4039
:105910000C60092852D8830001A4E3189F46C046B2
:1059200000F012B800F015B800F01DB800F01EB875
:1059300000F01FB800F021B800F023B800F025B83F
:1059400000F032B800F025B8012000040A68824354
:1059500003E0012000040A6802430A60086840F27C
:105960000012904329E01068106022E01068106077
:1059700014E0106844F2000319E0106844F20003D8
:105980000AE0106848F2000311E0106848F20003D2
:1059900002E010684CF20003034313600120C007CB
:1059A0000A6802430A6004E010684CF200030343F3
:1059B00013600A6840F200101043086010BDC04632
:1059C00030100240FFFEFE7FF0B581B001465B4A19
:1059D00010680C2404405A4B082C1C461BD110683C
:1059E0008002000F0F2804D0841C15682D0104D4F8
:1059F00005E0102415682D0101D51130044610680A
:105A0000C00301D44F4805E0906A0F250540681C8B
:105A1000B3FBF0F04443156813681068052920D8DB
:105A200000932D062D0F48A77F5D2546FD4080047D
:105A3000400F494F3B5C2846D8408B0001A6F31825
:105A40009F46C04600F00AB800F00EB800F00FB84C
:105A500000F033B800F013B800F01AB8204601B0D7
:105A6000F0BD002001B0F0BD284601B0F0BD0098A7
:105A70004005400F385CC540284601B0F0BDD16AF2
:105A8000C9051CD4D06AC0032FD5354801B0F0BD7C
:105A9000D16A890711D0D06A032108400128204625
:105AA0000BD0D36A0B4048F20000022B05D0D06A1D
:105AB00008400328224800D0002001B0F0BD136840
:105AC000D16A1A04920F930001A4E3189F46C046BE
:105AD00000F006B800F00CB800F00FB800F014B8F1
:105AE000002916D4400801B0F0BD1C4801B0F0BD3B
:105AF000002913D4800801B0F0BD002913D4062179
:105B0000B0FBF1F001B0F0BD002911D4C00801B024
:105B1000F0BD0320B5FBF0F001B0F0BD0520B5FBF2
:105B2000F0F001B0F0BD0720B5FBF0F001B0F0BD22
:105B30000920B5FBF0F001B0F0BDC04604100240F2
:105B400000127A0000093D00000000000000000083
:105B50000102030406070809F0750008809FD500BC
:105B6000003FAB011F21014001228A4080091149F9
:105B700043589343435070471F21014001228A40FC
:105B800080090C4943581343435070471F2101407B
:105B900001228A4080090749435893434350704784
:105BA0001F21014001228A408009024943581343C2
:105BB0004350704700100240F0B5012A23DB032454
:105BC00013462340551E032D01D200240EE0A243AC
:105BD00000240D5D055505190E1977786F70B7789B
:105BE000AF70F678EE70241DA242F2D15BB1625C18
:105BF0000255012B07D0621C555C8554022B02D044
:105C0000A21C515C8154F0BD70B5C24801680222EB
:105C100011430160016891430160BF480246083AA0
:105C2000012111600A220260124A12788260124A2F
:105C3000C26002460C3A13680B43136000224260B4
:105C4000B74B0E4CDC600E4C24785C600446143C70
:105C5000256840F200262E43266004680C43046049
:105C6000203804680C430460AF480270054818608F
:105C700070BDC046E0000020FFFF0000EC040020E3
:105C8000600000208B090000024800214160016093
:105C90007047C0462404004090B415490A7815485E
:105CA00042708A79C275144A93785B1E5C425C41EB
:105CB0004474D3785B1E5C425C4184749279521EBA
:105CC00053425341C3744A78521E534253410375A1
:105CD0008A78521E534253414375CA78521E53422A
:105CE00053418375CA6DB02190BC00F007B8C0461F
:105CF00000000020ED0500203C040020F0B503AFBB
:105D00008BB06E46F51D1D3532620C46F061C8172A
:105D1000800F0B180320194670618143C91D0722AB
:105D200091436A46501A99108546B0613161FBF77C
:105D3000FEF9042C346A00DA81E03169084673699F
:105D40001840F060481E0328B56001D2002138E0F9
:105D50009943716100231946F569E818C278120663
:105D600084782404A218447824021219EC5C1219D5
:105D7000B569EA50C279120684792404A2184479DC
:105D80002402121904791419EA185460C47A2406FA
:105D9000857A2D042C19457A2D026419057A641927
:105DA0009460C47B2406857B2D042C19457B2D0231
:105DB0006419007B2018D0601033091D7069884277
:105DC000CAD1F0680028B568346AF06937D0890014
:105DD0004018C278120683781B049A18F369407839
:105DE000000210185A5C8018B2695050F0680128FF
:105DF00025D0081D70601A18D3781B06736193783C
:105E00001B0470691B18527812029A18F3697068A3
:105E10001B5CD218B3691A50F369F06802280ED0DF
:105E200008315818C278120683781B049A184078F3
:105E300000021018F269525C8018B2695050306943
:105E40006860FDF715FBA00502D12046FDF74EFA6C
:105E500000202860286869688842B36918D2342015
:105E6000F0612868296889005958800000192C467B
:105E70001D46FDF70DFBF069FDF72CFA2B46254674
:105E8000346A2868401C2860286869688842E8D31A
:105E9000FC1F053CA546F0BC01BC8646FDF71EBABA
:105EA000B0B51C48016802221143016001689143AA
:105EB000016019480146083960220A600321016027
:105EC0001649097881606421C16002460C3A136862
:105ED00001210B431360124B124ADA60124A5478C4
:105EE00017345C60114C1C600346143B1C6840F284
:105EF000002525431D6003680B430360436A48F295
:105F000000041C4344621170203802680A43026096
:105F1000B0BDC046101002402004004026040020FE
:105F200044000240A00600201C0400209B09000041
:105F3000B0B50F4C0021204601F098FA0821204608
:105F400001F09CFA01252846FDF734F8094800784D
:105F5000094908608021204601F072FA2846FDF7C1
:105F600031F804212046B0BC04BC964601F07EBA4C
:105F700000380140E800002020000240F0B587B062
:105F8000F84EF07828B12124305D28B14220305AF3
:105F90002BE14220305AAAE142200690305AF449BF
:105FA0008B7B590040F2E83289180125EF43F27AE1
:105FB000BAB18142059555D2ED4A927EB578AA4292
:105FC00040D101250495F575002503953587357B6E
:105FD000002D46D0039BF375049B9A1AE44B9A76E6
:105FE00032E0814200D392E0E14A927EB3789A4255
:105FF00000D081E00494307F431E98414423F35A3B
:10600000C82B05952B4600D303465024D84D2C5B56
:106010006D8EAC4200D80346012B069D67D1D54852
:10602000002444600120D2494875801A8876FFF721
:1060300051FAB474705BCE49897B490040F2E83272
:10604000891857E0F27D62B900223273CA4A009281
:106050002F3A2F23FFF710FA30870698305AC44999
:106060008B7B059D5F4340F2E8317A1840F2E837B8
:10607000824222D90494B17801256F1ABC4CA47EC7
:10608000A74208D1F57500253587347B8CB1F575AD
:10609000B74B997601E0F17D59B9002131732F2377
:1060A0000093B54BFFF7E8F930870698305AB049AE
:1060B0008B7B049C059D40F2E8375900CA19824247
:1060C00004D30022791A814204D904E00122791A0A
:1060D000814200D81546002D00D082E00021318792
:1060E000F27D002A7DD001223273F17579E040F211
:1060F000E8307053049C059D9F4A00922F3A2F234D
:10610000FFF7BAF930870698305A99498B7B3946A0
:10611000594340F2E8328A18824236D903970494F0
:10612000B3780127F91A924CA47EA14238D1019785
:106130000293307F411E88414421715AC829059538
:10614000294600D301465024894D2C5B6D8EAC420C
:10615000019B039F00D801460129069D029921D188
:10616000834881764375834800244460FFF7B2F981
:10617000B474705B7E49897B4F4340F2E8317A18F2
:1061800040F2E837049C059D13E040F2E8375900DF
:10619000CA1982421CD20122791A81421CD91CE000
:1061A000049C04E040F2E8307053049C059D40F2EA
:1061B000E8372F21009100216F4BFFF75DF9308701
:1061C0000698305A6A498B7B5900CA198242E2D339
:1061D0000022791A814200D8154615B90021B17400
:1061E0003187315D002900D182E040F2E83340F28E
:1061F000E8312F3188423AD95D4DA97EB27891427B
:106200002ED1307F421E90415022AA5A6C8E01231B
:106210000027A2421A4614D94424345BC82C15D254
:106220001A400243012A16D152480024446001203A
:106230006875401AA876FFF74DF9B4744220305AB9
:106240000CE03A464424345BC82CE9D33B461A4060
:106250000243012AE8D042210020705240F2E83384
:10626000A97C4200511A40F60102891A3187014681
:10627000303989B2994236D2B1780122531A3C4C56
:10628000A57EAB422AD1307F431E98415023E35A6A
:10629000678E0025BB42134613D94427F75BC82FEE
:1062A00014D213400343012B15D1A1760120607550
:1062B000304800254560FFF70DF9B5744220305A8B
:1062C0000CE02B464427F75BC82FEAD32A4613403D
:1062D0000343012BE9D0422100207052A17C4200EF
:1062E000511A313931872F2802D80020B0743087F5
:1062F000E54F787CB17E81420BD9F87848B1FCF744
:1063000015F8FFF7E7F84020002131526620B076FB
:1063100066E0B07930B1308F1D2825D840210022A9
:1063200072524FE0707B002857D0307830B3796DCF
:10633000BB6D308F00912F21D44AFFF79DF8D549CE
:1063400091FBF0F0397A490890FBF1F0B085308F7D
:106350002E2813D8402000213152D1480160B16667
:106360003EE0C0463C0400201E281DD11E2029E02E
:1063700000000020B8040020FF070000B46EC64DE6
:1063800020462946FBF716F90028204600D128466A
:10639000FBF754F940257053C0492046FBF718F924
:1063A000F0B9302070531BE0797B14224A438242BB
:1063B00008D9A02100911E212F23FFF75DF840216D
:1063C0007052308F7A7B14215143814208D8AF4AF2
:1063D0000092A023FFF750F800E0308F4021705268
:1063E000307F08B107B0F0BD4025705BB179502413
:1063F00022464A432F3282426BD8F07F002868D071
:10640000F07EA24A00284DD1FBF790FF787D00284E
:1064100042D1F07E00283DD1B87FB97E01290AD152
:10642000401CB877C1B2072902D301203075B87774
:106430000121014009E0401EB877010603D1012087
:1064400030750620B877012181437976EFF310800B
:1064500072B6F07D10B9B87FFCF74EF862B6FBF764
:10646000E7FF8A482F38B16F814201D90120787542
:1064700023200021315424203154385B8949395379
:10648000B97F894A894B13600122F2764900804A1C
:106490008918C881FCF740FE0120F076F88EB0869E
:1064A000B1797A4A304626462C46405B7B8F1546AA
:1064B0002F3A009209B1892100E02F212A46254672
:1064C0003446704EFEF7D8FFF086F07A08B9002007
:1064D000F075705BB17961432F3181425ED9F07CF8
:1064E00005281AD8810001A251188F4600F017B86C
:1064F00000F008B800F009B800F00AB800F00BB8D6
:1065000000F000B8FFF7E0F807E0FFF7B9F804E0A3
:10651000FFF722F801E0FFF727F90020F074787800
:10652000C8B1F07E002873D0574A907F3C21414388
:10653000D08C40183C3801B240F26712914202DD23
:1065400040F26811401A4E21705202B25949782A1D
:1065500010DCEF2310E00020F086F17E002975D1D9
:106560004B49486001207875307900286AD0FDF7E2
:1065700055F86BE00B46EF331B185227F353F02A04
:1065800001DC772100E077313F4F08183053B079B4
:10659000012801D1012030770020F086F07D00280D
:1065A00000D01FE7755B2F2D10D370792821C140D3
:1065B00037484068884209D2F98EF08E884201D26D
:1065C000F1860846398F884200D9F1864220394643
:1065D000385AF78E874201D9F0860746B07B28B13A
:1065E0003020085E874201DD87B2F786F46E002115
:1065F0002046FAF7D1FF002800D0F3E6302D00D274
:10660000F0E62046FBF71AF83818F08607B0F0BD20
:106610001F480021416001271B484775B177307939
:1066200068B1B079002800D07EE71748807A400032
:106630001F494018F084FFF727F9F77574E7FBF757
:1066400075FE71E7F07D08B9FBF770FEF07DF17A19
:106650000029A4D00028A2D04220315A40F2E834C8
:1066600040F2E830FDF776F80019F08480B2795BEB
:10667000491E814202DDFFF707F98FE7FCF7CEFFE5
:106680008CE7C0463C04002000000020FF0700000B
:10669000B80400200087930300E0FF44000040425C
:1066A000680000201027000024100040881300001C
:1066B000BC07000098FEFFFF404802210122102382
:1066C000FDF7F2B8014908607047C046342C01401C
:1066D000014908607047C046382C014001490860F4
:1066E0007047C0463C2C01400B2800D30B204000D3
:1066F000014908707047C046E4040020F0B587B037
:1067000040F200501230FFF737FA40F20050FFF726
:1067100033FA2948FFF730FA01242046FCF76AFCD7
:10672000264F00264025384631462A46FDF724F8F4
:106730000221384632462B46FDF7B6F83846314638
:1067400022462B46FDF7B6F96F463846FCF7DAFCD1
:10675000BC7640F200103883194802900396194D18
:106760002846283000900596019617480078049036
:1067700020463946FCF754FC2046FCF72BFC8021D0
:10678000284600F05DFE2046FCF71CFC284600F081
:1067900064FEE1204102284600F024FE0421284640
:1067A00000F064FE0821284600F068FE284600F04C
:1067B0004FFE07B0F0BDC0460E06000000040048C2
:1067C000DA04002000380140E8000020F0B583B072
:1067D000E94FF88E4426B853388E401C3886388DE1
:1067E000401C3885788D401C7885F87FE0BB787C2C
:1067F000D0BB2020395CB9B3398F19B154200021A6
:10680000395231E054217A5A521C7A5292B2E74BF3
:106810009A4229D3FA8F1F2A1BD30120F877B87A1E
:10682000D8B15620385A40F27211B0FBF1F17974A8
:106830004008B92813D300256424FEF769FF2046D9
:10684000FCF78AFAFCF772FF6D1C787C8542F4D362
:1068500005E000227A523A5406E0FEF759FF222062
:10686000385C08B90020F872F87970B15820395AAC
:10687000491C3952CE4A12791423534389B28B42B0
:1068800003D2002139520120B875387F002800D08A
:1068900085E1C74D687DD8B3F87EC8B3FEF71AFE10
:1068A000FCF75DFF697E69B168B1B87F401CB877BD
:1068B000EA7EC0B2904211D82320385C40BB24202D
:1068C000385C12E018B12420385C401C07E0B87F27
:1068D000401CB877EA7EC0B290420BD90020242237
:1068E000B8542322BA5C9AB949B1297FC0B2884210
:1068F00009D80DE02320385C50B92420385C697F2A
:10690000C0B2884204D923200121395400F0BEFDD1
:10691000788D152800D2D9E0002000907885F97E86
:10692000B87B002801913FD0F1B33220385E63215B
:10693000C9436A8C4A4310189E4988620A6C831ABC
:106940000C6B4A6B8D6B5A43CA63086444436319EA
:106950008C6CA34200DB23466442A34200DC234646
:106960008B63D218CB6A58431018CA6C9042904D72
:1069700000DB10465242904200DC10464864FAF7B1
:1069800043FE8D49FAF737FCFAF758FE298E091AAB
:106990000AB2688F824200DB084602B2E98F8A425F
:1069A00000DC01462986019902967879002841D0B9
:1069B00000293FD05020285AA98C401A7D490865EB
:1069C0008A6E831A8C6DCA6D0D6E5A434A6688664C
:1069D000444363190C6FA34200DB23466442A34285
:1069E00000DC23460B66D2184B6D584310184A6FD3
:1069F000904200DB10465242904200DC1046C866CE
:106A0000FAF702FE6C49FAF7F6FB0146F86EFAF760
:106A100099FB0646694D2946FAF7E8FD00B9354667
:106A2000FD66002628463146FAF7E0FD604D0199E3
:106A300000B9FE66787B0028029E47D0002945D029
:106A4000B88D5F498968081A5A4C2060A169421ABA
:106A5000A368E168256951436161A06143435A1904
:106A6000236A9A4200DB1A465B429A4200DC1A46CD
:106A700022618918626850430818616A884200DB05
:106A800008464942884200DC0846E061FAF7BCFD4E
:106A90004949FAF7B0FB0146B86EFAF753FB0646D0
:106AA000484D2946FAF7A2FD00B935462846009E12
:106AB0003146FAF77FFD00B92E46BE664048406871
:106AC0006328029E3A4D01D800202061E87B58B32C
:106AD000B86F40F2F411884201D8142200E0052278
