:020000040800F2
:10100000080C0020E1100008011B0008E91A000884
:1010100000000000000000000000000000000000D0
:10102000000000000000000000000000DD1B0008C0
:101030000000000000000000031B0008DF1B000888
:10104000F3100008F3100008F3100008F310000874
:10105000F3100008F3100008F3100008D51A000878
:1010600000000000F3100008F3100008111A000837
:10107000DB180008F3100008F3100008000000005F
:10108000E51F0008F310000800000000951F00088D
:10109000AD1F0008B91F0008F3100008F310000886
:1010A000F3100008F3100008F3100008F310000814
:1010B000C120000800000000000000000000000047
:1010C000F310000800000000F310000803488546F4
:1010D00000F0C6FB00480047D1400008080C002083
:1010E0000448804704480047FEE7FEE7FEE7FEE7C6
:1010F000FEE7FEE7E51B0008CD10000803460B43A2
:101100009B0703D009E008C9121F08C0042AFAD2BD
:1011100003E00B780370401C491C521EF9D2704743
:10112000D2B201E00270401C491EFBD2704700227F
:10113000F6E710B513460A4604461946FFF7F0FFD6
:10114000204610BDF8B502464A40D40F42004B007D
:1011500052085B089A4202D20246084611464A00EB
:1011600023D0C30D4A00DDB2120EAD1A202D35DAA0
:1011700049020126490AF6058A19002C00D052427C
:1011800020214F1B1146B9402A411018C20D9A4226
:1011900021D0002C17D0012D08DCDA05801AD20FDF
:1011A0008019D207DBB200F0C3FAF8BDDA05801A65
:1011B000012340001B06C01880185A428018CA0F2D
:1011C0001043490007E04908C2071143DA05801AB5
:1011D00080194008801800F0A3FAF8BD61000122D0
:1011E000511A001BF7E70122D2075140AAE701225A
:1011F000D2075040A6E770B502464A40D50F4000DE
:101200004A00ED0740085208002814D0002A12D0E6
:10121000C40DD30D41020120C0055202490A520AF1
:10122000E41A091812187D34914201D3641C00E0BD
:101230004900002C01DA002070BD0023914201D347
:10124000891A0343400849000028F7D100290AD031
:10125000914202D10121C90705E0914201D2012149
:1012600001E00121C943E005C018401900F058FA17
:1012700070BD0000F0B507460846584087B0C00F63
:10128000049048000E46590040084908BC1A88419D
:1012900005D2384631461E4617460B4602465800D0
:1012A000400810434CD0300D039040055900400DCC
:1012B000490D0590401A0290402872DA1803012166
:1012C000000B09050843019004980092002805D0FE
:1012D00001995242002088410092019002984021D9
:1012E0000A1A0199009800F0E7F905460C466B468A
:1012F00007CB00F002FAC0197141039A0E0D0023CA
:10130000D71756401A467A40164344D0049A002A0A
:101310002DD0029A012A039A15DC1205C01A9141B8
:1013200001263605001C7141D20F059ED20700939D
:10133000019202962A46234600F040FA07B0F0BD1B
:1013400038463146FAE71605224A0F46B218C01A47
:10135000B74101210905001C4F4100187F4111468A
:1013600018187941E20F10436D19644113E0E20748
:101370006D0815436408C2071443039A0126120539
:10138000C01A91413605001C7141CE074008304318
:101390004908C01851412A46234600F002FACDE719
:1013A000FFE7049801224000C117121A00238B4165
:1013B00004983146C417381AA141EEE730B401242D
:1013C000E407634030BC55E730B40124E4076140D2
:1013D00030BC4FE70000E0FFF0B51FB488B00B99B8
:1013E0000998002448400999C00F4900490809910B
:1013F000C0070B990090490049080B91099908987A
:10140000A64608431CD00B990A98084318D009989F
:1014100001244000420D4800410D099824050003B5
:10142000000B204309900B980003000B20430B9006
:1014300050181C494018002201901446104605E03F
:10144000002001460DB0F0BD032801DA034600E09C
:1014500003239C46C11A0AAE0AE05F0008ADED5BAB
:101460004F00F75B7D430027AA187C41491C5B1E97
:101470006145F2DD410004AB5A522104120C0A43CB
:10148000240C401C0828DFDB01980290009970466C
:1014900001910090059B049A0799069800F08EF937
:1014A000D0E700000DFCFFFFF0B50C465C4085B0B6
:1014B000E40FE40703944C000026640859009446A6
:1014C000490802460296224321D062460A431ED0B2
:1014D0006200570D4A000E032303550D01240246F6
:1014E0002C492405781B1B0B360B4018234326433D
:1014F000614600901C46501AB44103D30098401C2A
:10150000009002E0921800985B41002803DA002066
:10151000014605B0F0BD00200121090507468646B9
:1015200011E064461D46141BB54106D36546521BA7
:10153000B341744607430C43A646CD07400849080B
:10154000284392185B4105460D43EAD110461843E3
:1015500013D06046194650407140084306D060469B
:10156000101AB34106D20122002306E00022012313
:10157000DB0702E00122D2435310009874460105B4
:10158000381C6141029C039D0019694100F009F972
:10159000BFE70000FD0300000122D207002800DBA6
:1015A000101A002900DB511A814201D8012070472E
:1015B000002070470122D207002800DB101A002902
:1015C00000DB511A814201D2012070470020704790
:1015D0000122D207002800DB101A002900DB511A73
:1015E000814201D301207047002070470122D207B9
:1015F000002800DB101A002900DB511A814201D9B2
:101600000120704700207047C217C10F504010B52D
:101610004018CA079623002100F08AF810BD000088
:101620000EB505490291002100910A460B46019131
:1016300000F0C4F803B000BD33040000C20F410045
:1016400040020123400ADB05D207090EC0187F299A
:1016500001DA00207047962903DC9623591AC84006
:1016600001E096398840002AF4D0404270470000DB
:1016700070B5CD0F4A0009030123090B1B0519435F
:101680000B4BED070024520D9A4201DA002070BD89
:10169000074B34339A4203DC9A1A00F01DF802E03B
:1016A0000449511888402C43F1D0404270BD0000DD
:1016B000FF030000CDFBFFFF10B5202A04DB01462D
:1016C000203A9140002010BD914020239C1A0346EF
:1016D000E3401943904010BD10B5202A04DB0846B2
:1016E000203AD040002110BD0B46D340D0402024EA
:1016F000A21A91400843194610BD10B5202A06DBF6
:10170000CB170846203A1041C1170B4306E00B46A1
:101710001341D0402024A21A91400843194610BD1D
:10172000002904DA401C490001D1400840007047FC
:1017300070B40024050C05D11024000402D1002946
:1017400021D01124050E01D100020834050F01D16A
:101750000001241D850F01D18000A41C002801DB9D
:101760004000641C002908D020252E1B0D46F540A2
:10177000A14000D001212943084301061B1B000A98
:10178000DB1D02D5002070BC7047DB0518188018DF
:101790000029F8DA401C4900F5D170BC400840002F
:1017A000704710B5002B08DA0024401C61419218E4
:1017B0005B411A4301D14008400010BDF0B51FB491
:1017C00082B005460C0003D0084605F0CDFE02E0CD
:1017D00005F0CAFE20300246009021462846FFF759
:1017E0006BFF049B059A04460F46184311430843B8
:1017F00014D0184610431BD0009840210A1A1846EE
:101800000599FFF769FF05460E46009A0599049869
:10181000FFF752FF084305D0012004E02046394677
:1018200007B0F0BD0020C11705430E432C433743DA
:1018300000990E986305401A7905E40A00220C43CA
:10184000FD0A0A3002D500200146E9E7010510191A
:1018500069410C9C0D9D00196941FFF7A2FFDFE76C
:10186000064C0125064E05E0E36807CC2B430C3CF3
:1018700098471034B442F7D3FFF72CFCCC7500081E
:10188000EC75000870B58C180578401C6B075B0F71
:1018900001D10378401C2A1106D10278401C03E0D4
:1018A00006780E70401C491C5B1EF9D12B0705D42D
:1018B0000023521E0DD40B70491CFAE70378401C1C
:1018C000CB1A921C03E01D780D70491C5B1C521E44
:1018D000F9D5A142D8D3002070BD10B50120440530
:1018E000204601F0EDFC38B1204601F0ABFC10BC05
:1018F00001BC864602F028BA10BD0000434881882A
:10190000044A11804188044A1180008803490880F4
:101910007047C0469C040020A004002088040020DA
:10192000F0B589B040F20050113004F01DF935488F
:1019300004F01AF940F2005004F016F90620019064
:1019400003F0D2FF0920C0060325002648232946BC
:10195000324601F0A7FF304601F04AFB02A940F2EF
:10196000001008838E76284A0292284A049240F298
:10197000E8321832039005A864C0304601F04EFBEF
:10198000304601F02DFB304601F01AFB022000909A
:10199000314600F085FC012740F20010394600F086
:1019A0007FFC304600F0D0FB3846294600F0ACFB07
:1019B00000F0B0FC052430462946224600F016FC13
:1019C00038460199224600F011FC10210098224669
:1019D00000F00CFC07204104384600F0F3FB3846C9
:1019E000394600F0CFFB00F0C3FB40F2E83001F0D5
:1019F000A1F900F067FB00F0B3FB384600F03CFCB7
:101A000009B0F0BD090600004C240140D4040020B8
:101A100010B52948007898B12648007880B12A4846
:101A2000016841F200020A430260016C0124A143F3
:101A300001642648007890B304F0DEF8022430E018
:101A40000320042101F02EFB58B11C48007840B15E
:101A50001B48016802220A4302600320042101F0AE
:101A600017FB0320022101F01DFB01280AD10324EA
:101A70000121204601F00CFB204601F099FA05F007
:101A8000E3FB10E00320082101F00CFB012810D13A
:101A90000320012110BC04BC964601F0F9BA04F001
:101AA000F7F90B4804700748016848F200020A433E
:101AB000026010BD5C040020550400205F0400207B
:101AC0002004004010040140040002401C040020D7
:101AD0003D04002080B548F2000001F0B3FB80BC5B
:101AE00001BC864603F0ACBEFEE780B5022140F69D
:101AF000A07001F0CDFD80BC01BC864601F01ABE8D
:101B00007047704770B52F4801680125A9430160EF
:101B10002D4C607F617E01290AD1401C6077C1B2E3
:101B2000072903D32948457565772846284009E0E9
:101B3000411E6177080603D1244845750621617767
:101B4000284688432076EFF3108072B61F4E307E11
:101B500010B9607F00F0CEFC62B600F067FCB06F99
:101B60001B49884200D365750020B084607F400027
:101B7000184D4019E16DC1814E20305A03224A436D
:101B800010188108E165B27A22B12622B25C4A437C
:101B9000910902E0E27941095143C008401A482204
:101BA000B052F187607D20B168680B49884206D940
:101BB00070BD01F0AFFA686807498842F8D8401C48
:101BC000686070BD0C440140000000203C0400200F
:101BD000A5060000B80400200F270000704701F0A0
:101BE000DFB80000F0B481B06748021F136801211C
:101BF0000B43136013689B0708D413689B0705D435
:101C000013689B0702D413689B07F3D503688024ED
:101C10001C43046000240094009B7F2B17D8009B7A
:101C20005B1C0093009B7F2B11D8009B5B1C0093D7
:101C3000009B7F2B0BD8009B5B1C0093009B7F2B92
:101C400005D8009B5B1C0093009B802BE7D30368A7
:101C500090251D4305600094009B7F2B17D8009BA7
:101C60005B1C0093009B7F2B11D8009B5B1C009397
:101C7000009B7F2B0BD8009B5B1C0093009B7F2B52
:101C800005D8009B5B1C0093009B802BE7D30323AC
:101C9000DD4306682E40066015683C4E2E401660F7
:101CA00005683B4E2E40066005683A4E2E400660A1
:101CB000856A0F26B5438562C56A40F20316B543AF
:101CC000C5620D04C66AAE43C662CD07C66AAE439E
:101CD000C662056B8D430563446014680C43146051
:101CE0002D4C1568AD070CD41568AD0709D41568DF
:101CF000AD0706D41568AD0703D4251F002C2C466C
:101D0000EFD11468A40700D4FEE7244D2E68022406
:101D100026430527BE432E600568056005680560FB
:101D20000568056005681E4E2E40066005681D4E5C
:101D30002E4306600D0616682E4316604D06166883
:101D40002E4208D116682E4205D116682E4202D1C5
:101D500016682E42F3D002689A430260026822435A
:101D600002600268120708D40268120705D40268EC
:101D7000120702D402681207F3D5C80641F2000127
:101D800001B0F0BC03F0D4BB04100240FFFFF2FE30
:101D90000C00FF08FFFFC277FC0400000020024097
:101DA000FFFFC2F700000408F0B58FB07548FA30A5
:101DB00003F0DAFE744F384605F0D2F808AD284635
:101DC00005F038FA00242C7370480A90089409949E
:101DD0003846294605F00AF90CAE304605F0B7F84A
:101DE0000E940D940C9438462146324604F018FFA8
:101DF000012103913846324604F012FF022538468D
:101E00002946324604F00CFF6022029238463E46D4
:101E1000214605F013F80827304621463A4605F0DA
:101E20003BF83046039E3146029A05F007F85648C3
:101E300031463A4605F030F8534E30462946029A6C
:101E400004F0FCFF304629463A4605F025F804AE7A
:101E5000304604F0BAFEB48106944D4805900494CF
:101E6000494F3846314604F0A1FE2021384605F09E
:101E7000C7F980210291384605F0C2F9384604F0CE
:101E800090FE404E304603F06FFE701C03F06CFE77
:101E9000814E3046294622462B4601F003FD03279A
:101EA000304621463A4601972B4601F001FE304666
:101EB00029462246039E334601F0F4FC764821462B
:101EC0003A46334601F0F4FD0920C606304629465D
:101ED0002246029F3B4601F0E5FC30462146019A2E
:101EE0003B4601F0E5FD6C4F384629462A4601F095
:101EF00041FC38462946039A01F03CFC304629460D
:101F0000029A01F037FC30462946224640F200434F
:101F100001F0C8FC38462146019F3A4640F2004392
:101F200001F0C6FD30462946224640F2002301F06A
:101F3000B9FC594821463A4640F2002301F0B8FD69
:101F400030462946224640F2001301F0ABFC5248CD
:101F500021463A4640F2001301F0AAFD30462946D8
:101F600040F2004201F006FC3046294640F20022D1
:101F700001F000FC3046294640F2001201F0FAFB65
:101F80000FB0F0BD11050000002C0140B80B00009F
:101F90003C00002080B50448012105F035F980BCE3
:101FA00001BC864604F0ECBB002000400148012142
:101FB00005F019B800400140B0B5074C2068074D46
:101FC00028600748012105F01FF9FFF79BFD2068F5
:101FD0002968401A2860B0BD244801403407002019
:101FE0000044014070470000F0B585B040F2005059
:101FF000123003F0B9FD40F2005003F0B5FDE74F99
:1020000000210191032610243846324623460294CB
:1020100001F04EFD012538462946224601F0AAFB73
:102020001E4F39463431304601F062F81C493046C3
:1020300001F056F81B481C490160FF2000061B49AF
:102040000A688243A80710180860194840F6000182
:102050000160184803F088FD1748F8620A20B8624A
:10206000384604F099FD03AD284604F0D2FD019CEA
:10207000049412480390384621462A4605F00EF88B
:10208000384604F0A7FF0221E7482246029B01F0F0
:1020900009FC05B0F0BDC046000400480004004043
:1020A000EC040020440002408A09000008E400E03B
:1020B00000E100E001070000FFFF00000A0001004E
:1020C000704700009748016808220A4302600168CF
:1020D000090708D50168090705D50168090702D570
:1020E00001680907F3D4016804220A430260016809
:1020F000490708D50168490705D50168490702D590
:1021000001684907F3D4704702280ED0012818D17E
:102110000F2000050B4A1368834313600905091853
:102120000140106808431060704703200005054A0D
:10213000D3688343D360090509180140D068084378
:10214000D06070472C240140411E8841C00275496F
:102150000A6840F600039A43101808607047C046AA
:102160007048016840F200120A4302607047C0469E
:102170006C480168C90703D1016801220A43026063
:102180007047C04610B5012304461C40654A59B14A
:102190001CB1190513680B431360800710D5116833
:1021A00048F2000008430AE01CB1190513688B438C
:1021B0001360800704D5106848F20001884310605E
:1021C00010BDC046012803D0022809D1064800E00E
:1021D0000448544A136803401360106808431060B1
:1021E0007047C046FFFFF1FFFF8FFFFFB0B5214BE7
:1021F00005280AD8052444430846A0401F25A540C9
:102200009C6AAC4304439C621AE00B280BD805245B
:1022100044431E3C0846A0401F25A5405C6AAC43D1
:1022200004435C620CE010280AD2052444433C3C81
:102230000846A0401F25A5401C6AAC4304431C620D
:10224000092909D803204843824007218140586862
:10225000884310435860B0BD122909D80320484371
:102260001E38824007218140186888431043186057
:10227000B0BDC0460C240140C1072A4902D18007E5
:1022800007D47047012292050B6813430B60800747
:10229000F7D5012040050A6802430A607047C0462E
:1022A00010B540F2001304461C40194A29B154B934
:1022B00041050DD4800712D410BDACB941051AD424
:1022C0008007F9D51EE01168194311604105F1D569
:1022D00040F2004113680B4313608007ECD551684E
:1022E00002200843506010BD116840F2001399436A
:1022F00011604105E4D5116840F200439943116033
:102300008007D9D5506802218843506010BDC0466F
:10231000042401400120C00502490A6802430A6002
:102320007047C0460824014070B53F4B186804212F
:10233000014308208143196002249C6203210A059D
:102340000920C0060568954301221605AD190560F0
:1023500040F2004585621D681543A5431D609A62E1
:102360008B0404689C439304E318036040F2002349
:10237000836203684CF20004A34344F200041B1977
:10238000036080238362090403688B431104591896
:10239000016040F20011816270BDC0460004004837
:1023A00070B5F8490A78F64C20680C2398431AB1A6
:1023B00008221043206004E0042210432060022021
:1023C000A062032213050920C00605689D4301236E
:1023D0005E05AD1905600E78256895431EB102268D
:1023E0003543256002E01D432560A362940405681F
:1023F000A543DC042C1904600C7801684CF200053C
:10240000A94324B148F200042143016005E044F2ED
:1024100000042143016080218162110402688A4323
:1024200059045118016070BD0004004810B5154AE8
:1024300011782F48042901D0012902D151210160CE
:102440001178052901D0022902D16121016011789A
:10245000062901D0032901D1412101600A480478ED
:102460000120410509480368094A2CB11340036063
:1024700043680B43436010BD0B4303604368134044
:10248000436010BD1D00002018000020080401401A
:10249000FFFFDFFF1648016801220A430260704710
:1024A000B0B5134B1C68064D25408007000F490747
:1024B000490E08189107890C401840191860B0BDE2
:1024C00083CFFFFF491E4A424A41D1024007400DD7
:1024D000081807490A6840F600739A438018086094
:1024E0007047C046024800684004C00F7047C046AD
:1024F0001C000140F0B5411E052900D93EE109202C
:10250000C0068A0001A39A189746C04600F00AB890
:1025100000F02DB800F05BB800F08CB800F0BCB84B
:1025200000F0EBB801684CF20002914344F2000263
:1025300089180160802181620322110403688B43A2
:1025400001210C041B19036040F2001383628C4BC1
:102550001D680D430224A5431D609961920405681E
:1025600095438A04AA18026040F20022E9E08449F7
:102570000A6804231343082293430B6002248C62ED
:1025800003231A050568954301221605AD19056058
:1025900040F2004585620D681543A5430D608A61D0
:1025A000990403688B4391045918016040F200219B
:1025B000816274490C7803684CF200018B4351042A
:1025C000734A84B348F2000423430360D2E06C4AA8
:1025D000146801210C4302239C431460916203247C
:1025E000A5040668AE438D047519056040F2002508
:1025F0008562156804262E430825AE431660936154
:102600002205036893430A059A18026040F20042CB
:1026100082625C4A147803684CF2000293434904D6
:102620005B4A002CCED144F2000423430360802394
:1026300083629FE001684CF20002914344F2000281
:10264000891801608021816203210A04046894438F
:1026500001231A04A218026040F200128262484C60
:102660002268042515430822954325600225A561AB
:102670000A05066896431A05B218026040F2004245
:102680008262404A177826688E43D9043F4A002F59
:1026900069D02E4326606DE0394B196804220A4345
:1026A00008218A431A6002249C6203210A050668F5
:1026B000964301252A05B218026040F20042826268
:1026C00002684CF20006B24344F20006921902601E
:1026D000802282610A04066896432A04B2180260C6
:1026E00040F200128262274A17781E688E43E9047E
:1026F000264AE7B326431E603CE0214B1A680121BD
:102700000A430224A2431A609962032295040668D0
:10271000AE438D047519056040F200258562056899
:102720004CF20006B54344F20006AD190560802561
:1027300085611204056895430A04AA18026040F2F4
:10274000001282620F4A16781D680C2295434905D3
:102750000D4A1EB1082425431D600BE004263543B5
:102760001D609C6206E01E432660A36202E02E43C9
:102770001E609D62036813400B430360F0BDC046BA
:102780000004004801000020FFFFCFFFFFFFF3FF20
:10279000FFFFFCFFF0B58DB0F3480168C56F6A1A02
:1027A000F24F7A8193B25A093A81F24C2488A342BB
:1027B00000D818E1EE4C2488A34200D313E10C9515
:1027C000ED4B00251D804368591A01269142314680
:1027D00000D829460B91F9618168C368591A914262
:1027E000314600D829460A91396201694369591A6C
:1027F0009142314600D82946089179628169C369BE
:10280000591A9142314600D829460791B962016AA6
:10281000436A591A9142314600D829460691F96215
:10282000816AC36A591A9142314600D829463963F0
:10283000036B446BE31A9342334600D82B467B6309
:10284000846BC76B3C1B9442374600D82F46C74C5D
:102850000997A763046C476C3C1B9442374600D829
:102860002F46C24C0497E763846CC76C3C1B9442B0
:10287000374600D82F46BD4C03972764046D476D3B
:102880003C1B9442374600D82F46B84C02976764E9
:10289000846DC76D3C1B9442374600D82F46B34C1D
:1028A0000597A764046E476E3C1B9442374600D8D8
:1028B0002F46AE4C0197E764846EC76E3C1B944272
:1028C000374600D82F46A94C00972765076F446FFD
:1028D000E41B9442374600D82F46A44C6765806FAE
:1028E0000C9C201A904200D82E46A04886650B9872
:1028F000069A424004984240D0000A9A5140039AF6
:10290000514089000A1808984340029843405D00EE
:10291000099B079843400198C00000998900081856
:1029200079004718954C207895490978014314D1CE
:102930000C971F462C46154600F014FF2A462546E4
:102940008E4C3B460C9F40B188490879401C087169
:10295000C0B2652801D301202070B8195119059A19
:10296000534022780AB10F225040804E19438842CA
:1029700036D11C367CCE7D48076B7C48416B7B484A
:10298000806B92025B02134322021A43EB01134352
:10299000B2011A437B01754E134309011943C0006C
:1029A000084334463C341ECC8D0005435100294376
:1029B00019430020D74A1080B289521CB281012CE1
:1029C00002D1704A0123137030290EDB727862B194
:1029D0006D4800220270D5480180B2700DB0F0BD84
:1029E000F089401CF0810DB0F0BD4A1E2E2A06D899
:1029F00065480170CD4800220280C8B20DE011B1D7
:102A00006148007809E03178012901D10021717015
:102A10005D490870C5490880B0700028E3D05B4963
:102A200009780029DFD1564909780029DBD0F178EF
:102A3000884202D00021B170F070052805D3B1782A
:102A4000491CB170C9B20629CDD30025B570411E0D
:102A5000142900D982E08A0001A39A189746C0463B
:102A600000F028B800F030B800F032B800F034B808
:102A700000F036B800F072B800F036B800F03BB89D
:102A800000F040B800F042B800F068B800F043B879
:102A900000F04BB800F054B800F060B800F05EB839
:102AA00000F05CB800F05AB800F058B800F04FB829
:102AB00000F004B83849012008704FE0344800782D
:102AC00034490870152049E033490220087045E078
:102AD00031490320087041E02F49042008703DE08F
:102AE0002D490520087039E02A4801210170284845
:102AF0000570072032E02748057025480121017044
:102B000008202BE087480570092027E0854801212F
:102B100001700A2022E003F0B7F81D480078401C3D
:102B20001D4908701848007818E040F60060F080F1
:102B30000121717132780D20012A0FD171700DE0E1
:102B4000757140F60060FF30F0800E2006E01048FE
:102B500000780121081A0F49087014200A490D70E5
:102B60000E4908700DB0F0BDEC040020C003002039
:102B7000640000202C04002086040020550400205E
:102B80005C04002053040020EC05002058040020C1
:102B90003E040020190000205004002038070020C7
:102BA000F0B581B0FB4F03CF081A40F22131411A32
:102BB000574A083F91420CD8564D00242C80F64EBF
:102BC000717841B1F178002960D1B17861B3308971
:102BD0002BE04D4D80E05349097871B152490A8884
:102BE00040F2E833904216D94B490C8840F2D0713C
:102BF0000091511C5B1C224611E047490A88484954
:102C0000098840F2D0732F3300932F2302F02CFC5D
:102C1000312806DA06E0424909880093002302F0D1
:102C200023FC0446346157E03081491CB1703A49B5
:102C3000098880B200F08CFD332801DB74701EE03F
:102C4000354B18880721414305CF101A4018C0089A
:102C50001880B178083F3329194611D3193881B249
:102C600040F2D662891ACA0F8918490821222B4BD3
:102C700099540121F1702849088002F01DFD264970
:102C800008883081F07838B303CF081A317940F2E0
:102C9000E832FA32904208D2491C3171204A138836
:102CA00007275F433818C0081080C8B24C2813D3D8
:102CB00016481B490A88193293B2C0183330C30F23
:102CC000C01840082023154FF85474700A8002F091
:102CD000DBFF347102F0CCFC00202880134802880E
:102CE000AD4909698C1A124B1B689C4201DDD11851
:102CF00006E0541A9C4203DDD11A018001B0F0BDF8
:102D0000018001B0F0BDC0467C040020DFFCFFFF65
:102D1000760500008604002028000020ED05002034
:102D2000260000203F0400202A000020800400200C
:102D3000E4000020184900220A600A68824208D292
:102D40000A68824205D20A68824202D20A68824236
:102D5000F3D3704770B505460F4E002030603446FF
:102D6000243C0E490122204604F051FA68003168E3
:102D7000814208D23168814205D23168814202D253
:102D800031688142F3D3482171600122204670BC32
:102D900008BC9E4604F03BBA2448014050C30000E2
:102DA0000348016811B10168491E01607047C046BF
:102DB000E8040020F0B5754BC93375484380754968
:102DC0000F6800252A4603E052182835782D77D061
:102DD00070494E197168CF1B1BD1B768791A21D180
:102DE000F168CF1B27D13769791A2DD17169CF1BB3
:102DF00033D1B769791A39D1F169CF1B3FD1376A1D
:102E0000791A45D1716ACF1B4BD1B76A791ADCD0D8
:102E100050E09CB2A74201D247803B46D219B76826
:102E2000791ADDD09CB2A14201D241800B465218E2
:102E3000F168CF1BD7D09CB2A74201D247803B4656
:102E4000D2193769791AD1D09CB2A14201D24180FE
:102E50000B4652187169CF1BCBD09CB2A74201D24E
:102E600047803B46D219B769791AC5D09CB2A142B6
:102E700001D241800B465218F169CF1BBFD09CB2E2
:102E8000A74201D247803B46D219376A791AB9D096
:102E90009CB2A14201D241800B465218716ACF1BED
:102EA000B3D09CB2A74201D247803B46D219B76A41
:102EB000791A8AD09CB2A14286D241800B4683E720
:102EC0005109354DA961354C2178012925D1591E6B
:102ED00089B202290AD840F280718A4206D20021C2
:102EE000A9712F4E31700E262C490EE0191F89B2A0
:102EF000042912D840F680418A420ED22849012680
:102F00000E7026490E70A91D0726264F3E70012619
:102F10000E702021017024490E70244E3178012951
:102F20000BD1C93B99B2194A91422ED21C49472272
:102F30000A7001213170022123E027782FBB21BBC9
:102F4000591E89B2022909D840F280718A4205D2FD
:102F50000021A971124A11700E210DE0191F89B2CA
:102F60000429DED840F680418A42DAD20C49012297
:102F70000A702270AC1D07210A4A117001212170CC
:102F80002021094A012313700170F0BD574D000044
:102F900060000020EC040020200400205E040020DB
:102FA000E00000201D0400205D0400205F040020DC
:102FB0001421414335480A5801239A430A50704767
:102FC0001421414331480A58012313430B507047E1
:102FD000142141432D480A5820239A430A50704730
:102FE0001421414329480A58202313430B507047AA
:102FF00010B5142242432A49521853680124A343AE
:103000005360002353609360D360136180000F22EC
:10301000824008681043086010BDC046B0B5142255
:1030200042431A4813580124A343135013180C6841
:103030009C608C68DC600C8A5C60135843F60074FA
:10304000A3434C681C43CB6823434C691C43145076
:103050000B7E5B1E5C425C41A30114584025AC43CF
:10306000E31813504B7E5B1E5C425C41E301145835
:103070008025AC43E3181350897E4B1E994109010A
:1030800013581024A34359181150B0BD0800024032
:1030900080008140024802680A4302607047C046CF
:1030A0000400024010B50022082915D801238B40E6
:1030B00040F2141423420FD082000C469440074A79
:1030C000136823405C1EA34114244443A018826863
:1030D0000A40501E82411A40104610BD00000240B6
:1030E00014224243014811507047C0461400024068
:1030F00014224243014811507047C046100002405C
:10310000002181760183016041608160C1600161BD
:10311000416170470120400549490A6802430A603D
:103120007047C046F0B581B03D4E002100910124AA
:103130003046224603F0DEFE30462146224603F0AA
:10314000D9FE022730463946224603F0D3FE042535
:10315000304600992A4603F041FD304621462A4672
:1031600003F03CFD304639462A4603F037FD30680F
:10317000204330603046214604F051F8294D28683C
:10318000204328602846214603F029FFE868A04331
:10319000E860254801682143016024480168214313
:1031A0000160214603F01BFF214D28682043286061
:1031B0002846214603F013FFE8682043E860FEF745
:1031C000AFFBFFF767F940F2E830FFF7B3FD194DA9
:1031D00028460099224603F08DFE28682043286087
:1031E00040F20050123002F0B5FC40F2005002F004
:1031F000B1FCFF20000610490A688243E00710185E
:1032000008600E48802101600D48016848F2000204
:103210000A43026001B0F0BC01BC8646FEF7E4BE82
:10322000002C0140004401400048014000100040D3
:10323000002000400004004004E400E000E100E061
:1032400000040140214908607047C04670B5194B21
:103250001C46083C2568854325601D1F2E68864353
:103260002E601E6886431E605E6886435E6001298C
:103270000FD011B9216801432160022A0ED0C14349
:10328000012A0FD0A2B91A6802431A605A680A408C
:103290000DE0296801432960022AF0D11968014331
:1032A000196002E01A680A401A605A6802435A60BC
:1032B00070BDC04608040140044908607047C0461C
:1032C000024909680840411E8841704714040140C2
:1032D000CA4908607047C0460248016880220A4314
:1032E0000260704710200240B0B50146C34AC44B8B
:1032F00005201C461568ED0747D01568ED0744D03A
:103300001568ED0741D01568ED073ED01568ED074B
:103310003BD01568ED0738D01568ED0735D0156836
:10332000ED0732D01568ED072FD01568ED072CD0CA
:103330001568ED0729D01568ED0726D01568ED074B
:1033400023D01568ED0720D01568ED071DD015684E
:10335000ED071AD01568ED0717D01568ED0714D0E2
:103360001568ED0711D01568ED070ED01568ED074B
:103370000BD01568ED0708D01568ED0705D0156866
:10338000ED0702D01834B5D168E01068C00658D4F3
:10339000106840080224204060D1506820435060EB
:1033A0009160506840210143516005201168C907B0
:1033B00049D01168C90746D01168C90743D01168C0
:1033C000C90740D01168C9073DD01168C9073AD074
:1033D0001168C90737D01168C90734D01168C90707
:1033E00031D01168C9072ED01168C9072BD01168D8
:1033F000C90728D01168C90725D01168C90722D08C
:103400001168C9071FD01168C9071CD01168C90706
:1034100019D01168C90716D01168C90713D01168EF
:10342000C90710D01168C9070DD01168C9070AD0A3
:103430001168C90707D01168C90704D01833B5D17E
:1034400009E00420B0BD1068C00603D4106840082D
:10345000204000E004205168A1435160B0BDC04647
:103460006C48016810220A43026070470448C16832
:10347000090603D503490160034901607047C0464E
:103480000420024023016745AB89EFCD70B50246A9
:103490005A4B5B4C052025461E68F60747D01E6830
:1034A000F60744D01E68F60741D01E68F6073ED0E6
:1034B0001E68F6073BD01E68F60738D01E68F60770
:1034C00035D01E68F60732D01E68F6072FD01E686A
:1034D000F6072CD01E68F60729D01E68F60726D0FE
:1034E0001E68F60723D01E68F60720D01E68F60770
:1034F0001DD01E68F6071AD01E68F60717D01E6882
:10350000F60714D01E68F60711D01E68F6070ED015
:103510001E68F6070BD01E68F60708D01E68F6076F
:1035200005D01E68F60702D01835B5D165E01868D9
:10353000C00655D418684008022630405DD158684E
:10354000012528435860116005201968C90749D032
:103550001968C90746D01968C90743D01968C9074F
:1035600040D01968C9073DD01968C9073AD0196811
:10357000C90737D01968C90734D01968C90731D0CD
:103580001968C9072ED01968C9072BD01968C9074F
:1035900028D01968C90725D01968C90722D0196829
:1035A000C9071FD01968C9071CD01968C90719D0E5
:1035B0001968C90716D01968C90713D01968C9074F
:1035C00010D01968C9070DD01968C9070AD0196841
:1035D000C90707D01968C90704D01834B5D109E064
:1035E000042070BD1868C00603D418684008304035
:1035F00000E004205968A943596070BD0C200240C6
:103600000000F1FF03490A6807239A4302430A6056
:103610007047C0460020024070B51C4B186804215A
:10362000014308208143196002249C6103210A059B
:103630000920C0060568954301221605AD190560ED
:1036400040F2004585621D681543A5431D609A61DF
:103650008B0404689C439304E318036040F2002346
:10366000836203684CF20004A34344F200041B1974
:10367000036080238361090403688B431104591894
:10368000016040F20011816270BDC0460004004834
:10369000F0B581B00090204C23460C3B1F481860C9
:1036A0001F4D01202E462768FF0711D02768FF070E
:1036B0000ED0276807403EB137B127680740721C1B
:1036C00002D0361D002FEED117B1002001B0F0BDA1
:1036D0002246083A116002212268920713D5226817
:1036E000920710D527680F407E0845B13FB1276883
:1036F0000F407E086A1C02D02D1D002FECD116B1A0
:10370000002001B0F0BD0749009A0A40211F0A605D
:103710000749196001B0F0BD0C300040555500005C
:103720000400F0FFFF0F00000448014901607047EA
:10373000AAAA000001480249016070470030004019
:10374000CCCC00000148012103F049BC002C014011
:10375000401AC1174840401A704780B5FEF7C2FEB4
:10376000C0B280BD02480168102008407047C046C2
:1037700010040048F0B588B00F23DD43036AD40776
:1037800001D02B400B430395F024E6430F0194072F
:103790000297054601D533403B433C4F080254078E
:1037A000069001D53B400343394F080314070795A2
:1037B00001D53B4003430F04D4060196009702D580
:1037C000344C23403B43344E0F05940601D533401F
:1037D0003B43324D0E065406049601D52B4033432D
:1037E00005972F4D0F07140601D52B40DB19079DB8
:1037F0006C6A2B62D30519D4069B244D91051CD409
:10380000234E510520D4244B254D110522D4D1043B
:1038100024D40598910428D40498204B51042AD428
:1038200011042CD40798446208B0F0BD039B1C40DF
:103830000C43069B154D9105E2D501990C40029968
:103840000C43134E5105DED52C401C43124B144D36
:103850001105DCD534400443D104DAD50D480440C9
:103860000098044305989104D6D51C40044304985D
:103870000A4B5104D4D51C4004431104D2D52C402A
:10388000E4190798446208B0F0BDC046FFF0FFFF9E
:10389000FF0FFFFFFFFFF0FFFFFF0FFFFFFFFFF036
:1038A000FFFFFF0FF0B581B001261E400324E54362
:1038B0000468002E00D088E0C768002E00D08AE09F
:1038C0000090980700D58CE025463E46580700D466
:1038D00092E03020C04306401701374305400C01F9
:1038E0002C43180700D48CE0C020C0430740960149
:1038F0003E4304408D012543D80600D486E060484D
:1039000006401702374305400C022C43980600D4AA
:1039100081E05C48074096023E4304408D02254307
:1039200058067CD5584806401703374305400C031A
:103930002C43180677D55548074096033E4304406C
:103940008D032543D80572D55148064017043743E7
:1039500005400C042C4398056DD54E48074096044D
:103960003E4304408D042543580568D54A48064027
:103970001705374305400C052C43180563D5474808
:10398000074096053E4304408D052543D8045ED587
:10399000434806401706374305400C062C4398045D
:1039A00059D5404D2F40900638432C408E06264373
:1039B0005C0454D53C4D2840140704432E400D07A9
:1039C00035431804009B56D54EE02C400C43C76885
:1039D000002E00D174E72F4017430090980700D4C1
:1039E00072E70C20C043074096003E4304408D0020
:1039F0002543580700D56CE72C463746180700D5F5
:103A000072E725463E46D80600D578E72C4637466D
:103A1000980600D57DE725463E46580682D42C46BA
:103A20003746180687D425463E46D8058CD42C4602
:103A30003746980591D425463E46580596D42C46DF
:103A4000374618059BD425463E46D804A0D42C46BC
:103A500037469804A5D4264638465C04AAD4354691
:103A600004461804009B06D5104804409207A41889
:103A7000054088072D181D60DC6001B0F0BDC04610
:103A8000FFFCFFFFFFF3FFFFFFCFFFFFFF3FFFFF45
:103A9000FFFFFCFFFFFFF3FFFFFFCFFFFFFF3FFF35
:103AA000FFFFFFFCFFFFFFF3FFFFFFCFFFFFFF3F25
:103AB000B0B5012902D14168194301E04168994339
:103AC000416084680321DD0701D08C4314439D07C6
:103AD0002DD50C25AC43950025435C072AD42C46F4
:103AE0001D072DD42546DC0630D42C469D0634D443
:103AF00025465C0638D42C461D063CD42546DC05FC
:103B000040D42C469D0543D425465C0546D42C461E
:103B10001D0549D42546DC044CD42C469D044FD4C5
:103B200025465C0452D42C461B0459D554E0254646
:103B30005C07D4D53024A54314012C431D07D1D5EF
:103B4000C025AC4395012543DC06CED540F20034B8
:103B5000A54314022C439D06CAD540F60045AC434C
:103B6000950225435C06C6D543F20004A543140321
:103B70002C431D06C2D54CF20005AC4395032543EA
:103B8000DC05BED50C04A54314042C439D05BBD510
:103B90008D04AC43950425435C05B8D50C05A543BD
:103BA00014052C431D05B5D58D05AC43950525435E
:103BB000DC04B2D50C06A54314062C439D04AFD5F6
:103BC0008D06AC43950625435C04ACD50C07A54394
:103BD00014072C431B0403D589078C4391076418F1
:103BE0008460B0BD80B562B60220FFF70BFD80BCDB
:103BF00001BC8646FFF734BCF0B585B040F20057F3
:103C000040F2005001F0B0FFFF2003900004464B4B
:103C100019688143032004908005081818604349FF
:103C200040F200400860FEF7BFF8414801F09CFFF9
:103C30004048414941600C4623260660029640F206
:103C40000060123001F090FF3C4DEC62AE622846FD
:103C500002F0A7FF284603F0BDF91137384601F0FE
:103C600083FF0920C506002702232846049C21461D
:103C70003A46FFF717FE40F2006001F075FF20237F
:103C8000284621463A46FFF70DFE052138463A46BA
:103C9000FEF706FC38463946FEF714FC0120019079
:103CA0004505284639463A46FFF7D0FA2846FFF739
:103CB00003FB0C20394601F00FFC40F2006011308C
:103CC00001F052FF1E4E1C48F0620298B06230466E
:103CD00002F067FF304603F07DF9134CE0684FF6C1
:103CE0000071884344F200014018E0600F4E3560D7
:103CF0000F48001D01F038FF12483221C1624721F0
:103D0000816203990906A2688A43049989075118B8
:103D1000A1600199C904316003F05CF905B0F0BC01
:103D200001BC864602F0C4BC08E400E000E100E00B
:103D30000407000028100040FFFF00000048014079
:103D4000004401400020004070B5D54CA06F7E2893
:103D500019D31F4800681F4D7C2809D84620205AD7
:103D6000C0084A2804D8686880087D2800D270BD41
:103D7000A07F401CA077C0B2652804D301F0A2FB4D
:103D80000020686070BDC44DE87D48B10026FFF793
:103D9000E4FC297E8842EAD0761CE87D8642F6D390
:103DA000EFF3108072B601F08DFB094801684E22D6
:103DB000A15200210160084881614822A25A521C88
:103DC00002624160016801220A43026062B670BD6E
:103DD00024100040B80400200C440140F0B583B02A
:103DE000AD4EB16DAD4DB022284601F0DDFE687CD0
:103DF000401E41424141AA4FB970A87C401E414239
:103E00004141F970E87C012801D10120B871E87DB9
:103E1000042800D30220B071287D401E4142414158
:103E20007170687D401E41424141B170A87D401EC5
:103E300041424141F170287E01460839994C2829B8
:103E40001BD818281CD398490091182130222346EA
:103E500001F00AFBF087287E01460C390B2913D9A3
:103E6000FC21014008291BD1914900910721102212
:103E7000904B01F0F9FAF08713E08A48B08711E01F
:103E800001460C390B29EBD800940C211822874BE2
:103E900001F0EAFAF087287EFC2101400829E3D0EE
:103EA000F08F84B2844918390C60687E014632393B
:103EB000642907D8B0860321B0FBF1F030870A30BF
:103EC000708703E0552030879620B086E87E3072F8
:103ED000A87E282460431430F083287F401E41428E
:103EE00041413971687F401E414241417971022050
:103EF00002F0D4FB6878002800D1ABE0A87F0B2843
:103F000000D9052002F0CAFB2320285CB0732220D0
:103F10000190295C694A891871852521695CFA310B
:103F2000B185202002902A5C5200654BD218F284A1
:103F30002122AA5C5200634BD2183285EA7F521EBE
:103F400053425341FB712422AA5C521E53425341F7
:103F5000FB722622AA5C521E534253413B73272216
:103F6000AA5C012A01D10122BA7200223A722B5DA9
:103F70005C1F142C00D873732923EB5C5C1E092C86
:103F800000D8B3722A23EB5C5C1EE4B2082C18D86C
:103F90004624305B0921C94359432E39CFB2C01999
:103FA0003053F3723173687E4108C9193187C019E3
:103FB000B086F08EC019F0863F4908683843384F04
:103FC00008602B202B5C18464638462800D87371B1
:103FD0002C202B5C581E622803D80120F87358004F
:103FE00030842D202B5C581E092800D873722E2097
:103FF0002C5C092C12D8042C14D83B462333A00087
:1040000001A108188746C04600F008B800F037B88C
:1040100000F006B800F006B800F035B87A842A4BF4
:1040200001201870F08B81084A2900D832740C21C5
:10403000B0FBF1F1327A029BB3FBF2F2B1FBF2F189
:104040004423F1526421B0FBF1F1B1FBF2F14222C1
:10405000B15200E0F08B134A40F22C11C8310091AC
:1040600040F22C1140F2E83301F0FEF9308670780E
:1040700008B103B0F0BD0020F87003B0F0BD01201E
:1040800001997854CBE71048027010480121017063
:104090003B462233C4E7C04600000020ED05002067
:1040A0003C040020B80B0000DC0500007017000085
:1040B0009411000028230000442C01405E050000FC
:1040C000EE020000D6060000C1030020C00300205D
:1040D00000B58BB0FFF786FDFFF78EFDFFF722F8E6
:1040E000FFF77CFEC7480068F82802D1C648C749D8
:1040F0008165C74C217910204140E2780223039367
:104100005A400A4330D020710220E070601DC1A1E6
:104110000C22FCF7F3FFBC48017861708179E175EE
:10412000BF498A78521E534253416374CA78521E63
:1041300053425341A3748979491E4A424A41E27469
:104140004178491E4A424A4122758178491E4A42B5
:104150004A416275C178491E4A424A41A275826D40
:10416000B021204601F0C2FDA74FF88FB887AC4CB4
:10417000A078401E411E884178767878002801D1C9
:1041800000F053FD207BA74998B10846BE30462178
:1041900078520020A0710121E17039747880787024
:1041A000388F32303887788F32307887B88E323017
:1041B000B88601F0FFFA40200021069007912152B5
:1041C000FDF793FCFFF7B0FA01F016FD207808B177
:1041D0000120A07301200A9002F048FA23E0012593
:1041E00065722079002801D100F005FCF88FB97ABA
:1041F0004900411813394622A15289B2BA8F4A4365
:10420000B2FBF0F1401A401C5C248549085301F0D0
:1042100033FB8348005B824C8349086048608860B8
:1042200025765E202652FFF77FFA804A508A118A4F
:104230000818918A4018D18A4018118B4018518B68
:104240004018001D40089060B87840B1F86DF98FB3
:1042500000914B086021C82201F006F9B8874A2274
:10426000A05A734988420AD32021615C002901D0F9
:1042700000F0A3FC6F49884201D300F0BAFC099218
:10428000608E6D4988423AD33420265E3046FDF771
:10429000BBF96A49FCF7AFFF0146206FFCF752FFFC
:1042A00020676748007803280BD0022818D001281F
:1042B00023D12720215C40F2671099300843022166
:1042C00017E05820205A5F494143090C401A400822
:1042D00040180009C1B25348D6300843012108E014
:1042E000B0B2C0B229214143C80A40F2006140186F
:1042F0000321534A11705449088000206086618F61
:104300000122C829134600D3079B48484068642807
:1043100000D8079A4D424D4140F2E836B0420A9E1D
:1043200000D82E460EB91A4001D00022E276A279BA
:104330001AB19F2901D80022E276627C3AB140F29C
:1043400067122932914208D20021E17605E09529D1
:1043500001D8642100E00A21797434498968032274
:10436000089291FBF2F1A167627D82B30B282ED3F4
:104370002E48C068FFF7ECF9A16F40F2D07291426D
:1043800021D24A0890421ED90020284A5060227C3F
:10439000521C2274FA6D40F2E8339A4200D901208F
:1043A0004222A25A2F2A0A9A00D81AE3E378002B55
:1043B00000D01BE3012A01D100202077012078756D
:1043C000B88E4008E0861948C16000206075FB6D1A
:1043D000657EFF2006061D490C390A68B243CDB33D
:1043E000332B37D30A60194A10681949084044F240
:1043F0000001084310601046083801680698014320
:10440000BF2033E0E00F00080000002000F80008A3
:10441000ED0500205365717572652065320000005E
:104420003C0400202A030000342C0140B804002082
:1044300011270000419C0000214E00000000B44301
:10444000C5030020AF470000C603002014E400E0CD
:10445000FF00FFFF01239B07D2180A60CD4A1168B5
:10446000CD4B194011601146083909688143104647
:1044700008380160E07D88B1206FFDF7DFF8034662
:104480005820215A2720205C5E22A55AA28E009532
:1044900000F0F0FB01F044FD0020E075A07D401C21
:1044A000A075C0B2C92800D28CE0FDF727FA6020C1
:1044B000205AFDF7B5F8ED4AED4BFCF78DFF0025CE
:1044C0002A46EC4BFCF788FFEB4AEC4BFCF7D2FE9C
:1044D0002A460595EA4BFCF77FFFEA4AEA4BFCF7D0
:1044E000E3FF2A46E94BFCF7C5FEFDF7C1F862255C
:1044F00060530120FDF7C0FE605D27216054A57E5A
:104500006800E3490A5A04924C22A25A0A523946D8
:104510005827E05B072444436423DE48C05ADE4E3C
:104520007043DE4EB0FBF6F0059E498E4143B1FB71
:10453000F3F00019D74CC008E0536D1CE9B26329B1
:10454000374600D82F46A776D54D2968049FC91B4A
:1045500089182960B1FBF3F1A18789B26167CE4A5E
:104560005143D04AB1FBF2F10A0400D53146A1868D
:10457000E17ACD4F21B3A17CBA8D4A4380B2824209
:104580001CD9208E401C2086617FC84A5143C84AEE
:10459000891880B2814213DA42200024BD490C52AE
:1045A000FDF7C2FE00F08EFFBA4806994452202063
:1045B000B8490C54B7480477B64C01E00020208677
:1045C0000020A0750026A677607F002800D1A2E019
:1045D0004222A05A312800D201E62021615C002944
:1045E00000D1FCE58828089200D984E1607A80B186
:1045F000B04A106801218843106000F063FF002476
:10460000AD48046044608460FDF7CAFEA14844726E
:10461000A04C5022A05A797E002900D167E2411EA9
:1046200008B2002840F2671000D40846A052522178
:10463000625A521E13B2002B40F2671300D4134685
:1046400063525421615A4A1E11B2002940F2671187
:1046500000D411465426A1534C25795B00B240008A
:10466000964A105E0818F98F414340F2D07091FBD2
:10467000F0F0797A41430A2791FBF7F080B201F01C
:10468000FBFF8948405B5221615E49008B4A515EC5
:1046900040188549C98F414340F2D07091FBF0F03A
:1046A0008149497A414391FBF7F080B201F0EAFF7A
:1046B0007D48405BA15F4900804A515E40187A49BD
:1046C000C98F414340F2D07091FBF0F07649497AAE
:1046D000414391FBF7F0744F80B201F0D9FF089885
:1046E000205A397A764AB2FBF1F20092754AB2FB4F
:1046F000F1F33021782200F0B7FE099D785380B2A3
:10470000FEF718FB785B40F26711F131B1FBF0F076
:104710005E21605287E5624880686B4991FBF0F04A
:10472000217F41435E20215288B268494843C00C32
:1047300066216052397C69B146217B5A44217A5AFC
:104740004221795A48243C5B0094524C00F08CFE84
:10475000069978522720205C7A7990420BD948211B
:10476000795A012300934B0811460A390A3200F0A6
:104770007BFE069978524A48406863280ED8F96D46
:1047800040F2F410814209D90C203229039912D247
:1047900012E0C04614E400E0FF00FFFFA06F0C2110
:1047A00000916421032340F2F41200F05DFEF96DE4
:1047B0003229039900D30146F9754620205A172162
:1047C000009164210D2340F2D07200F04DFE2621AD
:1047D00060543F4800683F49884200D223E5207F6B
:1047E000012800D01FE5E07E401CE07600F06AFE64
:1047F0003D460120059078754220205A2F2803D885
:104800003548E865002020770022254E7260304F41
:1048100038684E21605209923A60E96D089A4A431D
:1048200080B21018C10842095200891A4823E15287
:104830008008E865E28788B2716805294ED2396838
:104840001C490862184A507F517E012900D0D9E0E6
:10485000401C5077C1B20729099D059E03D3667598
:10486000F748467730463040D8E0C0466666666610
:1048700066660AC00000303FE17A14AE47E1F63FB9
:1048800000408F403333333333331140000039401D
:104890003A0700203C040020E40C0000FF0F000059
:1048A000B80400200B030000000000207CFCFFFF88
:1048B000204E00000C440140342C0140EA0000204E
:1048C0002A030000581B0000C0270900CDCC0000BF
:1048D00024100040C9AF00008813000039688142ED
:1048E000AED239688142ABD239688142A8D23968E8
:1048F0008142F3D3A4E70120019060725023E05A73
:10490000797E00290496029300D110E1411E08B27D
:10491000002840F2671000D40846E0525221625A43
:10492000521E13B2002B40F2671300D41346635299
:104930005421615A4A1E11B2002940F2671100D475
:10494000114654220592A1524C25795B00B24000D9
:10495000C64A105E0818F98F414340F2D07091FBAF
:10496000F0F0797A41430A2691FBF6F080B201F02B
:1049700083FE785B5221615E4900BC4A515E40185B
:10498000F98F414340F2D07091FBF0F0797A4143C6
:1049900091FBF6F080B201F075FE785B0599615EDF
:1049A0004900B24A515E4018F98F414340F2D0703D
:1049B00091FBF0F0797A414391FBF6F080B201F07F
:1049C00067FE0898205AC82867D90998029E3E5267
:1049D000049DA5533046FEF7ADF9A05B002867D0D3
:1049E00021E40246E378002B00D1E3E40246012AE9
:1049F00000D1E1E4E2E49848066046608660FDF795
:104A000093FC0EE4411E51770806099D059E03D1D3
:104A1000667506218A48417730468843884908767A
:104A2000EFF3108072B6207E18B98548407FFDF7FD
:104A300061FD62B6FDF7FAFCA06F8449884201D996
:104A40007F484675A584E577844A5068411C5160CB
:104A50007B4F787F40008218F86DD081227B531EF7
:104A60009A416379002B0A9B00D11346012B0AD18E
:104A7000142901D2FFF7D7FB40F2D071491C8842BC
:104A800006D3FFF7D0FB7A49884201D9FFF7CBFB69
:104A90007D75FEF73FFBFFF7C6FB0998385A049D6A
:104AA000029EFEF747F9A05B002801D0FFF7BBFB91
:104AB000019BA3836648F8657B75A067674AD06051
:104AC00064490860257614205060607908B1788FB9
:104AD000E086B87D797E012949D1401C7877C1B242
:104AE000072902D363757B771846184048E0431CBA
:104AF00018B2002140F26715A842084600DC1846AB
:104B0000A0525222A35A5B1C1CB240F26715AC4261
:104B10000D4600DC1D464B4CA5525422A25A521C95
:104B200013B240F26715AB4200DC92E592E5411CFE
:104B300008B240F267129042304600DC084650212D
:104B400060525221625A521C13B240F26715AB42B6
:104B5000334600DC134663525421615A4A1C11B299
:104B600040F267139942314600DCE9E6E9E6411E6E
:104B70007977080602D1637506217977184688434C
:104B80003876EFF3108072B6207E10B9787FFDF78B
:104B9000B1FC62B6FDF74AFCA06F2C49884201D9EE
:104BA00001987875A584787F40002C494018F96DEC
:104BB000C181FEF7C7FDFFF736FBFDF7B5FB00200F
:104BC00020642084244908604860886001F054F81B
:104BD000234840F20011FCF7AAFABFF34F8F214897
:104BE00021490160BFF34F8F00BF00BF00BF00BF6E
:104BF000FAE7FDF799FB002020642084164908603D
:104C00004860886001F038F8154840F20011FCF760
:104C10008EFABFF34F8F134813490160BFF34F8FD4
:104C200000BF00BF00BF00BFFAE70020A071207BDB
:104C30000549002801D0FFF7A8FAFFF7BAFAC046E5
:104C4000000000203C0400202A030000A40600000D
:104C50002823000024100040342C0140B804002018
:104C6000EC0400200CED00E00400FA05EA0000204E
:104C700013050000F0B583B0EF4C089D2572A371B9
:104C80002271A170207002952D0A0195E5710093A3
:104C90001B0A6371170AE7700E0A66704400072545
:104CA00040B2002800D571E1600064B2002C00D54C
:104CB00072E1440040B2002800D573E1600064B2A4
:104CC000002C00D574E1440040B2002800D575E105
:104CD000600064B2002C00D576E1440040B20028A8
:104CE00000D577E1600064B2002C00D568407040C8
:104CF000440040B2002800D573E1600064B2002C8B
:104D000000D574E1440040B2002800D575E1600090
:104D100064B2002C00D576E1440040B2002800D5F2
:104D200077E1600064B2002C00D578E1440040B225
:104D3000002800D579E1600064B2002C00D56840FD
:104D40004840410040B2002800D577E1480049B210
:104D5000002900D578E1410040B2002800D579E172
:104D6000480049B2002900D57AE1410040B200284C
:104D700000D57BE1480049B2002900D57CE1410023
:104D800040B2002800D57DE1480049B2002900D595
:104D900068404740780079B2002900D579E14100A8
:104DA00040B2002800D57AE1480049B2002900D578
:104DB0007BE1410040B2002800D57CE1480049B2C7
:104DC000002900D57DE1410040B2002800D57EE1F8
:104DD000480049B2002900D57FE1410040B20028D7
:104DE00000D569404A40500051B2002900D57BE10E
:104DF000410040B2002800D57CE1480049B20029BA
:104E000000D57DE1410040B2002800D57EE1480098
:104E100049B2002900D57FE1410040B2002800D509
:104E200080E1480049B2002900D581E1410040B24B
:104E3000002800D569404B40580059B2002900D5E0
:104E40007DE1410040B2002800D57EE1480049B232
:104E5000002900D57FE1410040B2002800D580E163
:104E6000480049B2002900D581E1410040B2002844
:104E700000D582E1480049B2002900D583E1410014
:104E800040B2002800D56940009A4A40500051B213
:104E9000002900D57EE1410040B2002800D57FE125
:104EA000480049B2002900D580E1410040B2002805
:104EB00000D581E1480049B2002900D582E14100D6
:104EC00040B2002800D583E1480049B2002900D54E
:104ED00084E1410040B2002800D56940019A4A406F
:104EE000500051B2002900D57FE1410040B20028B6
:104EF00000D580E1480049B2002900D581E1410098
:104F000040B2002800D582E1480049B2002900D50E
:104F100083E1410040B2002800D584E1480049B255
:104F2000002900D585E1410040B2002800D5694044
:104F3000029A4A40500051B2002900D580E1410058
:104F400040B2002800D581E1480049B2002900D5CF
:104F500082E1410040B2002800D583E1480049B217
:104F6000002900D584E1410040B2002800D585E148
:104F7000480049B2002900D586E1410040B200282E
:104F800000D587E1C648417203B0F0BD6C406000B7
:104F900064B2002C00D48CE66840440040B2002883
:104FA00000D48BE66C40600064B2002C00D48AE62A
:104FB0006840440040B2002800D489E66C4060009C
:104FC00064B2002C00D488E66840440040B2002857
:104FD00000D487E66C40600064B2002C00D585E602
:104FE00085E66C40600064B2002C00D48AE668401C
:104FF000440040B2002800D489E66C40600064B2EE
:10500000002C00D488E66840440040B2002800D458
:1050100087E66C40600064B2002C00D486E66840ED
:10502000440040B2002800D485E66C40600064B2C1
:10503000002C00D583E683E6DA04002069404800AE
:1050400049B2002900D486E66840410040B20028F9
:1050500000D485E66940480049B2002900D484E6BE
:105060006840410040B2002800D483E6694048000F
:1050700049B2002900D482E66840410040B20028CD
:1050800000D481E66940480049B2002900D57FE696
:105090007FE66840410040B2002800D484E66940C1
:1050A000480049B2002900D483E66840410040B27C
:1050B000002800D482E66940480049B2002900D4A3
:1050C00081E66840410040B2002800D480E6694093
:1050D000480049B2002900D47FE66840410040B250
:1050E000002800D57DE67DE66840410040B20028FA
:1050F00000D482E66940480049B2002900D481E624
:105100006840410040B2002800D480E66940480071
:1051100049B2002900D47FE66840410040B200282F
:1051200000D47EE66940480049B2002900D47DE6FB
:105130006840410040B2002800D57BE67BE668402D
:10514000410040B2002800D480E66940480049B2DE
:10515000002900D47FE66840410040B2002800D416
:105160007EE66940480049B2002900D47DE66840E7
:10517000410040B2002800D47CE66940480049B2B2
:10518000002900D47BE66840410040B2002800D5E9
:1051900079E679E66840410040B2002800D47FE615
:1051A0006940480049B2002900D47EE668404100C9
:1051B00040B2002800D47DE66940480049B2002989
:1051C00000D47CE66840410040B2002800D47BE671
:1051D0006940480049B2002900D47AE6684041009D
:1051E00040B2002800D578E678E66840410040B239
:1051F000002800D47EE66940480049B2002900D466
:105200007DE66840410040B2002800D47CE6694059
:10521000480049B2002900D47BE66840410040B212
:10522000002800D47AE66940480049B2002900D439
:1052300079E66840410040B2002800D577E677E67D
:105240006840410040B2002800D47DE66940480033
:1052500049B2002900D47CE66840410040B20028F1
:1052600000D47BE66940480049B2002900D47AE6C0
:105270006840410040B2002800D479E66940480007
:1052800049B2002900D478E66840410040B20028C5
:1052900000D477E669400248417203B0F0BDC046D1
:1052A000DA040020F0B584B0694BDD8815B1002028
:1052B000D88014E06749097801B96748C10B09D162
:1052C0004CF20001014044F20002914200D091E012
:1052D000062100E007211961C8404D0205435F48DF
:1052E0000078800002905E490C1880236360290AD0
:1052F0005C48405C0190C20018469043A0602F09B2
:10530000794069400F2603968E4329018919504A36
:10531000516101990A011A404240E260C8030090BD
:10532000039807404F49C85D0F46019081020098DD
:10533000014303980540785D3D46039047010F43C4
:10534000AE5D3D46354342488561880A184050406D
:1053500020614A0A1A4042406261080A18405040DF
:10536000A061019AD10019404140E16112011A4047
:105370004A4022627F20C0430240790919405140CF
:1053800061623A091A404A40A262F9081940514044
:10539000E162039FFA001A404A4022633901194032
:1053A000514061632A461A404A40A26302406900A4
:1053B00019405140E163AA001A404A40226400218A
:1053C000274D029FE951F1001940514061643201BB
:1053D0001A404A40A264710119405140E164B2018F
:1053E0001A404A4022650240F001C0B25040606558
:1053F00004B0F0BD4EF20001014042F200029142C1
:1054000001D1052167E74FF20001014041F200029E
:10541000914201D104215EE74FF60001014040F6C0
:105420000002914201D1032155E74FF600410140AE
:1054300040F20042914201D102214CE74FF6006157
:10544000014040F200228A1A5142514143E7C046CE
:10545000C003002058040020FFFF00001D040020AE
:10546000A0060020BC750008F0B5059C88421EDD32
:105470000F461D46264682421EDD1346974210DC2B
:10548000B5421BD071194C10D9194A10974217D048
:105490008242EFDA511C1A46234634468142E7DB4A
:1054A00005E019463A4633462C468142E0DB82420B
:1054B00000DC23461846F0BD3046F0BD2846F0BD5E
:1054C0002046F0BD0120400502490A6882430A6077
:1054D0004861704700040140B0B542B2002A05D4CB
:1054E000032314469C43104BE31803E00C231340A2
:1054F0000C4C1B199407E40E8907090EA140FF25E7
:10550000A5401C68AC430C431C60002A09D41F2131
:10551000014001228A40C008044940180321884301
:105520000260B0BD14ED00E000E400E000E100E046
:10553000034A0A40024303480260BFF34F8F70479B
:1055400080FFFF1F08ED00E0F0B581B0B74DB8480F
:105550006860EFF3108072B6B6480078E8602861A2
:105560006861792614270A24B61EFEF7DDF8B6FB1B
:10557000F7F0FCF7BFFF70080A3028602046FDF7FF
:10558000E9FB022EF0D8FCF7CFFE00202860AA49E4
:105590000880AA480088686062B601B0F0BDC046C5
:1055A000F0B581B00320FCF7A5FF00253227A24EFD
:1055B000009503E06D1CBF1CAE2F41D2FEF7B4F87E
:1055C000009830802648C1198878FF28F2D0C97821
:1055D00039B30A22954C2260F7224A4340F6A07163
:1055E0005118204AB2FBF1F11F4AB2FBF1F262609E
:1055F000904B1B7853438E4AB3FBF2F2E260226178
:105600006261EAB2FE2353431818184AB2FBF1F163
:1056100041436420B1FBF0F080B2FDF79BFB002515
:10562000C9E7344600268149CE600E614E61E9B279
:10563000FE224A431018FDF78DFB35462646BAE791
:10564000FCF772FE00207949086030807B480088B2
:10565000486001B0F0BC01BC8646FEF765B8C046A4
:10566000ED0500208096980000DD6D00A086010009
:10567000B0B56E4D6E486860282028606D4800788F
:10568000E860286168610220FCF734FF9624204618
:10569000FDF760FBFEF748F8502028602046FDF734
:1056A00059FBFCF741FE00202860634908806348ED
:1056B00000886860B0BDC046B0B55C4D5C486860AD
:1056C000322028605B480078E86028616861022029
:1056D000FCF710FF96242046FDF73CFBFEF724F86C
:1056E0001E2028602046FDF735FBFCF71DFE00203C
:1056F000286051490880514800886860B0BDC046A4
:10570000B0B5EFF3108072B6484D49486860FEF7B7
:105710000BF85020286047480078E86028616861ED
:105720000320FCF7E7FE64242046FDF713FB462028
:1057300028602046FDF70EFB282028602046FDF754
:1057400009FBFCF7F1FD002028603B4908803B483D
:105750000088686062B6B0BDB0B5344D344868604A
:10576000EFF3108072B6FDF7DFFF3C202860314870
:105770000078E860286168610120FCF7BBFE4B24DB
:105780002046FDF7E7FA502028602046FDF7E2FAB0
:105790005A202860FDF7C8FF2046FDF7DBFAFCF72A
:1057A000C3FD0020286024490880244800886860E0
:1057B00062B6B0BDB0B5EFF3108072B61A4800689B
:1057C0003021405C194DFF2802D0FFF7E9FE25E0AB
:1057D0001748686017480078E8602861686103200E
:1057E000FCF788FE37202860C8242046FDF7B2FA6F
:1057F0000520FCF77FFE282028602046FDF7AAFA46
:105800000620FCF777FE192028602046FDF7A2FA53
:10581000FCF78AFD084800210180296007480088BC
:10582000686062B6B0BDC04658000020282C014018
:10583000B80B0000E4040020860400203E00002095
:1058400010B50B4C607802280AD0012803D1FCF770
:10585000A1FF0020607010BC01BC864600F086BB32
:1058600004480089FFF71EFD0020607010BDC0468F
:105870003C040020B804002010B5032211050920C3
:10588000C00603688B4301210C051B19036040F21D
:1058900000438362930404689C438B04E318036011
:1058A00040F2002383621204036893430A049A18A7
:1058B000026040F2001282620A4A136808241C4304
:1058C00004239C431460136802241C438C4314601B
:1058D00001684CF20002914348F20002891801600D
:1058E00010BDC0460004004810B531490A462C3AA4
:1058F00013684CF20004A34313600B682D4C1C404A
:105900000C60092852D8830001A4E3189F46C046C2
:1059100000F012B800F015B800F01DB800F01EB885
:1059200000F01FB800F021B800F023B800F025B84F
:1059300000F032B800F025B8012000040A68824364
:1059400003E0012000040A6802430A60086840F28C
:105950000012904329E01068106022E01068106087
:1059600014E0106844F2000319E0106844F20003E8
:105970000AE0106848F2000311E0106848F20003E2
:1059800002E010684CF20003034313600120C007DB
:105990000A6802430A6004E010684CF20003034303
:1059A00013600A6840F200101043086010BDC04642
:1059B00030100240FFFEFE7FF0B581B001465B4A29
:1059C00010680C2404405A4B082C1C461BD110684C
:1059D0008002000F0F2804D0841C15682D0104D408
:1059E00005E0102415682D0101D51130044610681A
:1059F000C00301D44F4805E0906A0F250540681C9C
:105A0000B3FBF0F04443156813681068052920D8EB
:105A100000932D062D0F48A77F5D2546FD4080048D
:105A2000400F494F3B5C2846D8408B0001A6F31835
:105A30009F46C04600F00AB800F00EB800F00FB85C
:105A400000F033B800F013B800F01AB8204601B0E7
:105A5000F0BD002001B0F0BD284601B0F0BD0098B7
:105A60004005400F385CC540284601B0F0BDD16A02
:105A7000C9051CD4D06AC0032FD5354801B0F0BD8C
:105A8000D16A890711D0D06A032108400128204635
:105A90000BD0D36A0B4048F20000022B05D0D06A2D
:105AA00008400328224800D0002001B0F0BD136850
:105AB000D16A1A04920F930001A4E3189F46C046CE
:105AC00000F006B800F00CB800F00FB800F014B801
:105AD000002916D4400801B0F0BD1C4801B0F0BD4B
:105AE000002913D4800801B0F0BD002913D4062189
:105AF000B0FBF1F001B0F0BD002911D4C00801B035
:105B0000F0BD0320B5FBF0F001B0F0BD0520B5FB02
:105B1000F0F001B0F0BD0720B5FBF0F001B0F0BD32
:105B20000920B5FBF0F001B0F0BDC0460410024002
:105B300000127A0000093D00000000000000000093
:105B40000102030406070809B4750008809FD50008
:105B5000003FAB011F21014001228A408009114909
:105B600043589343435070471F21014001228A400C
:105B700080090C4943581343435070471F2101408B
:105B800001228A4080090749435893434350704794
:105B90001F21014001228A408009024943581343D2
:105BA0004350704700100240F0B5012A23DB032464
:105BB00013462340551E032D01D200240EE0A243BC
:105BC00000240D5D055505190E1977786F70B778AB
:105BD000AF70F678EE70241DA242F2D15BB1625C28
:105BE0000255012B07D0621C555C8554022B02D054
:105BF000A21C515C8154F0BD70B5C24801680222FC
:105C000011430160016891430160BF480246083AB0
:105C1000012111600A220260124A12788260124A3F
:105C2000C26002460C3A13680B43136000224260C4
:105C3000B74B0E4CDC600E4C24785C600446143C80
:105C4000256840F200262E43266004680C43046059
:105C5000203804680C430460AF480270054818609F
:105C600070BDC046E0000020FFFF0000EC040020F3
:105C7000600000208B0900000248002141600160A3
:105C80007047C0462404004090B415490A7815486E
:105C900042708A79C275144A93785B1E5C425C41FB
:105CA0004474D3785B1E5C425C4184749279521ECA
:105CB00053425341C3744A78521E534253410375B1
:105CC0008A78521E534253414375CA78521E53423A
:105CD000534183758A6DB02190BC00F007B8C0466F
:105CE00000000020ED0500203C040020F0B503AFCB
:105CF0008BB06E46F51D1D3532620C46F061C8173B
:105D0000800F0B180320194670618143C91D0722BB
:105D100091436A46501A99108546B0613161FBF78C
:105D200006FA042C346A00DA81E0316908467369A6
:105D30001840F060481E0328B56001D2002138E009
:105D40009943716100231946F569E818C278120673
:105D500084782404A218447824021219EC5C1219E5
:105D6000B569EA50C279120684792404A2184479EC
:105D70002402121904791419EA185460C47A24060A
:105D8000857A2D042C19457A2D026419057A641937
:105D90009460C47B2406857B2D042C19457B2D0241
:105DA0006419007B2018D0601033091D7069884287
:105DB000CAD1F0680028B568346AF06937D0890024
:105DC0004018C278120683781B049A18F369407849
:105DD000000210185A5C8018B2695050F06801280F
:105DE00025D0081D70601A18D3781B06736193784C
:105DF0001B0470691B18527812029A18F3697068B4
:105E00001B5CD218B3691A50F369F06802280ED0EF
:105E100008315818C278120683781B049A18407803
:105E200000021018F269525C8018B2695050306953
:105E30006860FDF71BFBA00502D12046FDF754FA70
:105E400000202860286869688842B36918D2342025
:105E5000F0612868296889005958800000192C468B
:105E60001D46FDF713FBF069FDF732FA2B46254678
:105E7000346A2868401C2860286869688842E8D32A
:105E8000FC1F053CA546F0BC01BC8646FDF724BAC4
:105E9000B0B51C48016802221143016001689143BA
:105EA000016019480146083960220A600321016037
:105EB0001649097881606421C16002460C3A136872
:105EC00001210B431360124B124ADA60124A5478D4
:105ED00017345C60114C1C600346143B1C6840F294
:105EE000002525431D6003680B430360436A48F2A5
:105EF00000041C4344621170203802680A430260A7
:105F0000B0BDC0461010024020040040260400200E
:105F100044000240A00600201C0400209B09000051
:105F2000B0B50F4C0021204601F086FA082120462A
:105F300001F08AFA01252846FDF73AF80948007869
:105F4000094908608021204601F060FA2846FDF7E3
:105F500037F804212046B0BC04BC964601F06CBA68
:105F600000380140E800002020000240F0B587B072
:105F7000F04EF07828B12224305D28B14420305A08
:105F80002CE14420305A97E144200690305AEA49E7
:105F90008B7B590040F2E83289180125EF43327BB0
:105FA000BAB18142059554D2E34A527EB578AA42ED
:105FB0003FD1012504953576002503957587757BBE
:105FC000002D45D0039B3376049B9A1ADA4B5A7600
:105FD00031E0814200D392E0D74A527EB3789A42B0
:105FE00000D081E00494707F431E98414623F35A09
:105FF000C82B05952B4600D30346CF4D2C8EED6D57
:10600000A54200D80346012B069D68D1CB48002449
:1060100044600120C8494875801A4876FFF752FA53
:10602000F474705BC449897B490040F2E8328918F6
:1060300058E0327E62B900227273C14A00922F3A50
:106040002F23FFF711FA70870698305ABA498B7BD5
:10605000059D5F4340F2E8317A1840F2E83782420A
:1060600022D90494B17801256F1AB34C647EA742FB
:1060700008D1357600257587747B8CB13576AE4BAB
:10608000597601E0317E59B9002171732F230093B5
:10609000AB4BFFF7E9F970870698305AA6498B7B1E
:1060A000049C059D40F2E8375900CA19824204D386
:1060B0000022791A814204D904E00122791A81422E
:1060C00000D81546002D00D085E000217187327E72
:1060D000002A00D17FE00122727331767BE040F22A
:1060E000E8307053049C059D954A00922F3A2F2367
:1060F000FFF7BAF970870698305A8F498B7B39467B
:10610000594340F2E8328918814235D90391049409
:10611000B3780121CA1A884C647EA24237D101911A
:106120000293707F411E88414621715AC829059506
:10613000294600D30146804D2C8EED6DA542019B72
:10614000039A00D801460129069D029924D17A4874
:1061500041764375794800244460FFF7B3F9F4743D
:10616000705B7549897B4F4340F2E8317A1840F201
:10617000E837049C059D16E040F2E8375900CA193B
:1061800082421FD20122791A81421FD91FE0049C4A
:1061900040F2E837039A06E040F2E8307053049C7E
:1061A000059D40F2E8372F2100910021644BFFF755
:1061B0005BF970870698305A5F498B7B5900CA1982
:1061C0008242DFD30022791A814200D8154615B9E0
:1061D0000021F1747187315D00296ED040F2E834FE
:1061E00040F2E8312F3188422FD9534D697EB27881
:1061F000914223D1288EEF6D012200238742104661
:1062000000D818464627F75BC82F00D31A4610401F
:10621000727F531E9A410243012A0CD1474800273E
:10622000476001206875401A6876FFF74BF9F774EC
:106230004420305A02E0442100207052A97C4200E0
:10624000511A40F60102891A71870146303989B224
:10625000A1422DD2B1780122531A374C657EAB4250
:1062600021D1208EE56D00238542104600D81846C6
:106270004625755BC82D00D31A461040727F531E09
:106280009A410243012A0BD1617601206075EC48E6
:1062900000254560FFF716F9F5744420305A02E0F6
:1062A000442100207052A17C4200511A313971877B
:1062B0002F2802D80020F0747087DF4F787CF17EA1
:1062C00081420BD9F87848B1FCF72EF8FFF7FAF8BD
:1062D0004220002131526620F07665E0B07930B17D
:1062E000708F1D2822D84221002272524EE0B07BCE
:1062F000002856D0307828B3396D7B6D708F0091AF
:106300002F21CE4AFFF7B0F8CE4991FBF0F0397A51
:10631000490890FBF1F0F085708F2E2812D84220AA
:1063200000213152CA480160B1663DE01E281FD1EC
:106330001E202BE03C04002000000020B8040020B8
:10634000FF070000B46EC04D20462946FBF732F926
:106350000028204600D12846FBF770F942257053EB
:10636000BA492046FBF734F9F0B9302070531BE0EE
:10637000797B14224A43824208D9A02100911E2130
:106380002F23FFF771F842217052708F7A7B14210E
:106390005143814208D8A94A0092A023FFF764F82C
:1063A00000E0708F42217052707F08B107B0F0BDDD
:1063B00042200446305AB17950252A464A432F32AA
:1063C000824261D82020305C00285DD0307F0028D8
:1063D00047D1FBF7A9FF787D00283DD1307FC8BBAE
:1063E000787F797E01290AD1401C7877C1B20729CC
:1063F00002D30120707578770121014009E0401E29
:106400007877010603D10120707506207877012185
:1064100081433976EFF3108072B6307E10B9787F01
:10642000FCF768F862B6FCF701F8B06F894988425A
:1064300001D3012078750020B084F86D8649F96594
:10644000797F864A864B136049007D4A8918C88146
:1064500001203077FCF75EFE01203077B88EF086A1
:10646000B1792046305B3B8F744A17462F3F009727
:1064700009B1892100E02F216F4FFEF7F5FF30872A
:10648000307B08B900203076305BB17969432F3119
:1064900081425DD9307D05281BD8810001A25118A9
:1064A0008F46C04600F017B800F008B800F009B8F1
:1064B00000F00AB800F00BB800F000B8FFF7FCF8E5
:1064C00007E0FFF7D5F804E0FFF73EF801E0FFF73B
:1064D00043F9002030757878B8B1307F002871D04A
:1064E000787F3C214143B88C40183C3801B240F2DF
:1064F0006712914202DD40F26811401A705302B2F5
:106500005949782A10DCEF2310E000203087317FD2
:10651000002975D14A4948600120787530790028F2
:106520006AD0FDF779F86BE00B46EF331B18542562
:106530007353F02A01DC772100E0773108185221EB
:106540007052B079012801D1012070770020308786
:10655000307E002800D029E7355B2F2D10D37079CD
:106560001E21C14036484068884209D2B98E308F1A
:10657000884201D231870846F98E884200D9318796
:1065800040203946385A378F874201D9308707462D
:10659000F07B28B12E20085E874201DD87B2378765
:1065A000F46E00212046FAF7F7FF002800D0FDE640
:1065B000302D00D2FAE62046FBF740F83818308735
:1065C00007B0F0BD1E480021416001227A75F177C5
:1065D000307970B1B079002800D081E7B87A4000F6
:1065E0002049401830850692FFF746F90698307624
:1065F00076E7FBF799FE73E7307E08B9FBF794FE68
:10660000307E317B0029A4D00028A2D04420315A0A
:1066100040F2E83540F2E830FDF79AF8401930854D
:1066200080B2F98F491E814202DDFFF725F98FE71D
:10663000FCF7F2FF8CE7C04600000020FF070000D7
:10664000B80400200087930300E0FF4400004042AC
:1066500068000020A506000010270000241000405C
:1066600088130000BC07000098FEFFFF404802218D
:1066700001221023FDF716B9014908607047C04692
:10668000342C0140014908607047C046382C014055
:10669000014908607047C0463C2C01400B2800D3DC
:1066A0000B204000014908707047C046E4040020F8
:1066B000F0B587B040F200501230FFF755FA40F2C3
:1066C0000050FFF751FA2948FFF74EFA01242046FF
:1066D000FCF78EFC264F00264025384631462A46D8
:1066E000FDF748F80221384632462B46FDF7DAF826
:1066F0003846314622462B46FDF7DAF96F463846D2
:10670000FCF7FEFCBC7640F200103883194802907A
:106710000396194D28462830009005960196174893
:106720000078049020463946FCF778FC2046FCF7B8
:106730004FFC8021284600F069FE2046FCF740FC13
:10674000284600F070FEE1204102284600F030FEAD
:106750000421284600F070FE0821284600F074FE4F
:10676000284600F05BFE07B0F0BDC0460E060000F4
:1067700000040048DA04002000380140E80000204E
:10678000F0B585B0EF4F388F4626B853788E401C51
:106790007886788D401C7885B88D401CB88520257A
:1067A000785D00283FD1B87CE8BB2120395CD1B3AB
:1067B000798F19B156200021395234E056217A5A86
:1067C000521C7A5292B2EC4B9A422CD34022BA5AC3
:1067D0001F2A1CD3012004957855F87AD8B1582087
:1067E000385A40F27211B0FBF1F1B9744008B9287F
:1067F00013D300256424FEF783FF2046FCF7AAFA92
:10680000FCF792FF6D1CB87C8542F4D305E00022B2
:106810007A523A5407E0FEF773FF2320385C049D58
:1068200008B900203873F87970B15A20395A491CD8
:106830003952D24A12791423534389B28B4203D27C
:10684000002139520120F875787F002800D08CE1B2
:10685000CA4B587DE8B3387FD8B3FEF733FEFCF758
:106860007CFFC64B197E69B168B1F87F401CF87790
:106870009A7EC0B2904211D82420385C48BB2520B3
:10688000385C12E018B12520385C401C07E0F87F26
:10689000401CF8779A7EC0B290420BD90020252286
:1068A000B8542422BA5CA2B949B1D97EC0B2884298
:1068B00009D80EE02420385C58B92520385C197FAF
:1068C000C0B2884205D924200121395400F0C4FD0A
:1068D000AA4BB88D152800D2DDE000200190B885C4
:1068E000397FF87B00280495029141D000293FD0E0
:1068F0003420385E6321C9431A8C4A431018A049DA
:1069000088620A6C831A0C6B4A6B8D6B5A43CA639C
:106910000864444363198C6CA34200DB2346644241
:10692000A34200DC23468B63D218CB6A584310186D
:10693000CA6C9042049D00DB10465242904200DC3B
:1069400010464864FAF760FE8E49FAF754FCFAF7ED
:1069500075FE8A4BD98D091A0AB2188F824200DB64
:10696000084602B2998F8A4200DC0146D985029915
:1069700003967879002841D000293FD0588CD96DF2
:10698000081A7F4908658A6E831A8C6DCA6D0D6E70
:106990005A434A668866444363190C6FA34200DB7E
:1069A00023466442A34200DC23460B66D2184B6D9B
:1069B000584310184A6F904200DB104652429042F2
:1069C00000DC1046C866FAF71FFE6E49FAF713FCA2
:1069D0000146F86EFAF7B6FB06466B4D2946FAF704
:1069E00005FE00B93546FD66002628463146FAF711
:1069F000FDFD049D614B029900B9FE66B87B00283D
:106A0000039E48D0002946D0F88D60498968081A4D
:106A10005B4C2060A169421AA368E1682569514373
:106A20006161A06143435A19236A9A4200DB1A4606
:106A30005B429A4200DC1A46226189186268504320
:106A40000818616A884200DB08464942884200DC37
:106A50000846E061FAF7D8FD4A49FAF7CCFB01464F
:106A6000B86EFAF76FFB0646494D2946FAF7BEFDA8
:106A700000B935462846019E3146FAF79BFD00B91C
:106A80002E46BE66414840686328039E049D3B4BEA
:106A900001D800202061D87B60B3B96F40F2F410B8
:106AA000814201D8102300E00423F98E01229629A7
:106AB000144600D31C46354B5B68962B00D3224608
:106AC0002E48C274BB5B5C1A944209DD8918B95325
:106AD000C16D40F2F412914203461DD9012006E037
