:020000040800F2
:10100000600B0020E1100008C3150008AB150008B4
:1010100000000000000000000000000000000000D0
:10102000000000000000000000000000251600087D
:101030000000000000000000C51500082716000889
:10104000F3100008F3100008F3100008F310000874
:10105000F3100008F3100008F3100008A9150008A9
:1010600000000000F3100008F31000083915000814
:1010700027140008F3100008F31000080000000017
:10108000A5190008F3100008000000004D19000821
:10109000651900088D190008F3100008F310000806
:1010A000F3100008F3100008F3100008F310000814
:1010B000B11A00080000000000000000000000005D
:1010C000F310000800000000F310000803488546F4
:1010D00000F06CF900480047393A0008600B002026
:1010E0000448804704480047FEE7FEE7FEE7FEE7C6
:1010F000FEE7FEE72D160008CD10000803460B435F
:101100009B0703D009E008C9121F08C0042AFAD2BD
:1011100003E00B780370401C491C521EF9D2704743
:10112000D2B201E00270401C491EFBD2704700227F
:10113000F6E710B513460A4604461946FFF7F0FFD6
:10114000204610BDF8B502464A40D40F42004B007D
:1011500052085B089A4202D20246084611464A00EB
:1011600023D0C30D4A00DDB2120EAD1A202D35DAA0
:1011700049020126490AF6058A19002C00D052427C
:1011800020214F1B1146B9402A411018C20D9A4226
:1011900021D0002C17D0012D08DCDA05801AD20FDF
:1011A0008019D207DBB200F0C8F8F8BDDA05801A62
:1011B000012340001B06C01880185A428018CA0F2D
:1011C0001043490007E04908C2071143DA05801AB5
:1011D00080194008801800F0A8F8F8BD61000122CD
:1011E000511A001BF7E70122D2075140AAE701225A
:1011F000D2075040A6E770B502464A40D50F4000DE
:101200004A00ED0740085208002814D0002A12D0E6
:10121000C40DD30D41020120C0055202490A520AF1
:10122000E41A091812187D34914201D3641C00E0BD
:101230004900002C01DA002070BD0023914201D347
:10124000891A0343400849000028F7D100290AD031
:10125000914202D10121C90705E0914201D2012149
:1012600001E00121C943E005C018401900F05DF814
:1012700070BD0122D207002800DB101A002900DB14
:10128000511A814201D80120704700207047012285
:10129000D207002800DB101A002900DB511A814216
:1012A00001D201207047002070470122D207002898
:1012B00000DB101A002900DB511A814201D3012002
:1012C0007047002070470122D207002800DB101A67
:1012D000002900DB511A814201D90120704700200A
:1012E0007047C217C10F504010B54018CA07962367
:1012F000002100F022F810BDC20F4100400201237E
:10130000400ADB05D207090EC0187F2901DA002048
:101310007047962903DC9623591AC84001E0963994
:101320008840002AF4D040427047002904DA401C6B
:10133000490001D140084000704770B40024050CFA
:1013400005D11024000402D1002921D01124050E5A
:1013500001D100020834050F01D10001241D850FC1
:1013600001D18000A41C002801DB4000641C00297E
:1013700008D020252E1B0D46F540A14000D00121AC
:101380002943084301061B1B000ADB1D02D5002070
:1013900070BC7047DB05181880180029F8DA401C6B
:1013A0004900F5D170BC400840007047064C01254B
:1013B000064E05E0E36807CC2B430C3C98471034FD
:1013C000B442F7D3FFF786FE586600087866000837
:1013D00070B58C180578401C6B075B0F01D1037842
:1013E000401C2A1106D10278401C03E006780E70DA
:1013F000401C491C5B1EF9D12B0705D40023521E4B
:101400000DD40B70491CFAE70378401CCB1A921CD0
:1014100003E01D780D70491C5B1C521EF9D5A142DA
:10142000D8D3002070BD10B501204405204601F03E
:101430002DFD38B1204601F0EBFC10BC01BC864606
:1014400002F046B910BD0000F0B589B040F200507E
:10145000113003F0C9FD354803F0C6FD40F20050DD
:1014600003F0C2FD0620019003F072FC0920C006C3
:1014700003250027482329463A4601F0D3FE384683
:1014800001F088FB02A940F2001008838F76284AF9
:101490000292284A049240F2E8321832039005A8DA
:1014A000A4C0384601F08CFB384601F06BFB38468F
:1014B00001F058FB022000900126314600F0DAFBD3
:1014C00040F20010314600F0D5FB384600F022FB18
:1014D0003046294600F0FEFA00F006FC05243846A6
:1014E0002946224600F06CFB30460199224600F066
:1014F00067FB10210098224600F062FB07204104A0
:10150000304600F049FB3046314600F021FB00F048
:1015100015FB40F2E83001F033FA00F0CBFA00F0AE
:1015200005FB304600F092FB09B0F0BD0906000053
:101530004C240140FC04002010B50320042101F0DC
:1015400089FB58B11648007840B11648016802225C
:101550000A4302600320042101F072FB03200221F0
:1015600001F078FB01280CD103240121204601F071
:1015700067FB204601F0EEFA10BC01BC864604F081
:101580006DBF0320082101F065FB012806D103206F
:10159000012110BC04BC964601F052BB10BDC046F0
:1015A00055040020200400407047FEE780B502216A
:1015B00040F6A07001F04CFD80BC01BC864601F0F5
:1015C00073BD70477047000070B501F0BBFA422050
:1015D000114C205A4E25114E715B03224A431018BC
:1015E0008008705300F07CFE705BC108B2794A43FA
:1015F000A2864008801AE087E07D20B1A06F0849EC
:10160000884206D970BD01F079FBA06F0449884279
:10161000F8D8401CA06770BD3404002000000020F2
:101620000F270000704701F0D1B90000F0B481B07D
:101630004348021F136801210B43136013689B0783
:10164000FCD5036880241C43046000240094009BA4
:101650007F2B05D8009B5B1C0093009B802BF9D34C
:10166000036890251D4305600094009B7F2B05D8DF
:10167000009B5B1C0093009B802BF9D30323DD436D
:1016800006682E40066015682E4E2E4016600568CE
:101690002D4E2E40066005682C4E2E400660856A51
:1016A0000F26B5438562C56A40F20316B543C5628D
:1016B0000D04C66AAE43C662CD07C66AAE43C662B3
:1016C000056B8D430563446014680C431460204D22
:1016D000022416686F1EAF4202D226403D46F8D063
:1016E0001568AD0700D4FEE71A4D2E68264305277E
:1016F000BE432E60056805600568056005680560E5
:101700000568154E2E4006600568144E2E4306608F
:101710000D0616682E4316601568AD01FCD50268EB
:101720009A43026002682243026002681207FCD5F5
:10173000C80641F2000101B0F0BC03F023B9C04675
:1017400004100240FFFFF2FE0C00FF08FFFFC2770B
:10175000FF04000000200240FFFFC2F70000040861
:10176000F0B58FB07548FA3003F03EFC744F384640
:1017700004F0F2FC08AD284604F066FE00242C7349
:1017800070480A90089409943846294604F02EFDC2
:101790000CAE304604F0D7FC0E940D940C943846F1
:1017A0002146324604F030FB01210391384632468F
:1017B00004F02AFB022538462946324604F024FB71
:1017C0006022029238463E46214604F033FC082748
:1017D000304621463A4604F05BFC3046039E3146D3
:1017E000029A04F027FC564831463A4604F050FC71
:1017F000534E30462946029A04F01CFC30462946D6
:101800003A4604F045FC04AE304604F0D2FAB48106
:1018100006944D4805900494494F3846314604F0EB
:10182000B9FA2021384604F0EBFD802102913846B8
:1018300004F0E6FD384604F0A8FA404E304603F0C6
:10184000D3FB701C03F0D0FB8F4E30462946224656
:101850002B4601F0E7FC0327304621463A46019724
:101860002B4601F0E5FD304629462246039E3346CD
:1018700001F0D8FC844821463A46334601F0D8FDB1
:101880000920C606304629462246029F3B4601F003
:10189000C9FC30462146019A3B4601F0C9FD7A4F0A
:1018A000384629462A4601F025FC38462946039A3F
:1018B00001F020FC30462946029A01F01BFC30461C
:1018C0002946224640F2004301F0ACFC384621464E
:1018D000019F3A4640F2004301F0AAFD30462946F6
:1018E000224640F2002301F09DFC674821463A461B
:1018F00040F2002301F09CFD30462946224640F28A
:10190000001301F08FFC604821463A4640F2001374
:1019100001F08EFD3046294640F2004201F0EAFB1C
:101920003046294640F2002201F0E4FB30462946C9
:1019300040F2001201F0DEFB0FB0F0BD1105000017
:10194000002C0140B80B00003200002080B5044894
:10195000012104F059FD80BC01BC864603F064BD42
:101960000020004010B5084C0121204604F03BFC4B
:101970000221204604F037FC0421204610BC04BCA0
:10198000964604F030BCC0460040014080B5044893
:10199000012104F039FD80BC01BC8646FFF714BE6E
:1019A0000044014010B5394C0221204604F02FFDBF
:1019B000012803D10221204604F026FD0121204602
:1019C00004F025FD012806D10121204610BC04BCED
:1019D000964604F019BD10BDF0B585B040F2005038
:1019E000123003F001FB40F2005003F0FDFA264FE5
:1019F00000210191032610243846324623460294E2
:101A000001F016FD012538462946224601F072FBF9
:101A10001E4F39463431304601F046F91C493046F4
:101A200001F03AF91B481C490160FF2000061B49E0
:101A30000A688243A80710180860194840F6000198
:101A40000160184803F0D0FA1748F8620A20B8621B
:101A5000384604F095F903AD284604F0CEF9019C10
:101A6000049412480390384621462A4604F016FC96
:101A7000384604F0AFFB022103482246029B01F0E6
:101A8000D1FB05B0F0BDC046000400480004004092
:101A900014050020440002408A09000008E400E028
:101AA00000E100E001070000FFFF00000A00010064
:101AB000704700009048016808220A4302600168EC
:101AC0000907FCD4016804220A430260016849073F
:101AD000FCD4704702280ED0012818D10F20000531
:101AE0000B4A136883431360090509180140106805
:101AF00008431060704703200005054AD3688343FC
:101B0000D360090509180140D0680843D0607047C8
:101B10002C240140411E8841C00277490A6840F6E2
:101B200000039A43101808607047C0467248016865
:101B300040F200120A4302607047C0466E480168D6
:101B4000C90703D1016801220A4302607047C046F9
:101B500001220346134021B1674983B9800714D499
:101B6000704765491BB112050B6893430B608007F2
:101B7000F6D5086848F200029043086070471205E5
:101B80000B6813430B608007EAD5086848F200022F
:101B900002430A607047C046012803D0022809D1D9
:101BA000064800E00448544A136803401360106874
:101BB000084310607047C046FFFFF1FFFF8FFFFF33
:101BC000B0B5214B05280AD8052444430846A04057
:101BD0001F25A5409C6AAC4304439C621AE00B2875
:101BE0000BD8052444431E3C0846A0401F25A540B1
:101BF0005C6AAC4304435C620CE010280AD2052402
:101C000044433C3C0846A0401F25A5401C6AAC4309
:101C100004431C62092909D8032048438240072154
:101C200081405868884310435860B0BD122909D8D4
:101C3000032048431E3882400721814018688843AA
:101C400010431860B0BDC0460C240140C1072A49AA
:101C500002D1800707D47047012292050B68134315
:101C60000B608007F7D5012040050A6802430A602F
:101C70007047C04640F200120346134031B1194983
:101C80005BB942050ED4800713D470471549ABB930
:101C900042051AD48007F8D51EE00B6813430B6089
:101CA0004205F0D540F200420B6813430B608007F9
:101CB000EBD54868022202434A6070470A6840F246
:101CC00000139A430A604205E4D50A6840F20043D3
:101CD0009A430A608007D8D548680222904348603A
:101CE0007047C046042401400120C00502490A682B
:101CF00002430A607047C04608240140F0B581B035
:101D00004A233E4FF85A3E4C627E40F26711D2B1F0
:101D1000421E10B2002840F2671000D41046F8525C
:101D20004C22BB5A5B1E1DB2002D40F2671500D439
:101D30001D46BD524E22BA5A521E13B2002B00D479
:101D400011460A4617E0451C28B200228842104678
:101D500000DC2846F8524C23FD5A6D1C2EB28E42F0
:101D6000164600DC2E46FE524E23FB5A5B1C1DB26B
:101D70008D4200DC1A464E26BA534C27E15B00B276
:101D80004000204A105E0818E18F414340F2D070B5
:101D900091FBF0F0217A41430A2591FBF5F080B2E6
:101DA00003F0B2FAE05B1549C95F4900154A515E7C
:101DB0004018E18F414340F2D07091FBF0F0217A5E
:101DC000414391FBF5F080B203F0A4FAE05B0B49CC
:101DD000895F49000B4A515E4018E18F414340F250
:101DE000D07091FBF0F0217A414391FBF5F080B285
:101DF00001B0F0BC02BC8E4603F092BA340400205D
:101E000000000020DE00002070B53F4B1868042160
:101E1000014308208143196002249C6203210A05C2
:101E20000920C0060568954301221605AD19056015
:101E300040F2004585621D681543A5431D609A6206
:101E40008B0404689C439304E318036040F200236E
:101E5000836203684CF20004A34344F200041B199C
:101E6000036080238362090403688B4311045918BB
:101E7000016040F20011816270BDC04670B5214919
:101E80000A78214C20680C2398431AB10822104389
:101E9000206004E00422104320600220A06203229C
:101EA00013050920C00605689D4301235E05AD1991
:101EB00005600E78256895431EB1022635432560DE
:101EC00002E01D432560A36294040568A543DC0479
:101ED0002C1904600C7801684CF20005A94324B168
:101EE00048F200042143016005E044F2000421436C
:101EF000016080218162110402688A4359045118EB
:101F0000016070BD010000200004004810B5194CAC
:101F10002078042801D0012805D10521002002469F
:101F200000F036F82078052801D0022805D10621D6
:101F30000020024600F02CF82078062801D0032863
:101F400004D104210020024600F022F80A48047857
:101F50000120410509480368094A2CB11340036078
:101F600043680B43436010BD0B4303604368134059
:101F7000436010BD1D00002018000020080401402F
:101F8000FFFFDFFF1648016801220A430260704725
:101F9000B0B5134B1C68064D25408007000F49075C
:101FA000490E08189107890C401840191860B0BDF7
:101FB00083CFFFFF491E4A424A41D1024007400DEC
:101FC000081807490A6840F600739A4380180860A9
:101FD0007047C046024800684004C00F7047C046C2
:101FE0001C00014070B5401E052800D973E1810036
:101FF00001A251188F46C04600F00AB800F015B88B
:1020000000F045B800F075B800F092B800F0AFB835
:10201000B1480278B14908680C239843002A00D1DE
:10202000B1E0082210430860B2E0AC4B186804210C
:10203000014308208143196002249C6203210A05A0
:102040000920C0060568954301221605AD190560F3
:1020500040F2004585621D681543A5431D609A61E5
:102060008B0404689C439304E318036040F200234C
:102070008362994B1C7803684CF20005AB43002C3B
:1020800000D1B2E048F2000423430360BAE0934B6E
:1020900018680421014308208143196002249C61CF
:1020A00003210A050920C00605689543012216058B
:1020B000AD19056040F2004585621D681543A543D2
:1020C0001D609A628B0404689C439304E3180360C8
:1020D00040F200238362804B1C7803684CF20005B9
:1020E000AB43002C00D187E048F200042343036097
:1020F00088E07A4B18680421014308208143196065
:1021000002249C6103210A050920C0060568954345
:1021100001221605AD19056040F2004585626E4D3D
:102120002E781D688D43002E73D025431D6073E00B
:102130006A4B186804210143082081431960022476
:102140009C6203210A050920C00605689543012207
:102150001605AD19056040F2004585625E4D2E788A
:102160001D688D43002E68D025431D6068E05A48E5
:1021700002785A4908680C239843002A7AD008222A
:10218000104308607BE0042210430860022088624C
:10219000032213050920C00604689C4301235D0542
:1021A000641904600C681C430225AC430C608B610D
:1021B000910404688C4399046118016040F2002185
:1021C000816201684CF20004A14344F20004091941
:1021D000016080218162110402688A431904511848
:1021E000016040F20011816270BD44F2000423439B
:1021F00003608023836205E044F20004234303600C
:1022000080238362090403688B43510459180160D9
:1022100070BD15431D609A628B0404689C43D3040F
:10222000E318036003684CF20004A34344F2000483
:102230001B1903608023836212E015431D609A62BC
:102240008B0404689C43D304E318036003684CF2D6
:102250000004A34344F200041B190360802383613C
:10226000090403688B4311045918016040F20011FE
:10227000816270BD0422104308600220886203223C
:1022800013050920C00604689C4301235D056419F9
:1022900004600C681C430225AC430C608B62910403
:1022A00004688C4399046118016040F20021816246
:1022B00001684CF20004A14344F2000409190160D2
:1022C00080218161110402688A4319045118016058
:1022D00040F20011816270BD01000020000400483E
:1022E000F0B581B042204A4F3B5A4A4A141D4A4831
:1022F000417F4D002C19A41E2380D3889488E318B5
:1023000014891B1954891B1994891B19D2899A188D
:10231000121D52107A67427E012A0DD1491C417765
:10232000CAB2072A02D30121F974417701220A4077
:102330000276B87D80B90CE0491E41770A0603D1C8
:102340000121F9740621417701228A430276B87D82
:1023500010B9C8B2FFF746FEFFF7D8FDF86E2F4957
:10236000884205D37879F97A014301D00120F875C4
:1023700000267E84387B002847D0B87E002844D0D1
:10238000F88C796F081A264C2060A169421AA3685C
:10239000E168256951436161A06143435D19236A86
:1023A0009D421A4600DC2A465B429A4200DB1346F5
:1023B0002361C918626850430A18606A8242014664
:1023C00000DC114600964042814200DB0846E06195
:1023D000FEF787FF1349FEF70EFF0146F86DFEF783
:1023E000B1FE0646104D2946FEF76DFF00B9354691
:1023F0002846009E3146FEF74AFF00B92E46FE658C
:10240000B86F632801D80020206101B0F0BDC0463C
:1024100034040020B004002000000020D107000098
:102420005C00002000401C4600E0FF44F0B58FB087
:10243000E44806C8436F0D935B1AE34F7B811B048E
:102440005B0D3B81511A012500220E9208389942FA
:10245000294600D80E990C91F9618168C268511A19
:102460009942294600D80E990B9139620169426957
:10247000511A9942294600D80E990A9179628169C8
:10248000C269511A9942294600D80E990991B96238
:10249000016A426A511A99422E4600D80E9EFE6287
:1024A000816AC26A511A9942294600D80E99396345
:1024B000026B446BA21A9A422A4600D80E9A7A639B
:1024C000846BC76B3C1B9C422C4600D80E9C089426
:1024D000BD4FBC63046C476C3C1B9C422F4600D82C
:1024E0000E9FB94C0797E763846CC76C3C1B9C42FA
:1024F0002F4600D80E9FB44C06972764046D476D95
:102500003C1B9C422F4600D80E9FAF4C059767643A
:10251000846DC76D3C1B9C422F4600D80E9FAA4C71
:102520000497A764046E476E3C1B9C422F4600D85C
:102530000E9FA54C0397E764846EC76E3C1B9C42BC
:102540002F4600D80E9FA04C02972765046F476F57
:102550003C1B9C422F4600D80E9F01979A4C676502
:10256000806F0D9F381A984200D80E9DA5650C9873
:10257000464007984640701E8641F0000B9B59402C
:10258000069B59404B1E9941890001430A984240DD
:1025900005984240501E824157000F430998089EFB
:1025A0004640049846400398C000029989000818E4
:1025B00001994900441885480078854A11780143FB
:1025C00044D06019B91912780AB10F2250407E4EDA
:1025D000884236D11C367CCE7B48076B7A48416BEB
:1025E0007948806B92025B02134322021A43EB018B
:1025F0001343B2011A437B01734E1343090119437C
:10260000C000084334463C341ECC8D0005435100C5
:1026100029431943D44A00201080B289521CB28148
:10262000012C02D16B4A0123137030291DDB727813
:10263000DAB1694800220270CF480180B2700FB051
:10264000F0BDF089401CF0810FB0F0BD00F044FDFA
:102650005F4A0028B5D05C490879401C0871C0B2B7
:102660006528AED301201070ABE74A1E2E2A07D88A
:1026700059480170C04800220280C8B288B9E3E717
:1026800019B15548007860B9DEE73178012901D1E8
:102690000021717050490870B7490880B070002857
:1026A000D2D04E4909780029CED14849097800296D
:1026B000CAD0F178884202D00021B170F0700528AC
:1026C00005D3B178491CB170C9B20629BCD3002426
:1026D000B470401E14286DD8810001A251188F4695
:1026E00000F028B800F029B800F02AB800F062B86D
:1026F00000F029B800F05EB800F028B800F02EB85D
:1027000000F035B800F036B800F054B800F046B824
:1027100000F047B800F032B800F04CB800F04AB80A
:1027200000F048B800F046B800F044B800F02CB80B
:1027300000F02FB802F028FA3CE002F057FA39E036
:1027400002F02CF936E002F085FA33E02548012149
:10275000017023480470244801702BE02148047064
:102760001F480121017020480221017022E08048A9
:1027700004701FE07E48012101701BE0747140F677
:102780000060FF30F08015E0154800780121081A3C
:1027900001E013480078134908700BE002F09CFC3C
:1027A00008E040F60060F080012070713178012966
:1027B00000D17070084801780C4A117004700FB095
:1027C000F0BDC04614050020C003002052040020C4
:1027D0001406002049040020150600204E040020A5
:1027E0003604002019000020460400205C07002069
:1027F00070B582B0CC4C03CC081A40F22131411A9A
:10280000564A083C914209D8C84D697841B1E978E7
:1028100000295FD1A97869B3E8882CE04D4C81E0AC
:102820005349097871B153490A8840F2E83390421C
:1028300017D94B490C8840F2D0710091511C5B1C98
:10284000224612E046490A884849098840F2D07376
:102850002F3300932F2302F045F82F2807D10020B3
:1028600005E0424909880093002302F03BF8E86044
:102870003D4C57E0E880491CA970394E318880B240
:1028800000F020FC332802DB002068701BE0308859
:102890000721414305CC101A4018C0083080A978A0
:1028A000083C33290FD3193881B240F2D662891A15
:1028B000CA0F8918490821222A4B99540121E9702D
:1028C000308002F037F93088E880E8780028CFD0EF
:1028D00003CC081A297940F2E832FA32904208D241
:1028E000491C2971214A138807245C432018C00819
:1028F0001080C8B21C4C4C2814D317481B490A88B6
:10290000193293B2C0183330C30FC01840082023C7
:10291000144EF05400266E700A8002F0DDFB2E711A
:1029200002F0DEF800202080134802887F49C96841
:102930008C1A124B1B689C4201DDD11806E0541A18
:102940009C4203DDD11A018002B070BD018002B04B
:1029500070BDC0466A040020DFFCFFFF7605000062
:102960002800002016060020740400202600002005
:10297000370400202A0000206E040020D800002028
:10298000034900220A600A688242FCD37047C046AD
:1029900024480140B0B505460A4C002060620A494F
:1029A0000122204603F03DFD6800616A8142FCD3AC
:1029B0004821A16201222046B0BC08BC9E4603F01B
:1029C00030BDC0460048014050C3000003480168C4
:1029D00011B10168491E01607047C0461005002012
:1029E000F0B54F4BC9334F4843804F490E68002222
:1029F000042404E09219241D7C2C2E4608D00D5985
:102A0000AE1BF8D09FB2BE42F4D246803346F1E707
:102A10005109464C2161464D2F78012F2BD199B297
:102A2000012928D940F28074A24210D204290ED87C
:102A300000213E4C61713F4C2170012129703E4CB8
:102A40000C262670202404703C4C217013E00529CC
:102A500011D3D409182C0ED808290CD835490124D3
:102A60000C702C7031494C71334907260E702021AF
:102A7000017032490C701E46C93E31490C78012C58
:102A80000DD1B5B226498D4209D22A4D4721297070
:102A900001212B4D297002250570284D29703C43DA
:102AA0003CD19BB2022B39D340F280718A4211D2C1
:102AB000042B0FD800211D4A51711E4A11700121AB
:102AC0001B4A11701C4A0C231370202202701B48F1
:102AD0000170F0BD052B21D3D109182910D8082B7E
:102AE0000ED8144901220A7011490A700F494A711F
:102AF000114907230B702021017010480270F0BDAE
:102B0000B1B2074A914209D20A4947220A7001210B
:102B10000B4A11700222027008480170F0BDC046D5
:102B2000574D00005800002014050020200400200C
:102B300054040020D40000201D0400205304002071
:102B4000550400200248016801229143016070474A
:102B50000C4401401421414363480A5801239A431D
:102B60000A507047142141435F480A580123134318
:102B70000B507047142141435B480A5820239A4365
:102B80000A5070471421414357480A5820231343E1
:102B90000B50704710B5142242432D495218536808
:102BA0000124A3435360002353609360D3601361F7
:102BB00080000F22824008681043086010BDC046A4
:102BC000B0B514224243484813580124A34313507C
:102BD00013180C689C608C68DC600C8A5C6013586D
:102BE00043F60074A3434C681C43CB6823434C69F1
:102BF0001C4314500B7E5B1E5C425C41A3011458C5
:102C00004025AC43E31813504B7E5B1E5C425C4195
:102C1000E30114588025AC43E3181350897E4B1E02
:102C20009941090113581024A34359181150B0BDFC
:102C3000142242432C4813580B4313507047C0468C
:102C400080008140024802680A4302607047C04623
:102C50000400024010B502460020082917D80123BD
:102C60008B4040F21414234203460ED090000C46D1
:102C700084400848036823405C1EA3411424544345
:102C8000201880680840411E8841184010BD00404F
:102C900010BDC046000002401422424301481150BA
:102CA0007047C046140002401422424301481150AC
:102CB0007047C04610000240002181760183016008
:102CC00041608160C16001614161704710B54A1E79
:102CD0009141090114224243034813581024A3438D
:102CE0005918115010BDC04608000240142242433A
:102CF00088B20149505070470C0002400120400545
:102D000002490A6802430A607047C0460004014055
:102D1000F0B581B0EA4E00210091012430462246F0
:102D200003F0E4F930462146224603F0DFF902279A
:102D300030463946224603F0D9F904253046009939
:102D40002A4603F03FF8304621462A4603F03AF877
:102D5000304639462A4603F035F830682043306063
:102D60003046214603F065FB204D2868204328604B
:102D70002846214603F033FAE868A043E8601C487F
:102D80000168214301601B4801682143016021461D
:102D900003F025FA184D286820432860284621466C
:102DA00003F01DFAE8682043E860FEF74DFBFFF7EB
:102DB000E9F840F2E830FFF7E3FD104D28460099AE
:102DC000224603F093F928682043286040F200501F
:102DD000123002F0FFF840F2005002F0FBF801B0B0
:102DE000F0BC01BC8646FEF7F7BDC046004401407A
:102DF0000048014000100040002000400004004056
:102E00000248016804220A430260704744000240FD
:102E1000224908607047C04670B5194B1C46083CF3
:102E20002568854325601D1F2E6886432E601E6819
:102E300086431E605E6886435E6001290FD011B92B
:102E4000216801432160022A0ED0C143012A0FD01C
:102E5000A2B91A6802431A605A680A400DE029684C
:102E600001432960022AF0D119680143196002E088
:102E70001A680A401A605A6802435A6070BDC04618
:102E800008040140054908607047C04603490968C5
:102E90000140481E814108467047C0461404014065
:102EA000464908607047C0460248016880220A43CC
:102EB0000260704710200240B0B501463F4A404CC6
:102EC000052023461568ED0702D05B1CFAD3B0BD80
:102ED0001068C00616D41068400802231840F6D1C6
:102EE0005068184350609160506840210143516020
:102EF00005201168C90707D0641CFAD351689943AB
:102F00005160B0BD0420B0BD1068C00606D4106882
:102F100040081840516899435160B0BD0420516881
:102F200099435160B0BDC0462A48016810220A4347
:102F3000026070470448C168090603D5034901606F
:102F4000034901607047C0460420024023016745E1
:102F5000AB89EFCD70B50246184B194C05202546BC
:102F60001E68F60702D06D1CFAD370BD1868C00643
:102F700013D41868400802263040F6D1586801255D
:102F800028435860116005201968C90707D0641CE0
:102F9000FAD35968A943596070BD042070BD186800
:102FA000C00606D41868400830405968A9435960E3
:102FB00070BD04205968A943596070BD0C200240BF
:102FC0000000F1FF03490A6807239A4302430A609D
:102FD0007047C0460020024070B51C4B18680421A1
:102FE000014308208143196002249C6103210A05E2
:102FF0000920C0060568954301221605AD19056034
:1030000040F2004585621D681543A5431D609A6125
:103010008B0404689C439304E318036040F200238C
:10302000836203684CF20004A34344F200041B19BA
:10303000036080238361090403688B4311045918DA
:10304000016040F20011816270BDC046000400487A
:1030500070B5174B0E4A1A600E4D01242A46DE68E1
:10306000264012B1521C002EF9D1002276B95960C7
:103070000221DE680E4015B16D1C002EF9D12EB96B
:10308000054908409860074818602246104670BD00
:10309000555500000200F0FFFF0F000004480149F1
:1030A00001607047AAAA0000014802490160704708
:1030B00000300040CCCC00000148012103F08FB863
:1030C000002C0140401AC11740184840704780B595
:1030D000FEF780FFC0B280BD0248016810200840A2
:1030E0007047C046100400480148006880B270472D
:1030F00024100040F0B588B00F23DD43036AD407E5
:1031000001D02B400B430395F024E6430F019407B5
:103110000297054601D533403B433C4F0802540714
:10312000069001D53B400343394F08031407079528
:1031300001D53B4003430F04D4060196009702D506
:10314000344C23403B43344E0F05940601D53340A5
:103150003B43324D0E065406049601D52B403343B3
:1031600005972F4D0F07140601D52B40DB19079D3E
:103170006C6A2B62D30519D4069B244D91051CD48F
:10318000234E510520D4244B254D110522D4D104C2
:1031900024D40598910428D40498204B51042AD4AF
:1031A00011042CD40798446208B0F0BD039B1C4066
:1031B0000C43069B154D9105E2D501990C400299EF
:1031C0000C43134E5105DED52C401C43124B144DBD
:1031D0001105DCD534400443D104DAD50D48044050
:1031E0000098044305989104D6D51C4004430498E4
:1031F0000A4B5104D4D51C4004431104D2D52C40B1
:10320000E4190798446208B0F0BDC046FFF0FFFF24
:10321000FF0FFFFFFFFFF0FFFFFF0FFFFFFFFFF0BC
:10322000FFFFFF0FF0B581B001261E400324E543E8
:103230000468002E00D088E0C768002E00D08AE025
:103240000090980700D58CE025463E46580700D4EC
:1032500092E03020C04306401701374305400C017F
:103260002C43180700D48CE0C020C04307409601CF
:103270003E4304408D012543D80600D486E06048D3
:1032800006401702374305400C022C43980600D431
:1032900081E05C48074096023E4304408D0225438E
:1032A00058067CD5584806401703374305400C03A1
:1032B0002C43180677D55548074096033E430440F3
:1032C0008D032543D80572D551480640170437436E
:1032D00005400C042C4398056DD54E4807409604D4
:1032E0003E4304408D042543580568D54A480640AE
:1032F0001705374305400C052C43180563D547488F
:10330000074096053E4304408D052543D8045ED50D
:10331000434806401706374305400C062C439804E3
:1033200059D5404D2F40900638432C408E062643F9
:103330005C0454D53C4D2840140704432E400D072F
:1033400035431804009B56D54EE02C400C43C7680B
:10335000002E00D174E72F4017430090980700D447
:1033600072E70C20C043074096003E4304408D00A6
:103370002543580700D56CE72C463746180700D57B
:1033800072E725463E46D80600D578E72C463746F4
:10339000980600D57DE725463E46580682D42C4641
:1033A0003746180687D425463E46D8058CD42C4689
:1033B0003746980591D425463E46580596D42C4666
:1033C000374618059BD425463E46D804A0D42C4643
:1033D00037469804A5D4264638465C04AAD4354618
:1033E00004461804009B06D5104804409207A41810
:1033F000054088072D181D60DC6001B0F0BDC04697
:10340000FFFCFFFFFFF3FFFFFFCFFFFFFF3FFFFFCB
:10341000FFFFFCFFFFFFF3FFFFFFCFFFFFFF3FFFBB
:10342000FFFFFFFCFFFFFFF3FFFFFFCFFFFFFF3FAB
:10343000B0B5012902D14168194301E041689943BF
:10344000416084680321DD0701D08C4314439D074C
:103450002DD50C25AC43950025435C072AD42C467A
:103460001D072DD42546DC0630D42C469D0634D4C9
:1034700025465C0638D42C461D063CD42546DC0582
:1034800040D42C469D0543D425465C0546D42C46A5
:103490001D0549D42546DC044CD42C469D044FD44C
:1034A00025465C0452D42C461B0459D554E02546CD
:1034B0005C07D4D53024A54314012C431D07D1D576
:1034C000C025AC4395012543DC06CED540F200343F
:1034D000A54314022C439D06CAD540F60045AC43D3
:1034E000950225435C06C6D543F20004A5431403A8
:1034F0002C431D06C2D54CF20005AC439503254371
:10350000DC05BED50C04A54314042C439D05BBD596
:103510008D04AC43950425435C05B8D50C05A54343
:1035200014052C431D05B5D58D05AC4395052543E4
:10353000DC04B2D50C06A54314062C439D04AFD57C
:103540008D06AC43950625435C04ACD50C07A5431A
:1035500014072C431B0403D589078C439107641877
:103560008460B0BD80B562B60220FFF72BFD80BC41
:1035700001BC8646FFF7D8BCF0B581B040F20056DA
:1035800040F2005001F030FDFF200004474A11686E
:10359000814301239805009308181060444940F2C4
:1035A000004008600C4610684249084099074018DE
:1035B000106040F600002060FEF7D2F83E4801F0AF
:1035C00013FD3E483E4941600C462325056040F20C
:1035D0000060123001F008FD3A4FFC62BD623846CF
:1035E00002F0D3FB384602F0F5FD1136304601F00B
:1035F000FBFC0920C7060324002602233846214687
:103600003246FFF70FFE40F2006001F0EDFC202390
:10361000384621463246FFF705FE05213046324640
:10362000FEF7B6FC30463146FEF7C4FC009847056D
:10363000384631463246FFF7EFFB3846FFF722FCAB
:103640000C20314601F06AF940F20060113001F0BF
:10365000CBFC1D4C1A48E062A562204602F095FBA7
:10366000204602F0B7FD114CE0684FF60071884328
:10367000E0600F4D2F601048001D01F0B5FC1348AD
:103680003221C16247218162A1680A4A1140009B30
:10369000DA078918A160D904296002F09BFD01B006
:1036A000F0BC01BC864601F057BEC04608E400E00D
:1036B00000E100E0FFFFFF000407000028100040C9
:1036C000FFFF00000048014000440140002000408E
:1036D00070B5CD4CE06E7E281FD3FFF705FD7C282A
:1036E00007D8A08FC0084A2803D8A06F80087D287B
:1036F00007D3FFF7F9FC4E21C44A515A49088842C2
:1037000000D270BD207F401C2077C0B2652804D352
:1037100001F0FAF80020A06770BDFFF7E5FC422138
:103720006052BA4DA87D297E51B198B10026FFF7AD
:10373000CEFC0028E5D1761CA87D8642F7D309E0AF
:1037400040B10026FFF7C3FC0028DAD0761CA87D24
:103750008642F7D301F0D8F8002001F0F7FD297D6B
:10376000E08FC840E08770BC02BC8E4601F0AEBD61
:10377000F0B583B0A24CA349B022204601F054FC1E
:10378000607C401E414241419F4DA970A07C401E7B
:1037900041424141E970E07C012801D10120A8713A
:1037A000E07D042800D30220984FB871207D401E90
:1037B000414241417970607D401E41424141B970B2
:1037C000A07D401E41424141F970207E01460839EA
:1037D000282925D88E4D182808D38E490091182104
:1037E00030222B4601F07EF8F887207E01460C3906
:1037F0000B2907D800950C211822874B01F072F88D
:10380000F887207E804DFC21014008290DD1834995
:10381000009107211022824B01F064F8F88705E03F
:103820007B48B88701F05EFD08E0F88F80B201F0B8
:1038300059FDF88F4821785240217852607E014628
:103840003239642908D841086430788608461A302D
:1038500078871031398703E055203887962078869D
:10386000E07EF871A07E282670431430F883207F14
:10387000401E414241412971607F401E4142414109
:1038800069710525284601F057FD6078002800D1B0
:10389000A0E0A07F0B2800D80546284601F04CFD8B
:1038A0000020594D029028722321615C79732221F6
:1038B000615C5C4A891879852521615CFA31B9859A
:1038C0002021625C5200584BD218FA842122A25C5B
:1038D0005200564BD2183A85E27F521E5342534152
:1038E000EB712422A25C521E53425341AB7226223A
:1038F000A25C521E53425341EB72A25D531F142B24
:1039000000D83A732922A25C531E092B00D87A7280
:103910002A22A25C531EDBB2082B14D84623FD5A80
:103920000926F6435643383EF0B22D18FD52364D67
:10393000BA72FE72627E53081B183B8712187A8691
:10394000FA8E1018F8862B20225C1046463846283E
:10395000029E00D87A712C20225C501E622803D867
:1039600001206873500038842D20225C501E0928E5
:1039700000D83A722E20235C092B11D8042B13D8BF
:103980002A462132980001A42018874600F008B882
:1039900000F02BB800F006B800F006B800F028B828
:1039A0002E84234A01201070FA8B90084A2800D8F0
:1039B000FE731120B2FBF0F0FB79B1FBF3F1B0FB29
:1039C000F1F04423F8526420B2FBF0F0B0FBF1F0C8
:1039D00042217852C8203886787808B103B0F0BD0B
:1039E0000020EA49C87003B0F0BD01206854D8E750
:1039F0000F4806700F48012202702A462032D1E794
:103A000016060020007C000834040020000000207E
:103A1000B80B0000DC0500007017000094110000D6
:103A2000282300005E050000EE020000D60600001C
:103A3000C1030020C00300208AB0FFF793FDFFF709
:103A40009BFDFFF765F9FFF793FECF48007825212E
:103A5000CE4F7854CE4CCF494A780878E3789842D4
:103A600002D123799A422ED02271E070601D891C08
:103A70000C22FDF743FBC848017861708179E1753C
:103A8000B978491E4A424A416274F978491E4A424D
:103A90004A41A274B979491E4A424A41E2744178C6
:103AA000491E4A424A4122758178491E4A424A418A
:103AB0006275C078401E41424141A175B021B74AAC
:103AC000204601F03DFBB87910B1B348818E4186A4
:103AD000B14CE08F4821049160524623E15A4143A2
:103AE00040F2D072B1FBF2F10393E152A087B978B2
:103AF000491E4B1E99416176E18E4143B1FBF2F0C4
:103B0000E17A4018E0866078002800D1DFE2F87A98
:103B1000A34998B10846BE30039960520020B8719D
:103B20000121F970E17360806070208F323020874E
:103B3000608F32306087608E3230608601F08AF8A4
:103B400000200690F886FDF731FD01F0BBFA01F088
:103B500075FA387808B101203873924D012007902A
:103B600004E0002001F0C4FBFEF74EF901F0AAFAD0
:103B7000398EC829079B1A4600D3069AB86F642865
:103B8000854C00D8069B40F2E836B04202D809B115
:103B9000134001D000227A769F2903D8BA790AB15E
:103BA00000227A76FA7B42B140F2F412643A92B281
:103BB000914208D20021797605E0952901D8642147
:103BC00000E00A216174796F0322089291FBF2F1FF
:103BD000F9660B281BD3F87CC8B173480068FFF75F
:103BE00071FAF96E0A097C2A0DD84A0890420AD95E
:103BF0000020B867B8760120F875B87B401CB87310
:103C0000608E4008F885684801600020F874FF2045
:103C10000206296891434E26A25B972A05D32960A4
:103C2000686840210143BF2004E0012292078918FF
:103C30002960696881436960787D90B1786EFDF78D
:103C40005BFB03464420395A2420385C5222BC5A7C
:103C5000BA8D0094504C00F055FA01F015FB00208D
:103C60007875387D401C3875C0B265284ED3542015
:103C7000385A24217A5C07235A431018C008785414
:103C80004421785A58435622BA5A484D6A43484B01
:103C9000B2FBF3F2237C53436422B3FBF2F210181D
:103CA000C00878525821795ABA6E3F2353435918A5
:103CB0008911B966694340F2343291FBF2F10A048A
:103CC00000D50021B985B97A364DE9B1397CA28D8C
:103CD0004A4380B2824215D9388D401C3885F97E1E
:103CE000344A5143344A891880B281420CDA0024A4
:103CF0003C87FEF789F800F007FEFC86BC76BC77AF
:103D0000F74C01E00020388500203875002009902C
:103D10003877F87E002851D0388F312800D2B7E0AC
:103D2000B97F002900D1B3E0882800D9CEE0787AA5
:103D300050B1FEF707FF00F0E7FD099D284601F0AE
:103D4000D7FAFEF79BF87D72FDF7D8FFE179E548D9
:103D5000B0FBF1F2388F0092E74AB2FBF1F3302169
:103D6000782200F0BFFD25464A24285380B2FEF792
:103D700007FE285B40F2F4116431B1FBF0F05221F0
:103D80007852DB4DF2E6C046FC0F000834040020F8
:103D900016060020AE03002000000020007C000872
:103DA0002A03000008E400E0B0040020E40C000056
:103DB000FF0F00007CFCFFFF204E00000596786F8F
:103DC000CE4991FBF0F0B97E41435220395288B27E
:103DD0000A21B0FBF1F05A217852E17B79B10399C5
:103DE000635A4421625A4221615ABD4C049EA45B2D
:103DF000BF4D0094BA4C00F075FD40216052242064
:103E0000385C627990420BD90499615A012300937E
:103E10004B0811460A390A3200F064FD4021605215
:103E2000059EA15BBA6F0C20642A0DD340F2F412F8
:103E3000914209D8F86E0C2100916421032340F2CD
:103E4000F41200F04FFDA15B642900D20220A0759E
:103E5000E18B40F2F412914201D24000A075F87D4E
:103E600000286FD0B87E00286CD000F04DFDFFF721
:103E70002EF9217E00295BD000285BD0787F401C82
:103E80007877A27EC0B2904258D92320099A54E094
:103E900001247C723879002800D162E6904BD88FDB
:103EA000597A4900411813398AB29B8F5343B3FBA7
:103EB000F0F2801A401C50257853B98700F010FFAB
:103EC000785B8B4D01F014FABC754FE601247C72CF
:103ED000FDF714FF388FC82806D94A215020804AA0
:103EE0005052099A7A5202E04A207D49085AFEF758
:103EF00047FD4A20385A002800D037E678497B48E9
:103F000088537C83FC750C46F8667A49086001F09A
:103F10001DFA0998B8750A20B867607D60777879CE
:103F200008B1608F2087FEF7DBF9FFF7C5F81DE6C3
:103F30000028A3D023203A5C521C3A5422203A5C39
:103F4000002A4FD0FFF7D0F86D49884200D20DE625
:103F5000B87E012800D009E63546787E401C787688
:103F600000F0D2FC0120F875388F2F2801D809986D
:103F7000B876099EBE67FFF7B7F84224385330463B
:103F800001F0E4F9385B564A2C46515B089B4B43E1
:103F900018188108515389B2D27DB1FBF2F1B9866C
:103FA000C008401AF887FFF79FF8F98F884202D2BD
:103FB000B86F0928F7D8FEF793F9232009993954E7
:103FC0007977B86F401CB8677979FA7A0A43484D17
:103FD00032D0142800D2C9E54148005B42498842EA
:103FE0002DD3C3E52323FA5C71B3E17E8A42A9D9BC
:103FF000029301213954FFF777F842243853002007
:10400000019001F0A3F9385B354CA15B089A51434C
:1040100008188108A15389B2E27DB1FBF2F1B9869B
:10402000C008401AF887FFF75FF8F98F884232D24C
:10403000B86F0928F7D82EE01F2800D296E5099816
:10404000F875FEF75BFE91E5217F8A4200D879E79B
:10405000029301213954FFF747F8422438530020D6
:10406000019001F073F9385B1D4CA15B089A514334
:1040700008188108A15389B2E27DB1FBF2F1B9863B
:10408000C008401AF887FFF72FF8F98F884202D24C
:10409000B86F0928F7D8FEF723F90298019B3B5423
:1040A0007B77B86F401CB8677979FA7A0A4307D0F2
:1040B000142800D246E7A05B0B49884203D341E7AE
:1040C0001F2800D23EE7FB75FEF718FE3AE70020F6
:1040D000B871F87A0349002800D01BE52EE5C046E8
:1040E000000000202A030000D10700002823000060
:1040F00008E400E0B0040020581B0000C0270900BD
:10410000C9AF0000F0B583B0EF4C089D2572A371D4
:104110002271A170207002952D0A0195E57100931E
:104120001B0A6371170AE7700E0A667044000725C0
:1041300040B2002800DA71E1600064B2002C00DABD
:1041400072E1440040B2002800DA73E1600064B21A
:10415000002C00DA74E1440040B2002800DA75E176
:10416000600064B2002C00DA76E1440040B200281E
:1041700000DA77E1600064B2002C00DA6840704039
:10418000440040B2002800DA73E1600064B2002C01
:1041900000DA74E1440040B2002800DA75E1600002
:1041A00064B2002C00DA76E1440040B2002800DA64
:1041B00077E1600064B2002C00DA78E1440040B29C
:1041C000002800DA79E1600064B2002C00DA68406F
:1041D0004840410040B2002800DA77E1480049B287
:1041E000002900DA78E1410040B2002800DA79E1E4
:1041F000480049B2002900DA7AE1410040B20028C3
:1042000000DA7BE1480049B2002900DA7CE1410094
:1042100040B2002800DA7DE1480049B2002900DA06
:1042200068404740780079B2002900DA79E141001E
:1042300040B2002800DA7AE1480049B2002900DAE9
:104240007BE1410040B2002800DA7CE1480049B23D
:10425000002900DA7DE1410040B2002800DA7EE169
:10426000480049B2002900DA7FE1410040B200284D
:1042700000DA69404A40500051B2002900DA7BE17F
:10428000410040B2002800DA7CE1480049B2002930
:1042900000DA7DE1410040B2002800DA7EE148000A
:1042A00049B2002900DA7FE1410040B2002800DA7B
:1042B00080E1480049B2002900DA81E1410040B2C2
:1042C000002800DA69404B40580059B2002900DA52
:1042D0007DE1410040B2002800DA7EE1480049B2A9
:1042E000002900DA7FE1410040B2002800DA80E1D5
:1042F000480049B2002900DA81E1410040B20028BB
:1043000000DA82E1480049B2002900DA83E1410085
:1043100040B2002800DA6940009A4A40500051B289
:10432000002900DA7EE1410040B2002800DA7FE196
:10433000480049B2002900DA80E1410040B200287B
:1043400000DA81E1480049B2002900DA82E1410047
:1043500040B2002800DA83E1480049B2002900DABF
:1043600084E1410040B2002800DA6940019A4A40E5
:10437000500051B2002900DA7FE1410040B200282C
:1043800000DA80E1480049B2002900DA81E1410009
:1043900040B2002800DA82E1480049B2002900DA80
:1043A00083E1410040B2002800DA84E1480049B2CC
:1043B000002900DA85E1410040B2002800DA6940B6
:1043C000029A4A40500051B2002900DA80E14100CF
:1043D00040B2002800DA81E1480049B2002900DA41
:1043E00082E1410040B2002800DA83E1480049B28E
:1043F000002900DA84E1410040B2002800DA85E1BA
:10440000480049B2002900DA86E1410040B20028A4
:1044100000DA87E1C648417203B0F0BD6C4060002D
:1044200064B2002C00DB8CE66840440040B20028F7
:1044300000DB8BE66C40600064B2002C00DB8AE697
:104440006840440040B2002800DB89E66C40600010
:1044500064B2002C00DB88E66840440040B20028CB
:1044600000DB87E66C40600064B2002C00DA85E671
:1044700085E66C40600064B2002C00DB8AE6684090
:10448000440040B2002800DB89E66C40600064B262
:10449000002C00DB88E66840440040B2002800DBC6
:1044A00087E66C40600064B2002C00DB86E6684062
:1044B000440040B2002800DB85E66C40600064B236
:1044C000002C00DA83E683E60205002069404800FC
:1044D00049B2002900DB86E66840410040B200286E
:1044E00000DB85E66940480049B2002900DB84E62C
:1044F0006840410040B2002800DB83E66940480084
:1045000049B2002900DB82E66840410040B2002841
:1045100000DB81E66940480049B2002900DA7FE605
:104520007FE66840410040B2002800DB84E6694035
:10453000480049B2002900DB83E66840410040B2F0
:10454000002800DB82E66940480049B2002900DB10
:1045500081E66840410040B2002800DB80E6694007
:10456000480049B2002900DB7FE66840410040B2C4
:10457000002800DA7DE67DE66840410040B2002870
:1045800000DB82E66940480049B2002900DB81E691
:104590006840410040B2002800DB80E669404800E6
:1045A00049B2002900DB7FE66840410040B20028A4
:1045B00000DB7EE66940480049B2002900DB7DE669
:1045C0006840410040B2002800DA7BE67BE66840A4
:1045D000410040B2002800DB80E66940480049B253
:1045E000002900DB7FE66840410040B2002800DB84
:1045F0007EE66940480049B2002900DB7DE668405C
:10460000410040B2002800DB7CE66940480049B226
:10461000002900DB7BE66840410040B2002800DA58
:1046200079E679E66840410040B2002800DB7FE689
:104630006940480049B2002900DB7EE6684041003D
:1046400040B2002800DB7DE66940480049B20029FD
:1046500000DB7CE66840410040B2002800DB7BE6DE
:104660006940480049B2002900DB7AE66840410011
:1046700040B2002800DA78E678E66840410040B2AF
:10468000002800DB7EE66940480049B2002900DBD3
:104690007DE66840410040B2002800DB7CE66940CE
:1046A000480049B2002900DB7BE66840410040B287
:1046B000002800DB7AE66940480049B2002900DBA7
:1046C00079E66840410040B2002800DA77E677E6F4
:1046D0006840410040B2002800DB7DE669404800A8
:1046E00049B2002900DB7CE66840410040B2002866
:1046F00000DB7BE66940480049B2002900DB7AE62E
:104700006840410040B2002800DB79E6694048007B
:1047100049B2002900DB78E66840410040B2002839
:1047200000DB77E669400248417203B0F0BDC04645
:1047300002050020F0B584B0634BDF8817B100207C
:10474000D88031E0614A62480078624938B1106827
:10475000884204DCC10B012904D107221FE011604B
:1047600007221DE0810B012901D1062217E0410B30
:10477000012901D1052212E0010B012901D10422F6
:104780000DE0C10A012901D1032208E0810A0129B3
:1047900001D1022203E0410A491E4A424A41014630
:1047A0001A61114157020F434B4800788000029074
:1047B0004A490E18802373603D0128134849085C5C
:1047C0000190C4001946A143B1603A0914467C40E7
:1047D000380A60400F2403942040451965403A4848
:1047E0004561019804011C404C40F460C0030190F5
:1047F000039802403A49895C00918A0201990A4370
:10480000910A19406140316107403548C05D01900F
:1048100044011443039805403148475D25463D4314
:1048200029488561500A184048407061110A1940B2
:104830004140B161009AD00018404840F061110138
:104840001940414031627F20C043014062091A4053
:104850004A407262210919405140B162E2081A408F
:104860004A40F262019CE10019405140316322014B
:104870001A404A407263294619405140B1630140D1
:104880006A001A404A40F263A9001940514031645D
:104890000022124C029D6251FA001A404A40726492
:1048A000390119405140B1647A011A404A40F2641A
:1048B000B9011940514031650140F801C0B248408A
:1048C000706504B0F0BDC046C0030020A8040020FD
:1048D0004E040020FFFF00001D040020C806002039
:1048E00046660008B0B5049D88420C4600DB0446CD
:1048F000E81A9442154600DC25466C1A6043511AAA
:1049000090FBF1F0C018B0BD0120400502490A68D3
:1049100082430A60486170470004014070B540B2AC
:10492000002817D4032302469A43144BD458850712
:10493000ED0EFF26AE40B4438901C9B2A940214320
:10494000D1501F21014001228A40400980000C49BA
:10495000425070BD8207D20EFF2494400F230340C3
:10496000083B0320834304481D58A5438901C9B26D
:1049700091402943195070BD1CED00E000E400E0B7
:1049800000E100E0034A0A40024303480260BFF32B
:104990004F8F704780FFFF1F08ED00E070B5CC48D7
:1049A00000F0A0FCEFF3108072B6CA48007800F067
:1049B0009FFC792514260A24AD1E00F083FBB5FB6D
:1049C000F6F0FDF70FFB68080A3080B200F0AEFC8D
:1049D0002046FDF7DFFF022DEED8FDF715FA002483
:1049E000204600F0A3FCBC480480BC48008800F0CE
:1049F00079FC62B670BDC046F0B585B00320FDF706
:104A0000F1FA00253227B44CFE2002900A200190D2
:104A10002846039504E00498401CBF1CAE2F45D2E5
:104A2000049000F04FFB25802948C0198678FF2E9E
:104A3000F1D0C5785DB3019800F078FCF7206843A9
:104A400040F6A07140182349B1FBF0F52248B0FBB5
:104A5000F5F4A0B200F046FC9E48007860439E4CFE
:104A60009B49B0FBF1F080B200F042FC0498C0B268
:104A70000299484380191949B1FBF5F1414364207B
:104A8000B1FBF0F080B2FDF785FF039D0AE0039DC6
:104A9000284600F02DFC0498C0B2029948438019C2
:104AA000FDF778FF2846BF1CAE2FB9D3FDF7ACF950
:104AB00025460024204600F039FC8848008800F094
:104AC00011FC2C8005B0F0BC01BC864600F0FABA9F
:104AD0001606002080969800003E4900A08601003E
:104AE00010B57B4800F0FEFB282000F01FFC794841
:104AF000007800F0FDFB0220FDF774FA96242046B2
:104B0000FDF748FF00F0DEFA502000F00FFC2046D1
:104B1000FDF740FFFDF778F90024204600F006FC81
:104B20006D4804806D48008810BC02BC8E4600F0C1
:104B3000D9BBC04610B5664800F0D4FB322000F067
:104B4000F5FB6448007800F0D3FB0220FDF74AFA39
:104B500096242046FDF71EFF00F0B4FA1E2000F058
:104B6000E5FB2046FDF716FFFDF74EF90024204631
:104B700000F0DCFB584804805848008810BC02BC98
:104B80008E4600F0AFBBC04610B5EFF3108072B692
:104B90004F4800F0A7FB00F095FA502000F0C6FB4C
:104BA0004C48007800F0A4FB0320FDF71BFA6424B6
:104BB0002046FDF7EFFE462000F0B8FB2046FDF74B
:104BC000E9FE282000F0B2FB2046FDF7E3FEFDF7EA
:104BD0001BF90024204600F0A9FB3F4804803F4811
:104BE000008800F07FFB62B610BDC04610B53848A3
:104BF00000F078FBEFF3108072B600F063FA3C200F
:104C000000F094FB3348007800F072FB0120FDF7C0
:104C1000E9F94B242046FDF7BDFE502000F086FB4D
:104C20002046FDF7B7FE5A2000F080FB00F04AFA5C
:104C30002046FDF7AFFEFDF7E7F80024204600F020
:104C400075FB254804802548008800F04BFB62B6C0
:104C500010BDC04610B5EFF3108072B61B48007847
:104C6000FF2802D0FFF7C8FE2AE0194800F03AFBFF
:104C70001848007800F03CFB0320FDF7B3F937201B
:104C800000F054FBC8242046FDF784FE0520FDF704
:104C9000A9F9282000F04AFB2046FDF77BFE0620FC
:104CA000FDF7A0F9192000F041FB2046FDF772FE48
:104CB000FDF7AAF80024204600F038FB06480480DF
:104CC0000648008800F00EFB62B610BD307C00087C
:104CD000B80B00000C050020740400203E000020EA
:104CE00010B5032211050920C00603688B4301217A
:104CF0000C051B19036040F20043836293040468AF
:104D00009C438B04E318036040F200238362120487
:104D1000036893430A049A18026040F20012826208
:104D20000A4A136808241C4304239C431460136834
:104D300002241C438C43146001684CF2000291432E
:104D400048F200028918016010BDC0460004004806
:104D500010B531490A462C3A13684CF20004A343BB
:104D600013600B682D4C1C400C60092852D883003E
:104D700001A4E3189F46C04600F012B800F015B831
:104D800000F01DB800F01EB800F01FB800F021B808
:104D900000F023B800F025B800F032B800F025B8D4
:104DA000012000040A68824303E0012000040A682D
:104DB00002430A60086840F20012904329E010683C
:104DC000106022E01068106014E0106844F20003E4
:104DD00019E0106844F200030AE0106848F200038A
:104DE00011E0106848F2000302E010684CF2000382
:104DF000034313600120C0070A6802430A6004E00D
:104E000010684CF20003034313600A6840F200107C
:104E10001043086010BDC04630100240FFFEFE7F08
:104E2000F0B581B00246614B18680C210140604822
:104E3000082904461BD119688902090F0F2904D0DB
:104E40008C1C1D682D0104D405E010241D682D0163
:104E500001D511310C461968C90301D4554905E043
:104E6000996A0F250D40691CB0FBF1F14C431D6898
:104E700018681968052A21D800902D062D0F4EA715
:104E80007F5D2546FD408904490F4F4F7E5C2946D2
:104E9000F140960001A080198746C04600F00AB88C
:104EA00000F010B800F012B800F005B800F017B824
:104EB00000F01EB82146084601B0F0BD00210846AA
:104EC00001B0F0BD2946084601B0F0BD009840058C
:104ED000400F385CC5402946084601B0F0BDD86A8D
:104EE000C0051CD4D86AC00330D5394801B0F0BD24
:104EF000D86A8007DFD0D86A0322104001282146F3
:104F0000D9D0D86A104048F200010228D3D0D86A1C
:104F100010400328264800D0002001B0F0BD1A68D8
:104F2000D86A1204920F930001A4E3189F46C0466A
:104F300000F006B800F00DB800F011B800F017B896
:104F400000281AD44908084601B0F0BD1F4801B036
:104F5000F0BD002817D48908084601B0F0BD00282C
:104F600017D40620B1FBF0F1084601B0F0BD0028CF
:104F700015D4C908084601B0F0BD0320B5FBF0F117
:104F8000084601B0F0BD0520B5FBF0F1084601B0C0
:104F9000F0BD0720B5FBF0F1084601B0F0BD0920D7
:104FA000B5FBF0F1084601B0F0BDC0460410024068
:104FB00000127A0000093D0000000000000000001F
:104FC00001020304060708093E660008809FD50019
:104FD000003FAB011F21014001228A408009114995
:104FE00043589343435070471F21014001228A4098
:104FF00080090C4943581343435070471F21014017
:1050000001228A408009074943589343435070471F
:105010001F21014001228A4080090249435813435D
:105020004350704700100240012A05DB0B780370E3
:10503000491C401C521EF9D170470000F0B581B0E8
:105040000325002628463146FDF740FE894C2046C0
:1050500001F082F81448A0610A2020621348007809
:10506000A0621348E06201272046394601F0B7F8F4
:10507000666210491048C860804806700F48017881
:105080002846FDF733FE204640F2002101F09EF84D
:10509000206A384320622068384320600848054968
:1050A000086001B0F0BDC04601700000D4000020CF
:1050B000FFFF0000440002401405002058000020BB
:1050C0008B090000FDF7EABF024800214160016042
:1050D0007047C0462404004090B415490A7815482A
:1050E00042708A79C275144A93785B1E5C425C41B7
:1050F0004474D3785B1E5C425C4184749279521E86
:1051000053425341C3744A78521E5342534103756C
:105110008A78521E534253414375C978491E4A4208
:105120004A418275B021054A90BC00F009B8C046DA
:10513000000000201606002034040020007C000837
:10514000F0B503AF87B06E46F51D0D353261716065
:105150000446C817800F0B1803211A468A43D11D35
:10516000072291436A46501A99108546B060F16053
:10517000FBF7DDFF706804280FDBB068F168E278A8
:105180001206A3781B049A1863781B02D21823789E
:10519000D21804C0241D491EF1D1F0686860FDF7E3
:1051A000C9FE3069810502D1FDF786FE3069002114
:1051B00029602A6869688A42B46814D23421F1608F
:1051C0002A6829688900615892001018FDF7C2FE0C
:1051D000F068FDF765FE30692968491C29602A6876
:1051E00069688A42ECD3FC1F053CA546F0BC01BCB3
:1051F0008646FDF759BE0000F0B581B003260124B4
:1052000030462146FDF762FD1A4D284600F0A4FF06
:105210006020A8612E6218480078A862174F3C7081
:105220006420E8622846214600F0D9FF1448154959
:105230000160797817313046FDF758FD022130467C
:10524000FDF7F6FC08213046FDF7F2FC3046FDF78D
:1052500089FC284640F2002100F0B8FF286A20436C
:1052600028622846214601F0E4F828682043286097
:1052700001B0F0BD00040040250400201C04002003
:1052800050000240C8060020B0B5654C0021204601
:1052900001F0B6F90821204601F0BAF901252846A7
:1052A000FDF758FC5F4800780749086080212046D8
:1052B00001F090F92846FDF755FC04212046B0BCCA
:1052C00004BC964601F09CB920000240044900222B
:1052D0008A6108624A600868012202430A607047D6
:1052E0000C440140014908607047C0462C2C014025
:1052F00007490860486088607047C04601480168F7
:105300000160704720040040014908607047C046B2
:10531000342C0140014908607047C046382C0140D8
:10532000014908607047C0463C2C014001490860B3
:105330007047C046282C01400B2800D30B204000AA
:10534000014908707047C0460C0500200148002143
:105350000160704724100040F0B587B040F2005063
:105360001230FFF741FE40F20050FFF73DFE2948A2
:10537000FFF73AFE01242046FDF70CFC264F0026DD
:105380004025384631462A46FDF7B4FE022138460C
:1053900032462B46FDF746FF3846314622462B461D
:1053A000FEF746F86F463846FDF786FCBC7640F2BD
:1053B00000103883194802900396194D284628306A
:1053C00000900596019617480078049020463946CB
:1053D000FDF7F6FB2046FDF7CDFB8021284601F0C6
:1053E000F9F82046FDF7BEFB284601F000F9E12060
:1053F0004102284601F0C0F80421284601F000F9D6
:105400000821284601F004F9284601F0EBF807B01E
:10541000F0BDC0460E060000000400480205002052
:1054200000380140DC000020F0B585B0E64E707811
:1054300002280FD0012803D1FCF7F8FF002070707C
:10544000708D401C7085F07850B12024305D48B1DB
:10545000708FD1E0FFF76EF90020707000F059FCFA
:10546000708F17E1D948437B580040F2E835411965
:10547000708F01220492D743F27A7AB1814233D2FB
:10548000D24A527EB578AA4220D100253586B57E13
:10549000C5B10499B17540F2E83525E081426AD280
:1054A000CA4A527EB3789A425BD14E20C74B185AF3
:1054B0001B8E984244D8F07E002841D140F2E8305B
:1054C00070874EE0049DAA1AC04D6A76B27D40F204
:1054D000E8354AB9BE4A00922F3A2F23FFF702FA65
:1054E0003086BA48437B708F5F437A1982421DDD54
:1054F000B178049D6D1AB54F7F7EBD4208D1B57E4F
:1055000015B10499B17501E0B04D6976002131867D
:10551000B17D49B92F2100910021AD4BFFF7E2F990
:105520003086AA48437B708F40F2E83559006A1AEA
:1055300082425ED8491981425BD30021B17557E0A0
:105540000025B5670498F075801AA0494876FFF7E2
:10555000DBF9757440F2E8359C48407B4000411906
:10556000708F9B4A00922F3A2F23FFF7BBF93086AA
:105570009648437B708F394659434A1982422EDD43
:10558000B37804990393CB1A90494D7EAB4209D16D
:105590004E20085A0B8E984207D8F07E28B940F268
:1055A000E830708740F2E8350FE00498F075002588
:1055B000B56703984876FFF7A7F975748348407B71
:1055C000474340F2E8357A19708F2F21009100216E
:1055D0007F4BFFF787F930867C48437B708F5900FB
:1055E0006A1A824205D84919814202D30021717496
:1055F0003186315D00294ED040F2E83440F2E83186
:105600002F3188421FD9714D697EB278914213D1F2
:105610004E20285A2A8E904204D8F07E10B90020DD
:10562000708709E00027B7670120F075401A687697
:10563000FFF76AF97774708FA97C4200511A40F61F
:105640000102891A31860146303989B2A1421DD240
:10565000B1780122531A5D4C657EAB4211D14E20C8
:10566000205A238E984204D8F07E10B9002070870B
:1056700007E0F2750025B5676176FFF745F97574A7
:10568000708FA17C4200511A313931862F2802D8FF
:105690000020707430864D4FF87880B1F07B642123
:1056A0004143481C797C4143707E814207D2FCF71C
:1056B000ABFBFFF729F966207076002056E0B07941
:1056C00028B1308E1D2820D80021318742E0307B60
:1056D00000284AD03078E0B1396D7B6D308E009172
:1056E0002F213B4AFFF7FEF83A4991FBF0F0F97998
:1056F000490890FBF1F0F084308E2E2809D8364806
:10570000002101603187F16531E01E2815D11E208E
:1057100020E0F46D314D20462946FBF7B8FD002806
:10572000204600D12846FBF7E7FD30872C4920466C
:10573000FBF7BBFDD8B9302018E0397B14224A436F
:10574000824207D9A02100911E212F23FFF7CAF81A
:105750003087308E3A7B14215143814207D81C4A4E
:105760000092A023FFF7BEF800E0308E3087708DE6
:105770001C4DA8424AD92C20345E2046FBF7B1FDCF
:105780001949FBF738FD0146706EFBF7DBFC7066CC
:105790001648017803290BD0022929D0012933D1D9
:1057A0002421715C40F2671289189931022228E0A5
:1057B0004421715A1922B1FBF2F1C9B240F2E83228
:1057C0008918183101221CE0340400200000002058
:1057D000FF070000008793035C00002000E0FF4407
:1057E00000004042204E00000000B443C5030020EA
:1057F000A1B2C9B23222B1FBF2F140F200628918C3
:1058000003220270EE48018000207085B07F0028DE
:105810003FD0F07968B14820315A491C31523A7969
:105820001423534389B28B4203D200213152012009
:105830007075F07EE34D002800D02EE25024B07F3A
:105840000028049446D0B179204648432F30328F47
:1058500090423FD8B07EA8B9FCF7D6FAF07D60B987
:10586000B07E40B9FCF73CFD4E203D52D648FFF7D4
:105870006DFD0120B076FDF741FA0120B076788EFB
:10588000F085B1793B8F308FFA8F009271B1892109
:105890000DE0307C0028BCD1F07F0028B9D0308EDC
:1058A000002855D0462000213152B2E72F21C74AA7
:1058B000FFF718F80446B087708DC54941430220B0
:1058C000C141C448814270D9F07ABE4D049C08B9E8
:1058D0000020B075B07960432F30318F884200D8F6
:1058E00049E1B07C50B1012802D1FFF723F9B07C27
:1058F000022801D1FFF7F4F80020B074787800286E
:1059000000D1E5E0B07E002800D1F6E0787F3C21B0
:105910004143B88C421810463C3803B240F267113C
:105920008B4202DD40F2A410101A4A22B052024605
:10593000EF3213B28B4201DD0246793A4E23F25226
:105940000246773213B28B4200DDCDE01046CCE048
:105950004620315A491C315289B2A94200D858E731
:10596000F18E1F2900D2E2E00120B077B07A002842
:1059700000D1E8E14420305A40F27211B0FBF1F15D
:10598000317440F267110B31884200D2DDE100250D
:105990006424FFF7F9F82046FCF7FCFFFFF792FBC1
:1059A0006D1C307C8542F4D3CFE1B17E707B002842
:1059B00044D0002942D003912C20305E398C012242
:1059C000D243623A4A431018E54988620A6C831A46
:1059D0000D6B4A6B8F6B5A43CA6308644543ED19DC
:1059E0008F6CBD423B4600DC2B467F42BB4200DB56
:1059F0001F468F63D219CB6A58431318C86C834271
:105A0000024600DC1A4640428242D44F00DB104678
:105A10004864FBF766FCD449FBF7EDFBFBF76CFC35
:105A2000F98D091A0AB2388F824200DB084601B2AA
:105A3000A2B28A4200DB0446FC850399002900D10A
:105A400042E77079002800D13EE74E20385A798C21
:105A5000401AC34908658A6E831A8C6DCA6D0D6E33
:105A60005A434A668866444365190C6FA54223462B
:105A700000DC2B466442A34200DB1C460C66121974
:105A80004B6D58431318486F8342024600DC1A4698
:105A90004042824200DB1046C866FBF722FCB24956
:105AA000FBF7A9FB0146306EFBF74CFB0546AF4CFC
:105AB0002146FBF708FC00B92C4634660025204639
:105AC0002946FBF700FC002800D0FDE63566FBE622
:105AD0000020B087B17EB9BBB0670120F075307986
:105AE00070B3FDF779FA2FE0F1384C217052B0799C
:105AF000012840D10120F0763DE02C460025B56715
:105B00000121F175B58775773079A0B1B07900289A
:105B1000254600D0FAE6F88F0391797A49004018BB
:105B20001338B087FFF7DCF80398B075EEE6002174
:105B30003152F1776DE6FCF767F9B5872546E5E662
:105B4000B07D08B9FCF760F9B77DF07AA0B19FB1DC
:105B5000718F40F2E83440F2E830FDF7B3FA0019F3
:105B6000B08780B240F2D071884202D1FDF734FA9A
:105B700001E0FFF7B5F8B77D77B3B07EB17F91B1A3
:105B800088B1318F30290ED3744CA078002873D09F
:105B90004E20205AE18F00914B086021C822FEF769
:105BA000A1FEA08769E0002F00D1B4E0B18F6B4B5C
:105BB000988F0A464243DB8FB2FBF3F29A1A62E0F7
:105BC000C60300201027000088130000FF07000014
:105BD000CDCCCCCCCCCCCC0C707914210391C14071
:105BE000B48FB06F88420AD25C49488E844201D299
:105BF000B0870446C88E844201D9B087044640204D
:105C00005649085A844201D9B0870446707B30B1A6
:105C10002E205249085E844201DD84B2B487356E7D
:105C2000002128460291FBF724FB20B92846FBF708
:105C300063FB2418B4874B4D4848807B00289CD0D8
:105C4000F06E40F2F411884201D83C200390434B9F
:105C5000039ADA74F08DA1B214460A1AA24262DDE8
:105C60000019B0874E20185A40F267118D318842D2
:105C700062D90120187580E7A08FB18F82B24A43A4
:105C8000E38FB2FBF3F2521C049C3253F18580B2D5
:105C9000FFF728FB305BFFF72BFB4020315A491CF4
:105CA000315288B2A84234D9B17FB9B1FCF7ACF80F
:105CB00000203087F086F083FFF71AFBFFF704FA25
:105CC0002B4840F20011FBF732FABFF34F8F2948FF
:105CD00029490160BFF34F8F00BFFDE72749884284
:105CE00017D3FCF791F800203087F086F083FFF798
:105CF000FFFAFFF7E9F91E4840F20011FBF717FA27
:105D0000BFF34F8F1B481C490160BFF34F8F00BF8B
:105D1000FDE705B0F0BD32214143049C31530F48EB
:105D2000808FB18FB2E7411AA14208DD0B49029A78
:105D30000A75001BB08720E7029818751DE7074811
:105D40000299017519E7FEF71FFF2120305C00283A
:105D500000D05EE50020F0725BE5C0460000002048
:105D60005C0000201027000000401C460000164385
:105D7000140500200CED00E00400FA0551C30000FA
:105D800001688022914301607047016880220A43C4
:105D9000026070470A884B8813438A881A43CB886D
:105DA00013430A891A434B89134389891943416470
:105DB00070470021818141810181C18081804180C2
:105DC00001807047022907D001290CD0A1B9016ACE
:105DD0000423994301620BE0016A40F200439943B6
:105DE0000162120204E0016A402399430162120138
:105DF000203001681143016070470021C18081801B
:105E0000012242800180704710B5032900D9FDE0CE
:105E10008B0001A4E3189F4600F006B800F08EB88E
:105E200000F045B800F0CBB8036A01218B43036250
:105E300083690324A34383611388046A1C430462B7
:105E4000036A0224A34303629388046A1C43046226
:105E5000774BC3180A24E341072B00D9D6E09940B9
:105E6000E123194200D1D1E0016A04239943016280
:105E70005188036A0B430362016A08239943016254
:105E8000D188036A0B430362416840F200139943CF
:105E90004160118943680B434360416840F200232D
:105EA00099434160518942680A43426010BD016ACA
:105EB00040F20013994301620321C943C3690B40B7
:105EC000C36111880902036A0B430362016A40F24D
:105ED00000239943016291880902036A0B4303621C
:105EE00051490B1F984200D090E0036A40F20044F1
:105EF000A343036253881B02046A1C430462036ABF
:105F000040F60004A3430362D3881B02046A1C43C7
:105F10000462086841F20003984308601089000198
:105F20000B6803430B60086842F200039843086063
:105F3000508900010A6802430A6010BD016A1023FB
:105F400099430162816940F200339943816111886C
:105F50000901036A0B430362016A2023994301622A
:105F600091880901036A0B430362C74988424ED0F6
:105F7000C24988424AD1016A40239943016251884B
:105F80000901036A0B430362016A8023994301629A
:105F9000D1880901036A0B4303622348016840F278
:105FA0000043994301601189890003680B43036032
:105FB000016840F600039943016051892EE0016AAF
:105FC00041F2000399430162C16940F200339943F1
:105FD000C16111880903036A0B430362016A42F23B
:105FE00000039943016291880903036A0B4303622A
:105FF0000D490B1F984209D1086844F200039843E9
:106000000860108980010A6802430A6010BD0748D1
:10601000016840F2004399430160118989000268D8
:106020000A43026010BDC046042C014004400140F8
:1060300000D4FEBF10B5032929D88B0001A4E318B2
:106040009F46C04600F006B800F00AB800F010B84D
:1060500000F013B88169702399438161183013E00F
:10606000816947F2000399438161120218300BE005
:10607000C16970239943C16105E0C16947F200031A
:106080009943C16112021C3001681143016010BDC7
:1060900010B5032929D88B0001A4E3189F46C046F8
:1060A00000F006B800F00AB800F010B800F013B81D
:1060B0008169082399438161183013E0816940F6B2
:1060C000000399438161120218300BE0C169082373
:1060D0009943C16105E0C16940F600039943C1617C
:1060E00012021C3001681143016010BD10B5032974
:1060F00028D88B0001A4E3189F46C04600F006B8DC
:1061000000F009B800F00DB800F012B8016A0123E0
:106110009943016212E0016A10239943016212015E
:106120000CE0016A40F2001399430162120205E09B
:10613000016A41F2000399430162120320300168B1
:106140001143016010BD002141810181C180818026
:10615000418001807047000010B5184C18498842F2
:106160000ADD1849884212DC444988421DD046495C
:10617000884218D1641D18E0414988420FD0124965
:10618000884211D0434988420DD1FD340DE0404989
:10619000884206D03D49884205D1E41D05E0F63429
:1061A00003E0A41D01E010BDF9342046FEF730FFE6
:1061B000204610BC02BC8E46FEF720BF0B03000039
:1061C000FF2B0140FF43014000100040C2680A431A
:1061D000C2607047016801220A4302607047426949
:1061E0000A4342617047C9430161704710B50A888C
:1061F0008262224A904202D0214B98420BD103681E
:106200007024A34303604B8804681C4304608B889C
:1062100004681C4304608B68C3621A4B984208DC14
:10622000174B98420ED01B4B98420BD0904209D08E
:106230001EE0154A904205D0144A904202D0144AFA
:10624000904215D1026840F200339A430260CA8836
:10625000036813430360104A82180A23DA41072AAD
:1062600006D801239340E122134201D0097B016348
:10627000416901220A43426110BDC046002C014021
:1062800000040040FF3F0140004001400048014041
:10629000004401400020004000D4FEBFF0B581B0B2
:1062A0005488012C01D0012300E0022300931788B9
:1062B0007B427B415D00036A00294BD010218B4358
:1062C0000362036AA026B34303623B01066A1E43CE
:1062D00006628369494E33408361230284691C430B
:1062E00084618369434C23408361D4882303866996
:1062F0001E438661036A0B43036281693E4B19406A
:10630000816191880A02836913438361036A0122D0
:1063100093430362036A0A26B3430362036A2B436F
:10632000036283690325AB4383618369009D2B432B
:1063300083618369F025AB438361230184691C4336
:106340008461036A1343036282690C239A43826166
:1063500018304AE00126B3430362016A0A239943D5
:106360000162016A394301628169032399438161B2
:106370008169214381618169F02399438161D188D9
:106380000B0184691C438461036A3343036283699C
:106390000C24A34383619288836913438361036A56
:1063A0001024A3430362036AA026B34303622B01B4
:1063B000056A1D4305628369104D2B408361009B74
:1063C0001B0285691D43856183690A4D2B408361EA
:1063D000090383690B438361016A21430162816977
:1063E000054B194081611830110202680A430260AE
:1063F00001B0F0BDFF0FFFFFFFF3FFFFFFFCFFFF4A
:10640000C2688A43C2607047C94301617047C2686D
:106410000A40531E9A4100690840411E88411040BD
:1064200070478162012A03D1416901220A43426116
:106430007047491E4A424A41D103426C48F2000368
:106440009A43511841647047034900220273026065
:10645000426081607047C046FFFF000070B53B4856
:1064600000783B4C217849B140B13A48007888B176
:10647000FEF7E4FD38480221017070BD3749097804
:1064800001290DD019BBFCF7ABFA70BC01BC8646E4
:10649000FEF7D4BDFEF7B0FE2F480121017070BD9C
:1064A00058B12C48007898B1FEF744F9FBF7BEFFCD
:1064B00070BC01BC8646FEF7C1BD294800780128A2
:1064C0000BD02848007801280FD02078C0B170BDCB
:1064D00070BC01BC8646FEF78FBEFBF7A7FFFEF738
:1064E000ADFD204800780128EFD1FCF781F9FEF7D7
:1064F00005FFFEF7A3FDFCF783FC20780028E6D11A
:10650000194C1A4D288830B9617821B9184801888A
:10651000491C018070BD164900260E80154988422D
:10652000D5D32189FCF7CEFD322801DC2078461C2A
:106530002670F0B2332806D3E07820B9FEF72EFAA1
:1065400040F2001020802888208170BD14060020B1
:10655000520400201C0400203504002053040020B5
:10656000540400205504002020040020640400206E
:106570006A040020DD050000B0B50D46044612484F
:10658000844204D0114884420ED1022000E005204C
:10659000FEF746FC216809040AD469084018B0FBDC
:1065A000F5F080B2E060B0BD002021680904F4D5A8
:1065B000690840004018B0FBF5F0054901400007AC
:1065C000400F4018E060B0BD00380140004400407A
:1065D000F0FF0000826880239A43826082680A4349
:1065E00082607047016801220A43026070470168B7
:1065F000012291430160816808220A43826070474A
:10660000026804239A43026002680A4302607047EA
:10661000026808239A43026002680A4302607047D6
:1066200002E008C8121F08C1002AFAD1704770475B
:10663000002001E001C1121F002AFBD170470000B9
:10664000000001020304191B12131D1516171A0965
:106650000A0B1E0D0E0F00007866000800000020D7
:10666000C0030000D013000868690008C0030020C0
:10667000A0070000306600081022020101011EFF81
:10668000020E050A0A32056401016E0A01020105C3
:106690000506010103040401D007CA146419B418E3
:1066A000084C046C07DC054A1014DC0578127814D9
:1066B0005E013212322BB80B02121412461E9001E8
:1066C000B80B641225D430102723E803122043208E
:1066D0004E720A021364292C6350C31A20344129D4
:1066E0003C0110294A54A0860172020A1932503224
:1066F0000C3AFA7C12B412B712BA12BD12C112C40B
:1067000012C712CA12CD12D012D312D612D912DC6D
:1067100012E012E312E612E912EC12EF12F212F595
:106720001AF73422FD1867010301060109010B0164
:106730000E0111011301160119011B011E01200197
:106740002301250128012A012C012F0131013301E8
:10675000350138013A013C013E014001420144014A
:106760004601470149014B014D014E0150015101C4
:10677000530154015601570158015A015B015C0154
:106780005D015E015F0160016101620163021C64E1
:106790000165021A66023A6702FA6802491829225C
:1067A000292A3A64361A62401A60481A5E501A5C06
:1067B000581A5A601A57681A54701A51781A4E802B
:1067C0001A4B881A47901A44981A40A01A3CA81AE3
:1067D00038B01A33B81A2FC01A2AC81A25D01A206E
:1067E000D81A1BE01A16E81A11F01A0BF815060150
:1067F00003011301FD12FA12F712F512F212EF1251
:10680000EC12E912E612E312E012DC12D912D612EF
:10681000D312D012CD12CA12C712C412C112BD12A5
:10682000BA12B712B412B112AE12AB12A712A4125E
:10683000A1129E129B129812951292128F128C1214
:106840008812851282127F127C12791276127312CC
:1068500071126E126B126812651262125F125D1273
:106860005A125712551252124F124D124A12481212
:106870004512431240123E123C12391237123512A1
:10688000331230122E122C122A122812261224121F
:10689000221221121F121D121B121A121812171285
:1068A000151214121212111210120E120D120C12D5
:1068B0000B120A12091208120712061A0502120414
:1068C0001A03021A020219D91902011249182922BF
:1068D000292A3A04361A06401A08481A0A501A0C8D
:1068E000581A0E601A11681A14701A17781A1A803A
:1068F0001A1D881A21901A24981A28A01A2CA81A4E
:1069000030B01A35B81A39C01A3EC81A43D01A48DE
:10691000D81A4DE01A52E81A57F01A5DF8126212AE
:10692000651268126B126E1271127312761279125E
:106930007C127F128212851288128C128F12921290
:10694000951298129B129E12A112A412A712AB12BA
:10695000AE1AB1A2400D4744333250623420412078
:086960002020000000000000EF
:04000005080010CD12
:00000001FF
