:020000040800F2
:10100000380C0020D1100008651F0008DD1600080C
:1010100000000000000000000000000000000000D0
:10102000000000000000000000000000BD1F0008DC
:101030000000000000000000671F0008BF1F00083C
:10104000E3100008E3100008E3100008E3100008B4
:10105000E3100008E3100008E3100008E3100008A4
:10106000E310000839160008611600087D16000814
:10107000A9140008C9200008E3100008E3100008C4
:10108000F120000819210008000000008920000854
:101090009D200008C5200008E3100008E3100008A8
:1010A000E3100008E3100008E310000835210008F1
:1010B000E310000800000000E31000080348854624
:1010C00000F0B4F90048004725380008380C00202B
:1010D0000448804704480047FEE7FEE7FEE7FEE7D6
:1010E000FEE7FEE785200008BD10000803460B431D
:1010F0009B0703D009E008C9121F08C0042AFAD2CE
:1011000003E00B780370401C491C521EF9D2704753
:10111000D2B201E00270401C491EFBD2704700228F
:10112000F6E710B513460A4604461946FFF7F0FFE6
:10113000204610BDF8B502464A40D40F42004B008D
:1011400052085B089A4202D20246084611464A00FB
:1011500023D0C30D4A00DDB2120EAD1A202D35DAB0
:1011600049020126490AF6058A19002C00D052428C
:1011700020214F1B1146B9402A411018C20D9A4236
:1011800021D0002C17D0012D08DCDA05801AD20FEF
:101190008019D207DBB200F00FF9F8BDDA05801A2A
:1011A000012340001B06C01880185A428018CA0F3D
:1011B0001043490007E04908C2071143DA05801AC5
:1011C00080194008801800F0EFF8F8BD6100012296
:1011D000511A001BF7E70122D2075140AAE701226A
:1011E000D2075040A6E770B502464A40D50F4000EE
:1011F0004A00ED0740085208002814D0002A12D0F7
:10120000C40DD30D41020120C0055202490A520A01
:10121000E41A091812187D34914201D3641C00E0CD
:101220004900002C01DA002070BD0023914201D357
:10123000891A0343400849000028F7D100290AD041
:10124000914202D10121C90705E0914201D2012159
:1012500001E00121C943E005C018401900F0A4F8DD
:1012600070BD0122D207002800DB101A002900DB24
:10127000511A814201D80120704700207047012295
:10128000D207002800DB101A002900DB511A814226
:1012900001D201207047002070470122D2070028A8
:1012A00000DB101A002900DB511A814201D3012012
:1012B0007047002070470122D207002800DB101A77
:1012C000002900DB511A814201D90120704700201A
:1012D0007047C217C10F504010B54018CA07962377
:1012E000002100F069F810BDC20F41004002012347
:1012F000400ADB05D207090EC0187F2901DA002059
:101300007047962903DC9623591AC84001E09639A4
:101310008840002AF4D04042704770B50446002946
:1013200003D000202022012310E0002801D000205B
:10133000C043C046C0460DE02546D5408D4205D38A
:101340000D469540641B1D46954040191546521E9A
:10135000002DF1DC214670BD70B5002504462E46F7
:10136000002911D0002C01DA01254442002901DABC
:10137000012649422046FFF7D0FFB54200D0404247
:10138000002D00D0494270BD002C02DA0121C907AE
:1013900002E0002C00DD03490846C046C046214655
:1013A00070BD0000FFFFFF7F002904DA401C4900E8
:1013B00001D140084000704770B40024050C05D1ED
:1013C0001024000402D1002921D01124050E01D1DE
:1013D00000020834050F01D10001241D850F01D141
:1013E0008000A41C002801DB4000641C002908D0F8
:1013F00020252E1B0D46F540A14000D00121294398
:10140000084301061B1B000ADB1D02D5002070BC2F
:101410007047DB05181880180029F8DA401C4900CD
:10142000F5D170BC4008400070470000064C012513
:10143000064E05E0E36807CC2B430C3C984710347C
:10144000B442F7D3FFF73EFE7C5B00089C5B0008CC
:1014500070B58C180578401C6B075B0F01D10378C1
:10146000401C2A1106D10278401C03E006780E7059
:10147000401C491C5B1EF9D12B0705D40023521ECA
:101480000DD40B70491CFAE70378401CCB1A921C50
:1014900003E01D780D70491C5B1C521EF9D5A1425A
:1014A000D8D3002070BD000080B5054801688902CE
:1014B00004D501214905016001F0E8FF80BDC04667
:1014C0001404014005488188054A11804188054A75
:1014D00011800088044908807047C046D805002064
:1014E0005A0500205E05002060050020F0B593B08D
:1014F0000027119710970F970E970D970C970B9742
:101500000A970997089707970697059701214802B8
:101510000B46019143494A6802434A604A680240C7
:101520001292129858040A6802430A60096801403E
:101530001291032604961298082002900390092025
:10154000C40603AD2046294600F0FAF80797049632
:101550004020009003902046294600F0F1F83248E0
:101560000168324A0A400260310302688A4302601D
:10157000016820220A4302600168009CA1430160C7
:10158000016880220A430260310202688A43019B9B
:10159000190251180160B10202688A4399021E467D
:1015A00051180160224D2868029908432860286874
:1015B000204328601804296801432960072080051A
:1015C0001C490A688243D80510180860D8070E9095
:1015D000119710970F972C46283C0EA9204600F033
:1015E0007FF80D970C960B970A97099709A9204643
:1015F00000F090F80420C04329461C390A680240D4
:101600000A60294614390A6806231343B3430B6062
:10161000243D296801402960286802998843286090
:1016200013B0F0BD1410024008000240EFBFFFFFEE
:10163000282401400827014010B5244C2068800769
:1016400003D42068000707D410BD01206060FFF7B5
:1016500039FF20680007F7D50820606010BDC0463C
:101660001A480168890602D40168090605D51021C7
:101670004160C16901229143C1617047B0B5012148
:101680001248026852040CD5114A1278002A08D078
:101690008A03104B1C68022525430824A5431D60BE
:1016A00042600268920405D40268120401D509035D
:1016B0004160B0BD0A034260426C8A43426404F058
:1016C000A7F905488168891E0160B0BD000002408D
:1016D000250500202004004024100040FEE7000003
:1016E0008268D20712D1C268094B13404A681A4374
:1016F0008B681343CA681A43C260032292070369C6
:101700009343096819430161002070470120704725
:10171000C73FFFFF70B58268D2070CD1C268074B84
:10172000134074C909681A4322432A4332430A43C7
:10173000C260002070BD012070BDC0463CC2FEFFEB
:10174000F0B582B00E460C68002C43D00022009603
:101750000EE0190A494349434D430F234B43416A65
:10176000994329434162521C34682346D34032D006
:10177000012393402340F6D01C465C437168264603
:101780004E43032767430568BD4335430560FE4369
:1017900001914D1E012D06D8009DAD6865438768F7
:1017A00037402F4387603146009E35696543C768DF
:1017B0000F402F43C76001990229D4D17569FF2BCF
:1017C000C7D8644365430F216143036A8B432B43AE
:1017D0000362C8E700247168491E012905D8F16831
:1017E00061434268A2430A434260002002B0F0BD58
:1017F00080B57D21C900FFF790FD401E0349486078
:10180000002088600520086080BDC04610E000E030
:10181000B0B504463E4D28680C2101403D480829DA
:101820000FD12968C90300D43B48A96A0F220A4096
:10183000511CFFF772FD014628688002000F801CD2
:101840004843206029680906090F354A515CC840A1
:10185000606029684905490F304A515CC840A06062
:10186000B0BDC04610B5002801D0002010BD284CE6
:10187000E16A0320084003281AD002281FD001285B
:1018800023D120680C210140224808293FD121683A
:10189000C90300D42048A16A0F220A40511CFFF757
:1018A0003CFD014620688002000F801C484310BDAB
:1018B000201F00688007C1171648084010BD01208E
:1018C000C103E0698003084010BD20680C2101407D
:1018D000104808290FD12168C90300D40E48A16A15
:1018E0000F220A40511CFFF718FD014620688002B4
:1018F000000F801C4843216822685205520F074B95
:101900009A5C0906090F064B595CC840D04010BDCF
:101910000410024000127A0000093D00625B0008DA
:10192000525B0008014908607047C046A0010020D2
:10193000B0B51F22D30234C99C433F239B029D4371
:101940000B782B4323430F242403A2431A4303237E
:101950009B034C688D689C4314434988034A0A40A2
:1019600022432A4342640020B0BDC046FF1F00004E
:10197000B0B5056801229407A04205D0234B9842D8
:1019800002D0234B984217D170239D434B682B43C1
:10199000204DA84214DD204CA04206DC1B4CA04286
:1019A00016D0204CA04213D02EE01C4CA0420FD0E9
:1019B0001B4CA0420CD027E02B46164DA842EADC77
:1019C000A04205D0124CA04202D0174CA0421BD11D
:1019D00003242402A343CC681C4304608B68C362C5
:1019E0000B8883629A4BC3180A24E341072B06D85D
:1019F00014469C40E1231C4201D0097C01634169EB
:101A0000114341610020B0BD1C46E6E7002C0140B7
:101A100000040040FF2B0140FF430140004801400B
:101A2000004401400040014000200040F0B584B077
:101A30000123FF2945DC01296CD0102967D1016AF7
:101A4000102399430162016A3023994313695B08AB
:101A50005C010C4317685168090121437C4C06194D
:101A60000A24E64145688469072E1ED8039701279A
:101A7000B740E126374217D00326B602B543536973
:101A800002939769D369BF002646744C3C402C43AF
:101A9000DD0025433446C0239943029B5B08DB01EC
:101AA0000B43916889011943039F456073231B020F
:101AB0009C433B0223438361D2688263016200231B
:101AC00025E001273D02A9425FD03D03A9421ED176
:101AD000016AA94301625E4945180A21CD41016AA4
:101AE0004368146801945468039414690294C669A5
:101AF000072D00D98FE03C46AC40E1252C4200D1B7
:101B000089E0BC03A3439469A4011C4384E0184604
:101B100004B0F0BD0127F943036A0B400362136967
:101B20000B40046A032102918C431C4316685168E0
:101B30002143474BC3180A24E34145688469072BB6
:101B40001BD803963E469E40E1231E4214D0029BC2
:101B50001B029D437B02566902969769D6699F4393
:101B60002F4375003D430C239943029B5B08DB0028
:101B70000B43916889001943039E456073239C437E
:101B800034438461D26842635CE0016AA943016224
:101B90003149491C13691B020B40032102910902C0
:101BA000056A8D431D431168039151680B022B4355
:101BB000274941180A25E9414668C56907291DD802
:101BC0008F40E1210F4219D0029C21038E435169BD
:101BD00001919169D769009709011E4F0F40374362
:101BE00000994E013E43A1028B431C49091D019CF3
:101BF000A4020C401C4391688B022343466073216E
:101C00008D4303990D43C561D168C163036200230D
:101C1000184604B0F0BD1C46446073231B029E436B
:101C2000019B1B023343C361D26802640322120387
:101C30009143084A1032029B1B0313400B43039944
:101C40000903194301620023184604B0F0BDC046E1
:101C500000D4FEBFF0DFFFFFFFFDFFFFFCF7FFFF3B
:101C600070B584B0044600680125C0073ED10E4619
:101C700020682549014070680843F16801433069D4
:101C80000843B169014321600320010362688A436C
:101C9000B168114361600002A16881437069084323
:101CA000A0601A48844208D0194884421ED10020FE
:101CB000FFF7D8FD002806D118E001A8FFF7A8FD1E
:101CC0000398002812D0316800290FD00122D203D6
:101CD000B36993420DD140004A081018FFF71DFB6D
:101CE0000C4901400007400F401807E0284604B0A7
:101CF00070BD4A081018FFF710FB80B2E0600025A5
:101D0000284604B070BDC046F369FFFF00440040A0
:101D100000380140F0FF000006480749016007490C
:101D20000160022141607D21490181600449016017
:101D30007047C04600300040CCCC00005555000034
:101D4000AAAA0000F0B59FB000251D951C951B9513
:101D50001A95199518951795169515951495139527
:101D60001295119510950F950E950D950C950B9557
:101D70000A95099508950795069505950124E202AF
:101D800003927149486810434860486810401E90AB
:101D90001E9819A90D740D801C95104631381B90A2
:101DA0001A956A4E3046FFF7E3FD306880210491B2
:101DB00008433060B06866490140B160B0690821ED
:101DC00001910843B06112951395149515951695D8
:101DD000179518956020119011AF304621463A466C
:101DE000FFF724FE0420C1430091B0690840B061B0
:101DF000B06903990843B0611395129510213046DC
:101E00003A46FFF713FEB06952490840B061F069E5
:101E100001990843F0611395129521020191304612
:101E20003A46FFF703FEF06900990840F061F06957
:101E300003990843F06113951295210330463A4601
:101E4000FFF7F4FDF06943490840F06170687021C4
:101E5000884370600BA9CD812D200873B068049A67
:101E60009043B0601095600300900F900D950C9515
:101E70000B953046FFF75CFD27466004324B19682E
:101E800001431960196801401E911E98A004029434
:101E9000196801431960196801401E9102240A94CF
:101EA000099508950795069405941E982A4805AE4D
:101EB0003146FFF745FC0A94099508950795069465
:101EC0000597254831460396FFF73AFC0A94099591
:101ED000089507950694049805900920C70638468A
:101EE0003146FFF72DFC0A9409950895079506944D
:101EF000029EB002059038460399FFF721FC0A9430
:101F00000995089507950694700205903846039E3A
:101F10003146FFF715FC0A94099508950795069434
:101F20000198059038463146FFF70AFCFF20000271
:101F30000A490A6882430298C003101808600848DA
:101F4000009901601FB0F0BD14100240002C014048
:101F5000F8BFFFFFFFFBFFFF000400480CE400E0B8
:101F600000E100E07047704770B500F0ADFF44201D
:101F7000C94C205A5025C94E715B03224A431018A0
:101F80008008705300F092FB705BC108B2794A433D
:101F90004008801A40216052E286E07D002801D18D
:101FA00000F0C8FF03488168034A914201D8491CE8
:101FB000816070BD800500200F27000070477047CA
:101FC000B0B52D490A68012002430A6009682B4D0B
:101FD000291F0A6802430A600A689207FCD50C6848
:101FE0008022144378239C430C602C6B04432C63A5
:101FF0002C6BA407FCD52C6B14439C432C632A6ADE
:1020000002432A622A6A9207FCD53D2212042B68F9
:1020100093430522D2049A182A60AA6A0F239A438E
:10202000AA6202060B6813430B600A689201FCD592
:102030002968F02291432960072109022A688A430E
:102040002A60296802220A4382432A6028680C21F8
:1020500001400829FAD10A4C2046FFF7C9FB204667
:10206000FFF760FC286B042188432863E86A03219A
:102070008843E862B0BDC046002002400410024020
:10208000006CDC027047000080B50120C0430249AB
:102090000860FFF769FF80BD102000400220C043A8
:1020A00007490A68920703D40A68D20704D1704727
:1020B00008600A68D207FAD0401C08607047C04622
:1020C00010400140704700000220C04307490A68E1
:1020D000920703D40A68D20704D1704708600A68DF
:1020E000D207FAD0401C08607047C046102C01404F
:1020F0000220C04307490A68920703D40A68D2073E
:1021000004D1704708600A68D207FAD0401C086002
:102110007047C0461004004080B505480168C907F3
:1021200004D00121C943016002F098FF80BDC04680
:10213000101000407047000081B00020009010484F
:10214000026810490A405218183202600268002AD8
:10215000FCD401220092009B002B05D0009B5B1E4B
:102160000093009B002BF9D103680B4013430360DD
:10217000014608390968C907FAD001B07047C0465E
:1021800008240140E8FFFF7FF0B583B04C23424EA6
:10219000F15AFF206830414F7A7E002A18D04A1E3B
:1021A00011B20029014600D41146F1524E22B35A11
:1021B0005B1E1CB2002C044600D41C46B4525022B4
:1021C000B25A521E13B2002B00D41046024617E03A
:1021D0004C1C21B200228142114600DC2146F15202
:1021E0004E23F45A641C25B28542154600DC254670
:1021F000F5525023F35A5B1C1CB2844200DC1A4691
:102200005020029032524E26B85B09B24900244A4F
:10221000515E41183D464024385B48437D21090109
:102220000191FFF799F8397A48430A273946FFF7B1
:1022300093F880B202F03CFEA85B1749895F490021
:10224000174A515E4118285B4843019D2946FFF714
:1022500083F81249097A48433946FFF77DF880B27E
:1022600002F02CFE0D4B985B02990B4A515E49001F
:102270000B4A515E4118185B1C4648432946FFF73C
:102280006BF8217A48433946FFF766F880B202F0CE
:102290001BFE03B0F0BDC04604050020C0000020B6
:1022A000B201002070B53B4B18680421014308209F
:1022B0008143196002249C6203210A050920C0069B
:1022C0000568954301221605AD19056095028562E2
:1022D0001D681543A5431D609A628B0404689C43E6
:1022E0009304E3180360530283628B0304689C43E6
:1022F0009303E318036080238362090403688B431C
:102300001104591801601102816270BD70B5E54970
:102310000A78E54C20680C239843002A03D0082251
:102320001043206004E00422104320600220A062D9
:10233000032213050920C00605689D4301235E059D
:10234000AD1905600E7825689543002E03D002264E
:102350003543256002E01D432560A36294040568AF
:10236000A543DC042C1904600C7895030168A9438B
:10237000002C03D0DC032143016004E09C032143D3
:10238000016080218162110402688A435904511856
:10239000016070BD00040048124A117812480429F7
:1023A00001D0012902D1512101601178052901D004
:1023B000022902D1612101601178062901D0032987
:1023C00001D1412101600120400508490A780849EE
:1023D000002A03D000220A604860704700224A6049
:1023E00008607047DD0000201C000140D80000207C
:1023F0000804014070B5401E052800D950E1C046D0
:102400007844007940008744020F3D6A88A6A548B9
:102410000278A54908680C239843002A00D1A6E059
:10242000082210430860A7E09F4B1868042101436D
:1024300008208143196002249C6203210A050920B7
:10244000C0060568954301221605AD190560950281
:1024500085621D681543A5431D609A618B0404685D
:102460009C439304E3180360530283628D4B1C78F2
:102470008D030368AB43002C00D1A6E0D4032343B3
:102480000360ADE0884B18680421014308208143B4
:10249000196002249C6103210A050920C006056811
:1024A000954301221605AD190560950285621D68E8
:1024B0001543A5431D609A628B0404689C439304F2
:1024C000E318036053028362764B1C788D03036824
:1024D000AB43002C7FD0D4032343036080E0724BD6
:1024E00018680421014308208143196002249C617B
:1024F00003210A050920C006056895430122160537
:10250000AD19056095028562664D2E781D688D4374
:10251000002E6CD025431D606CE0634B18680421CD
:10252000014308208143196002249C6203210A05AB
:102530000920C0060568954301221605AD190560FE
:1025400095028562574D2E781D688D43002E60D010
:1025500025431D6060E053480278534908680C2306
:102560009843002A6FD008221043086070E00422CC
:102570001043086002208862032213050920C00668
:1025800004689C4301235D05641904600C681C43C6
:102590000225AC430C608B61910404688C43990460
:1025A0006118016059028162910304688C439903A8
:1025B0006118016080218162110402688A43190454
:1025C000511801601902816270BD940323430360B6
:1025D0008023836204E094032343036080238362A7
:1025E000090403688B4351045918016070BD1543F9
:1025F0001D609A628B0404689C43D304E318036053
:102600008B0304689C439303E31803608023836275
:1026100010E015431D609A628B0404689C43D30448
:10262000E31803608B0304689C439303E31803607F
:1026300080238361090403688B43110459180160E6
:102640001102816270BD042210430860022088627A
:10265000032213050920C00604689C4301235D057D
:10266000641904600C681C430225AC430C608B6247
:10267000910404688C4399046118016059028162D5
:10268000910304688C439903611801608021816182
:10269000110402688A431904511801601902816209
:1026A00070BDC046C100002000040048F0B581B0F4
:1026B00044204C4E325A4C4D2B4610334B48417FF0
:1026C0004C00E3189B1E1A806A8A2B8A9A18AB8AE0
:1026D000D218EB8AD2182B8BD2186B8BD218121D02
:1026E00052106A60427E012A0ED1491C4177CAB25B
:1026F000072A02D30121F174417701220A400276B0
:10270000B07D002811D10DE0491E41770A0603D1A2
:102710000121F1740621417701228A430276B07DBE
:10272000002802D1C8B2FFF765FEFFF735FEB06F93
:102730002F49884205D37079F17A014301D00120F5
:10274000F07500247484307B002849D0B07E0028C6
:1027500046D0308D6968081A264F3860B969421A28
:10276000BB68F9683D6951437961B86143435D19BC
:102770003B6A9D421A4600DC2A465B429A4200DBD5
:1027800013463B61C9187A6850430A18786A824236
:10279000014600DC11464042814200DB0846F861F8
:1027A000FEF797FD1449FEF71EFD0146306EFEF759
:1027B000C1FC0646114D2946FEF77DFD002800D1DB
:1027C000354628462146FEF75AFD002800D12C4602
:1027D0000448046604488068632801D800203861F2
:1027E00001B0F0BD0405002080050020C0000020DD
:1027F000D10700002801002000401C4600E0FF44F3
:10280000F0B58FB0D74806C8436F0D935B1AD64F0B
:102810007B811B045B0D3B81511A012500220E9226
:1028200008389942294600D80E990C91F9618168BF
:10283000C268511A9942294600D80E990B91396203
:1028400001694269511A9942294600D80E990A91A4
:1028500079628169C269511A9942294600D80E9954
:102860000991B962016A426A511A99422E4600D80A
:102870000E9EFE62816AC26A511A9942294600D8A8
:102880000E993963026B446BA21A9A422A4600D809
:102890000E9A7A63846BC76B3C1B9C422C4600D813
:1028A0000E9C0894B04FBC63046C476C3C1B9C426C
:1028B0002F4600D80E9FAC4C0797E763846CC76C1B
:1028C0003C1B9C422F4600D80E9FA74C06972764BE
:1028D000046D476D3C1B9C422F4600D80E9FA24CB6
:1028E00005976764846DC76D3C1B9C422F4600D8DA
:1028F0000E9F9D4C0497A764046E476E3C1B9C4240
:102900002F4600D80E9F984C0397E764846EC76EDD
:102910003C1B9C422F4600D80E9F934C0297276584
:10292000046F476F3C1B9C422F4600D80E9F0197B7
:102930008D4C6765806F0D9F381A984200D80E9DA8
:10294000A5650C98464007984640701E8641F000E9
:102950000B9B5940069B59404B1E994189000143EE
:102960000A98424005984240501E824157000F434A
:102970000998089E4640049846400398C000029972
:102980008900081801994900441878480078784A65
:102990001178014346D06019B9191278002A01D084
:1029A0000F225040704E884237D11C367CCE6E4884
:1029B000076B6D48416B6C48806B92025B0213435E
:1029C00022021A43EB011343B2011A437B01664E04
:1029D000134309011943C000084334463C341ECC5C
:1029E0008D000543510029431943C74A0020108038
:1029F000B289521CB281012C02D15E4A01231370AC
:102A000030291EDB7278002A1BD05B48002202703E
:102A1000C1480180B2700FB0F0BDF089401CF08158
:102A20000FB0F0BD00F07AFB514A0028B3D04E49F8
:102A30000879401C0871C0B26528ACD30120107021
:102A4000A9E74A1E2E2A08D84B480170B248002236
:102A50000280C8B2002813D1E2E7002904D046481A
:102A6000007800280CD1DBE73178012901D1002161
:102A7000717041490870A8490880B0700028CFD013
:102A80003E4909780029CBD1384909780029C7D0B7
:102A9000F178884202D00021B170F070052805D38A
:102AA000B178491CB170C9B20629B9D30024B470F9
:102AB000401E14284FD8C04678440079400087440F
:102AC0000A0D104A134A161E272A4A3E412E4A4A28
:102AD0004A4A4A34390001F069FF3CE001F098FFAE
:102AE00039E001F075FE36E001F0C6FF33E025481D
:102AF0000121017022480470234801702BE0214815
:102B000004701F48012101701F480221017022E05A
:102B10007F4804701FE07E48012101701BE0747142
:102B200007204002FF30F08015E0154800780121B1
:102B3000081A01E012480078124908700BE002F010
:102B400071F808E00120707107214902F1803178A5
:102B5000012900D17070084801780C4A1170047086
:102B60000FB0F0BDEC0500209004002022050020ED
:102B7000EC06002019050020ED0600201E050020AF
:102B800006050020D900002016050020340800208A
:102B9000F0B581B0C54E03CE081A554C0119564AFE
:102BA000083E91420BD8C24D6978002909D0E978D6
:102BB00000295FD1A97800292DD0E8882CE04D4E5E
:102BC0007FE05349097800290DD052490A887D21B8
:102BD000CB00904216D9494C248809010091511C20
:102BE0005B1C224612E045490A88484909887D2332
:102BF0001B012F3300932F2301F0CCFD2F2807D189
:102C0000002005E0414909880093002301F0C2FD3E
:102C1000E8603D4E55E0E880491CA970374F39887F
:102C200080B200F05FFA332802DB002068701AE0FF
:102C300038880721414305CE101A4018C008388053
:102C4000A978083E33290ED3193881B22C4A891845
:102C5000CA0F8918490821222A4B99540121E97089
:102C6000388001F07BFE3888E880E8780028D0D0F2
:102C700003CE081A29797D22D200FA32904208D276
:102C8000491C2971214A138807265E433018C00861
:102C90001080C8B21C4E4C2813D31C48018819312F
:102CA0008AB2A2183332D30FD21852082023154CFF
:102CB000E25400246C70018001F0B4FF2C7101F02B
:102CC00025FE00203080144802887949C9688C1A92
:102CD000124B1B689C4201DDD11806E0541A9C423D
:102CE00003DDD11A018001B0F0BD018001B0F0BD5B
:102CF000DFFCFFFF3C05002076050000E800002017
:102D00002AF9FFFFEE06002046050020E60000201D
:102D100007050020EA00002040050020AC0100204B
:102D2000034900220A600A688242FCD37047C04609
:102D300024480140084900220A61084A4A610B6898
:102D4000012213430B600B698342FCD3302048619E
:102D500008681043086070471448014080BB0000B9
:102D6000F0B581B04F4BC9334F4843804F490E688F
:102D70000022042404E09219241D7C2C2E4608D045
:102D80000D59AE1BF8D09FB2BE42F4D246803346F6
:102D9000F1E75109464E3161464D2F780F21C901A7
:102DA0000091012F28D199B2012925D9009CA24276
:102DB0000FD204290DD8002171713F4C21700121DF
:102DC00029703E4C0C252570202404703C4C217049
:102DD00012E0052910D3D409182C0DD808290BD8D6
:102DE000354901240C702C707471344907250D701D
:102DF0002021017032490C701C46C93C31490D78C4
:102E0000012D0DD1A1B2274EB14209D22A492F2658
:102E10000E7001212B4E317002260670284E317043
:102E20003D433DD19BB2022B3AD300998A4212D244
:102E3000042B10D800211E4A51711F4A1170012124
:102E40001C4A11701D4A0C231370202202701C486A
:102E5000017001B0F0BD052B22D3D109182911D87A
:102E6000082B0FD8144901220A7012490A70104920
:102E70004A71124907230B7020210170104802701B
:102E800001B0F0BDA1B2074A914209D20A492F22EE
:102E90000A7001210B4A1170022202700848017069
:102EA00001B0F0BD574D00001C010020EC050020D2
:102EB000F004002024050020A8010020ED040020DB
:102EC00023050020250500205F4801680122914369
:102ED00001607047114A1046FF3011490B680340EA
:102EE0000320800318180860012041020D4B19606F
:102EF0000D490E4B8B600E4BCB604B681340DA1CB8
:102F00004A600A68022313430B600A6808231343CC
:102F10000B600A6802430A607047C0460000FFFF6A
:102F200008E400E000E100E0080002404024014025
:102F3000D80500200120400502490A6802430A60C2
:102F40007047C0460004014010B582B03C4801689B
:102F5000012421430160016810220A43026021021A
:102F600002680A430260016804220A4302600168A1
:102F700040220A430260A10202680A430260210360
:102F800002680A43026064210162014620390A682E
:102F900022430A60E103426A0A4342620C38016834
:102FA000214301602748016A2143016201682143EE
:102FB0000160254801460C390A6822430A6081688D
:102FC000214381600168214301600168A1430160E0
:102FD0001E48016821430160416921434161A00706
:102FE000016821430160416921434161184801683A
:102FF00021430160416921434161C1682143C160AE
:10300000FEF774FAFFF766FFFFF796F800200190CD
:103010004148016821430160954800680D49FEF769
:103020007CF90621414301910198002805D00198BF
:10303000401E019001980028F9D102B010BDC04691
:10304000202C0140000400400C20004000480140BA
:1030500000100040400D03000248016804220A43AA
:10306000026070474400024070B5194B1868042193
:10307000014308208143196002249C6103210A0551
:103080000920C0060568954301221605AD190560A3
:10309000950285621D681543A5431D609A618B04E6
:1030A00004689C439304E3180360530283628B0318
:1030B00004689C439303E31803608023836109043D
:1030C00003688B431104591801601102816270BDBD
:1030D000000400480248016801220A430260704768
:1030E000142C0140401AC117401848407047000096
:1030F00007480068C0000749401801218903814042
:10310000054A12680A400E30C240D0B27047C0462D
:10311000A401002020FFF7FF1C00014002480168C5
:10312000102008407047C04610040048014800685D
:1031300080B270472400004010B582B047490B6848
:103140000120420713604B6853608B689360CB6823
:10315000D3600B6913614B6953618B699361CB69D0
:10316000D3610B6A13624B6A53628B6A9362CB6AB8
:10317000D3620B6B13634B6B53638B6B9363CB6BA0
:10318000D3630B6C13644B6C53648B6C9364CB6C88
:10319000D3640B6D13654B6D53658B6D9365CB6D70
:1031A000D3650B6E13664B6E53668B6E9366CB6E58
:1031B000D3660B6F13674B6F53678B6F9367C96F42
:1031C000D16727490B68274A13604B6853608B68A7
:1031D0009360CB68D3600B6913614B6953618B6952
:1031E0009361CB69D3610B6A13624B6A53628B6A3A
:1031F0009362CB6AD3620B6B13634B6B53638B6B22
:103200009363C96BD16318490A6802430A6009686D
:10321000014001910198154801680324A143016010
:103220000168214301607D20C10011480068FEF75C
:1032300074F8401E010E00D0FEE78D490D4A506023
:103240000D4803680B40A1075918016000209060E9
:103250000720106062B602B010BDC0460010000822
:10326000801000088000002018100240000001407B
:10327000A001002010E000E020ED00E0F0B593B0E8
:10328000FEF79EFE764F7868012600963043786000
:10329000786830400C900C983007B9680143B960E9
:1032A000B96801400C910C986E4801681022079291
:1032B0001143016075043868284338603868284035
:1032C0000C900C98B104089138680843386038684D
:1032D00008400C900C980920C1060291F00305905B
:1032E0008862386830433860386830400C900C98F9
:1032F000FF200A9000045C4A11688143B005081859
:103300001060B002594908601068594B1840B40762
:1033100000191060F00209900860FEF713FDB8680C
:103320003043B860B86830400C900C98172001907A
:103330000694A0624F48E06200200B90119010901C
:103340000F900E90386803952843386038682840FD
:10335000129003260D96022004900C9012980CAD4A
:10336000029C20462946FEF7EBF90B9810900D962B
:1033700020200C9020462946FEF7E2F93A4D686875
:103380000A99884368607D20400101466031374BCF
:103390001960009E3102BA680A43BA60BA680A40EE
:1033A0000C920C993449019A8A62C862A868304A22
:1033B0001040A860F00418600A68802002430A6088
:1033C000B968079C2143B960B96821400C910C99F8
:1033D0000A990902AA688A4305995118A9600399B4
:1033E000196026492F220A6064234B607968089B84
:1033F00019437960796819400C910C9920498A62C7
:103400001C4ACA620A6882430A60B8680499084381
:10341000B860B86808400C900C9838681843386059
:1034200038681840129011960B9E10960F960E96C3
:103430000D910C94129813480CA9FEF781F9286895
:103440000B49084006994018286009980749086008
:103450000D4806603F21416001F052FD13B0F0BD00
:10346000141002400020024008E400E000E100E007
:10347000FFFFFF00FFFF0000002000402810004079
:1034800000480140000400482804004070B5D94CB1
:10349000A06F7E2821D3FFF749FE7C2809D8E08F52
:1034A000C0084A2805D82348806880087D2800D2B3
:1034B00070BDFFF73BFE5021CF4A515A4908884260
:1034C000F6D3207F401C2077C0B2652805D301F0D9
:1034D00075F918480021816070BDFFF727FE44216F
:1034E0006052C54DA87D297E00290BD0002814D03C
:1034F0000026FFF7FDFD0028DAD1761CA87D864264
:10350000F7D30AE0002808D00026FFF7F1FD0028D5
:10351000CED0761CA87D8642F7D301F04FF900206B
:1035200001F0E8FC4021605A2A7DD040605201F051
:103530009FFC70BD80050020F0B583B0AB4CAC495A
:10354000B022204601F010FB607C401E4142414108
:10355000A84EB170A07C401E41424141F170E07C18
:10356000012801D10120B071E07D042800D30220A0
:10357000A14FB871207D401E414241417970607D6C
:10358000401E41424141B970A07D401E414241412F
:10359000F970207E01460839984D282913D818283B
:1035A00016D201460C390B2920D9FC2101400829EB
:1035B00029D19549009107211022944B01F0EAF896
:1035C0004021785221E0FD87284601F05DFC25E08E
:1035D0008B490091182130222B4601F0DBF8402165
:1035E0007852207E01460C390B29DED800950C213B
:1035F0001822844B01F0CEF840217852207EFC2125
:1036000001400829D5D04020385A80B201F03CFC56
:103610004020385A4A21785242217852607E014631
:103620003239642908D841085A30B886084619301A
:10363000B8870F31798703E0552078879620B886C0
:10364000E07EF871A07E282568431430F883207F3F
:10365000401E414241413171607F401E4142414123
:1036600071710526304601F03BFC6078002800D1DE
:10367000A3E0A07F0B2800D80646304601F030FCBE
:1036800000205C4E30722321615C79732221615CE1
:103690005F4A891879852521615CFA31B985202135
:1036A0000291625C52005B4BD218FA84E27F521E98
:1036B00053425341F3712122A25C52004F498A18B0
:1036C000F93A3A852422A25C521E53425341B37206
:1036D0002622A25C521E53425341F372625D531F75
:1036E000142B00D83A732922A25C531E092B00D850
:1036F0007A722A22A25C531EDBB2082B18D8482506
:103700007E5B0923D94351433D39CBB2F6187E5332
:10371000384EBA72F972617E4A08D2187A87C9188F
:10372000B986398FC91839873B490A681A430A6034
:103730002B21625C11464639462900D87A712C212A
:10374000625C511E622903D80121717351003984D2
:103750002D21625C511E092900D83A722E21635C2A
:10376000092B0AD8042B0CD8324621327B441B7912
:103770005B009F44022E040632003084274A012158
:103780001170FC8BA1084A2900D8F873F979202020
:10379000FDF7C3FD054611212046FDF7BEFD294674
:1037A000FDF7BBFD4621785264212046FDF7B5FDAB
:1037B0002946FDF7B2FD44217852C82078867878F2
:1037C000002801D003B0F0BD00200A49C87003B042
:1037D000F0BD0121029AB154D0E710490870104998
:1037E00001220A7032462032C9E7C046EE060020A8
:1037F000007C000804050020C0000020CF07000066
:10380000E70300009E0F0000B50B00006D170000DD
:103810005E050000EE020000442C014091040020EF
:103820009004002000B58BB0FFF786FCFFF726FD63
:10383000FFF78AFBFFF780FEF04800782521F04D66
:103840006854F04CF0494A780878E378984202D1FD
:1038500023799A422ED02271E070601D891C0C22BF
:10386000FDF744FCE948017861708179E175A97838
:10387000491E4A424A416274E978491E4A424A4115
:10388000A274A979491E4A424A41E2744178491E0C
:103890004A424A4122758178491E4A424A4162752C
:1038A000C078401E41424141A175B021D84A20460E
:1038B00001F0ECF9A879002802D0D448C18E8186A5
:1038C0004020D24F05903E5A4A2004903E52482450
:1038D000385B70437D21069109010A91FDF71DFDBA
:1038E00003943853FE87A878401E411E884178769D
:1038F000388F70430A993C46FDF70FFDF97A40185E
:1039000038877878002800D13EE3E87AC14900285A
:1039100013D00846BE30039960520020A8710121DF
:10392000E970E17360806070608F32306087A08FD3
:103930003230A087A08E3230A08601F09DF800249E
:103940002C87FEF7E9F901F05DF901F017F9287805
:10395000002801D001202873AF480168AF4A0A400F
:103960000260AA660068010F01D11921CC4326210B
:103970006C54000CE8660698800009901FE0FEF782
:1039800003FC2746E479A3482146FDF7C6FC06461A
:10399000A3482146FDF7C1FC0346688F00963021FD
:1039A000782200F0F7FE4C24385380B2FFF7B8F9C4
:1039B000395B09986430FDF7B0FC54216852994F87
:1039C000994E01F01FF9688E01210023C8280A468C
:1039D00000D31A46B468642C00D81946069BDB0055
:1039E0009C4203D8002801D0114001D00021697603
:1039F0009F2804D8A979002901D000216976E97BA4
:103A0000002907D00999643989B2884209D2002077
:103A1000687606E0952801D8642000E00A207B49FA
:103A20004874706803210891FDF796FCA8670B2C79
:103A3000764C1BD30146E87C002817D0F068FFF7CE
:103A400051FBA96F0A097C2A0DD84A0890420AD96D
:103A50000020B060A8760120E875A87B401CA87300
:103A6000A08E40082886F1600020E874FF2002063E
:103A70003968914350220792A25A972A05D3396098
:103A8000796805980143BF2004E001229207891854
:103A90003960796881437960687D002812D0286F89
:103AA000FDF722FC03464620295A2420285C542294
:103AB000AC5AEA8D0094554C00F07EFA01F0B8F94A
:103AC00000206875287D401C2875C0B2652874D315
:103AD0005648006840000321FDF71FFC401C81B2DE
:103AE000E48FA14200D80446484EF4855049088826
:103AF0004989091A5622AA5A121A50205043FDF732
:103B00002BFC1E3058216852A1B2484A5160494AE4
:103B10001168494B1940091D116024216A5C072373
:103B20005A431018C00868544627EC5B5C435A207F
:103B3000285A424E70433949FDF7EFFB3349097C5F
:103B400048436421FDF7E9FB0019C408EC535C20ED
:103B5000285A696F3F224A431018801168677043E2
:103B60003749FDF7F9FB010400D50020E885A87A64
:103B700000282C4F2C4E1DD0287C2449898D414390
:103B8000A0B2814214D9688D401C6885E97E2D4A17
:103B900051432D4A891880B281420BDA00246C8788
:103BA000FEF780FB00F00AFE2C87AC76AC7701E0D4
:103BB0000020688500202875F74C00200A9028779F
:103BC000E87E002842D0688F312800D2A7E1A97F83
:103BD000002900D1A3E1882800D8C5E101246C7236
:103BE000FEF7D2FA688FC82800D899E04C20EA493D
:103BF000079A0A520A992952104694E0FC0F0008CD
:103C000004050020EE06002082040020C0000020F1
:103C1000007C00082A03000000580140FF0F00004C
:103C2000581B000008E400E0800500203C2C014007
:103C3000B8F7FF1F08240140E8FFFF7FE40C0000F5
:103C4000690A00007CFCFFFF204E00007168D84824
:103C5000FDF782FBA97E41435420295288B20A21F4
:103C6000FDF75BFB5E216852E17B002910D00399D0
:103C7000635A4621625A4421615AC74C049EA45B90
:103C8000CA4E0094C44C80B200F084FD42216052C0
:103C90002420285C627990420BD90499615A01234F
:103CA00000934B0811460A390A3200F073FD422195
:103CB000605250200790215AB2680C20642A0CD31D
:103CC000099A914209D8A86F0C210091642103231D
:103CD000099A00F05FFD0799615A642900D2022019
:103CE000A075E18B099A914201D24000A075E87D50
:103CF000002844D0A87E002841D000F05FFDFFF7E7
:103D0000F7F9217E002930D0002830D0687F401C90
:103D10006877A27EC0B290422DD923200A9A29E06A
:103D20004C209D49085AFEF7FBFF4C20285A0028DA
:103D300000D046E698499B48079A88526C83EC75F8
:103D40000C46A867F06001F0D5F80A98A8750A201B
:103D5000B060607D60776879002801D0A08F6087AF
:103D6000FEF7A4FCFFF7B6F92BE60028CED02320FF
:103D70002A5C521C2A5422202A5C002A51D0FFF7C8
:103D8000D5F98C498842894E00D21AE6A87E0128CE
:103D900000D016E6687E401C687600F00FFD01201A
:103DA000E875688F2F2801D80A98A8760A9FB7600F
:103DB000FFF7BCF944242853384601F09BF8285BF0
:103DC000754A079FD15B089B4B431C18A008D05332
:103DD00080B2D17DFDF7A1FAE108091A059C2953AB
:103DE000E886FFF7A3F9295B884202D2B068092868
:103DF000F7D8FEF75BFC23200A9929546977B0684D
:103E0000401CB0606979EA7A0A43674F36D01428BB
:103E100000D2D6E560480799405A6149884230D3BC
:103E2000CFE52326AA5D002930D0E17E8A42A6D9BB
:103E300001212954FFF77AF927464424285300200A
:103E4000029001F057F8285B079BF95A089A5143F2
:103E50000C18A008F85280B2F97DFDF75EFAE1086F
:103E6000091A059C2953E886FFF760F9295B884207
:103E700035D24E4880680928F6D830E01F2800D295
:103E80009FE50A98E875FFF755F89AE5217F8A4281
:103E900000D874E701212954FFF748F92746442444
:103EA00028530020029001F025F8285B079BF95A5F
:103EB000089A51430C18A008F85280B2F97DFDF71A
:103EC0002CFAE108091A059C2953E886FFF72EF918
:103ED000295B884203D2354880680928F6D8FEF766
:103EE000E5FB029BAB556B7730498868401C8860C6
:103EF0006979EA7A0A430AD0142827482A4F00D25F
:103F00003DE70799405A2649884204D337E71F28DE
:103F1000254F00D233E7EB75FFF70CF82FE70126AA
:103F20006E722879002819D022460598245A507AB2
:103F300040002718133FB9B2D08F48432146FDF700
:103F4000ECF9201A401C52242853EF87164F00F03A
:103F5000D9FD285B00F09EFFAE7531E5002000F032
:103F600099FFFEF79FF92BE5687A002800D106E556
:103F7000FEF7AAFF00F022FC0A9E304600F08AFFFE
:103F8000FEF7C4F96E72FAE40020A871E87A0349DA
:103F9000002800D0BDE4D0E4C00000202A030000C7
:103FA000D10700002823000008E400E0800500207D
:103FB000C0270900C9AF0000F0B583B0EF4C089DE1
:103FC0002572A3712271A170207002952D0A0195AE
:103FD000E57100931B0A6371170AE7700E0A667099
:103FE0004400072540B2002800DA71E1600064B2A5
:103FF000002C00DA72E1440040B2002800DA73E1DC
:10400000600064B2002C00DA74E1440040B2002881
:1040100000DA75E1600064B2002C00DA76E1440059
:1040200040B2002800DA77E1600064B2002C00DAC8
:1040300068407040440040B2002800DA73E160003C
:1040400064B2002C00DA74E1440040B2002800DAC7
:1040500075E1600064B2002C00DA76E1440040B201
:10406000002800DA77E1600064B2002C00DA78E121
:10407000440040B2002800DA79E1600064B2002C0C
:1040800000DA68404840410040B2002800DA77E199
:10409000480049B2002900DA78E1410040B2002826
:1040A00000DA79E1480049B2002900DA7AE14100FA
:1040B00040B2002800DA7BE1480049B2002900DA6A
:1040C0007CE1410040B2002800DA7DE1480049B2BD
:1040D000002900DA68404740780079B2002900DA08
:1040E00079E1410040B2002800DA7AE1480049B2A3
:1040F000002900DA7BE1410040B2002800DA7CE1CF
:10410000480049B2002900DA7DE1410040B20028B0
:1041100000DA7EE1480049B2002900DA7FE141007F
:1041200040B2002800DA69404A40500051B20029EC
:1041300000DA7BE1410040B2002800DA7CE148006F
:1041400049B2002900DA7DE1410040B2002800DADE
:104150007EE1480049B2002900DA7FE1410040B227
:10416000002800DA80E1480049B2002900DA81E144
:10417000410040B2002800DA69404B40580059B273
:10418000002900DA7DE1410040B2002800DA7EE13A
:10419000480049B2002900DA7FE1410040B200281E
:1041A00000DA80E1480049B2002900DA81E14100EB
:1041B00040B2002800DA82E1480049B2002900DA62
:1041C00083E1410040B2002800DA6940009A4A4089
:1041D000500051B2002900DA7EE1410040B20028CF
:1041E00000DA7FE1480049B2002900DA80E14100AD
:1041F00040B2002800DA81E1480049B2002900DA23
:1042000082E1410040B2002800DA83E1480049B26F
:10421000002900DA84E1410040B2002800DA694058
:10422000019A4A40500051B2002900DA7FE1410072
:1042300040B2002800DA80E1480049B2002900DAE3
:1042400081E1410040B2002800DA82E1480049B231
:10425000002900DA83E1410040B2002800DA84E15D
:10426000480049B2002900DA85E1410040B2002847
:1042700000DA6940029A4A40500051B2002900DA3F
:1042800080E1410040B2002800DA81E1480049B2F3
:10429000002900DA82E1410040B2002800DA83E11F
:1042A000480049B2002900DA84E1410040B2002808
:1042B00000DA85E1480049B2002900DA86E14100D0
:1042C00040B2002800DA87E1C648417203B0F0BD71
:1042D0006C40600064B2002C00DB8CE66840440057
:1042E00040B2002800DB8BE66C40600064B2002C1A
:1042F00000DB8AE66840440040B2002800DB89E623
:104300006C40600064B2002C00DB88E6684044002A
:1043100040B2002800DB87E66C40600064B2002CED
:1043200000DA85E685E66C40600064B2002C00DBB4
:104330008AE66840440040B2002800DB89E66C4011
:10434000600064B2002C00DB88E66840440040B2A4
:10435000002800DB87E66C40600064B2002C00DBC4
:1043600086E66840440040B2002800DB85E66C40E9
:10437000600064B2002C00DA83E683E6DE050020EC
:104380006940480049B2002900DB86E668404100E8
:1043900040B2002800DB85E66940480049B20029A8
:1043A00000DB84E66840410040B2002800DB83E681
:1043B0006940480049B2002900DB82E668404100BC
:1043C00040B2002800DB81E66940480049B200297C
:1043D00000DA7FE67FE66840410040B2002800DB5B
:1043E00084E66940480049B2002900DB83E6684062
:1043F000410040B2002800DB82E66940480049B233
:10440000002900DB81E66840410040B2002800DB63
:1044100080E66940480049B2002900DB7FE6684039
:10442000410040B2002800DA7DE67DE668404100A8
:1044300040B2002800DB82E66940480049B200290A
:1044400000DB81E66840410040B2002800DB80E6E6
:104450006940480049B2002900DB7FE6684041001E
:1044600040B2002800DB7EE66940480049B20029DE
:1044700000DB7DE66840410040B2002800DA7BE6C0
:104480007BE66840410040B2002800DB80E66940DE
:10449000480049B2002900DB7FE66840410040B295
:1044A000002800DB7EE66940480049B2002900DBB5
:1044B0007DE66840410040B2002800DB7CE66940B0
:1044C000480049B2002900DB7BE66840410040B269
:1044D000002800DA79E679E66840410040B2002819
:1044E00000DB7FE66940480049B2002900DB7EE638
:1044F0006840410040B2002800DB7DE6694048008A
:1045000049B2002900DB7CE66840410040B2002847
:1045100000DB7BE66940480049B2002900DB7AE60F
:104520006840410040B2002800DA78E678E668404A
:10453000410040B2002800DB7EE66940480049B2F5
:10454000002900DB7DE66840410040B2002800DB26
:104550007CE66940480049B2002900DB7BE6684000
:10456000410040B2002800DB7AE66940480049B2C9
:10457000002900DB79E66840410040B2002800DAFB
:1045800077E677E66840410040B2002800DB7DE630
:104590006940480049B2002900DB7CE668404100E0
:1045A00040B2002800DB7BE66940480049B20029A0
:1045B00000DB7AE66840410040B2002800DB79E683
:1045C0006940480049B2002900DB78E668404100B4
:1045D00040B2002800DB77E669400248417203B030
:1045E000F0BDC046DE050020F0B584B0624BDC882B
:1045F000002C02D00020D88032E0604A6048007869
:104600006049002807D01068884204DCC10B0129EA
:1046100004D107221FE0116007221DE0810B012950
:1046200001D1062217E0410B012901D1052212E038
:10463000010B012901D104220DE0C10A012901D198
:10464000032208E0810A012901D1022203E0410A84
:10465000491E4A424A4101461A61114154020C4323
:10466000494800788000029048490B1840225A605F
:10467000250128134649085C019086001146B14384
:10468000996027093E466640200A70400F2603962F
:10469000304045197540384845610198C6001640BC
:1046A0004E40DE60C00303990F403949C95D009157
:1046B00089020143C80A104070401861039E3440CB
:1046C000334E345D019467010F43039C2540755DB3
:1046D0003E462E43284CA6618C0A144044405C613F
:1046E000480A104060409861009CA1001140414080
:1046F000D961E0001040484018623F21CC4320407F
:10470000B909114041405962780910404840986207
:10471000390911404140D962019FB800104048401A
:104720001863F900114041405963770817404F4022
:104730009F632740700016407E40DE63104070404B
:1047400018640021114E029FF151A900114041400F
:104750005964E800104048409864290111404140E4
:10476000D96468011040484018652040E907490EA7
:104770004140596504B0F0BD90040020840500203C
:104780001E050020FFFF0000ED040020A007002010
:104790006A5B0008B0B51C46049D88420B4600DBEE
:1047A0000346281B9342154600DC1D466B1A5843EE
:1047B000511AFCF7D1FD0019B0BD000001204005E1
:1047C00002490A6882430A60486170470004014058
:1047D00010B5C84800F058FBEFF3108072B6C64819
:1047E000007800F057FB792400F00CFAA41E142185
:1047F0002046FCF792FDFDF7FDFD60080A3080B20F
:1048000000F068FB0A20FEF795FA022CECD8FDF7C1
:1048100049FD0024204600F05DFBB8480480B848FC
:10482000008800F031FB62B610BDC046F0B583B021
:104830000320FDF7DFFD00243226B04D019403E094
:10484000641CB61CAE2E49D200F0DCF90198288019
:104850002A4880198778FF2FF2D00294C478002C60
:1048600030D00A2000F036FBF72060437D2149015B
:1048700041182348FCF751FD044622482146FCF725
:104880004CFD054680B200F0FFFA9B480078454396
:1048900028469849FCF741FD80B200F0FBFA0298E7
:1048A000C0B2FE214143CD1917482146FCF735FD22
:1048B0006843924D6421FCF730FD80B2FEF73AFA6E
:1048C0000024BEE70024204600F0E4FA0298C0B2BB
:1048D000FE214143C819FEF72DFAB2E7FDF7E2FCCD
:1048E0000024204600F0F6FA8548008800F0CCFA53
:1048F0002C8000F087F903B0F0BDC046EE06002022
:1049000080969800003E4900A086010010B57948C5
:1049100000F0BAFA282000F0DDFA7748007800F0BD
:10492000B9FA0220FDF766FD96242046FEF702FA4A
:1049300000F068F9502000F0CDFA2046FEF7FAF9B1
:10494000FDF7B0FC0024204600F0C4FA6B48048058
:104950006B48008800F098FA10BDC04610B5654855
:1049600000F092FA322000F0B5FA6348007800F0C7
:1049700091FA0220FDF73EFD96242046FEF7DAF973
:1049800000F040F91E2000F0A5FA2046FEF7D2F90B
:10499000FDF788FC0024204600F09CFA574804806C
:1049A0005748008800F070FA10BDC04610B5EFF30C
:1049B000108072B64F4800F067FA00F023F95020DB
:1049C00000F088FA4C48007800F064FA0320FDF704
:1049D00011FD64242046FEF7ADF9462000F07AFA76
:1049E0002046FEF7A7F9282000F074FA2046FEF7CB
:1049F000A1F9FDF757FC0024204600F06BFA3F4870
:104A000004803F48008800F03FFA62B610BDC046FF
:104A100010B5384800F038FAEFF3108072B600F0A5
:104A2000F1F83C2000F056FA3348007800F032FAF2
:104A30000120FDF7DFFC4B242046FEF77BF95020D8
:104A400000F048FA2046FEF775F95A2000F042FAC5
:104A500000F0D8F82046FEF76DF9FDF723FC00249E
:104A6000204600F037FA254804802548008800F0E9
:104A70000BFA62B610BDC04610B5EFF3108072B6E7
:104A80001B480078FF2802D0FFF7D0FE2AE0194823
:104A900000F0FAF91848007800F0FCF90320FDF75F
:104AA000A9FC372000F016FAC8242046FEF742F988
:104AB0000520FDF79FFC282000F00CFA2046FEF7A9
:104AC00039F90620FDF796FC192000F003FA20467C
:104AD000FEF730F9FDF7E6FB0024204600F0FAF976
:104AE000064804800648008800F0CEF962B610BD82
:104AF000307C0008CF070000E805002046050020B4
:104B000000010020B0B503210A050920C006036892
:104B10009343012214051B190360930283628B04E3
:104B200004689C439304E3180360530283620B04FC
:104B300004689C431304E318036013028362094B67
:104B40001C68082525430424A5431D601C68022514
:104B5000254395431D60890303688B43D10359188E
:104B60000160B0BD00040048012A05DB0B7803702A
:104B7000491C401C521EF9D170470000B0B5A7482F
:104B80000168022211430160016891430160C74836
:104B900001460839154A0A600A210160144909785A
:104BA00081601449C16002460C3A136801210B432D
:104BB000136000224260984B0F4CDC6004461434B2
:104BC0009C600E4C24785C600D4C1C604B020446CB
:104BD000143C25681D43256003680B430360924B1A
:104BE0001A70203802680A430260B0BD01600000FC
:104BF000A8010020FFFF0000EC0500201C010020A0
:104C00008B090000014802490160704700300040F4
:104C1000AAAA000002480021416001607047C04616
:104C20002404004010B515490A78154842708A7965
:104C3000C275144A93785B1E5C425C414474D3781D
:104C40005B1E5C425C4184749279521E5342534114
:104C5000C3744A78521E5342534103758A78521ED8
:104C6000534253414375C978491E4A424A418275AD
:104C7000B021054A00F00AF810BDC046C00000206F
:104C8000EE06002004050020007C0008F0B503AF0C
:104C900089B06E46F51D1135726171600446C80F0A
:104CA0000B180122194632619143C91D0722914315
:104CB0006A46501A59108546F060B160FCF72FFA29
:104CC000706802280ADBF068B168227863781B02FA
:104CD0009A180280A41C801C491EF6D1B068A860F6
:104CE0002B48011F0A68D207FBD10268120606D5BD
:104CF000284A136804460C3C23605268226072699B
:104D0000920514D103680222134303607369436060
:104D1000036840241C4304600B68DB07FCD10B686C
:104D20009B0601D520230B60036893430360002298
:104D30006A602A602A68AB689A42346915D30168B0
:104D400080220A430260FC1F053CA546F0BD0268B4
:104D50003469A24302606A68921C6A602A68521C25
:104D60002A602A68AB689A42E9D20268224302604C
:104D70002A685200F3689A5A6B6874691A530A6871
:104D8000D207FCD10A689206E1D520220A60DEE74C
:104D90001020024020010020B0B51F490868A84A31
:104DA000024010320A601D48026802231A43026062
:104DB00002689A4302603D480246083A6023136045
:104DC00003220260164A127882603D22C2600346C6
:104DD0000C3B1C68012214431C60124BCB60034641
:104DE00014338B60104B5C7817344C600F4C0C60A4
:104DF00051020446143C25680D43256001681143A7
:104E00000160D103446A0C4344621A70203801687F
:104E100011430160B0BDC046440002401010024082
:104E2000F5040020A0070020EC0400209B090000EE
:104E3000B0B50E48036808210B4304229343036076
:104E40007E4B5C68834D2540834C24782C195C6034
:104E500084688025254385601C68012525431D60E5
:104E6000036813438B430360B0BDC0460038014064
:104E7000044900228A6108624A60086801220243EC
:104E80000A6070470C200040014908607047C04626
:104E90002C2C014008490860486088607047C04673
:104EA000024801680A2291430160704720040040D3
:104EB000014908607047C046342C01400149086030
:104EC0007047C046382C0140014908607047C04611
:104ED0003C2C0140014908607047C046282C014025
:104EE0000B2800D30B204000014908707047C046D2
:104EF000E8050020014800210160704724000040BF
:104F0000F0B593B00024119410940F940E940D9466
:104F10000C940B94012009908203039203460190A4
:104F2000444841681143416041681140129112990F
:104F3000990402680A4302600068084012900A94CB
:104F400008940220049006901298402505950326A7
:104F50000796394805A9FCF7F3FB384F38683849FC
:104F60000140103139603003396881433960386855
:104F70002021884338603868A84338603868802129
:104F8000014339603002396881433960B0023968C1
:104F900081433960FF2000062A490A688243B0072E
:104FA00010180860019DE8062749086011941094C4
:104FB000082002900F900E940D940C94E120400272
:104FC0000B90224E3446083C0BA92046FCF748FEC5
:104FD000A8023168814331600920C002311F0A688C
:104FE00082430A6030682A21884330602068284361
:104FF00020600399103138680840102804D1144803
:10500000F8602036BE6003E01148B8602036FE60CC
:1050100078681049014010480078081878603868AE
:10502000049908433860386802990843386013B01F
:10503000F0BDC04614100240000400481C000240AD
:10504000EFBFFFFF18E400E000E100E00838014096
:10505000DE0500200000FFFFB0010020F0B585B0A4
:10506000F44E7078022811D0012803D1FDF7C8FB57
:1050700000207070B08D401CB085F07800280BD0F7
:105080002024305D002809D0B08FE4E0FFF7ACFAAF
:105090000020707000F094FCB08F2CE17D22D100D4
:1050A000E548437B580004914118B08F01250395D2
:1050B000EF43F57A002D17D081420BD2DE4A527EA3
:1050C000B578AA422AD100257586B57E002D21D05B
:1050D0000399B175049D5F437A19824226DC590019
:1050E0006A1A824254D9B3E0814211D2D24B5B7E1C
:1050F000B578AB420AD15020CF4D285A6D8EA842C8
:105100004CD8F07E002849D1D000B087049D56E0ED
:10511000049D5EE0039DAA1AC74D6A76B27D002AFF
:10512000049D10D05F437A198242D8DDB178039D87
:105130006D1AC14F7F7EBD4218D1B57E002D11D0B2
:105140000399B17510E0BD4A00922F3A2F23FFF763
:1051500021FB7086B848437BB08F5F437A19824247
:10516000BDDDE3E7B44D697600217186B17D00298C
:1051700009D12F2100910021B04BFFF70BFB708666
:10518000AD48437BB08F049D59006A1A82425FD8B4
:10519000491981425CD30021B17558E0A848002527
:1051A00085600398F075C01AA3494876FFF706FB9F
:1051B0007574A148407B4000049D4119B08F9F4AFF
:1051C00000922F3A2F23FFF7E5FA70869A48437B27
:1051D000B08F394659434A1982422FDDB37803997B
:1051E0000293CB1A94494D7EAB420BD15020085A02
:1051F0004B8E984208D8F07E002805D1049DB587D3
:10520000284611E0049D0FE00398F0758C480025B6
:10521000856002984876FFF7D1FA75748648407B1E
:105220004743049D7A19B08F2F2100910021834BB1
:10523000FFF7B0FA70868048437BB08F59006A1A36
:10524000824205D84919814202D3002171747186C6
:10525000315D002950D07D21CC0021462F3188427C
:1052600020D9754D697EB278914215D15020285AC7
:105270006A8E904205D8F07E002802D10020B087C7
:105280000AE06F48002787600120F075401A6876B1
:10529000FFF794FA7774B08FA97C4200511A694ADB
:1052A000891871860146303989B2A1421FD2B1787E
:1052B0000122531A604C657EAB4213D15020205A14
:1052C000638E984205D8F07E002802D10020B08776
:1052D00008E0F2755A48002585606176FFF76EFA9E
:1052E0007574B08FA17C4200511A313971862F2814
:1052F00002D80020707470864F4CE078002810D0DF
:10530000F07B64214143481C617C4143707E8142B3
:1053100007D2FCF7C7FFFFF751FA6620707600202E
:105320005AE0B079002805D0708E1D2822D80021BF
:10533000718745E0307B00284DD0307800281DD0A3
:10534000616DA36D708E00912F213C4AFFF722FA08
:1053500001463D48FCF700F8E1794908FBF7FCFFFE
:105360003085708E2E2809D8384800210160718759
:10537000316632E01E2816D11E2021E0346E344DF5
:1053800020462946FBF77BFF0028204600D128460F
:10539000FBF7AAFF70872F492046FBF77EFF002806
:1053A0001BD1302018E0217B14224A43824207D9C6
:1053B000A02100911E212F23FFF7ECF97087708E3A
:1053C000227B14215143814207D81C4A0092A0231A
:1053D000FFF7E0F900E0708E7087B08D1E4DA84297
:1053E0004DD92E20345E2046FBF773FF1B49FBF797
:1053F000FAFE0146306FFBF79DFE3067184F387894
:1054000003280BD002282DD0012836D12420305C6F
:10541000FF2168314118993102222BE04620305A91
:105420001921FBF77AFFC0B27D21C900411818315C
:1054300001221FE004050020C0000020FF0700003B
:1054400080050020FFF7FFFF00879303280100205D
:1054500000E0FF4400004042204E00000000B44342
:1054600095040020A0B2C0B23221FBF756FF032200
:10547000510201433A70E14801800020B085B07FBD
:10548000002845D0F0790028DD4D0DD04A20315A52
:10549000491C31522A791423534389B28B4203D2D7
:1054A0000021315201207075F07ED64C002800D0CA
:1054B0004BE25027B07F002804974AD0B179384694
:1054C00048432F30728F904243D8B07E002816D1C7
:1054D000FCF7E8FEF07D00280CD1B07E002807D153
:1054E000FDF7E4F8EC53C848FFF704FD0120B0765F
:1054F000FDF720FD0120B076A88E3086B1794020DE
:105500002A5A6B8F708F009200290ED089210DE0EE
:10551000307C0028B6D1F07F0028B3D0708E0028F0
:1055200054D0482000213152ACE72F21B74AFFF771
:1055300031F90446F087B08DB54941430220C1419D
:10554000B44881426FD9F07A0028AD4D01D10020D6
:10555000B075B07978432F30718F884200D860E100
:10556000B07C00280AD0012802D1FFF7F7F9B07CFF
:10557000022801D1FFF7CAF90020B074687800282A
:1055800000D1E6E0B07E002800D1FAE0687F3C213F
:105590004143A88C421810463C3803B2FF216831C1
:1055A0008B4201DD9C4810184C22B0520246EF326B
:1055B00013B28B4201DD0246793AF253024677324A
:1055C00013B28B4200DDD3E01046D2E04820315ABE
:1055D000491C315289B2A94200D853E7318F1F29A3
:1055E00000D2E8E00120B077B07A002800D1F0E1E5
:1055F0004620345AB92041002046FBF78EFE307415
:10560000FF2068300B30844200D2E4E10024FFF731
:10561000CDF96420FDF78EFBFFF7F4FA641C307CB3
:105620008442F4D3D7E1B17E707B002846D00029B4
:1056300044D003912E20305EEB49098C0122D243E5
:10564000623A4A431018EA4988620A6C831A0D6B61
:105650004A6B8F6B5A43CA6308644543ED198F6CDC
:10566000BD423B4600DC2B467F42BB4200DB1F466F
:105670008F63D219CB6A58431318C86C8342024611
:10568000D94D00DC1A4640428242049F00DB10469E
:105690004864FBF71EFED849FBF7A5FDFBF724FE87
:1056A000298E091A0AB2688F824200DB084601B2CD
:1056B000A2B28A4200DB04462C860399002900D15D
:1056C00041E77079002800D13DE7C749C85B498CA4
:1056D000401AC74908658A6E831A8C6DCA6D0D6EB3
:1056E0005A434A668866444365190C6FA5422346AF
:1056F00000DC2B466442A34200DB1C460C661219F8
:105700004B6D58431318486F8342024600DC1A461B
:105710004042824200DB1046C866FBF7DAFDB6491C
:10572000FBF761FD0146706EFBF704FD0546B34CC7
:105730002146FBF7C0FD002800D12C4674660025E9
:1057400020462946FBF7B7FD002800D0FBE675662A
:10575000F9E60020F087B17E00293AD1A34988609C
:105760000120F075307900282ED0FDF77DFC30E067
:10577000F1384E217052B079012852D10120F076D3
:105780004FE00124F4750025F5879848856075770A
:105790003079002813D0B0790028934D00D0F5E679
:1057A0004020285A697A490040181338F087FFF7DB
:1057B000A9F9B475EAE600213152F17762E6FCF707
:1057C00071FDF587884DE1E6B07D002801D1FCF739
:1057D00069FDB77DF07A002824D0002F22D0B18F48
:1057E0007D25EC002046FDF77DFC0019F08780B296
:1057F0002901884212D1FDF737FC11E09604002000
:10580000C00000201027000088130000FF070000E0
:10581000CDCCCCCCCCCCCC0C5CFEFFFFFFF772F92E
:10582000714DB77D002F55D1707914221146C140BA
:10583000F48F6E488068884209D2A88E844201D2D3
:10584000F0870446288F844201D9F087044642201D
:10585000285A844201D9F0870446707B00280392BD
:1058600005D03020285E844201DD84B2F487756E55
:10587000002128460291FBF7F4FC002804D12846B9
:10588000FBF732FD2418F487574D039BA87B0028B3
:1058900020D07D208000B16F814200D83C23EB7482
:1058A000308EA1B20A1A9A420ADDC018F087049815
:1058B000285AFF2168318D31884209D9012008E03A
:1058C000411A994204DD02992975C01AF08701E056
:1058D00002982875B07EB17F002914D0002812D01C
:1058E000718F30290FD3A87800281AD00498285A2D
:1058F0004021695A00914B086021C822FEF74AFFF7
:105900000446E8870EE0002F5CD0402029462D5A3F
:10591000F78FCC8F384660432946FBF7FEFC281AE8
:1059200007E0EC8F4020295AF78FA0B27843FBF7AD
:10593000F4FC401C522170523786A0B2FFF7A4FA43
:105940005220305AFFF7A6FA2A4C4220315A491CFD
:10595000315288B2A04233D9B17F002916D0FCF76A
:10596000A1FC0020B063F083FFF794FAFFF752F92F
:10597000012001022248FBF7D2FBBFF34F8F2148E1
:1059800021490160BFF34F8F00BFFDE71F498842E7
:1059900016D3FCF787FC0020B063F083FFF77AFA98
:1059A000FFF738F9012001021548FBF7B8FBBFF3F8
:1059B0004F8F144814490160BFF34F8F00BFFDE7BC
:1059C00005B0F0BD2D21414352203152EC8FF78FAD
:1059D000B2E7FEF7EBFF2120305C002800D051E554
:1059E0000020F0724EE5C046C00000208005002077
:1059F000280100201027000000401C46000016432C
:105A0000EC0500200CED00E00400FA0551C3000095
:105A100070B53D4800783D4C217800290BD0002816
:105A200009D03B480078002810D0FFF7A7F8394884
:105A30000221017070BD3849097801290CD0002974
:105A400022D1FDF78DF9FFF799F870BDFFF7A4F9A2
:105A500030480121017070BD00280AD02C48007820
:105A6000002812D0FEF7C0FDFCF7CAFEFFF786F84B
:105A700070BD2A48007801280AD0294800780128FA
:105A80000ED02078002816D070BDFFF785F970BDC4
:105A9000FCF7B6FEFFF772F8214800780128F0D134
:105AA000FDF776F8FFF7FCF9FFF768F8FDF7D4FA91
:105AB00020780028E8D11B4C1B4D2888002807D1EE
:105AC0006178002904D119480188491C018070BD02
:105AD000164900260E8016498842D5D32189FDF744
:105AE00001FB322801DC2078461C2670F0B23328F6
:105AF00007D3E078002804D1FEF76AFE01200002F7
:105B000020802888208170BDEC060020220500201E
:105B1000EC040020050500202305002024050020BA
:105B200025050020F0040020360500203C0500205B
:105B3000DD05000002E008C8121F08C1002AFAD1E2
:105B400070477047002001E001C1121F002AFBD1FD
:105B50007047000000000000000001020304060777
:105B600008090000000001020304191B12131D158F
:105B700016171A090A0B1E0D0E0F0000A05B000875
:105B8000C0000020D003000050140008A05E0008F0
:105B900090040020A8070000445B000800000000FB
:105BA0001022020101011EFF020E050A0A2D0564E2
:105BB00001016E0A01020105050601010206060146
:105BC000D007CA142823B4100A4C046C07DC054A19
:105BD000011E1AD008127812781459012D122D2B9B
:105BE000CF0702121412461E9001CF07641223D46D
:105BF0003023102723E8031220400B204E23016797
:105C000045AB89EFCD720A02136429346350C31A7D
:105C1000203C412944011023204E54A086017202E9
:105C20000A1A325013127A121C340140093AFA84CB
:105C300012B412B712BA12BD12C112C412C712CADC
:105C400012CD12D012D312D612D912DC12E012E306
:105C500012E612E912EC12EF12F212F51AF73422E0
:105C6000FD1867010301060109010B010E01110175
:105C70001301160119011B011E0120012301250139
:105C800028012A012C012F0131013301350138018E
:105C90003A013C013E0140014201440146014701F5
:105CA00049014B014D014E01500151015301540175
:105CB0005601570158015A015B015C015D015E010B
:105CC0005F0160016101620163021C640165021AE7
:105CD00066023A6702FA680249182922292A3A64B8
:105CE000361A62401A60481A5E501A5C581A5A6096
:105CF0001A57681A54701A51781A4E801A4B881A1B
:105D000047901A44981A40A01A3CA81A38B01A337F
:105D1000B81A2FC01A2AC81A25D01A20D81A1BE080
:105D20001A16E81A11F01A0BF815060103011301EF
:105D3000FD12FA12F712F512F212EF12EC12E9123A
:105D4000E612E312E012DC12D912D612D312D012EC
:105D5000CD12CA12C712C412C112BD12BA12B712A2
:105D6000B412B112AE12AB12A712A412A1129E125B
:105D70009B129812951292128F128C128812851211
:105D800082127F127C1279127612731271126E12C5
:105D90006B126812651262125F125D125A1257126C
:105DA000551252124F124D124A1248124512431206
:105DB00040123E123C123912371235123312301291
:105DC0002E122C122A12281226122412221221120A
:105DD0001F121D121B121A1218121712151214126A
:105DE0001212111210120E120D120C120B120A12B4
:105DF000091208120712061A050212041A03021ADF
:105E0000020219D91902011249182922292A3A0431
:105E1000361A06401A08481A0A501A0C581A0E6008
:105E20001A11681A14701A17781A1A801A1D881A0B
:105E300021901A24981A28A01A2CA81A30B01A35C2
:105E4000B81A39C01A3EC81A43D01A48D81A4DE0B9
:105E50001A52E81A57F01A5DF812621265126812A7
:105E60006B126E1271127312761279127C127F12FB
:105E70008212851288128C128F1292129512981229
:105E80009B129E12A112A412A712AB12AE1AB1A2BB
:105E9000000D00414D3332205265662D45534300BD
:04000005080010BD22
:00000001FF
