:020000040800F2
:10100000580E0020A911000889150008591500087C
:101010008515000815140008891800080000000054
:101020000000000000000000000000007916000829
:101030002D150008000000008D1500087D16000821
:10104000C3110008C3110008C3110008C311000830
:10105000C3110008C3110008C311000831150008AE
:10106000000000001914000845140008811400084D
:10107000B1120008C3110008C311000800000000ED
:1010800061180008C31100080000000025180008BE
:101090003918000851180008C3110008C3110008CE
:1010A000C3110008C3110008C31100088518000807
:1010B000C311000800000000000000000000000054
:1010C000C311000800000000C311000800F002F87E
:1010D00000F05AF80AA090E8000C82448344AAF178
:1010E0000107DA4501D100F04FF8AFF2090EBAE876
:1010F0000F0013F0010F18BFFB1A43F0010318474C
:10110000285C0000485C00000A444FF0000C10F816
:10111000013B13F0070408BF10F8014B1D1108BF75
:1011200010F8015B641E05D010F8016B641E01F815
:10113000016BF9D113F0080F1EBF10F8014BAD1C65
:101140000C1B09D16D1E58BF01F801CBFAD505E083
:1011500014F8016B01F8016B6D1EF9D59142D6D3DD
:10116000704700000023002400250026103A28BF05
:1011700078C1FBD8520728BF30C148BF0B60704709
:101180001FB51FBD10B510BD00F058F81146FFF790
:10119000F7FF02F0EFFC00F076F803B4FFF7F2FF80
:1011A00003BC00F07DF8000009488047094800476B
:1011B000FEE7FEE7FEE7FEE7FEE7FEE7FEE7FEE707
:1011C000FEE7FEE704480549054A064B7047000064
:1011D00081160008CD10000858080020580E002085
:1011E000580A0020580A00204FF0000200B51346AC
:1011F00094469646203922BFA0E80C50A0E80C5037
:10120000B1F12001BFF4F7AF090728BFA0E80C50E7
:1012100048BF0CC05DF804EB890028BF40F8042BE0
:1012200008BF704748BF20F8022B11F0804F18BF4D
:1012300000F8012B7047704770477047754600F003
:101240002BF8AE4605006946534620F00700854658
:1012500018B020B5FFF7B6FFBDE820404FF00006FC
:101260004FF000074FF000084FF0000BAC46ACE821
:10127000C009ACE8C009ACE8C009ACE8C00921F07D
:1012800007018D46704710B50446AFF30080204635
:10129000BDE81040FFF781BF00487047B803002049
:1012A00001491820ABBEFEE726000200704700008F
:1012B00040F21440C4F201000168890258BF70472F
:1012C0004FF40011016002F03BBA000040F22850D8
:1012D000C2F20000818840F2EA42C2F200021180AC
:1012E000018840F2EE42C2F200021180408840F2D2
:1012F000D641C2F20001088070470000F0B587B007
:1013000042F200444FF09040032100224023C4F2F7
:101310000104002702F026F94FF09040032100223B
:10132000082302F01FF94FF4A010012101F0B2FBD5
:101330000825C4F20205284601F0FAFD02AE304647
:1013400001F0A8FD0320C0F20010CDF8120040F219
:101350002850C2F20000039004F14C00029040F2C9
:101360000110C0F20120CDF8160028463146ADF834
:10137000107001F09FFD2846012101F085FD092034
:10138000C0F21800012101F085FB072001F05EFA90
:1013900001AD284600F0B2FA40F20110C0F2003070
:1013A00001902046294600F087FA204603210122B9
:1013B000032300F0CBFA204606210222032300F08B
:1013C000C5FA204610210322032300F0BFFA0120B2
:1013D00000F00AFC20460721012200F0E5FB204630
:1013E000012100F0A3FA2046012100F0A9FA2046CD
:1013F00000F088FA204600F08BFA0028FAD1204647
:1014000000F08AFA204600F08DFA0028FAD107B0E1
:10141000F0BD0000FEE70000B0B5022001F042FD83
:10142000012818BFB0BD0424C4F2020401252560C0
:10143000FFF74CFF082001F035FD012808BF2560AB
:10144000B0BD000010B51C242020C4F2020401F03D
:1014500029FD012806D1102044F8180C206820F03E
:1014600001002060802001F01DFD012818BF10BD83
:10147000102044F8180C206820F00100206010BDF6
:1014800010B540F2B040C2F200000078A0B10420D4
:10149000C4F202004FF480310160416D21F001017E
:1014A000416504F085FF40F21040C4F201004FF4A2
:1014B0000041016010BD00BF04244FF48020C4F23D
:1014C000020401F0EFFC012810D140F2B140C2F259
:1014D0000000007850B144F22000C4F2010001681D
:1014E00041F0020101604FF4802020604FF4003091
:1014F00001F0D8FC01280FD14FF480302060606DDE
:1015000020F00100606504F053FF40F21040C4F287
:1015100001004FF4004101604FF4002001F0C2FCD3
:10152000012804BF4FF48030206010BD70470000D8
:1015300040F2F061C2F200010A6840F21440013248
:10154000C4F201000A600168090458BF70474FF4F3
:101550000041016003F020BDFEE7000043F20000FF
:10156000C4F2000045F2555101604CF6CC410160D7
:10157000032141604FF47A6181604AF6AA2101603B
:1015800070470000FEE70000704700007047000051
:1015900070B544F20C40C4F20100016840F200054D
:1015A00021F001010160C2F20005A97EA87F40F28E
:1015B00090440129C2F200040AD10130C1B20729C6
:1015C000A87722BF0120A877E07400F001000AE0AC
:1015D00001380106A87703D106200121A877E1741C
:1015E000012121EA00006876EFF3108072B6A07D39
:1015F00010B9A87F00F0F8FB62B600F0A7FB607995
:10160000E17A084308D0A06FB0F5FA6F04D9012041
:101610006875002004E000BF687DB0FA80F04009E2
:101620000021AA7F40F20C566184B4F84810C2F23F
:10163000000606EB4202D181B5F85020AB7902EBEF
:10164000420211448A08A5F850204A09C1F3CE018C
:1016500002FB131102FB03F500282587A4F84210B2
:1016600018BF01F085FC706842F20F7188429CBF80
:101670000130706070BD00007047000070470000CE
:1016800041F20000C4F20200016841F00101016072
:101690000168890709D4016889075CBF01685FEAAE
:1016A000817102D401688907F2D5416821F00301F4
:1016B000416000BF416811F00C0F0BD0416811F080
:1016C0000C0F07D0416811F00C0F03D0416811F0E6
:1016D0000C0FEFD101684FF6FF72CFF6F2621140A6
:1016E00001600021416041F61071C1624FF4801128
:1016F00001634FF41F0181604EF6085041F2000172
:10170000CEF20000C0F600010160704710B50B205A
:10171000C0F21800012101F0BDF942F60044C4F204
:10172000010440F6B830E0620020A06246F668008E
:10173000A0616820E06120460021012204F09EFDA6
:1017400020460221012204F099FD204604210122B5
:1017500004F094FD2046012104F0C2FD606C3C21A0
:1017600061F3070060641124C0F2140420460121D3
:1017700001F090F9601C012101F08CF940F2004465
:10178000C4F60004204602210022022301F0EAFEF2
:10179000204602210022012301F0E4FE4FF0904098
:1017A00002210022802301F0DDFE204601210222D9
:1017B00001F0E4FE20460021022201F0DFFE4FF09E
:1017C00090400721022201F0D9FE4FF09040022103
:1017D00000224FF4806301F0C5FE4FF090400221DB
:1017E00000224FF4007301F0BDFE4FF09040022143
:1017F00000224FF4807301F0B5FE4FF090400A21B3
:10180000022201F0BBFE4FF090400921022201F0BC
:10181000B5FE4FF0904008210222BDE8104001F0D3
:10182000ADBE000042F21000C4F200004FF6FE719F
:10183000016004F09DBA000044F21000C4F20100FF
:101840004FF6FE7101604FF6FD71016070470000B8
:1018500044F21040C4F2010000210160FFF798BE7D
:1018600040F21040C4F200000168890744BF4FF6FF
:10187000FD7101600168C9071CBF4FF6FE71016070
:101880007047000070470000FEE700004EF60C5065
:10189000BFF34F8FCEF200000168042201F4E06133
:1018A000C0F2FA5211430160BFF34F8F00BF00BF77
:1018B00000BF00BFFAE700000A78436802F00102A7
:1018C00023F4807343EA022242604A78836862F319
:1018D000410383608A78836802F0010223F4006385
:1018E00043EAC2228260C978C26A013901F00F015D
:1018F00022F4700242EA0151C16270474FF08071D8
:1019000001607047816841F0080181607047000004
:101910008068C0F3C0007047816841F004018160B5
:10192000704700008068C0F380007047826801F053
:10193000010122F4807242EA0121816070470000B7
:10194000826861F3000282607047000080B511294F
:1019500000F2BB80DFE801F00A121C26303A444E48
:1019600058626C747E88929CA6B000BFD0F810C0FC
:1019700063F3020CC0F810C0A7E000BFD0F810C09D
:1019800003F0070E2CF0380343EACE0303619CE01A
:10199000D0F810C003F0070E2CF4E07343EA8E1366
:1019A000036192E0D0F810C003F0070E2CF46063DE
:1019B00043EA4E23036188E0D0F810C003F0070E1D
:1019C0002CF4E04343EA0E3303617EE0D0F810C00C
:1019D00003F0070E2CF4603343EACE33036174E066
:1019E000D0F810C003F0070E2CF4E01343EA8E4346
:1019F00003616AE0D0F810C003F0070E2CF4600316
:101A000043EA4E53036160E0D0F810C003F0070EC4
:101A10002CF0E06343EA0E63036156E0D0F810C097
:101A200003F0070E2CF0605343EACE6303614CE0F1
:101A3000D0F80CC063F3020CC0F80CC045E000BF46
:101A4000D0F80CC003F0070E2CF0380343EACE03A5
:101A50003AE000BFD0F80CC003F0070E2CF4E0739E
:101A600043EA8E1330E000BFD0F80CC003F0070E3D
:101A70002CF4606343EA4E2326E000BFD0F80CC08C
:101A800003F0070E2CF4E04343EA0E331CE000BFE2
:101A9000D0F80CC003F0070E2CF4603343EACE33C9
:101AA00012E000BFD0F80CC003F0070E2CF4E013D6
:101AB00043EA8E4308E000BFD0F80CC003F0070EE5
:101AC0002CF4600343EA4E53C360013A0F2A88BFE7
:101AD00080BDDFE802F0090F151B21272D33393FA8
:101AE000454B51575D6300BF426B61F30402426393
:101AF00080BD00BF426B61F34912426380BD00BFED
:101B0000426B61F38E22426380BD00BF426B61F382
:101B1000D332426380BD00BF426B61F3185242630F
:101B200080BD00BF426B61F35D62426380BD00BF58
:101B3000026B61F30402026380BD00BF026B61F3BC
:101B40004912026380BD00BF026B61F38E22026303
:101B500080BD00BF026B61F3D332026380BD00BF62
:101B6000026B61F31852026380BD00BF026B61F328
:101B70005D62026380BD00BFC26A61F30402C2629B
:101B800080BD00BFC26A61F34912C26280BD00BF5E
:101B9000C26A61F38E22C26280BD00BFC26A61F375
:101BA000D332C26280BD00008368072923F000732E
:101BB00088BF03F100738360836802F0010261F360
:101BC00053438360816821F4801141EA02518160AE
:101BD00070470000826801F0010122F4800242EAAD
:101BE000815181607047000042F20841C4F2010156
:101BF0000A6800F0010022F4000242EAC0500860C6
:101C000070470000F0B581B02825C4F6000505F541
:101C1000767420460121002202230126022701F0CA
:101C2000A1FC4FF09040012100224FF48063C5F8E1
:101C300000744FF4806701F095FC204601210022DA
:101C400001232F6001F08EFC4FF090400121002213
:101C50004FF40073C5F800644FF4007401F082FC87
:101C60004FF090400121002280232C60802401F05D
:101C700079FC4FF09040012100224FF480732C60DA
:101C80004FF4807401F06EFC2C6001B0F0BD0000D8
:101C900070B540F20105C2F20005287840F2004418
:101CA000C4F600040028204606D0022100220223A8
:101CB00001F058FC07E000BF0121002202230226A8
:101CC00001F050FCA6624FF09040022100224FF438
:101CD000806301F047FC287830B1204602210022C1
:101CE000012301F03FFC07E02046012100220123EF
:101CF000012601F037FCA6624FF09040022100223D
:101D00004FF4007301F02EFC287838B14FF090406A
:101D100002210022802301F025FC0CE04FF09040CE
:101D2000012100228023802501F01CFC4FF6284071
:101D3000CFF6FF7025504FF09040022100224FF463
:101D40008073BDE8704001F00DBC000040F21E033E
:101D5000C2F200031A781C20C121C4F20100042A37
:101D6000C4F2000101D0012A03D101F11002026086
:101D70001A78052A01D0022A03D101F1200202605B
:101D80001A78062A04D0032A08BF016001E000BFC8
:101D9000016040F21901C2F200010A78D0F8EC1398
:101DA00052B121F40011C0F8EC13D0F8F01341F453
:101DB0000011C0F8F013704741F40011C0F8EC13A3
:101DC000D0F8F01321F40011C0F8F01370470000B0
:101DD000002818BF70471C20C4F20100026861F39C
:101DE0000002026070470000F0B581B0013805289C
:101DF00000F2D481DFE800F004185694BEE800BF7A
:101E000040F20100C2F2000000782824C4F6000469
:101E1000002804F5767000F0EB80022100220223F6
:101E200001F0A0FBECE000BF2825C4F6000505F595
:101E3000767420460121002202230126022701F0A8
:101E400091FB4FF09040012100224FF48063C5F8D0
:101E500000744FF4806701F085FB204601210022C9
:101E600001232F6001F07EFB4FF090400121002202
:101E70004FF40073C5F8F0634FF4007401F072FB87
:101E800040F201002C60C2F200000078002800F04F
:101E9000EB804FF0904002210022802301F062FB92
:101EA000F5E000BF2825C4F6000505F57674204648
:101EB0000121002202230126022701F053FB4FF0EB
:101EC0009040012100224FF48063C5F8F0734FF475
:101ED000806701F047FB20460121002201232F608B
:101EE00001F040FB4FF09040012100224FF40073BD
:101EF000C5F800644FF4007401F034FB40F20100B7
:101F00002C60C2F200000078002800F0B7804FF08B
:101F1000904002210022802301F024FBB7E000BFA3
:101F20002825C4F6000505F5767420460121002217
:101F300002230126022701F015FB4FF090400121FA
:101F400000224FF48063C5F8F0734FF4806701F00E
:101F500009FB40F201002F60C2F200000078002867
:101F600000F0A080204602210022012301F0FAFAAD
:101F7000A0E000BF2825C4F6000505F576742046CC
:101F80000121002202230126022701F0EBFA4FF083
:101F90009040012100224FF48063C5F800744FF493
:101FA000806701F0DFFA40F201002F60C2F200000A
:101FB0000078002800F090802046022100220123B2
:101FC00001F0D0FA90E000BF40F20100C2F2000040
:101FD00000782824C4F60004002804F5767000F088
:101FE000A38002210022022301F0BCFAA4E000BF7A
:101FF000012100220223022501F0B4FAC4F80054A2
:102000004FF09040022100224FF4806301F0AAFAC1
:1020100004F57670012100220123012501F0A2FAC6
:102020004FF09040012100224FF40073C4F8F053A8
:102030004FF4007501F096FA4FF090400121002214
:1020400080232560802501F08DFA4FF0904001211A
:1020500000224FF4807325604FF4807501F082FAFE
:10206000256001B0F0BD00BF4FF09040012100227B
:102070008023802401F076FA2C6008E04FF0904035
:10208000012100228023802401F06CFA2C604FF0A3
:102090009040022100224FF4807301B0BDE8F0406F
:1020A00001F060BA204601210022012301F05AFA12
:1020B000C5F800644FF09040022100224FF40073F5
:1020C00001F050FA4FF0904001210022802380243B
:1020D00001F048FA2C6019E020460121002201237A
:1020E00001F040FAC5F800644FF090400221002250
:1020F0004FF4007301F036FA4FF0904001210022B6
:102100008023802401F02EFA45F8104C4FF09040C7
:10211000012100224FF480734FF4807401F022FA01
:102120002C6001B0F0BD00BF012100220223022576
:1021300001F018FAC4F800544FF090400221002238
:102140004FF4806301F00EFA04F57670012100224D
:102150000123012501F006FA4FF0904001210022F1
:102160004FF40073C4F800544FF4007501F0FAF90D
:102170004FF090400121002280232560802501F04E
:10218000F1F94FF09040012100224FF4807344F8A0
:10219000105C4FF4807501F0E5F9256001B0F0BDE9
:1021A0002DE9F04F87B040F23C57C2F200073A6881
:1021B000D7F87CB040F21849ABEB0200C2F200093C
:1021C000A9F80A0081B240F28240C2F200000388FE
:1021D00048099942A9F8080040F2478140F280433B
:1021E000C2F200031B88994280F03F81D7E9013693
:1021F000D7E903519A1A82424FF00002D7E9054EFF
:10220000D7E907AC88BF01220692AA1B82424FF091
:102210000002A4EB010188BF012281424FF00001BE
:10222000059288BF01210491AAEB0E0181424FF073
:10223000000188BF012107F1240603914ECED7E9A2
:102240000D5EA1EB0C0181424FF00001FC6BD7F851
:1022500040C088BF01210291991A81424FF00001CC
:1022600088BF01210191A91B81424FF0000188BF65
:1022700001210091796CA4EB0E0686424FF0000A12
:10228000A1EB0C0188BF4FF0010A8142D7E912414E
:102290004FF0000388BF0123091BD7E9144C002528
:1022A000814288BF0125ACEB040CD7E9164E84456A
:1022B000AEEB040C4FF0000E88BF4FF0010ED7E9D3
:1022C000188484454FF0000CA4EB080488BF4FF03D
:1022D000010CD7F868804E46D7F86C908442A9EB81
:1022E0000808D7E91C94BF6FA4EB09094FF000045C
:1022F000ABEB070788BF012480454FF0000B88BF78
:102300004FF0010B81454FF0000188BF012187424A
:102310004FF0000788BF012780454FEAC40888BFF7
:1023200008F10408814540F2AE40C2F2000090F886
:10233000009040F2A740C2F20000007888BF08F188
:10234000020850EA0900716506980299F06180EA76
:102350000100F162F36380EA03000599019B316299
:1023600081EA030181EA05014FEA810141EAC000E7
:102370000499009A716281EA020181EA0E01C6E9BC
:10238000134B40EA41040398B765B06280EA0A0043
:10239000474440F2A748356480EA0C05C2F20008C1
:1023A00033637263C6F844E0C6F838A0C6F848C084
:1023B0000BD101F093F840B130790130C1B26529F9
:1023C000307124BF012088F8000098F80000002830
:1023D00044EA050018BF87F00F07874242D106F193
:1023E0001C0C9CE88F10490241EA802040EA022040
:1023F00040EAC310D6E90D5440EA871040EA4C1079
:1024000006F13C0740EA05108ECF40EAC40040EADE
:10241000810040EA420040EA030140F2D440B3891F
:10242000C2F2000000220280581C012FB08105D1A9
:1024300040F2A540C2F2000001220270302917DBF1
:102440007078A8B140F2CE40C2F20000018040F2A4
:102450003C60C2F2000000210170B17007B0BDE81D
:10246000F08F00BFF0890130F08107B0BDE8F08F38
:10247000481E2E280CD840F2CE40C2F200000022A6
:10248000028040F23C62C2F20002C8B2117018E051
:1024900031B140F23C60C2F20000007811E000BFB0
:1024A000307840F2CE41012804BF00207070C2F2A3
:1024B00000010020088040F23C61C2F20001087077
:1024C000B0700028D1D040F2AA41C2F200010978D0
:1024D0000029CAD140F2AE41C2F2000109780029B8
:1024E000C3D0F17888421EBFF0700021B17005287A
:1024F00005D3B1780131CAB2062AB170B5D3411EF5
:1025000000251429B57000F2A280DFE801F00B135A
:102510001B232BA033414F57A05F737FA0A0A0A027
:10252000A087950040F2A241C2F20001012008708C
:102530008DE000BF40F2A241C2F20001022008700B
:1025400085E000BF40F2A241C2F200010320087002
:102550007DE000BF40F2A241C2F2000104200870F9
:1025600075E000BF40F2A241C2F2000105200870F0
:102570006DE000BF40F29240C2F200000021017005
:1025800040F21A00C2F200000121017007205EE053
:1025900040F29240C2F200000121017040F21A00A4
:1025A000C2F2000000210170082050E040F2934088
:1025B000C2F2000000210170092048E040F293407F
:1025C000C2F20000012101700A2040E002F0B6FDD5
:1025D00040F29240C2F20000007840F2A242411C58
:1025E00040F23C60C2F20000C2F2000200781170BA
:1025F0002DE000BF317801204FF460627071012935
:10260000F28008BF70700D2021E000BF00207071C3
:1026100040F6FF60F0800E2019E000BF40F29240CB
:10262000C2F20000007840F21A01C0F10100C2F2CB
:102630000001087014200AE040F29240C2F200004B
:10264000007840F21A01C2F200010870152040F231
:102650008871C2F20001087040F23C60C2F20000D2
:10266000057007B0BDE8F08F70B582B040F23C5500
:10267000C2F20005D5E9000140F27652081AA0F234
:10268000213140F274449142C2F2000436D861789C
:10269000D1B3E178002951D0217940F2E142904252
:1026A0000BD840F22802C2F2000213880131C3EBBA
:1026B000C3031844C00821711080C8B24C2873D3DA
:1026C00040F22800C2F20000018800251931018083
:1026D0004FF61250CFF6FF7010FA81F000EBD07079
:1026E00040F23D614008C2F2000181F820006570AF
:1026F00002F024FD257102F025FB55E040F2CA40AE
:10270000C2F2000054E000BF40F29341C2F2000167
:10271000097839B340F22C01C2F200010A889042D4
:1027200036D940F22A01C2F200010B88511C4FF445
:10273000FA661A4640F2E93332E000BFA17840F26F
:102740002A0600290CBF208120890131C2F200062F
:10275000A170318880B200F0A1FE332846DB002052
:10276000607064E040F2280140F22A02C2F20001E7
:10277000C2F200020988128840F2FF762F230096E9
:1027800002F0A6F901462F3818BF08460BE000BF3B
:1027900040F22801C2F2000109884FF47A76002342
:1027A000009602F095F9206140F2D440C2F2000098
:1027B00040F2CE41C2F2000140F2DC0622690B88F1
:1027C000C2F200063668D51AB5424FF00005058002
:1027D00004DD9A190A8002B070BD00BF981AB04299
:1027E000C8BF9A1B0A8002B070BD00BF3088D5E90F
:1027F0000012C0EBC000511A0844A178C008332968
:10280000308014D34FF62A111938CFF6FF7130807B
:1028100011FA80F000EBD07040F23D614008C2F246
:10282000000181F821000120E07002F0BFFAE07899
:10283000318800282181B7D0D5E90001081A217913
:1028400040F2E14290427FF62CAF36E741F20401BC
:10285000C4F202010A6860F38F320A600A688008D5
:1028600060F31C720A60704741F20401C4F2020175
:102870000A6800F00F0022F0F00242EA001008603F
:102880007047000041F20401C4F202010A6800F03E
:10289000070022F4E06242EA00200860704700006E
:1028A00041F20401C4F202010A6800F0070022F4B8
:1028B000605242EAC02008607047000041F25401B3
:1028C000C4F202010A68012822F0300208BF303247
:1028D0000A607047042888BF7047DFE800F0030DE6
:1028E0001B29330041F20000C4F20200026861F3C8
:1028F00000020260704700BF41F20000C4F2020013
:10290000026801F0010122F4803242EA01410160D3
:10291000704700BF41F20000C4F20200026801F0FB
:10292000010122F0807242EA01610160704700BF3C
:1029300041F20000C4F20200026A61F30002026286
:10294000704700BF41F20000C4F20200426A61F326
:102950000002426270470000F0B541F20401C4F287
:1029600002010A68C2F3810341F20022022BC0F285
:102970007A020DD0002B4BD10B6D9B0548D5CB6A4D
:102980009B0144BF46F60042C0F2DC2240E000BF9B
:102990000B688C6AC3F30047002C17D40C680B68D3
:1029A000C4F38344C3F341731D016E1C0F2C3546E1
:1029B00018BF0225002B18BF354605EB0403FFB9ED
:1029C00040F60012C0F23D025A4321E08B6A8C6A45
:1029D000C3F3031E8B6A40F6001CC0F23D0CC4F327
:1029E000082403F007031FB10D68AD0358BF9446D8
:1029F0000CFB04F20EFA03F3B2FBF3F208E000BFA3
:102A00000F68BF0344BF40F60012C0F23D025A43B4
:102A100002600B6812A7C3F30313FB5C46F60E5764
:102A2000DA4042600B68C0F60007C3F30223FB5C88
:102A300022FA03F3C3600B68C3F3C223FB5C0427D1
:102A4000DA4082600B68096807EA9363C1F3813159
:102A5000194407A3595CB2FBF1F10161F0BD00BF5D
:102A6000000000000000000001020304060708093E
:102A700002040608020C081041F20002010CC4F224
:102A80000202895800F01F0021FA00F000F0010056
:102A90007047000041F2000200F01F034FF0010CEC
:102AA000C4F2020201290CFA03F14FEA10408358E4
:102AB00014BF23EA010119438150704741F200021B
:102AC00000F01F034FF0010CC4F2020201290CFABE
:102AD00003F14FEA1040835814BF23EA0101194360
:102AE0008150704741F20402C4F20202136868B1D7
:102AF00043F4803313601368012807BF23F40033C5
:102B00004FF0007043F40033002002E023F48033E0
:102B100000201360136861F395431360136809097B
:102B200061F35E731360916A21F0E0610843906283
:102B30007047000041F20000C4F20200016841F059
:102B4000010101600168890709D4016889075CBF38
:102B500001685FEA817102D401688907F2D5416892
:102B600021F00301416000BF416811F00C0F0BD050
:102B7000416811F00C0F07D0416811F00C0F03D021
:102B8000416811F00C0FEFD101684FF6FF72CFF6DC
:102B9000F262114001600021416041F61071C16292
:102BA0004FF4801101634FF41F01816070470000F2
:102BB00041F20401C4F202010A6860F301020A60F2
:102BC0007047000041F20400C4F202000068C0F344
:102BD0008100704744F62401C4F2010100220A601A
:102BE00007E000BF0A68824228BF70470A68824235
:102BF00005D20A68824202D20A688242F2D3704742
:102C000044F62401C4F2010100220A6042F6E062A7
:102C10004A6051F8102C00EB800042F001024000A5
:102C200041F8102C0A68824208D20A68824205D212
:102C30000A68824202D20A688242F3D3782048604E
:102C400051F8100C40F0010041F8100C70470000E2
:102C5000B0B540F23C5CC2F2000C40F25C0EDCF815
:102C60000040C2F2000E44F6206200230021AEF8BC
:102C7000022002E02833782B7AD00CEB0300456861
:102C80002C1B1BD18468651B21D1C5682C1B27D147
:102C90000469651B2DD145692C1B33D18469651BE3
:102CA00039D1C5692C1B3FD1046A651B45D1456AE2
:102CB0002C1B4BD1846A601BDCD051E02144944230
:102CC0003CBFA2B2AEF802408468651BDDD0294447
:102CD00095423CBFAAB2AEF80250C5682C1BD7D0B3
:102CE000214494423CBFA2B2AEF802400469651B85
:102CF000D1D0294495423CBFAAB2AEF802504569F2
:102D00002C1BCBD0214494423CBFA2B2AEF802406F
:102D10008469651BC5D0294495423CBFAAB2AEF870
:102D20000250C5692C1BBFD0214494423CBFA2B2C3
:102D3000AEF80240046A651BB9D0294495423CBFF5
:102D4000AAB2AEF80250456A2C1BB3D0214494427B
:102D50003CBFA2B2AEF80240846A601B3FF48AAF67
:102D6000014490423CBF82B2AEF8020082E700BF4D
:102D700040F2B043C2F20003187840F2744C4C09A0
:102D8000C2F2000C0128CCF8184030D1941E022C5D
:102D90000ED8CC090E2C0BD840F2D904C2F2000494
:102DA0000025257001248CF806401C700E2410E0CC
:102DB000541F032C1BD8CC09182C18D840F2D90565
:102DC0000124C2F200051C702C7003248CF806400C
:102DD000072440F2D805C2F200052C7020248EF89A
:102DE000004040F2AF44C2F200040125257040F2D9
:102DF000B144C2F200042578012D11D1A2F1C9001D
:102E000044F65651884288BFB0BD0120207040F280
:102E1000D900C2F200007721017002202BE000BF30
:102E2000284330D1901E02280ED8C8090E280BD88E
:102E300040F2D900C2F200000021017001208CF89C
:102E4000060018700E2010E0501F0328D6D8C809BD
:102E50001828D3D840F2D9010120C2F2000118701D
:102E6000087003208CF80600072040F2D801C2F257
:102E70000001087020208EF8000040F2AF40C2F23E
:102E8000000001210170B0BD026861F30002026020
:102E90007047000000210182C0E90011C0E9021161
:102EA000704700000021C4F202010968084018BF01
:102EB0000120704702684BF6EF731A4002600A89DE
:102EC00003681A4302604A7C036802F0030223F499
:102ED000405343EA02320260CA7B036802F00302F5
:102EE00023F4406343EA822202608A7B036802F093
:102EF000030223F4407343EA022202604A7B036820
:102F000002F0010223F0800343EAC21202600A7B4E
:102F1000036862F3861303600A7C036862F3451357
:102F200003604A8942600A6882604968C1607047EC
:102F3000016800F0FC024CF6CD43083ACCF6CC43D5
:102F4000A2FB032321F001010160002104220160A2
:102F500041608160C1606FF00300C4F2020200EAC8
:102F600093000F21136801FA00F0184310607047B6
:102F700040F20040C4F20100016841F40011016018
:102F80007047000010B542F60044C4F20104204628
:102F90000021012203F026F920460221012203F03C
:102FA00021F920460421012203F01CF920460121C9
:102FB000012203F017F920460321012203F012F940
:102FC00020460521012203F00DF9206840F00100A0
:102FD0002060606C40F400406064606940F0010073
:102FE000606144F20004C4F20104D4F8000440F02B
:102FF0000100C4F8000444F20C40C4F201008168EE
:1030000041F001018160016821F001010160D0F807
:10301000F41341F00101C0F8F41341F20000C4F2CE
:103020000000016841F001010160416941F00101C6
:10303000416142F20000C4F20000016841F0010168
:103040000160416941F001014161C16841F0010144
:10305000C160FEF753F920460021012203F0C2F8B7
:103060002068202140F0010020604EF20740CEF29F
:10307000000001704EF20010CEF2000080210160CD
:1030800040F20040C4F20100016841F400410160D7
:1030900010BD00005820C4F20200016841F0040194
:1030A0000160704742F20C01C4F2020108607047EF
:1030B00042F21000C4F20200016841F08001016098
:1030C0007047000042F20C01C4F202014A6842F06B
:1030D00002024A608860486840F040004860086822
:1030E000C0070DD10868400746D40868C0064FF0F5
:1030F000020058BF03204A6822F002024A6070476B
:103100004FF080420868C00700F08B800868C00755
:1031100038D00868C0073BD00868C0073ED00868B0
:10312000C00741D00868C00744D00868C00747D02E
:103130000868C0074AD00868C0074DD00868C007B3
:1031400050D00868C00753D00868C00756D0086838
:10315000C00759D00868C0075CD00868C0075FD0B6
:103160000868C00768D0103ACCD104204A6822F021
:1031700002024A60704700BF01204A6822F0020242
:103180004A607047013A086840074DD558E000BFD3
:10319000023A0868400747D552E000BF033A086882
:1031A000400741D54CE000BF043A086840073BD5D2
:1031B00046E000BF053A0868400735D540E000BF4B
:1031C000063A086840072FD53AE000BF073A08687A
:1031D000400729D534E000BF083A0868400723D5E6
:1031E0002EE000BF093A086840071DD528E000BF5F
:1031F0000A3A0868400717D522E000BF0B3A086872
:10320000400711D51CE000BF0C3A086840070BD5F9
:1032100016E000BF0D3A0868400705D510E000BF72
:103220000E3A086840070BD40868C0064FF0020049
:1032300058BF032005E000BF0F3A08684007F3D5E8
:103240000120012A08BF04204A6822F002024A60D5
:103250007047000042F2040040F22311C4F2020061
:10326000C4F26751016048F6AB11CCF6EF51016032
:103270007047000042F20C02C4F20202536843F0AD
:103280000103536001601068C0070DD1106840074A
:1032900046D41068C0064FF0020058BF03205168A2
:1032A00021F00101516070474FF480111068C00790
:1032B00000F08B801068C00738D01068C0073BD082
:1032C0001068C0073ED01068C00741D01068C00722
:1032D00044D01068C00747D01068C0074AD01068B3
:1032E000C0074DD01068C00750D01068C00753D039
:1032F0001068C00756D01068C00759D01068C007C2
:103300005CD01068C0075FD01068C00768D0103963
:10331000CCD10420516821F001015160704700BFF9
:103320000120516821F00101516070470139106896
:1033300040074DD558E000BF02391068400747D517
:1033400052E000BF03391068400741D54CE000BF90
:103350000439106840073BD546E000BF05391068C6
:10336000400735D540E000BF0639106840072FD52B
:103370003AE000BF07391068400729D534E000BFA4
:1033800008391068400723D52EE000BF09391068BE
:1033900040071DD528E000BF0A391068400717D53F
:1033A00022E000BF0B391068400711D51CE000BFB8
:1033B0000C39106840070BD516E000BF0D391068B6
:1033C000400705D510E000BF0E39106840070BD448
:1033D0001068C0064FF0020058BF032005E000BF90
:1033E0000F3910684007F3D50120012908BF0420D8
:1033F000516821F00101516070470000F0B581B0C3
:103400002825C4F6000505F5767420460121002222
:1034100002230126022700F0A5F84FF09040012179
:1034200000224FF48063C5F8F0734FF4806700F01A
:1034300099F820460121002201232F6000F092F824
:103440004FF09040012100224FF40073C5F8F06363
:103450004FF4007400F086F84FF0904001210022F4
:1034600080232C60802400F07DF84FF090400121F3
:1034700000224FF4807345F8104C4FF4807400F034
:1034800071F82C6001B0F0BD42F61440C4F20100A6
:10349000016841F00101016070470000401A48BF17
:1034A000404270471C20C4F201000068C0F38070E5
:1034B0007047000048F2E801484343F23811A1EB9D
:1034C00010304FF2CF31CCF63C7150FB01F0C10807
:1034D00001EBD0700F3000B2704700001020C4F62E
:1034E0000000006800F0040070470000F0B50A8892
:1034F000002A08BFF0BD00234FF0030C4FF0010E6F
:10350000002405E0520804F1010403F1020327D06E
:10351000D507F7D005680CFA03F6B54305608D7939
:1035200007689D403D43056045680EFA04F7BD43BA
:1035300045600D794768A5403D4345608568B543C2
:103540008560CD7987689D403D438560C568B543FA
:10355000C5604D79C6689D403543C560D2E700BF60
:10356000F0BD0000D0F800C05B4303EB43022CEA3F
:1035700002025943114301607047000010B51C233B
:1035800003EA810E24234FF00F0C082938BF2023B3
:10359000C4580CFA0EF124EA0101C150C15802FAD4
:1035A0000EF21143C15010BD62B670472DE9F04FC5
:1035B00081B002F0AFFA4FF4A0100121FFF76AFAD0
:1035C0004EF20B4BCEF2000B10204EF200168BF891
:1035D0000000CEF200064FF400603060FEF796F86F
:1035E0000424C0F21C0420460121FFF753FA41F2E3
:1035F0002800C4F200004FF6FF713B2741600760CE
:10360000201D01214FF6FF78FFF744FA42F228000F
:10361000C4F20000322141607721016030208BF834
:1036200008004FF4002040F2110A3060C0F2140A82
:1036300050460121FFF72EFA4FF4C0100121FFF789
:1036400029FA4FF090400321002202234FF0000995
:10365000FFF788FF4FF09040032100222023FFF75F
:1036600081FF8BF801904FF48050306000200121E1
:10367000FEF7AEFB1025C0F21805A81C0121FFF7CC
:1036800009FA44F60004C4F20104C4F82C80A762CD
:103690002068012140F080002060681CFFF7FAF9E3
:1036A0004FF62C4044F20008CFF6FF704FF4FA7149
:1036B000C4F201082150C8F82874D8F80004012188
:1036C00040F08000C8F800048BF80A904FF4001016
:1036D00030605046FFF7DEF928460121FFF7DAF99E
:1036E0004FF09040022100220423FFF73BFF4FF4EC
:1036F000A0100121FFF7CEF95820C4F2020040F6D5
:103700008A11016010208BF800004FF400613160D5
:103710004FF6FF71C8F82C10C8F82800D8F8000040
:1037200040F08000C8F80000D8F8000040F0010028
:10373000C8F8000001B0BDE8F04F02F09FBA0000E9
:10374000F0B581B041F2240540F29044C4F2000586
:10375000C2F200042868A16FA4F848007E2927D38C
:10376000286840F20C567C28C2F200060AD8B4F849
:103770004000C0084A2805D87068B0F5FA7F01D229
:1037800001B0F0BD40F20001C2F200012868B1F8BA
:103790005010B0EB510FF3D3207F0130C1B2652937
:1037A000207705D301F0A8F90020706001B0F0BDCA
:1037B00040F20006C2F20006717EF07D61B1A8B150
:1037C000002700BFFFF76EFE0028D9D1F07D01373A
:1037D0008742F7D30AE000BF40B10027FFF762FE3F
:1037E0000028CDD0F07D01378742F7D301F084F96E
:1037F000EFF3108072B62A68B4F8481000208A42AD
:103800004FF0000284BF2A68521A2A60B4F84210AE
:10381000327DD14044F20C42C4F20102A4F84210BD
:10382000906111625060106840F00100106062B653
:1038300001B0F0BD2DE9F04182B040F23D64C2F22A
:10384000000447F60041C0F600012046B02201F016
:10385000FBFB607CA17C0138B0FA80F040F290451F
:103860004009C2F20005A870481EE27CB0FA80F060
:103870004009012AE87004BF0120A871207D617D04
:103880000138B0FA80F040F200064009C2F20006AA
:103890007070481EA27DB0FA80F04009B070501ED2
:1038A000B0FA80F04009E37DF070207E42F62C48AB
:1038B000042BA0F10801C4F2010828BF0223282923
:1038C000B37115D8182823D2A0F10C010B2930D9D7
:1038D00000F0FC0108293DD141F64C570721102288
:1038E00043F69823009701F0F3F8A6F8400033E080
:1038F00041F28830F087C8F80000607EA0F1320104
:10390000642935D99620B086552070873BE000BFEA
:1039100040F6C4171821302241F28833009701F095
:10392000D7F80146207EA6F84010A0F10C010B2923
:10393000CED841F288370C21182242F2107300973A
:1039400001F0C6F80146207EA6F8401000F0FC0108
:103950000829C1D0B6F8400081B2C8F80010A6F816
:103960004A00A6F84200607EA0F132016429C9D85D
:1039700000F17801B186142101EB500171871E21FD
:1039800001EB5000B087A07E227F00EB800014275F
:1039900007EBC0003084501E637FB0FA80F040090E
:1039A0002871581EB0FA80F0E17E40096871052048
:1039B000F17102F047F86078002800F0B180A07F34
:1039C0000B2888BF052002F03DF8E07F94F8201016
:1039D0000138B0FA80F04009E87140F2EE2094F826
:1039E000212000EB410094F82230308540F2D6606F
:1039F00000EB4200708503F25E50B08594F823001E
:103A000094F824107073481EB0FA80F094F82510D2
:103A10004009A87201F1FA0094F82610F085481EBA
:103A2000B0FA80F04009E87294F828000021421FA3
:103A3000142A297298BF307394F82900411E09296D
:103A400098BF707294F82A00411EC9B2082919D88B
:103A5000B07200EB80006FF02D01A1EB4000617EA1
:103A6000F07251FA80F2B2864908B6F8482051FA4D
:103A700080F1718752FA80F1328FA6F8481052FA1D
:103A800080F0308794F82B00A0F14601462998BFBA
:103A9000707194F82C00411E622903D84000708494
:103AA0000120687394F82D00411E092998BF3072D7
:103AB00094F82E10092909D804290FD805F12100FE
:103AC000DFE801F004440A0C480000BF002028840D
:103AD00040F21940C2F2000001210170308C202711
:103AE00081084A299CBF0021F17348F21F51C5F299
:103AF000EB11A0FB01124FF2F101CFF2F001A0FB9C
:103B00000113F1795209B7FBF1F11B09B2FBF1F294
:103B1000B3FBF1F1A6F84420A6F8461001E000BF7F
:103B2000308C4FF4FA774FF4967140F6B8324FF478
:103B30007A73009700F0CCFF71787086002904BF7B
:103B40000020E87002B0BDE8F08100BF012085F8D8
:103B50002000BDE740F21840C2F2000001210170D0
:103B600040F21940C2F200000021017005F120006E
:103B7000B2E7000082B0FFF717FDFFF717FDFFF770
:103B800001FAFFF757FE40F6FC70C0F6000001781E
:103B900040F23D60C2F20000C27840F2904B40F229
:103BA0000009C2F2000B022AC2F200098BF82410AD
:103BB00002D1017903294CD040F20231A0F8031060
:103BC00045F25721C4F64111C0F8051044F65401DE
:103BD000C3F23321C0F8091044F25F61C2F234012C
:103BE000C0F80D1099F800109BF8036041709BF825
:103BF00002109BF806500139B1FA81F1490941746C
:103C0000711EB1FA81F149098174691E99F8012088
:103C1000B1FA81F14909C174511E99F80230B1FA23
:103C200081F149090175591E99F80370B1FA81F1C2
:103C300049094175791E99F80620B1FA81F14909BF
:103C4000C27547F600428175C0F60002B02101F04E
:103C5000B7FA9BF8060044F6D35700281CBFB9F802
:103C60003600A9F83400B9F84000B9F83810C1F2AC
:103C700062074143A1FB0712B9F848109BF80230D4
:103C80004143A1FB0717591E18BF012189F81A10DB
:103C900099F80B10A9F83E0001EBD21199F8012018
:103CA000A9F83810F909A9F84810002AA9F84A001B
:103CB00004BF00208BF806009BF80B0000B34FF404
:103CC0007A70A9F8480001208BF80300002189F8D8
:103CD0000F00B9F83A008BF80610A9F8011089F81E
:103CE0000310B9F83C103230A9F83A0001F1320063
:103CF000B9F83410A9F83C0001F13200A9F83400F9
:103D000043F20004C4F2000401F000F94FF000088F
:103D1000ABF83A80FDF722FC4AF6AA20206001F0B9
:103D2000C5F99BF8000040F20C5AC2F2000A0028C4
:103D30001CBF01208BF80C0093E000BF013801B2DA
:103D4000002948BF40F26710BBF84C10ABF84A009E
:103D500001390AB2002A48BF40F26711BBF84E2071
:103D6000ABF84C10511E0AB2002A48BF40F267114E
:103D700040F2E20500B2C2F20005ABF84E1035F990
:103D80001000B9F84E10B9F84020084444F6D35456
:103D90005043C1F2620450FB04F0C11199F80820AD
:103DA00001EBD07046F267665043C6F2666650FB80
:103DB00006F0810801EBD07080B201F031FEBBF952
:103DC0004C00B9F84E1035F91000B9F840200844FD
:103DD000504350FB04F0C11199F8082001EBD0705A
:103DE000504350FB06F0810801EBD07080B201F027
:103DF0001DFEBBF94E00B9F84E1035F91000B9F8A8
:103E000040200844504350FB04F0C11199F80820A9
:103E100001EBD070504350FB06F0810801EBD070ED
:103E200080B201F009FE99F8071041F65832B2FB52
:103E3000F1F340F22A32BBF83C00B2FBF1F730213B
:103E40007822009700F044FEA9F84C0080B2FEF7FB
:103E5000C1FEB9F84C004FF41671B1FBF0F0ABF8AD
:103E60005800012443F20000C4F200004AF6AA21DF
:103E70000160BAF81000BAF81210BAF81420BAF8B3
:103E800016300844BAF818701044BAF81A6018448A
:103E90003844304404304008B9F84070CAF808008B
:103EA000B9F850007B086021C822009700F010FE8E
:103EB0004FF60041C0F2FF31B9F84020A9F83E00AA
:103EC00001EA8021BBF84400B1FBF2F142F2117229
:103ED0009042CBF8641009D39BF81E10002940F0E3
:103EE000638449F64141884280F05E84BBF82E002D
:103EF00044F62161884247D3BBF93050284602F08E
:103F0000C5FD0021C4F2B43102F0AEFCDBF8701044
:103F100002460846114602F00FFC40F21D41C2F273
:103F200000010978CBF87000032909D0022917D0C5
:103F3000012927D19BF82500022100F5007017E028
:103F4000BBF8520044F2AF714143A0EB114040086E
:103F500000EB11400009042161F31F20012107E05B
:103F6000A8B2C0B229214843C00A00F5C0600321AD
:103F700040F21E42C2F20002108040F21D40C2F226
:103F800000000170ABF82E80BBF83410DAF80400A2
:103F9000C8294FF0000238BF012264284FF0000307
:103FA00088BF0123B0F57A7F58D8002956D01A402F
:103FB00018BF8BF819809BF806201AB19F2998BF6B
:103FC0008BF819809BF80F2032B10909182998BF86
:103FD0008BF8198006E000BF95298CBF0A21642167
:103FE00089F81110DAF8081045F25652C5F2555208
:103FF00051FB02F19BF8132001EBD171002ACBF8A1
:10400000781040D00B283ED3DAF80C00FFF746FAC0
:10401000DBF878100A097C2A31D84A0890422ED958
:104020009BF80300BBF83C20B0FA80F040092F2A2F
:104030004FF0000288BF012210429BF80E00CAF820
:10404000048000F101008BF80E000FD1B9F8500088
:10405000B0F57A7F88BF8BF81A8009E08BF8198059
:104060009BF80620002AA9D1ACE700BF8BF81A8084
:10407000B9F8340089F815404008ABF832008BF8E5
:104080001380CAF80C109BF81700B9F850100028DC
:1040900018BF012032294FF0000188BF01214EF2E4
:1040A0000B4208404FF01001CEF200021CBF00216D
:1040B00010201170907250709BF81500B8B1DBF8A9
:1040C00070009BF82550BBF85260BBF8307002F0CE
:1040D000C1FCBBF858400346284631463A46009496
:1040E000012400F07BFB01F04BF98BF815809BF865
:1040F00014000130C1B2C9298BF81400C0F0A180AE
:10410000FDF7E4F843F20000C4F2000000F574404B
:104110000121FDF75FFDBBF85A00FFF7CBF9BBF8B3
:104120005E1040F6E44440F201126143C0F2100216
:10413000A1FB0223C91A03EB510199F81020C90A07
:10414000514348F21F52C5F2EB12A1FB021C9BF82F
:10415000181040F28A7EC2F2000EDAF800303EF803
:104160001170BBF84660DB1B3344A3FB02752EF8CD
:1041700011600131C5F34F1740F67D42CAF8003097
:10418000CBB27C43CCF2CE72632B43F25C13A4FB24
:104190000242CFF6FF7303EB521246F2B703CBF2A3
:1041A0000B6353FB0222ABF85C00BBF852408BF868
:1041B000250088BF00218BF8181069095311C4EB42
:1041C000C400ABF836109BF80A1003EBD27200EB78
:1041D0005C101304CBF8747048BF42464FEAD0001D
:1041E000ABF83020ABF8520041B39BF81010B9F88F
:1041F0002E2080B2514381421ED9BBF82C009BF87F
:104200001B104FF67C47013044F62063CFF6FF7752
:1042100082B211FB07319142ABF82C000EDAABF8F9
:104220003C80FDF7EFFC00F067FC8BF81A80ABF8E0
:104230003A808BF81E8001E0ABF82C8001248BF8CB
:1042400014809BF81B008BF81C8078B3BBF83C00F3
:104250003128C0F07F809BF81E1000297AD0882872
:1042600040F2668299F81A10BBF84A0000298BF8D0
:10427000094000F06B81013801B2002948BF40F2CB
:104280006710BBF84C10ABF84A0001390AB2002A9B
:1042900048BF40F26711BBF84E20ABF84C10511EDE
:1042A0000AB2002A48BF40F2671169E1DAF8080053
:1042B00042F2C072C0F209029BF81A1092FBF0F0B1
:1042C0004843ABF8580080B24CF6CD41484399F8CA
:1042D0000F10C00CABF8600061B1B9F84410B9F828
:1042E0004620B9F84830B9F84A70009700F0F0FB62
:1042F000A9F842009BF8250099F8052090420AD9B8
:10430000B9F84A30A2F10A010A325B08009400F0C1
:10431000DFFBA9F84200DAF80400B9F8501064286D
:104320004FF00C004CD341F22402B1F5FA7FC4F2F5
:10433000000249D8DBF8780064214FF4FA720323B5
:104340000C27009700F0C4FB41F22402B9F850108A
:1043500038E000BF9BF804008BF8094010B3B9F8AF
:10436000400099F80910B9F83E2000EB41011339DB
:104370008BB25A43B2FBF0F2ABF84010801A013016
:10438000ABF8560000F024FEBBF8560042F634416C
:10439000C4F20101C1E9000088608BF81640ABF857
:1043A00058805FE542F63440C4F20100C0E900885D
:1043B000C0F80880FDF726FCABF8588052E500BF36
:1043C00041F22402C4F20002642938BF0220B9F885
:1043D000201089F8170089087C299CBF400089F8C3
:1043E000170010684AF6C9718842FFF43BAD9BF88C
:1043F0001A0001287FF436AD9BF8190001308BF8C4
:10440000190000F079FBBBF83C0089F8154041F237
:10441000240230283ABF8BF81A8041F28830B9F86C
:104420005000C4F20002CAF80480116800EB40009A
:10443000ABF84810C2F8008010FA81F0134699F8E2
:1044400018208108C0F38F00B0FBF2F2A9F85010D9
:10445000DAF80410C2EB50000A29ABF83820ABF8A8
:10446000420015D2186899F81A1099F81E0001290F
:104470001ED10130C1B2072989F81E0022BF0120D8
:1044800089F81E008BF8130000F001001CE000BF4B
:1044900080B21A4611688142E5D211688142E2D2A7
:1044A00011688142DFD211688142F3D3DBE700BF9C
:1044B0000138010689F81E0004D1062089F81E0083
:1044C0008BF8134024EA000089F81900EFF31080FC
:1044D00072B69BF8160018B999F81E00FDF784FC17
:1044E00062B6FDF733FC9BF805009BF80B10084300
:1044F00018BF012006D0DBF87810B1F5FA6F88BF3D
:1045000089F8154099F81E10BBF848200AEB4101C4
:10451000CA81DAF8041001F10101ABF822808BF8AE
:104520001D80CAF8041048B11429FFF49BACB9F8F7
:104530005000B0F5FA6F04D994E400BF1F29FFF4CE
:1045400091AC89F81580FEF713FD8BE4013001B2C0
:10455000B1F5B47FA8BF0020BBF84C10ABF84A00FF
:1045600001310AB2B2F5B47FA8BF0021BBF84E20DA
:10457000ABF84C10511C0AB2B2F5B47FA8BF0021B1
:1045800040F2E20500B2C2F20005ABF84E1035F978
:104590001000B9F84E10B9F84020084444F6D3543E
:1045A0005043C1F2620450FB04F0C11199F8082095
:1045B00001EBD07046F267665043C6F2666650FB68
:1045C00006F0810801EBD07080B201F029FABBF946
:1045D0004C00B9F84E1035F91000B9F840200844E5
:1045E000504350FB04F0C11199F8082001EBD07042
:1045F000504350FB06F0810801EBD07080B201F00F
:1046000015FABBF94E00B9F84E1035F91000B9F89B
:1046100040200844504350FB04F0C11199F8082091
:1046200001EBD070504350FB06F0810801EBD070D5
:1046300080B201F001FABBF83C00C82806D950202E
:10464000ABF84A80A9F84C0002E000BFB9F84C0072
:104650000124FEF7BFFABBF84A0000287FF402AC41
:1046600041F2240042F22831C4F20000ABF81A40B3
:1046700089F81540A9F85010CBF87810CAF80C103A
:1046800001609BF805001421CAF804108BF816800D
:1046900000281CBFB9F83C00ABF8320099F81A109A
:1046A00099F8160001290DD10130C1B2072989F806
:1046B0001E0022BF012089F81E008BF8130000F0B5
:1046C00001000BE00138010689F81E0004D1062024
:1046D00089F81E008BF8134024EA000089F81900BD
:1046E000EFF3108072B69BF8160018B999F81E0007
:1046F000FDF77AFB62B6FDF729FB9BF805009BF8F6
:104700000B10084306D0DBF87800B0F5FA6F88BFCD
:1047100089F8154099F81E00BBF848100AEB4000D4
:10472000ABF82280C181FEF7AFFEFFF79BBB00BF55
:104730009BF80900A8B144F20C41C4F201010868D9
:1047400020F00100086000F0D7F942F63440C4F2CE
:104750000100C0E90088C0F80880FDF799FA8BF8DD
:10476000098099F81A10BBF84A0000297FF4E6AADC
:10477000013001B2B1F5B47FA8BF0020BBF84C10E6
:10478000ABF84A0001310AB2B2F5B47FA8BF0021EC
:10479000BBF84E20ABF84C10511C0AB2B2F5B47FF6
:1047A000A8BF0021FFF7E4BAFDF72CFA42F6344126
:1047B0000020C4F20101ABF81E00CBF83A000860FB
:1047C0004860886000F0B2FC40F23C50C2F2000049
:1047D0004FF48071FCF708FDFDF758F880B540F202
:1047E0002E5CC2F2000C8CF80000080ADDF808E02C
:1047F0008CF80100100A8CF80300180A8CF80210DB
:104800008CF804208CF805004FEA1E208CF808E094
:104810004FF0000E072100228CF806308CF80700BC
:104820001CF80E305A4053B2D2B25000002B48BF91
:1048300081EA420081EA4002030658BF420081EA51
:104840004200130658BF500081EA4002030658BFD9
:10485000420081EA4200130658BF500081EA40023C
:10486000030658BF420081EA4200130658BF5000B9
:1048700081EA4002030658BF4200BEF1080F31D062
:104880000CEB0E0040780EF1020E504042B2C0B266
:104890004300002A48BF81EA400381EA43001A0628
:1048A00058BF580081EA4002030658BF420081EA1F
:1048B0004200130658BF500081EA4002030658BF69
:1048C000420081EA4200130658BF500081EA4003CB
:1048D000020658BF430081EA4302180658BF5A0037
:1048E0009EE700BF8CF8092080BD00002DE9F04F45
:1048F00040F2184CC2F2000CBCF8061021B10020A6
:10490000ACF806001CE000BF40F2AA41C2F2000170
:10491000097800294FF0000108BF4FF6FF70B1EB96
:10492000D03F07D100F44041B1F5804F40F0A8805E
:10493000062100E00721C840CCF8101040EA4121D0
:10494000080980EA112048400F24844344EA0110FA
:1049500046F61652CCF81400C0F60002C1F303105C
:104960000B0A155CD65CA80240EAC63701F00F00BE
:1049700012F80080135D40F2D802C2F2000292F8F1
:1049800000E040F2F460C2F2000000EB8E028020F2
:1049900020EAC60A06F008068AEA061B00EA972102
:1049A00047EA481481EA0B0100EA572644EA030962
:1049B0004E4000EA1727CCF81890774005F0100C0D
:1049C00087EACC0C05F008058CEA0515C2F808A0AA
:1049D00002F1100A8AE8C21000EA541125F07F079C
:1049E00087EA010C00EA141750608CEA070A00EA13
:1049F000D40080EA0A0008F01006156280EAC606B4
:104A000008F0080586EA051509F080046C4009F0F5
:104A1000400824F07F0181EA480109F0200781EA7B
:104A20008707C2E90B0603F01000C2E90F1787EAF7
:104A3000C00003F0080180EA011103F0040781EAD5
:104A4000471703F00206C2E909CA87EA8616DB01A6
:104A500002F1440CC2E90D54DBB226F07F058CE86C
:104A6000830040F2F4616B400020C2F20001C2F802
:104A70000CB0C2E9146341F82E00BDE8F08F00BF0E
:104A800000F46041B1F5005F02D1052153E700BF9A
:104A900000F47041B1F5805F02D104214BE700BF03
:104AA00000F47841B1F5006F02D1032143E700BF64
:104AB00000F47C41B1F5806F02D102213BE700BFD9
:104AC00000F47E41A1F50071B1FA81F1490932E7A4
:104AD00080B5DDF808C08842D8BF08469042A8BF1C
:104AE0001046A0EB010EACEB030000FB0EF0511AD8
:104AF00090FBF1F0184480BD40F20040C4F2010088
:104B0000016821F4001101604FF400114161704708
:104B1000B0B54EF60C5ECEF2000EDEF800304FF06F
:104B2000FF35C3F3022383F00704042C28BF0424B9
:104B3000033B05FA04F438BF0023A1434EF2001CE6
:104B4000994005FA03F3CEF2000C9A43114300F0AA
:104B50000F0200EB0C030901043A03F5407300282F
:104B6000724448BF02F10C03197048BFB0BD00F099
:104B70001F01012202FA01F1C0F342104CF820108B
:104B8000B0BD00002DE9F04381B042F62848C4F2E0
:104B9000010841F28830C8F80400EFF3108072B6C3
:104BA00040F23850C2F20000007843F200094CF69F
:104BB000CD447925C4F200094AF6AA27CCF6CC44A4
:104BC0000A26C8E90300C8F8140000BF023DA5FB8F
:104BD00004010809C9F80070FDF706F906EB550055
:104BE000C8F800000A20FEF70BF8022DEED8FDF7FA
:104BF00009F8002040F24002C8F80000C2F20002AA
:104C000040F2D4411288C2F200010880C8F80420A2
:104C100062B601B0BDE8F0832DE9F04F81B042F6F5
:104C2000284543F200080320C4F20105C4F200083D
:104C3000FDF7DAF840F2D44940F23D6600274AF623
:104C4000AA24C2F20009C2F200064FF0000B4FF096
:104C5000000A07E00AF1010A0BF134000BF1020B24
:104C6000AE285BD2C8F8004006EB0B0191F8340087
:104C7000A9F80070FF28EDD091F8351000293DD03B
:104C80004FF47A62F72311FB032149F28062C0F2EC
:104C90009802B2FBF1F148F2A0635FFA8AF2C0F227
:104CA0000103C2EBC212B3FBF1F300EB420048F286
:104CB0001F525843C5F2EB12A0FB020243F60060FC
:104CC000C0F24900B0FBF1F00A21296040F23851EE
:104CD0006860C2F200010978484341F25971CDF28F
:104CE000B711A0FB0101080BC5E903006861C2F31D
:104CF0004F10FDF785FF4FF0000AADE75FFA8AF12C
:104D0000C1EBC11100EB41004FF0000AC5E903AA55
:104D1000C5F814A0FDF774FF9EE700BFFCF772FF13
:104D2000002040F240012860C2F200010988696059
:104D3000A9F800004AF6AA20C8F8000001B0BDE8B2
:104D4000F08F000010B542F62844C4F2010441F28D
:104D5000883060602820206040F23850C2F20000A5
:104D60000078C4E9030060610220FDF73DF8962059
:104D7000FDF746FF43F20000C4F200004AF6AA2104
:104D80000160502020609620FDF73AFFFCF73AFFC3
:104D9000002040F240022060C2F2000240F2D44102
:104DA0001288C2F200010880626010BD10B542F6A0
:104DB0002844C4F2010441F288306060322020604F
:104DC00040F23850C2F200000078C4E9030060618C
:104DD0000220FDF709F89620FDF712FF43F20000CC
:104DE000C4F200004AF6AA2101601E20206096202D
:104DF000FDF706FFFCF706FF002040F240022060AE
:104E0000C2F2000240F2D4411288C2F200010880CE
:104E1000626010BD10B5EFF3108072B642F6284400
:104E2000C4F2010441F28830606043F20000C4F231
:104E300000004AF6AA2101605020206040F238505C
:104E4000C2F200000078C4E9030060610320FCF7AF
:104E5000CBFF6420FDF7D4FE462020606420FDF7E0
:104E6000CFFE282020606420FDF7CAFEFCF7CAFEB2
:104E7000002040F240022060C2F2000240F2D44121
:104E80001288C2F200010880626062B610BD0000A4
:104E900070B542F62844C4F2010441F288306060E3
:104EA000EFF3108072B643F20005C4F200054AF633
:104EB000AA263C202E60206040F23850C2F200004A
:104EC0000078C4E9030060610120FCF78DFF4B20EE
:104ED000FDF796FE502020604B20FDF791FE5A20F2
:104EE00020604B202E60FDF78BFEFCF78BFE002030
:104EF00040F240022060C2F2000240F2D441128827
:104F0000C2F200010880626062B670BD10B5EFF3B6
:104F1000108072B647F63040C0F60000007842F6C6
:104F20002844FF28C4F2010402D0FFF775FE2BE0ED
:104F300041F28830606040F23850C2F200000078E0
:104F4000C4E9030060610320FCF74EFF37202060B6
:104F5000C820FDF755FE0520FCF746FF28202060FD
:104F6000C820FDF74DFE0620FCF73EFF192020600B
:104F7000C820FDF745FEFCF745FE40F2D441002075
:104F8000C2F200012060088040F24000C2F200003E
:104F90000088606062B610BD10B540F29044C2F265
:104FA00000046078022809D0012803D1FDF7F8F841
:104FB00000206070BDE8104000F0F0B940F20C50E5
:104FC000C2F200000089FFF791FC0020607010BD64
:104FD000B0B54FF09040012100224FF480634FF4B0
:104FE0008064FEF7BFFA2825C4F600054FF0904014
:104FF000012100224FF400732C604FF40074FEF77F
:10500000B1FA4FF09040012100224FF480732C60E0
:105010004FF48074FEF7A6FA2C6005F576742046EE
:10502000022100220223FEF79DFA204602210022DF
:105030000123FEF797FA4FF09040022100228023CF
:10504000BDE8B040FEF78EBA70B5012A2CDB531EC6
:10505000032B02F0030C01D2002211E022F0030E18
:10506000431C00228D5C9E188C1806F8015C657844
:105070009D54A57804327570E4789645B470F1D1EA
:10508000BCF1000F10D0535CBCF1010F83540BD066
:10509000531C13F801E0BCF1020F00F803E008BF55
:1050A00070BD0232515C815470BD0000B0B558250E
:1050B000C4F20205286844F20004C4F20104286026
:1050C000204601F017F947F2010040F2D901A06132
:1050D000C2F200010B20097820624FF6FF70A16236
:1050E000E0626069002140F00100606140F2897077
:1050F000C2F20000017004F134006162A86040F265
:105100003C50C2F20000E86040F25C00C2F20000D5
:1051100000786860E06840F40070E060206840F06B
:105120000100206040F68B102860B0BD44F22400DE
:10513000C4F201000021816001607047B0B540F207
:105140000001C2F2000140F23D600A78C2F20000A4
:10515000427040F29042C2F200029478D57892797F
:105160004B78013AB2FA82F25209C2745A1E91F88F
:1051700002C0B2FA82F252090275ACF1010291F852
:1051800003E0013CB2FA82F2B4FA84F452096409F1
:105190004275AEF1010244746C1EB2FA82F2B4FAA6
:1051A00084F452098B796409827547F6004284744D
:1051B000C0F60002B021C375BDE8B040AFF3008077
:1051C0002DE9F04F03AF85B08346C81701EB90700F
:1051D000841020F00300073020F007009246ADEB6A
:1051E00000088946C54640462146FBF7FDFFB9F158
:1051F000040F44DB601E032804F0030C04D20021DA
:10520000BCF1000F27D13AE024F00300C0F1000EFA
:1052100008F108090022002047F81C4C0BEB0004A1
:105220005BF80010A3686568E468043A08EB0006C0
:1052300048F8001009EB000149F80030964500F1EC
:10524000100041F8045CF460E8D157F81C4C51425E
:10525000BCF1000F13D05BF82100BCF1010F48F83E
:1052600021000CD0481C5BF82020BCF1020F48F84C
:10527000202004D0881C5BF8201048F8201047F844
:10528000144CFDF7E7FF5FEA8A5002D15046FDF764
:1052900019FF002047F8180C57F8180C57F8141C81
:1052A000884217D257F8180C57F8181C0AEB8000E0
:1052B00058F82110FDF7DEFF0320FDF7F3FE57F845
:1052C000180C013047F8180C57F8180C57F8141C34
:1052D0008842E7D3A7F10C04A546BDE8F04FFDF7DF
:1052E000E7BE0000B0B55825C4F20205286844F2B4
:1052F000000440F01000C4F201042860204600F0D1
:10530000F9FF6020A0610320206240F27A40C2F2DF
:10531000000000780121A0624C20E06240F2897018
:10532000C2F200000170606940F00100606104F1A8
:105330003400A86040F2F460C2F20000E86040F27D
:10534000D800C2F20000007817306860286840F08A
:1053500002002860286840F008002860286840F0B3
:1053600001002860E06840F40070E060606C40F488
:1053700000406064206840F001002060B0BD000083
:1053800040F2E000C2F2000000781C21C4F20201E9
:105390004860086840F00100086070472DE9F0415E
:1053A00082B040F29046C2F20006F07840F2000867
:1053B000C2F2000820B196F8200028B1F08F0AE16F
:1053C000F08FB0867DE100BFF17A98F80D30F08F54
:1053D0004FF47A72002902EB43010DD081424ED284
:1053E00098F81A20B778BA423AD1B77E0025B58628
:1053F00097B30121B17542E081420DD34FF47A7425
:10540000A4EB4302824200F29580A4EB4301814267
:1054100040F2D480DBE000BF98F81A20B3789A42BB
:1054200074D1B8F85000B8F8323000249842B6F879
:1054300040304FF0000088BF0120C82B4FF0000320
:1054400038BF012318424BD1F07E002848D14FF4D9
:105450007A70F0875AE000BFC2F1010288F81A2082
:10546000B27D62B940F2FF774FF4FA622F230097C2
:10547000FFF72EFB0146F08F98F80D30B1864FF400
:105480007A74A4EB430282421DD9B17898F81A705D
:10549000C1F10105BD4208D1B77E002F0EBF88F8CB
:1054A0001A100121B1750021B186B17D59B92F279C
:1054B000002140F2FF730097FFF70AFB0146F08FCF
:1054C00098F80D30B186A4EB4301814200F27F8051
:1054D00004EB430181427AD306F1160174E000BF68
:1054E000C2F1010088F81A0040F20C50C2F200002C
:1054F0004460012088F81500FFF7FEFA98F80D10B7
:10550000F08F4FF47A72747402EB410140F2FF772E
:105510004FF4FA622F230097FFF7DAFA0146F08F73
:1055200098F80D30B1864FF47A74A4EB43028242AE
:105530007FF66BAFB17898F81A30C1F101079F423E
:105540002CD1B8F85000B8F8323000259842B6F89F
:1055500040304FF0000088BF0120C82B4FF00003FF
:1055600038BF0123184205D1F07E18B94FF47A7084
:10557000F08713E040F20C50C2F2000045600120B9
:1055800088F8150088F81A10FFF7B6FA98F80D1089
:10559000F08F4FF47A727574A2EB41022F2700212D
:1055A00040F2FF730097FFF793FA0146F08F98F8E7
:1055B0000D30B186A4EB4301814208D804EB4301CE
:1055C000814204D306F111010022B2860A7096F8D6
:1055D0002010002975D0B0F5836F34D398F81A10D5
:1055E000B278914228D1B8F85000B8F8322000249F
:1055F0009042B6F840204FF0000088BF0120C82A32
:105600004FF0000238BF0122104205D1F07E18B9D8
:105610000020F08710E000BFC1F1010088F81A00F7
:1056200040F20C50C2F200004460012088F81500DE
:10563000FFF762FAF08F747498F81210C1EB400112
:10564000A1F60101B186A0F1300189B2C9087C2917
:1056500032D8B17898F81A20C1F10103934225D1CC
:10566000B8F85000B8F8322000249042B6F8402034
:105670004FF0000088BF0120C82A4FF0000238BF59
:105680000122104204D1F07E10B90020F0870DE015
:1056900040F20C50C2F200004460012088F815006E
:1056A00088F81A10FFF728FAF08F747498F812101F
:1056B000C1EB40013139B1862F2802D80020B086D5
:1056C0007074707E98F8111088420BD998F8030016
:1056D00040B1FCF797FAFFF70FFA0020B087662079
:1056E00070766DE0B07928B1B08E1D2828D80021E1
:1056F000B18753E0307B002860D0307820B3B08E83
:10570000D8E915732F2140F2FF720097FFF7E0F9F7
:1057100048F20071C0F2933198F8072091FBF0F045
:105720005108B28E90FBF1F02E2A70850CD840F211
:1057300060010020C2F20001B0870860B0663FE05F
:105740001E281BD11E2029E0B46E4EF20005C4F2C3
:10575000FF452046294601F074F8002818BF254669
:10576000284601F077F90021B087C4F24021204695
:1057700001F059F820BB302021E000BF98F80C1050
:1057800001EB81018A00824208D9A0271E212F2324
:105790000097FFF79DF90146B08EA9E798F80C1025
:1057A00001EB8101890081420AD840F2FF7740F283
:1057B000FF72A0230097FFF78BF900E0B08EB0874F
:1057C000F07E18B102B0BDE8F08100BFB279B08FB1
:1057D00002EB82012F2404EB0111814226D8B07F15
:1057E00020B3B07E68B9FCF70DFA98F815000028D0
:1057F00008BF00F031F90120B076B8F83400B27972
:105800007086B08FB8F83A30B8F840708921002A15
:1058100040F2FF7208BF2F210097FFF759F9F17A84
:10582000A6F84000002904BF0020B075B079B18F00
:1058300000EB800004EB001088424CD9B07C0528B6
:1058400012D8DFE800F01303070B0F03FFF7AEFADF
:105850000AE000BFFFF776FA06E000BFFFF792F913
:1058600002E000BFFFF714FB0020B07498F80100BD
:10587000002877D0B07E002800F0868098F81E00BF
:10588000B8F82610C0EB001001EB8000A0F13C013D
:105890000AB2B2F5B47FA8BFA0F5D27108B27722E0
:1058A000A6F84A10F028C8BF6FF0F0020A44EF23B0
:1058B000A6F84C206FF0F0027828C8BF02F17803F8
:1058C000B07919440128A6F84E1004BF0120F076E3
:1058D0000020A6F84000B07D00287FF473AFB58F9C
:1058E0002F2D19D340F20C50C2F20000717940689C
:1058F000142222FA01F188420ED2B6F84000B8F81C
:10590000341088423CBFA6F840100846B8F838105A
:10591000884288BFA6F84010B6F84070B8F8420038
:10592000874284BFA6F840000746707B30B1B8F9C3
:1059300030008742C4BF87B2A6F84070F46E0021E1
:10594000204600F077FF00287FF43CAF302DFFF4B5
:1059500039AF204601F07EF83844A6F8400002B086
:10596000BDE8F081B17E0020A6F8400099BB01217E
:1059700088F81510317940F20C52C2F200025060E2
:1059800021B3FDF73BFD26E00120327988F81500B0
:1059900040F20C50C2F200000021416071778AB1E0
:1059A000B07900287FF46AAFB8F8400098F8091081
:1059B00000EB41001338A6F84000FFF709FB012077
:1059C000B0755BE7FCF71EF958E700BFB07D002813
:1059D00008BFFCF717F9F17AB07D002918BF00283D
:1059E0003FF47AAFF18F4FF47A70FDF757FD00F571
:1059F0007A7081B2B1F5FA6FA6F8400002D1FDF7D6
:105A0000FDFC68E7FFF7E4FA65E7000044F22000D8
:105A1000C4F20100016821F002010160704700003A
:105A200042F63441C4F201010860704742F6384141
:105A3000C4F201010860704742F63C41C4F2010122
:105A4000086070470B2828BF0B2040F238514000F7
:105A5000C2F2000108707047B0B540F29044C2F243
:105A60000004A07E20B1BDE8B040FDF781BA00BFC0
:105A700040F20005C2F20005A97EA87F01290BD1E2
:105A80000130C1B20729A87722BF0120A877E074AE
:105A900000F001000BE000BF01380106A87703D138
:105AA00006200121A877E174012121EA000068762F
:105AB000EFF3108072B6A07D10B9A87FFCF794F9BF
:105AC00062B6FCF743F96079E17A084305D0A06F2C
:105AD000B0F5FA6F84BF012068750020A97F40F2FD
:105AE0000C526084B4F84800C2F2000202EB41019B
:105AF000C88142F21070A5F8500041F22400C4F2AF
:105B0000000041F2883101600120A076BDE8B0407C
:105B1000FDF72EBA80B542F20000C4F2020040F256
:105B200053110160FDF706F800200121FCF7D2FEB9
:105B30000120FCF7A1FF0128FAD100201D21FCF76C
:105B4000D1FF02200121FCF7C5FE00BF1920FCF7A0
:105B500093FF0128FAD10020FCF786FE0020FCF715
:105B60009FFE0020FCF78EFE0120FCF7A7FE02201E
:105B7000FDF71EF8FDF726F80228FBD10020FCF700
:105B80009DFEBDE8804000F001B80000B0B541F2D4
:105B9000040441F20025C4F20204C0F27A05FDF7C4
:105BA00011F802280CD0002852D1206D80054FD565
:105BB000E06A800144BF46F60045C0F2DC2547E0BC
:105BC0002068A16AC0F3004C00291BD42168226818
:105BD000C1F38341C2F341721301581C0F290346DC
:105BE00018BF0223002A18BF0346BCF1000F03EBC5
:105BF000010021D140F60011C0F23D0100FB01F58A
:105C000026E000BFA06AA36AC0F3031EA06A40F6A4
:105C10000011C0F23D01C3F30823BCF1000F00F0F6
:105C2000070003D02268920358BF294659430EFA51
:105C300000F0B1FBF0F50BE02168890302D4454385
:105C400006E000BF40F60011C0F23D0100FB01F587
:105C500040F2B430C2F200000560216803A2C1F333
:105C60000311515C25FA01F10160B0BD0000000094
:105C7000000000000102030406070809F0B587B020
:105C80000E20C0F218000121FCF704FF1220C0F220
:105C900014000121FCF7FEFE4FF4A0100121FCF7D7
:105CA000F9FE40F20010C0F2021040F200440690EB
:105CB0004020C4F60004059005A92046FDF716FC17
:105CC0002046062100220027FDF758FC1C25C4F2BF
:105CD00002052846FDF72CF96E463046FDF7DAF846
:105CE00040F2E000C2F20000007843F60004ADF894
:105CF0000A001020ADF8080040F22E50C2F2000059
:105D0000C4F201040190201D00904FF480700390B4
:105D100028463146ADF81070FDF7CCF828684FF4EE
:105D2000E13140F0020028602868002240F00800BD
:105D300028602046002300F00FFC2046012100F0DF
:105D400063FC2046012100F04BFC2046012100F0BD
:105D500051FC2046012100F0EBFB2046012100F020
:105D6000F1FB0A2003210022FEF7D2FE07B0F0BDAE
:105D70002DE9F04740F29045C2F20005E88DE98C2C
:105D80000130E885481CE884A87F298D002801F1AE
:105D90000100288549D1287C002846D1E87F0028C9
:105DA00043D0A88E20B10020A5F850003DE000BFF0
:105DB000B5F8500044F62162013081B29142A5F855
:105DC000500032D3688F1F2824D3A87A0121A977E5
:105DD00020B3B5F852004DF2B9324108CBF21F1290
:105DE000A1FB0212D109B0F5B97F297418D343F28F
:105DF00000060024C4F200064AF6AA27FFF70AF8B4
:105E00006420FCF7FDFE3760287C01348442F5D322
:105E100006E000BF0020E877C6E700BFFEF7FAFF04
:105E200095F8210008B90020E872E879A0B140F2A5
:105E30000001B5F85400C2F200010979013082B2C4
:105E400001EB8101B2EB810FA5F8540004D90120C8
:105E500068750020A5F85400E87E38B1B5F8440014
:105E60000130A5F84400BDE8F08700BF40F2000A09
:105E7000C2F2000A9AF81500002848D0A87E00282F
:105E800045D0FEF739FEFDF70DFB9AF8191079B1F0
:105E900078B1687F9AF81B200130C3B293426877CB
:105EA00018D895F8220090BB95F8230019E000BFA0
:105EB00040B195F82300013095F8222085F82300A1
:105EC0002ABB0DE0687F9AF81B200130C3B29342D1
:105ED00068770DD9002095F8222085F82300B2B903
:105EE00059B19AF81C10C0B288420BD80FE000BF1D
:105EF00095F8220058B995F823009AF81D10C0B201
:105F0000884204D9012085F8220000F087FB288D03
:105F10001528C0F0AE80697B95F81A800020002912
:105F2000288518BFB8F1000F49D0B5F93000BAF88C
:105F300022106FF0630201FB020240F26001C2F224
:105F400000018B6BD1E90B408A6200FB02308B6C45
:105F50004E6B9842A8BF18465B429842D8BF18467D
:105F60000B6C8863D31A03FB060003FB06F704FBE4
:105F70000200CB6CCF630A649842A8BF18465A420D
:105F80009042D8BF1046486400F080FD44F2000102
:105F9000C4F21C6100F068FC00F05CFDBAF830103F
:105FA000081ABAF83A1002B28A42B8BF0846B5F8E1
:105FB000401002B28A42C8BF0846AAF83000687989
:105FC000002818BFB8F1000F4DD0BAF85000BAF849
:105FD0002410421A40F26001C2F200010B6ED1E9B6
:105FE00015700A6500FB02300B6FCE6D9842A8BF9A
:105FF00018465B429842D8BF18468B6E0866D31A83
:1060000003FB060003FB06F407FB02004B6F4C6624
:106010008A669842A8BF18465A429042D8BF104696
:10602000C86600F033FD44F20001C4F21C6100F0C8
:106030001BFCE96E02460846114600F07DFB00217C
:10604000C4F21631044600F0E7FB00281CBF002410
:10605000C4F2163420460021EC66002400F0DCFB7C
:10606000002808BFEC66287B002818BFB8F1000F95
:1060700058D19AF80E0030B3AA6F2820B5F8401016
:10608000B2F5FA7F88BF0A206A8E9629A1EB020337
:1060900038BF022083428AF813000BDD1044BAF89F
:1060A0005010A5F840000020B1F5FA7F88BF01200C
:1060B00007E000BF511A8142C4BF101AA5F8400082
:1060C00000208AF81400A87F20B1A87E10B1A88F04
:1060D00030280BD2A87D48B1B5F84000696EBAF8F7
:1060E00040204143A2EB9121013106E0B5F8400088
:1060F000696E0122414302EB91216886BAF83E00A5
:1061000042F62C42C4F20102A5F85610106088B283
:10611000C2E902001061B5F844000130A5F844005E
:10612000BDE8F08740F20C50C2F2000081686A8D31
:1061300040F26007C2F20007D0F80480891A3A6979
:10614000D7E90130396000FB01203A6AFE689042CD
:10615000A8BF104652429042D8BF1046BA69386173
:106160008A1A02FB060002FB06F403FB01007A6AAE
:106170007C61B9619042A8BF104651428842D8BFA5
:106180000846F86100F082FC44F20001C4F21C6190
:1061900000F06AFBA96E02460846114600F0CCFAF0
:1061A0004EF20001C4F2FF41044600F035FB002826
:1061B0001CBF4EF20004C4F2FF44204600214FF001
:1061C000000900F03EFB002818BF0024B8F1630F5F
:1061D000AC6698BFC7F810909AF80E0000287FF4BC
:1061E0004BAF70E7062988BF7047DFE801F0050B69
:1061F000151F29333D0000BF016A62F300010162EF
:10620000704700BF016A02F0010221F0040141EA77
:1062100082010162704700BF016A02F0010221F0B1
:10622000100141EA02110162704700BF016A02F0E9
:10623000010221F0400141EA82110162704700BF72
:10624000016A02F0010221F4807141EA0221016237
:10625000704700BF016A02F0010221F4806141EA47
:1062600082210162704700BF016A02F0010221F43D
:10627000805141EA0231016270470000062988BF5F
:106280007047DFE801F0052B0F2B192B230000BF0F
:10629000816902F0010221F0080141EAC201816135
:1062A000704700BF816902F0010221F4006141EAF8
:1062B000C2218161704700BFC16902F0010221F073
:1062C000080141EAC201C161704700BFC16902F023
:1062D000010221F4006141EAC221C161704700005E
:1062E000026801F0010122F0800242EAC11101605E
:1062F0007047000010B542F6FF31C4F20101884238
:1063000016DD44F2FF31C4F201010B248842C0F2D1
:106310000C0425DC42F60041C4F2010188423AD067
:1063200044F20001C4F2010188423FD1053432E059
:1063300040F20041C4F20001884221D041F2000144
:10634000C4F2000188421FD042F20001C4F20001F1
:1063500088422BD10120C0F21000C41D1BE000BFF9
:1063600044F20041C4F20101884213D044F6000116
:10637000C4F20101884218BF10BD07340BE000BF12
:106380000124C0F2100406E00120C0F21000C41C79
:1063900001E000BF063420460121FCF78FFB2046B8
:1063A0000021BDE81040FCF789BB00BF10BD000014
:1063B000B0B540F2AE44C2F2000440F2A7402178EA
:1063C000C2F200000078002918BF00280ED140F268
:1063D000AF41C2F200010978012917D000294FD13D
:1063E000FCF736FCBDE8B040FEF760BE40F28970B5
:1063F000C2F200000078E8B1FEF758FE40F291408A
:10640000C2F2000002210170B0BD00BFE0B140F255
:106410008970C2F200000078A0B340F21450C2F2BA
:1064200000000088FEF762FAFBF7BAFEBDE8B04054
:10643000FEF73CBEFEF756FF40F29140C2F200006C
:1064400001210170B0BD00BF40F2B045C2F20005AD
:106450002878012803D1FBF7A3FEFEF727FE40F2C0
:10646000B140C2F200000078012807D1FCF7FCF827
:10647000FFF7CCFAFEF71AFEFCF70CFE207828B1E5
:10648000B0BD00BFBDE8B040FEF72CBF287840F299
:106490007444C2F20004C8B16079072816D840F2EB
:1064A0003C51C2F200010A68C96F431C881A4100BE
:1064B000A1816169082B08446371606106D1C1083C
:1064C00001EBD012A1EBD010A281E08140F2C445D3
:1064D000C2F20005288848B9617839B940F2CA404B
:1064E000C2F20000018801310180B0BD40F2CA4112
:1064F00040F2DD53C2F20001002298420A8038BF08
:10650000B0BD6189FCF7CAFF2278E17801323228F8
:10651000C8BF0022D0B23328227005D321B9FEF7BC
:1065200031FB4FF48070208028886081B0BD00006E
:10653000426901F0010122F0800242EAC111416189
:1065400070470000C26801F0010122F4005242EAE3
:106550004131C160704700002DE9F04186B001ADC6
:1065600004462846984616460F46FCF7F5F943F6CA
:10657000000105F10C00C4F201018C4208BF05F1D5
:10658000080000684CF6CD4100EB80004000B0FBF5
:10659000F7F0CCF6CC41A0FB0112D10801EB81034E
:1065A000A0EB43000428A0684FF0010388BF03EB71
:1065B000D201C1EA0000A060E06806F0010120F409
:1065C000805040EA0130E060206908F0030120F4C7
:1065D000405040EA0130206106B0BDE8F081000083
:1065E000C26801F0010122F0040242EA8101C160A7
:1065F00070470000426901F0010122F0080242EAFE
:10660000C101416170470000C26801F0010122F040
:10661000080242EAC101C1607047000070B541F252
:106620002400C4F20000016840F29045C2F2000567
:10663000002240F20004A5F848100260C2F20004F3
:10664000B4F85020237E02EB420212FA81F140F2AC
:106650000C568A08C1F38F01C2F20006B1FBF3F3B6
:10666000A4F850207268C3EB51010A2A2B87A5F8C1
:1066700042100FD20068A17EA07F01291AD10130FB
:10668000C1B20729A07722BF0120A077E87400F0EB
:1066900001001AE089B200BF02688A42EBD20268A8
:1066A0008A42E8D202688A42E5D202688A42F3D37B
:1066B000E1E700BF01380106A07703D106200121E0
:1066C000A077E974012121EA00006076EFF31080E1
:1066D00072B6A87D10B9A07FFBF786FB62B6FBF708
:1066E00035FB6879E97A084318BF012005D0A96F06
:1066F000B1F5FA6F84BF01216175A27FB5F848300A
:1067000006EB4202D3817268002169846977511CCB
:10671000716068B114290DD3B4F85000B0F5FA6F68
:1067200088BF70BD00206075BDE87040FCF720BCDC
:106730001F29F7D270BD000090EA010F48BF81F019
:10674000004100F17682421A3CBF801A89184FEA54
:10675000D052A2EBD1534FF07F4C1CEA410F18BF2F
:106760009CEA026F00F03B804FF0004C4CEA0020A6
:106770004CEA012121FA03FC10EB0C0C1ED202F1B1
:10678000FF325FEA1C2040EBC25038BF70471CF05C
:106790007F0F4FEA400C18BFBCF17F4F38BF7047E6
:1067A000C3F12003994008BF20F00100BCF17F4FE6
:1067B00038BF7047A0F1C04000F02EBA4FEA3C004D
:1067C000000A40EBC25028BF1CF0FF0F4FEA400CFC
:1067D000E6D018BFBCF17F4F38BF7047EAE79CEAAC
:1067E000026F05D010EA5C0F08BF00F00040704750
:1067F00010B500F0CBF900BF64FBBE3E10B500F051
:10680000F5F80CBF0120002010BD10B500F0EEF827
:1068100014BF0120002010BD10B500F04FF98CBF4F
:106820000120002010BD10B500F048F92CBF012058
:10683000002010BD10B500F075F994BF01200020B4
:1068400010BD10B500F06EF934BF0120002010BD5E
:10685000401058BFC0F14040491058BFC1F14041FD
:106860008142EFF3008070474FF47F0C1CEAD01296
:106870001EBF1CEAD11392EA0C0F93EA0C0F00F032
:10688000858090EA010F48BF42F4807240F4000C0A
:1068900041F400002CF07F4120F07F4000B5A2EBD6
:1068A000030281420FF2081CACEB504E9EF800E050
:1068B000C0F100004FEA4E0E00FB0EFC38BF49004D
:1068C0004FEA2C1C0CFB0EF34FEACE1E0EEB635E60
:1068D0004FEA112C0EFB0CFC4FEAC1214FEA1C536E
:1068E00000FB031102F5FA024FEA112C0EFB0CFC1F
:1068F0004FEA01314FEADC4C00FB0C1142EB224223
:10690000C14228BF09184CEB03335DF804EB10EBD0
:10691000410143EBC250B2F57C0F38BF704729D517
:1069200012F0F00F1CBF00F1C04000F000407047B3
:10693000008182838485868788898B8C8D8E8F9158
:106940009293959697999A9C9D9FA0A2A3A5A7A87C
:10695000AAACAEB0B2B3B5B7B9BCBEC0C2C5C7C9A8
:10696000CCCED1D4D7D9DCDFE2E6E9ECF0F3F7FA0C
:10697000FE0000004FEA400C0CF1807CBCF17E4F21
:1069800028BF7047B0F1C04000F046B90CEAD113FF
:1069900090EA010F48BF42F48072624538BF6345F8
:1069A00007D213F47F0F16D080EA010000F00040F8
:1069B000704710B500F0EAF8097EFC3E00F005B81B
:1069C00080EA010000F00040704780EA010000F01A
:1069D000004000F021B912F47F0F04BF0248704755
:1069E00080EA010000F018B90000C07F50EA010CF5
:1069F00000F113801CF5000F58BFBCF5000F01D447
:106A00008842704707D710F5000F58BF11F5000FE7
:106A100015D488427047894270471CF5000F04D591
:106A2000BCF5000FF7D5814270474FF0807C1CEB1E
:106A3000400F38BF1CEB410F01D28142704710B5A7
:106A400000F0A4F8922449004FF000504FF080511C
:106A5000FFF7FEBE41000B0ED3F19E0208D950F4A1
:106A600000034FEA032323FA02F048BF4042704775
:106A700010B500F08BF800BF4992248000207047C9
:106A80006FF0004282EA20007047000010F00041E1
:106A900048BF4042B0FA80F310FA03F2C3F19D03FD
:106AA0000BD051EAC35101EB1220530638BF704797
:106AB00000F1010008BF20F00100704750EA010C0E
:106AC00000F113801CF5000F58BFBCF5000F01D476
:106AD0008842704707D710F5000F58BF11F5000F17
