:020000040800F2
:10100000680B0020D110000821260008E91700080D
:1010100000000000000000000000000000000000D0
:101020000000000000000000000000007926000819
:101030000000000000000000232600087B260008B6
:10104000E3100008E3100008E3100008E3100008B4
:10105000E3100008E3100008E3100008E3100008A4
:10106000E31000084517000895170008D11600087E
:10107000A9140008E3100008E3100008E3100008BA
:1010800089270008B1270008E31000084527000859
:10109000E310000861270008E3100008E3100008CF
:1010A000E3100008E3100008E3100008E310000854
:1010B000E3100008E3100008E31000080348854629
:1010C00000F0B4F9004800473D3E0008680B0020DE
:1010D0000448804704480047FEE7FEE7FEE7FEE7D6
:1010E000FEE7FEE735270008BD10000803460B4366
:1010F0009B0703D009E008C9121F08C0042AFAD2CE
:1011000003E00B780370401C491C521EF9D2704753
:10111000D2B201E00270401C491EFBD2704700228F
:10112000F6E710B513460A4604461946FFF7F0FFE6
:10113000204610BDF8B502464A40D40F42004B008D
:1011400052085B089A4202D20246084611464A00FB
:1011500023D0C30D4A00DDB2120EAD1A202D35DAB0
:1011600049020126490AF6058A19002C00D052428C
:1011700020214F1B1146B9402A411018C20D9A4236
:1011800021D0002C17D0012D08DCDA05801AD20FEF
:101190008019D207DBB200F00FF9F8BDDA05801A2A
:1011A000012340001B06C01880185A428018CA0F3D
:1011B0001043490007E04908C2071143DA05801AC5
:1011C00080194008801800F0EFF8F8BD6100012296
:1011D000511A001BF7E70122D2075140AAE701226A
:1011E000D2075040A6E770B502464A40D50F4000EE
:1011F0004A00ED0740085208002814D0002A12D0F7
:10120000C40DD30D41020120C0055202490A520A01
:10121000E41A091812187D34914201D3641C00E0CD
:101220004900002C01DA002070BD0023914201D357
:10123000891A0343400849000028F7D100290AD041
:10124000914202D10121C90705E0914201D2012159
:1012500001E00121C943E005C018401900F0A4F8DD
:1012600070BD0122D207002800DB101A002900DB24
:10127000511A814201D80120704700207047012295
:10128000D207002800DB101A002900DB511A814226
:1012900001D201207047002070470122D2070028A8
:1012A00000DB101A002900DB511A814201D3012012
:1012B0007047002070470122D207002800DB101A77
:1012C000002900DB511A814201D90120704700201A
:1012D0007047C217C10F504010B54018CA07962377
:1012E000002100F069F810BDC20F41004002012347
:1012F000400ADB05D207090EC0187F2901DA002059
:101300007047962903DC9623591AC84001E09639A4
:101310008840002AF4D04042704770B50446002946
:1013200003D000202022012310E0002801D000205B
:10133000C043C046C0460DE02546D5408D4205D38A
:101340000D469540641B1D46954040191546521E9A
:10135000002DF1DC214670BD70B5002504462E46F7
:10136000002911D0002C01DA01254442002901DABC
:10137000012649422046FFF7D0FFB54200D0404247
:10138000002D00D0494270BD002C02DA0121C907AE
:1013900002E0002C00DD03490846C046C046214655
:1013A00070BD0000FFFFFF7F002904DA401C4900E8
:1013B00001D140084000704770B40024050C05D1ED
:1013C0001024000402D1002921D01124050E01D1DE
:1013D00000020834050F01D10001241D850F01D141
:1013E0008000A41C002801DB4000641C002908D0F8
:1013F00020252E1B0D46F540A14000D00121294398
:10140000084301061B1B000ADB1D02D5002070BC2F
:101410007047DB05181880180029F8DA401C4900CD
:10142000F5D170BC4008400070470000064C012513
:10143000064E05E0E36807CC2B430C3C984710347C
:10144000B442F7D3FFF73EFE44630008646300082C
:1014500070B58C180578401C6B075B0F01D10378C1
:10146000401C2A1106D10278401C03E006780E7059
:10147000401C491C5B1EF9D12B0705D40023521ECA
:101480000DD40B70491CFAE70378401CCB1A921C50
:1014900003E01D780D70491C5B1C521EF9D5A1425A
:1014A000D8D3002070BD000080B5012291040A4805
:1014B00043685B030BD403680B4206D151044268B6
:1014C000920304D402680A4204D0016000E0416043
:1014D00002F0EEFA80BDC0460C1802400548818833
:1014E000054A11804188054A118000880449088016
:1014F0007047C046040500208C04002090040020A2
:1015000092040020F0B599B0002717971697159709
:10151000149713971297119710970F970E970D978F
:101520000C970B970A9701231A0506925F48C1682A
:101530001143C160C1681140189118990168019365
:1015400019430160006818401890032609961898FE
:1015500040200490089005200790040708AD20461D
:10156000294600F097F90C970996202003900890DF
:101570002046294600F08EF94D480168079A11432C
:10158000FA22914301604B4801684B4A11400160C7
:1015900033460296310302688A43019E7103059126
:1015A000511801600168039A114301600168049AAF
:1015B00091430160016880220A43026019020268B7
:1015C0008A437102511801609A02049201689143A2
:1015D000B2028918016039480168394A0A4039491C
:1015E0005118016017971696159714970F200390BE
:1015F000000313901297344C2546143D12A9284637
:1016000000F00EF9201F0168B14301601121490665
:1016100002688A4371065118016071052246083A32
:1016200013680B4313600168284A0A40F1045118FB
:101630000160206804210843029AD24302402260DC
:1016400020687022024322602046103802688A43D4
:1016500002600168082291430160119710970F976B
:101660000EA9284600F0C2F86069079908430A21CC
:101670008843606120680599884320606069602123
:1016800001439020814361610B491031206808407B
:101690002060039800026169814304980818606122
:1016A000206806990843206019B0F0BD341002404C
:1016B000040802401C000240EFBFFFFF0827014062
:1016C000FFEF3F4E001000B014240140FFFFF73F32
:1016D000B0B5194801466C390A680A68920216D4F6
:1016E0000968090212D50121CA4303681340036047
:1016F000CB03124C656C9D436564236813402360E3
:101700000F4A00231370683809050160B0BD014617
:101710006839012213050B60D14303680B40036055
:10172000D003064A536C834353641068084010602A
:10173000034800210170B0BD6C000240004401402C
:101740001806002080B52648016849070CD50F49C6
:101750000978002908D00E490A6802231343082299
:1017600093430B60042141600168890705D4016837
:10177000090701D50121416080BD012141608268D6
:101780008A43826004F004FD80BDC04659040020F5
:101790002004004010B5124C2068800609D420684F
:1017A00000060DD4206880050FD4206800050FD4F2
:1017B00010BD10206060FFF791FE20680006F1D593
:1017C0008020606020688005EFD506480021017008
:1017D000012001026160216B8143216310BDC0467D
:1017E000000002404D040020FEE700008268D2079E
:1017F00012D1C268094B13404A681A438B681343DD
:10180000CA681A43C26003229207036993430968B6
:10181000194301610020704701207047C73FFFFF57
:10182000B0B58268D2070CD1C568C2680D4B1340B1
:101830000C684A68AD0206D5F02A04D123431C4641
:1018400004E00120B0BD23438C681C43CB680D69C4
:10185000496923432B430B43C360816A114381626F
:101860000020B0BD3CC2FEFFF0B50268002A0DD4D6
:101870000268074B1340F4C909681A4322432A43FC
:1018800032433A430A4302600020F0BD0120F0BD1C
:101890000F7C00FEF0B582B00E460C68002C43D0E1
:1018A000002200960EE0190A494349434D430F2395
:1018B0004B43416A994329434162521C3468234691
:1018C000D34032D0012393402340F6D01C465C43E2
:1018D000716826464E43032767430568BD43354379
:1018E0000560FE4301914D1E012D06D8009DAD6897
:1018F0006543876837402F4387603146009E3569CE
:101900006543C7680F402F43C76001990229D4D1AE
:101910007569FF2BC7D8644365430F216143036A90
:101920008B432B430362C8E700247168491E0129D9
:1019300005D8F16861434268A2430A43426000202F
:1019400002B0F0BD80B57D21C900FFF7E6FC401E66
:1019500003494860002088600520086080BDC046BB
:1019600010E000E070B50446904E351F286838211D
:1019700001409048082921D0102919D1316803224B
:101980000A408B49032A00D00846022A00D00146AB
:1019900030684004400E484331684906490F491CED
:1019A000FFF7BBFC3168490F491CFFF7B6FC05E0A7
:1019B0000C3E30688004410F7D48C8402060296893
:1019C00089093C220A407D4989581F221140C8409C
:1019D00060602968890A1C230B407749C958114067
:1019E000C840A06070BDC046B0B50C2825D0032803
:1019F00051D16E4CA06C032108400A048018704A33
:101A0000904251D06F4A904247D06F4A904251D194
:101A1000201F0068382202406648082A00D1C4E02E
:101A2000102A00D08BE022680A406149032A00D0C6
:101A30000846022A1FD001461DE05C4CA06C00073E
:101A4000800F032830D0022827D0012854D1201F2E
:101A50000068382101405748082900D1A5E0102925
:101A60006DD1216803220A405149032A00D008465B
:101A7000022A00D0014620684004400E48432168F5
:101A80004906490F491CFFF748FC2168490F491CCA
:101A9000FFF743FCB0BD0020B0BD0C3C2068400502
:101AA000C11743480840B0BD0120C103206D800329
:101AB0000840B0BD251F2868382202403D48082A4A
:101AC0004AD0102A42D122680A403949032A00D05C
:101AD0000846022A00D0014620684004400E4843D0
:101AE00021684906490F491CFFF717FC2168490F77
:101AF000491CFFF712FC2FE0251F28683821014000
:101B00002C48082940D0102938D1216803220A40E6
:101B10002749032A00D00846022A00D0014620683F
:101B20004004400E484321684906490F491CFFF70D
:101B3000F4FB2168490F491CFFF7EFFB24E00C3C44
:101B400020688004410F1A48C840B0BD0C3C206892
:101B50008004410F1648C84029682A68920A1C234D
:101B60001340154AD2581F231A4089093C240C40BF
:101B7000124909591940C840D040B0BD0C3C2068FA
:101B80008004410F0A48C84029682A68920A1C2329
:101B90001340094AD2581F231A4089093C240C409B
:101BA000064909591940C840D040B0BD0C10024048
:101BB0000024F40000127A0014630008D4620008C4
:101BC0000300030002000300010003000149086054
:101BD0007047C046E8000020B0B51F22D30234C9C8
:101BE0009C433F239B029D430B782B4323430F24AD
:101BF0002403A2431A4303239B034C689C431443CE
:101C00004A88154B134023430A6A1A433D4B0C394B
:101C1000984202D042640020B0BD104B1A404B697C
:101C20000F4C1C4014438A690E4B1340234323225C
:101C300012064C6A94431C4311225206CB6993430B
:101C40002343012252070C6A94431C438A6A2243AD
:101C500042640020B0BDC046FF1F0000FFFF00CC63
:101C6000FFFF0FCCFFFF0FDCB0B505680122940722
:101C7000A04205D0234B984202D0234B984217D163
:101C800070239D434B682B43204DA84214DD204C0C
:101C9000A04206DC1B4CA04216D0204CA04213D020
:101CA0002EE01C4CA0420FD01B4CA0420CD027E0D1
:101CB0002B46164DA842EADCA04205D0124CA042A9
:101CC00002D0174CA0421BD103242402A343CC68AA
:101CD0001C4304608B68C3620B888362CE4BC318BD
:101CE0000A24E341072B06D814469C40E1231C42FA
:101CF00001D0097C01634169114341610020B0BDFD
:101D00001C46E6E7002C014000040040FF2B014088
:101D1000FF430140004801400044014000400140B1
:101D200000200040F0B584B00123BA4CA1424EDC43
:101D3000012900D18BE0102900D1C3E001273C022A
:101D4000A14200D080E0016AA1430162B749491C69
:101D500013691B020B40032102910902046A8C43A0
:101D60001C431168039151680B022343AA4941188F
:101D70000A24E1414568C46907291DD88F40E12143
:101D80000F4219D0029F39038D4351690191916926
:101D9000D66900960901A44E0E402E4300994D01CC
:101DA0003543B9028B43A249091D019EB6020E407C
:101DB0001E4391688B023343456099490C40039957
:101DC0000C43C461D168C163036200233CE0012479
:101DD0002503A94200D1B4E02504A94200D1E2E0E4
:101DE0002505A94230D1016AA94301628A494318F5
:101DF0000A21CB41016A1568039555681669476D3C
:101E0000072B11D8029131462E4625469D40E123ED
:101E10001D4235460E46029906D0A30444689C43F1
:101E200093699B02234343607C4B1F40039B1B022F
:101E30003B434365D268C265032212059143720891
:101E400052050A432905DBE0184604B0F0BD01271E
:101E5000F943036A0B40036213690B40046A0321D0
:101E600002918C431C431668516821436A4BC31886
:101E70000A24E34145688469072B1BD803963E4634
:101E80009E40E1231E4214D0029B1B029D437B0215
:101E9000566902969769D6699F432F4375003D4363
:101EA0000C239943029B5B08DB000B43916889007C
:101EB0001943039E45605A4B1C4034438461D268E9
:101EC00042639EE0016A102399430162016A302354
:101ED000994313695B085C010C4317685168090159
:101EE00021434D4C06190A24E64145688469072EB2
:101EF0001ED803970127B740E126374217D00326A3
:101F0000B602B543536902939769D369BF00264669
:101F1000474C3C402C43DD0025433446C0239943C5
:101F2000029B5B08DB010B43916889011943039F06
:101F300045603C4B1C403B0223438361D268826373
:101F40005FE0016AA9430162334945180A21CD4186
:101F5000016A436816680296566817690397C7694D
:101F6000072D55D801962646AE40E1252E424DD08C
:101F7000A403A3439469A4011C43019E4460294B1C
:101F80001F40029B1B023B43C361D26802640322D1
:101F900012039143244A1032039B1B0313400B434B
:101FA000310319432DE01E4F7337016A3940016236
:101FB000194946180A21CE41016A156853680393EE
:101FC00013690293436D072E09D8B440E1263442C9
:101FD00005D044683C409669360226434660104C62
:101FE000E41C23402B434365836DD2688265032242
:101FF00012049143029A520852040A4303990904B5
:10200000114301620023184604B0F0BD1C46B4E73A
:102010001C46B3E7FF0F000000D4FEBFFF8FFFFE9A
:102020008CFFFEFFFF8CFFFEF0DFFFFFFFFDFFFFD9
:10203000FCF7FFFFF0B583B004460068C00724D169
:102040000D46206833490140A868084329690143C7
:1020500068690843E969014321600320010362685C
:102060008A43E968114361600002A1688143A8695D
:102070000843A0600126284884420ADC294884429B
:1020800016D0294884420CD03BE00126304603B0EC
:10209000F0BD2248844204D02148844231D103203B
:1020A00007E06846FFF75EFC0298002805D128E0AB
:1020B0000C20FFF799FC002823D06F68002F20D058
:1020C000296800260B291CD8890018A25158FFF74F
:1020D00024F90121C903EA698A420BD17908400039
:1020E00040183946FFF719F91C4901400007400F15
:1020F000401805E0790840183946FFF70EF980B21C
:10210000E060E06A0F21884329880143E16230469C
:1021100003B0F0BDF369FFEFFF4B0040004C0040FF
:102120000038014000440040004800400100000029
:10213000020000000400000006000000080000008B
:102140000A0000000C000000100000002000000049
:10215000400000008000000000010000F0FF0000CF
:10216000F0B58FB000270D970C970B970A9709973A
:1021700008970797069705970497D94A1068012191
:10218000019108431060106808400E900E98106886
:10219000022108431060106808400E900326039641
:1021A000042002900E9805200007009002AC214602
:1021B000FFF770FB069703960825029500982146C5
:1021C000FFF768FB069703960295C9482146FFF77B
:1021D00061FB0697039680250295C5482146FFF7C7
:1021E00059FBBF4AD06801990843D060D0680840C5
:1021F0000E9048050D900C970B970A950D464802D6
:1022000009900E981D4C08A92046FFF72DFBB0043D
:102210002168814321602068194908402060201FFF
:1022200002680A4002602168164A11402160016874
:10223000114001600E97144800681449FFF76DF8CB
:10224000C82141430E910E98002805D00E98401EDB
:102250000E900E980028F9D10D4841680D4A1140A2
:1022600041600168114001600B480168FF22914301
:1022700001602803E84908600FB0F0BD0402014086
:10228000FFF7FFFFFFBFFFFFE800002080841E0074
:1022900080180240FFFFFBFF0CE400E007480849FC
:1022A0000160084901600021416007498160C268FE
:1022B0005207FCD1016105490160704700300040C0
:1022C000CCCC000055550000FF0F0000AAAA00006A
:1022D000F0B5A7B00024259424942394229421944B
:1022E00020941F941E941D941C941B941A9419946A
:1022F0000DA802903021FEF712FF0C940B940A9463
:102300000994089407940125EB020693BB4AD06810
:102310001843D06021A90C740C80D0681840269016
:10232000249470482390229426986F4F3846FFF7E4
:102330009BFC38688021009108433860B869082107
:1023400005910843B8611A941B941C941D941E9423
:102350001F9420946020199019AE384629463246C1
:10236000FFF7E0FC0420C1430491B8690840B8615C
:10237000B86906990843B8611B941A94102138462D
:102380003246FFF7CFFCB86958490840B861F86990
:1023900005990843F8611B941A9429020191384663
:1023A0003246FFF7BFFCF86904990840F861F86904
:1023B00006990843F8611B941A942903384632465B
:1023C000FFF7B0FCF86949490840F861786D059954
:1023D000084378651B941A94290438463246FFF75F
:1023E000A1FC786D0499084078657868702188436D
:1023F00078600F2000057968814379600299CC816B
:102400003C200873B868009EB043B86018941794D5
:1024100016946806159014941394129468031190FE
:102420000F940E940D943846FFF7D6FB7349086855
:102430002843086008682840039526902698086875
:102440000227384308600868384026900C970B94A0
:102450000A94099408970796269805200007069085
:1024600007AE3146FFF716FA0C970B940A940994BD
:1024700008970795624D28463146FFF70BFA0C97EF
:102480000B940A9409940897079728463146FFF75A
:1024900001FA0C970B940A940994089701980790F5
:1024A000069D28463146FFF7F5F90C970B940A94E0
:1024B0000994089703984002079028463146FFF791
:1024C000E9F90C970B940A940994089703988002F1
:1024D000079028463146FFF7DDF927B0F0BDC0462A
:1024E00034100240B80B0000002C0140FFFBFFFF3E
:1024F00000040050F0B58DB000240B940A940994A8
:1025000008940794022502953C488168294381601C
:10251000816829400C910C99016829430160006889
:1025200028400C90059404940394102001900C987A
:10253000012006900746324801A9FFF7ABF9314860
:10254000016820221143DF23994301602E4801686E
:102550002E4B0B40036003210B0306689E4306606D
:10256000036893430360026840239A430260026851
:102570008026324302600A020368934300973A02BE
:102580009A180260890202688A43F90251180160B0
:102590001F480168FF22914301601E480990401CBA
:1025A0001D49086007A90C800A9408941B4F3C46FB
:1025B000183C2046FFF758FBF0432168014021609A
:1025C000394614390A6870239A430A60394610392B
:1025D0000A6802400A60386800990843A8433860D6
:1025E00038680C21884338603868F02188433860A7
:1025F000B8680A210143B9600DB0F0BD3410024043
:10260000000400500008024008000240EFBFFFFF36
:1026100010E400E0FFFF000000E100E018040040CB
:102620007047704770B500F0F9FF4220DA4C205A2D
:102630005025DA4E715B03224A431018800870530C
:1026400000F0DEFB705BC108B2794A43A286400805
:10265000801AE087E07D002801D101F015F80448D8
:102660000168044A914201D8491C016070BDC0460E
:10267000B40400200F2700007047704770B5284A47
:1026800013680220034305218B431360126801265F
:102690003302244D2A46083A14681C431460136818
:1026A0005B05FCD5AB6D3343AB65AB6D9B07FCD5D0
:1026B0006B681D4C1C401D4BE3186B60330614689F
:1026C0001C43146033076C681C436C6013689B01E7
:1026D000FCD50F2212022B6893432B602A68024319
:1026E0008A432A602868382101401029FAD107203E
:1026F00000032968814329600D4C2046FFF722F929
:102700002046FFF763FA2046FFF760FAB005E96C50
:102710008143E96403208007E96C8143E96470BD6B
:1027200000200240081002408C80FF1F0208002099
:102730000090D0030120C006014908607047C046E0
:1027400008ED00E010B5054C2068C00704D0FFF785
:1027500069FF0120C043206010BDC046102000402A
:102760000220C04307490A68920703D40A68D207C7
:1027700004D1704708600A68D207FAD0401C08608C
:102780007047C046104401400220C04307490A6810
:10279000920703D40A68D20704D1704708600A6818
:1027A000D207FAD0401C08607047C04610040040B1
:1027B00080B505480168C90704D00121C9430160FB
:1027C00002F0D4FF80BDC04610100040B0B582B00A
:1027D000002001900090254C2068C00744D120685B
:1027E0002349014001252807081820602148006876
:1027F0002149FEF792FD400001900198002805D084
:102800000198401E019001980028F9D160680321C9
:102810000840009060688843606022681748024062
:102820001218183222602268002AFCD4009A6368C9
:102830008B4313436360402101910199002905D026
:102840000199491E019101990029F9D1216801409E
:1028500029432160204608380068C007FAD0E805FF
:1028600007490A6802430A6002B0B0BD082401406B
:10287000E8FFFF6FE8000020400D0300E8FFFF7F46
:1028800008270140F0B583B04A23434DE95AFF20A1
:102890006830424E727E002A18D04A1E11B20029BA
:1028A000014600D41146E9524C22AB5A5B1E1CB2C1
:1028B000002C044600D41C46AC524E22AA5A521E8A
:1028C00013B2002B00D41046024619E04C1C21B272
:1028D00000228142114600DC2146E9524C232F465A
:1028E000EC5A641C25B28542154600DC2546FD5293
:1028F0003D464E23FB5A5B1C1CB2844200DC1A4648
:102900004E27EA53F05B09B24900254A515E41184F
:10291000344640200290305A48437D2109010191FC
:10292000FEF71AFD317A48430A263146FEF714FDB8
:1029300080B202F02FFE2346E05B4C21695E490025
:10294000174A515E4118029C185B4843019D294675
:10295000FEF702FD1149097A48433146FEF7FCFCB7
:1029600080B202F01DFE0D4BD85B0B49C95F4900D8
:102970000B4A515E4118185B1C4648432946FEF736
:10298000EBFC217A48433146FEF7E6FC80B202F0C8
:102990000DFE03B0F0BDC04638040020100000203A
:1029A000F600002070B53B4B186804210143082055
:1029B0008143196002249C6203210A050520000757
:1029C0000568954301221605AD19056095028562DB
:1029D0001D681543A5431D609A628B0404689C43DF
:1029E0009304E3180360530283628B0304689C43DF
:1029F0009303E318036080238362090403688B4315
:102A00001104591801601102816270BD70B5FA4954
:102A10000A78FA4C20680C239843002A03D0082235
:102A20001043206004E00422104320600220A062D2
:102A3000032213050520000705689D4301235E0559
:102A4000AD1905600E7825689543002E03D0022647
:102A50003543256002E01D432560A36294040568A8
:102A6000A543DC042C1904600C7895030168A94384
:102A7000002C03D0DC032143016004E09C032143CC
:102A8000016080218162110402688A43590451184F
:102A9000016070BD00040050B0B5244A13781320C3
:102AA00040012349042B01D0012B08D1214B1B6885
:102AB0001C680C400546203525431D601378052B06
:102AC00001D0022B08D11B4B1B681C680C4005462B
:102AD000103525431D601378062B01D0032B05D13B
:102AE000144A126813680B400343136012480378BA
:102AF00012481349134A002B0BD003680B400360A4
:102B00000168114001600B49496842680A4342600C
:102B1000B0BD084B5B6804681C4304604368134005
:102B2000436042680A404260B0BDC0462D000020AC
:102B30000FFCFFFF000000202800002000180240CA
:102B4000FFFFFBFFFFFFFDFF70B5401E052800D90A
:102B500050E1C0467844007940008744020F3D6A46
:102B600088A6A5480278A54908680C239843002A3E
:102B700000D1A6E0082210430860A7E09F4B186828
:102B80000421014308208143196002249C6203212F
:102B90000A05052000070568954301221605AD19B1
:102BA0000560950285621D681543A5431D609A6105
:102BB0008B0404689C439304E3180360530283620C
:102BC0008D4B1C788D030368AB43002C00D1A6E02D
:102BD000D40323430360ADE0884B1868042101430C
:102BE00008208143196002249C6103210A05052005
:102BF00000070568954301221605AD190560950289
:102C000085621D681543A5431D609A628B040468A4
:102C10009C439304E318036053028362764B1C7851
:102C20008D030368AB43002C7FD0D40323430360A0
:102C300080E0724B18680421014308208143196029
:102C400002249C6103210A050520000705689543BD
:102C500001221605AD19056095028562664D2E7834
:102C60001D688D43002E6CD025431D606CE0634BC6
:102C700018680421014308208143196002249C62E2
:102C800003210A0505200007056895430122160562
:102C9000AD19056095028562574D2E781D688D43EC
:102CA000002E60D025431D6060E0534802785349F0
:102CB00008680C239843002A6FD00822104308604C
:102CC00070E004221043086002208862032213058A
:102CD0000520000704689C4301235D056419046016
:102CE0000C681C430225AC430C608B6191040468A2
:102CF0008C43990461180160590281629103046850
:102D00008C4399036118016080218162110402687B
:102D10008A431904511801601902816270BD94033D
:102D2000234303608023836204E09403234303600E
:102D300080238362090403688B435104591801609E
:102D400070BD15431D609A628B0404689C43D304D4
:102D5000E31803608B0304689C439303E318036048
:102D60008023836210E015431D609A628B0404681F
:102D70009C43D304E31803608B0304689C439303D0
:102D8000E318036080238361090403688B43110403
:102D9000591801601102816270BD0422104308605D
:102DA00002208862032213050520000704689C4363
:102DB00001235D05641904600C681C430225AC43C3
:102DC0000C608B62910404688C4399046118016063
:102DD00059028162910304688C4399036118016070
:102DE00080218161110402688A431904511801602D
:102DF0001902816270BDC04611000020000400501D
:102E0000F0B581B042204C4E325A4C4D2B4608331F
:102E10004B48417F4C00E3189B1E1A806A892B891E
:102E20009A18AB89D218EB89D2182B8AD2186B8AE0
:102E3000D218121D5210B267427E012A0ED1491CCF
:102E40004177CAB2072A02D30121F17441770122E6
:102E50000A400276B07D002811D10DE0491E41776D
:102E60000A0603D10121F1740621417701228A4328
:102E70000276B07D002802D1C8B2FFF765FEFFF7E9
:102E80000BFE306F2F49884205D37079F17A0143E8
:102E900001D00120F07500247484307B002849D0D3
:102EA000B07E002846D0F08CB16F081A264F3860EB
:102EB000B969421ABB68F9683D6951437961B861E3
:102EC00043435D193B6A9D421A4600DC2A465B4239
:102ED0009A4200DB13463B61C9187A6850430A18CE
:102EE000786A8242014600DC11464042814200DBA2
:102EF0000846F861FEF7EDF91449FEF774F901464A
:102F0000306EFEF717F90646114D2946FEF7D3F944
:102F1000002800D1354628462146FEF7B0F90028A2
:102F200000D12C460448046604480068632801D890
:102F30000020386101B0F0BD38040020B404002046
:102F400010000020D10700007000002000401C4647
:102F500000E0FF44F0B58FB0D74806C8436F0D932B
:102F60005B1AD64F7B811B045B0D3B81511A0125F7
:102F700000220E9208389942294600D80E990C91E9
:102F8000F9618168C268511A9942294600D80E99A0
:102F90000B91396201694269511A9942294600D858
:102FA0000E990A9179628169C269511A994229463A
:102FB00000D80E990991B962016A426A511A994280
:102FC0002E4600D80E9EFE62816AC26A511A99424C
:102FD000294600D80E993963026B446BA21A9A42B3
:102FE0002A4600D80E9A7A63846BC76B3C1B9C42BE
:102FF0002C4600D80E9C0894B04FBC63046C476C00
:103000003C1B9C422F4600D80E9FAC4C0797E763B1
:10301000846CC76C3C1B9C422F4600D80E9FA74C6B
:1030200006972764046D476D3C1B9C422F4600D8D1
:103030000E9FA24C05976764846DC76D3C1B9C4234
:103040002F4600D80E9F9D4C0497A764046E476ED0
:103050003C1B9C422F4600D80E9F984C0397E76478
:10306000846EC76E3C1B9C422F4600D80E9F934C2B
:1030700002972765046F476F3C1B9C422F4600D880
:103080000E9F01978D4C6765806F0D9F381A98428F
:1030900000D80E9DA5650C98464007984640701EC6
:1030A0008641F0000B9B5940069B59404B1E9941AD
:1030B000890001430A98424005984240501E8241CF
:1030C00057000F430998089E4640049846400398CD
:1030D000C0000299890008180199490044187848ED
:1030E0000078784A1178014346D06019B9191278EE
:1030F000002A01D00F225040704E884237D11C3632
:103100007CCE6E48076B6D48416B6C48806B9202B9
:103110005B02134322021A43EB011343B2011A4329
:103120007B01664E134309011943C000084334462E
:103130003C341ECC8D000543510029431943C74A36
:1031400000201080B289521CB281012C02D15E4A4B
:103150000123137030291EDB7278002A1BD05B48D4
:1031600000220270C1480180B2700FB0F0BDF0893A
:10317000401CF0810FB0F0BD00F06EFB514A0028FA
:10318000B3D04E490879401C0871C0B26528ACD351
:1031900001201070A9E74A1E2E2A08D84B4801705A
:1031A000B24800220280C8B2002813D1E2E7002909
:1031B00004D04648007800280CD1DBE7317801299B
:1031C00001D10021717041490870A8490880B07090
:1031D0000028CFD03E4909780029CBD13849097859
:1031E0000029C7D0F178884202D00021B170F07078
:1031F000052805D3B178491CB170C9B20629B9D3E5
:103200000024B470401E14284FD8C046784400797A
:10321000400087440A0D104A134A161E272A4A3EC8
:10322000412E4A4A4A4A4A34390001F0DDFE3CE068
:1032300001F00CFF39E001F0E9FD36E001F03AFF62
:1032400033E02548012101702248047023480170B1
:103250002BE0214804701F48012101701F48022102
:10326000017022E07F4804701FE07E480121017058
:103270001BE0747107204002FF30F08015E0154814
:1032800000780121081A01E01248007812490870FC
:103290000BE001F0FBFF08E00120707107214902FB
:1032A000F1803178012900D17070084801780C4A0A
:1032B000117004700FB0F0BD18050020C803002085
:1032C00056040020190600204D0400201A06002094
:1032D000520400203A040020290000204A04002063
:1032E00060070020F0B581B0C54E03CE081A554CDA
:1032F0000119564A083E91420BD8C24D69780029FF
:1033000009D0E97800295FD1A97800292DD0E88873
:103310002CE04D4E7FE05349097800290DD05249E9
:103320000A887D21CB00904216D9494C2488090196
:103330000091511C5B1C224612E045490A8848490D
:1033400009887D231B012F3300932F2301F03CFDBF
:103350002F2807D1002005E0414909880093002368
:1033600001F032FDE8603D4E55E0E880491CA9704F
:10337000374F398880B200F061FA332802DB002031
:1033800068701AE038880721414305CE101A4018AA
:10339000C0083880A978083E33290ED3193881B285
:1033A0002C4A8918CA0F8918490821222A4B995496
:1033B0000121E970388001F0EFFD3888E880E87875
:1033C0000028D0D003CE081A29797D22D200FA3203
:1033D000904208D2491C2971214A138807265E436E
:1033E0003018C0081080C8B21C4E4C2813D31C489B
:1033F000018819318AB2A2183332D30FD218520879
:103400002023154CE25400246C70018001F03EFF33
:103410002C7101F099FD0020308014480288794910
:10342000C9688C1A124B1B689C4201DDD11806E05A
:10343000541A9C4203DDD11A018001B0F0BD018015
:1034400001B0F0BDDFFCFFFF6E0400207605000038
:10345000380000202AF9FFFF1B0600207804002016
:10346000360000203B0400203A00002072040020B7
:10347000F0000020034900220A600A688242FCD35F
:103480007047C04624480140094900220A617D2254
:1034900052024A610B68012213430B600B6983429D
:1034A000FCD3402048610868104308607047C0465C
:1034B00014480140F0B581B04F4BC9334F484380A9
:1034C0004F490E680022042404E09219241D7C2C2C
:1034D0002E4608D00D59AE1BF8D09FB2BE42F4D292
:1034E00046803346F1E75109464E3161464D2F780B
:1034F0000F21C9010091012F28D199B2012925D9A5
:10350000009CA2420FD204290DD8002171713F4CBA
:103510002170012129703E4C0C2525702024047057
:103520003C4C217012E0052910D3D409182C0DD879
:1035300008290BD8354901240C702C70747134495A
:1035400007250D702021017032490C701C46C93CC2
:1035500031490D78012D0DD1A1B2274EB14209D2CA
:103560002A493F260E7001212B4E3170022606702B
:10357000284E31703D433DD19BB2022B3AD3009986
:103580008A4212D2042B10D800211E4A51711F4AC0
:10359000117001211C4A11701D4A0C231370202246
:1035A00002701C48017001B0F0BD052B22D3D10977
:1035B000182911D8082B0FD8144901220A70124972
:1035C0000A7010494A71124907230B7020210170BB
:1035D0001048027001B0F0BDA1B2074A914209D271
:1035E0000A493F220A7001210B4A1170022202701F
:1035F0000848017001B0F0BD574D00006C0000207C
:10360000180500202404002058040020ED000020AC
:10361000EC00002057040020590400206048016895
:103620000122914301607047FF20000410490A689D
:1036300082430320800510180860012081020D4A92
:1036400011600D490D4A8A600D4ACA604A680D4BE7
:103650001340DA1C4A600A68022313430B600A68AD
:10366000082313430B600A6802430A607047C04690
:1036700008E400E000E100E01C00024040240140BA
:10368000040500200000FFFF7248406802490A68F4
:1036900002430A607047C0468018024010B582B0ED
:1036A0003D480168012421430160016810220A435A
:1036B0000260210202680A430260016804220A4390
:1036C0000260016840220A430260A10202680A43C4
:1036D0000260210402680A430260210302680A436F
:1036E000026064210162014620390A6822430A60AF
:1036F000E103426A0A4342620C38016821430160D7
:103700002648016A2143016201682143016024487F
:1037100001460C390A6822430A60816821438160AE
:103720000168214301600168A1430160DE4801682E
:1037300021430160416921434161A00701682143A0
:103740000160416921434161D8480168214301601A
:10375000416921434161C1682143C160FDF7D2FE47
:10376000FFF762FFFFF732F8002001900D48016873
:10377000214301600C4800680C49FDF7CEFDC000F4
:1037800001900198002805D00198401E01900198F1
:103790000028F9D102B010BD202C014000040040E7
:1037A0000C20004004020140E8000020400D03000E
:1037B0000248016804220A43026070470800024080
:1037C00070B5194B18680421014308208143196022
:1037D00002249C6103210A05052000070568954322
:1037E00001221605AD190560950285621D68154315
:1037F000A5431D609A618B0404689C439304E318FD
:103800000360530283628B0304689C439303E318B1
:10381000036080238361090403688B4311045918F2
:1038200001601102816270BD00040050024801680D
:1038300001220A4302607047142C0140401AC1174C
:103840004018484070470000024800680068400087
:10385000C00F704700000020024801681020084097
:103860007047C046100400500148006880B270479D
:103870002400004002480349016062B67047C04618
:1038800008ED00E000100008F0B58DB07C4A5068EB
:103890000125284350605068284007900798280762
:1038A000116801431160116814460140079107989F
:1038B0007448016808220A430260016810220592D8
:1038C00011430160280270490A6802430A60FEF74A
:1038D000D5FE204608380168294301600168294067
:1038E00007910799016802221143016000681040A6
:1038F00007900798201F016829430160006828404D
:1039000007900798614A106861490840A903401868
:10391000106068025F4908600B46FF2002900004B7
:1039200011688143A80508181060A8021860FEF706
:1039300017FCFEF7CDFC00270B970A97099708970D
:10394000079720682843206007A91F20009008805F
:10395000206828400C90504809900C984F4E3446EF
:10396000083C2046FEF780F980200390C143206880
:1039700008400A460691206030684949014031609C
:103980007020C3430493301F016819400160306800
:1039900010403060FEF7AEFD0B970A970997089725
:1039A0000797EA030192364948681043486048681F
:1039B0000E4610400C900C9802980006334A91680D
:1039C00081439160E8043349086007A900980880A2
:1039D0000A97314809900897324C2046FEF744F97F
:1039E00020680699084020600B970A970997089766
:1039F0000797A804324671680143716007A90F74E4
:103A00003F260E80526802400C92234809900C9881
:103A1000254C2046FEF728F92068039908432060CA
:103A20000B970A97099708970797154A1068059901
:103A300008431060106808400C900C98134A906876
:103A400013490840019940189060680411490860C2
:103A500007A90E80322009900897144C2046FEF7E3
:103A600003F920680699084020606068049A1040B5
:103A70006060A0680840A06001F0B4FD0DB0F0BD2A
:103A80003C100240000001400020024008E400E039
:103A9000FF00FFFF00E100E0FFFF00000800004022
:103AA000F8BFFEFF00200040004801400010004029
:103AB00070B5D54C206F7E2821D3FFF7D5FE7C282A
:103AC00009D8A08FC0084A2805D823480068800874
:103AD0007D2800D270BDFFF7C7FE5021CB4A515A56
:103AE00049088842F6D3207F401C2077C0B2652861
:103AF00005D301F07DF918480021016070BDFFF782
:103B0000B3FE42216052C14DA87D297E00290BD011
:103B1000002814D00026FFF797FE0028DAD1761C83
:103B2000A87D8642F7D30AE0002808D00026FFF7D8
:103B30008BFE0028CED0761CA87D8642F7D301F0FC
:103B400057F9002001F048FD297DE08FC840E0874B
:103B500001F000FD70BDC046B4040020F0B583B094
:103B6000A74CA849B022204601F01CFB607C401EF7
:103B700041424141A44DA970A07C401E41424141B7
:103B8000E970E07C012801D10120A871E07D0428C2
:103B900000D302209D4FB871207D401E414241411B
:103BA0007970607D401E41424141B970A07D401E48
:103BB00041424141F970207E01460839282928D820
:103BC000934D182809D393490091182130222B4690
:103BD00001F0FAF840217852207E01460C390B2979
:103BE00008D800950C2118228B4B01F0EDF84021EC
:103BF0007852207E844DFC21014008290ED187494E
:103C0000009107211022864B01F0DEF84021785206
:103C100006E07F48F88701F0A9FC0AE04020385A06
:103C200080B201F0A3FC4020385A4A217852422148
:103C30007852607E01463239642908D841087830CC
:103C4000B88608461E30B8871431798703E05520BE
:103C500078879620B886E07EF871A07E282670438B
:103C60001430F883207F401E414241412971607F1A
:103C7000401E4142414169710525284601F0A2FCE0
:103C80006078002800D1A2E0A07F0B2800D805466C
:103C9000284601F097FC00205B4D28722321615CCF
:103CA00079732221615C5F4A891879852521615CDD
:103CB000FA31B98520210291625C52005A4BD21828
:103CC000FA842122A25C5200584BD2183A85E27F36
:103CD000521E53425341EB712422A25C521E5342A6
:103CE0005341AB722622A25C521E53425341EB72E7
:103CF000A25D531F142B00D83A732922A25C531ED5
:103D0000092B00D87A722A22A25C531EDBB2082B40
:103D100018D848257E5B0923D94351432E39CBB2AD
:103D2000F6187E53384DBA72F972617E4A08D2187D
:103D30007A87C918B986398FC91839873C490A6802
:103D40001A430A602B21625C11464639462900D885
:103D50007A712C21625C511E622903D8012169739A
:103D6000510039842D21625C511E092900D83A7214
:103D70002E21635C092B0AD8042B0CD82A46213249
:103D80007B441B795B009F44022E0406320028848A
:103D9000284A01211170FC8BA1084A2900D8F87328
:103DA000F9792020FDF7B9FA054611212046FDF7E3
:103DB000B4FA2946FDF7B1FA46217852642120462B
:103DC000FDF7ABFA2946FDF7A8FA44217852C8203E
:103DD00078867878002801D003B0F0BD00200A4929
:103DE000C87003B0F0BD0121029AA954D0E711496F
:103DF0000870114901220A702A462032C9E7C046DC
:103E00001B06002000F800083804002010000020E5
:103E10006B0A000035050000D61400009F0F00005B
:103E2000411F00005E050000EE020000D606000003
:103E3000442C0140C9030020C803002000B58DB008
:103E4000FFF718FDFFF720FDFFF728FCFFF786FEC0
:103E5000EB4800782521EB4D6854EB4CE0780228C4
:103E600002D12079002830D0002020710220E0709B
:103E7000601DE6A10C22FDF739F9E8480178617070
:103E80008179E175A978491E4A424A416274E9780C
:103E9000491E4A424A41A274A979491E4A424A41EE
:103EA000E2744178491E4A424A4122758178491E8E
:103EB0004A424A416275C078401E41424141A17563
:103EC000B021D74A204601F015FAA879002802D07F
:103ED000D248C18E81864020D04F06903E5A4A205B
:103EE0000C903E524824385B70437D2108910901B3
:103EF0000B91FDF712FA04943853FE87A878401E00
:103F0000411E88417876388F70430B99FDF705FA8A
:103F1000F97A401838877878002800D144E3E87AA5
:103F2000C049002813D00846BE30049978520020BA
:103F3000A8710121E970F97378807870788F323038
:103F40007887B88F3230B887B88E3230B88601F0B3
:103F5000B1F800200790E886FEF7A0F901F086F995
:103F600001F02AF92878002801D001202873089848
:103F700080000B9004E0002001F0FEFAFEF712FD35
:103F800001F074F9288E0121C8280A4600D3079A47
:103F9000A54B1C68642CA14F00D80799089BDB0037
:103FA0009C4203D8002801D0114001D0002169763D
:103FB0009F280C9E04D8A979002901D00021697698
:103FC000E97B002907D00B99643989B2884208D26D
:103FD0000020687605E0952801D8642000E00A20DA
:103FE0007874A86F03210A91FDF7B6F928670B2CA6
:103FF0008E4C21D30146E87C00281DD08A484068B9
:10400000FFF71CFC296F0A097C2A11D84A08904244
:104010000ED90020844A1060AA7B521CAA73EA7849
:10402000002A00D1A8760120E875B88E4008E885FE
:104030007D4841600020E874FF200202216891431E
:1040400050220992BA5A972A05D3216061680698CE
:104050000143BF2004E00122920311432160616803
:1040600081436160687D002811D0A86EFDF73CF99E
:1040700003464420295A2420285C5222AC5AAA8D97
:10408000009400F0AFFA01F043FA00206875287D33
:10409000401C2875C0B2652875D365481C38006877
:1040A00040000321FDF739F9411C8AB2F88F8242A2
:1040B00000D80846F88580B25D49183908605D4926
:1040C00008685D4A1040001D08605420285A5B496A
:1040D00048435B49FDF721F95A490A88498C891AF6
:1040E000801A64246043FDF737F91E302421685498
:1040F000562168524427E85B072646435820285A31
:104100004E4948435049FDF708F94449097C484362
:104110002146FDF702F98019C408EC535A20285AA9
:10412000E96E3F224A4310188011E866434948432C
:104130004649FDF711F9010400D50020A885A87AA9
:104140000028364F0C9E1CD0287CB98D4143A0B26C
:10415000814214D9288D401C2885E97E3C4A514370
:104160003C4A891880B281420BDA00242C87FEF782
:1041700019FC00F03DFEEC86AC76AC7701E0002047
:1041800028850020287500242C77E87E002863D03D
:10419000288F312800D2A7E0A97F002900D1A3E011
:1041A000882800D9ECE0687A002809D0FFF736FAB1
:1041B00000F01EFE204601F0DFF9FEF727FC6C72CE
:1041C000FEF760FBFC7917482146FDF7A6F8064686
:1041D000F9482146FDF7A1F80346288F00963021C3
:1041E000782200F0F1FD4C24385380B2FFF742F9F9
:1041F000395B0B986430FDF790F852216852BFE6A6
:10420000FC0F0008380400201B060020473037311F
:104210002036346B4553432000000000100000207E
:1042200000F800082A030000B404002008E400E0BD
:10423000582C014008240140E8FFFF7FE40C0000F7
:10424000B80B0000A875FF1FFF0F0000BB0A00009D
:104250007CFCFFFF204E0000A96FDF48FDF77CF8D3
:10426000A97E41435220295288B20A21FDF755F810
:104270005C216852F97B00290ED004997B5A4621B3
:104280007A5A4421795A0C9EBE5B00960C9E80B2ED
:1042900000F09AFD422178522420285C7A799042DD
:1042A0000AD9B95B012300934B0811460A390A3237
:1042B00000F08AFD422178525026B95BC54800685B
:1042C000642830D30B9881422DD80520C04908605E
:1042D000286F0C210091642103230B9A00F074FDD8
:1042E000B95B642925D325E001266E722879002860
:1042F00000D140E606983C5A787A40003A462718A2
:10430000133FB9B2D08F48432146FDF706F8201A73
:10431000401C50242853AF8700F012FF285B01F0A7
:104320002BF9AE752CE66420A94A10600C20642994
:1043300000D20220B875F98B0B9A914201D240004D
:10434000B875E87D002800D1CDE0A87E002800D116
:10435000C9E000F04DFDFFF777FA397E002945D01E
:10436000002845D0687F401C6877BA7EC0B2904272
:1043700001D923202C5422202A5C002A40D0B2E00C
:1043800001276F72FEF77EFA288FC8280BD94C20C0
:104390008B49099A0A52AC531046FFF76BF8A85B99
:1043A000002809D0ECE54C208549085AFFF762F84F
:1043B000A85B002800D0E3E5814E8448099970523B
:1043C0006F83EF752867834F786001F005F9AC754E
:1043D0000A203860707D70776879002801D0B08F2E
:1043E0007087FEF70DFDFFF721FAC9E50028B9D067
:1043F00023202A5C521C2A5422202A5C002A72D1D3
:104400002323EA5C00292BD0F97E8A426BD90993D9
:1044100001212954FFF728FA422105916852002012
:10442000039001F0D9F80598285AB95B0A9A5143CC
:104430000818029080080596B85380B2F97DFCF701
:104440006CFFA8860299C908081AE887614EFFF731
:104450000BFAE98F88422ED230680928F7D82AE073
:10446000397F8A423FD9099301212954FFF7FCF98A
:104470004221059168520020039001F0ADF80598A3
:10448000285AB95B0A9A5143081802908008059689
:10449000B85380B2F97DFCF740FFA8860299C9089D
:1044A000081AE8874B4EFFF7DFF9E98F884202D2FE
:1044B00030680928F7D8FEF7A3FC0998039B2B5412
:1044C0006B773068401C30606979EA7A0A4367D0BC
:1044D00014283B48059E06D3805B3B49884202D2A4
:1044E000EB75FFF7D1F8FFF7BFF93C49884200D2DE
:1044F00046E5A87E012800D042E5687E401C68762B
:1045000000F076FC0120E875288F2F2803D82C486E
:1045100033498153AC7635462E4E3460FFF7A4F90B
:1045200042272649C8530994204601F055F82348EC
:10453000C05B234A515B0A9B4B431F18B808059583
:1045400050531E4D80B2D17DFCF7E7FEA886F908D6
:10455000081AE887FFF788F9E98F884202D23068A5
:104560000928F7D8FEF74CFC2320099B2B546B77C6
:104570003068401C30606979EA7A0A4309D014280F
:10458000059900D2FCE40E48405A0F49884203D3F3
:10459000F6E41F2800D2F3E4EB75FFF775F8EFE4BB
:1045A0001F28059E9CD29EE70020A871E87A054945
:1045B000002800D0B7E4CAE4581B000038040020EB
:1045C000100000202A030000D1070000282300006B
:1045D000582C0140B4040020C0270900C9AF0000D6
:1045E00088130000F0B583B0EF4C089D2572A371CD
:1045F0002271A170207002952D0A0195E57100933A
:104600001B0A6371170AE7700E0A667044000725DB
:1046100040B2002800DA71E1600064B2002C00DAD8
:1046200072E1440040B2002800DA73E1600064B235
:10463000002C00DA74E1440040B2002800DA75E191
:10464000600064B2002C00DA76E1440040B2002839
:1046500000DA77E1600064B2002C00DA6840704054
:10466000440040B2002800DA73E1600064B2002C1C
:1046700000DA74E1440040B2002800DA75E160001D
:1046800064B2002C00DA76E1440040B2002800DA7F
:1046900077E1600064B2002C00DA78E1440040B2B7
:1046A000002800DA79E1600064B2002C00DA68408A
:1046B0004840410040B2002800DA77E1480049B2A2
:1046C000002900DA78E1410040B2002800DA79E1FF
:1046D000480049B2002900DA7AE1410040B20028DE
:1046E00000DA7BE1480049B2002900DA7CE14100B0
:1046F00040B2002800DA7DE1480049B2002900DA22
:1047000068404740780079B2002900DA79E1410039
:1047100040B2002800DA7AE1480049B2002900DA04
:104720007BE1410040B2002800DA7CE1480049B258
:10473000002900DA7DE1410040B2002800DA7EE184
:10474000480049B2002900DA7FE1410040B2002868
:1047500000DA69404A40500051B2002900DA7BE19A
:10476000410040B2002800DA7CE1480049B200294B
:1047700000DA7DE1410040B2002800DA7EE1480025
:1047800049B2002900DA7FE1410040B2002800DA96
:1047900080E1480049B2002900DA81E1410040B2DD
:1047A000002800DA69404B40580059B2002900DA6D
:1047B0007DE1410040B2002800DA7EE1480049B2C4
:1047C000002900DA7FE1410040B2002800DA80E1F0
:1047D000480049B2002900DA81E1410040B20028D6
:1047E00000DA82E1480049B2002900DA83E14100A1
:1047F00040B2002800DA6940009A4A40500051B2A5
:10480000002900DA7EE1410040B2002800DA7FE1B1
:10481000480049B2002900DA80E1410040B2002896
:1048200000DA81E1480049B2002900DA82E1410062
:1048300040B2002800DA83E1480049B2002900DADA
:1048400084E1410040B2002800DA6940019A4A4000
:10485000500051B2002900DA7FE1410040B2002847
:1048600000DA80E1480049B2002900DA81E1410024
:1048700040B2002800DA82E1480049B2002900DA9B
:1048800083E1410040B2002800DA84E1480049B2E7
:10489000002900DA85E1410040B2002800DA6940D1
:1048A000029A4A40500051B2002900DA80E14100EA
:1048B00040B2002800DA81E1480049B2002900DA5C
:1048C00082E1410040B2002800DA83E1480049B2A9
:1048D000002900DA84E1410040B2002800DA85E1D5
:1048E000480049B2002900DA86E1410040B20028C0
:1048F00000DA87E1C648417203B0F0BD6C40600049
:1049000064B2002C00DB8CE66840440040B2002812
:1049100000DB8BE66C40600064B2002C00DB8AE6B2
:104920006840440040B2002800DB89E66C4060002B
:1049300064B2002C00DB88E66840440040B20028E6
:1049400000DB87E66C40600064B2002C00DA85E68C
:1049500085E66C40600064B2002C00DB8AE66840AB
:10496000440040B2002800DB89E66C40600064B27D
:10497000002C00DB88E66840440040B2002800DBE1
:1049800087E66C40600064B2002C00DB86E668407D
:10499000440040B2002800DB85E66C40600064B251
:1049A000002C00DA83E683E60A050020694048000F
:1049B00049B2002900DB86E66840410040B2002889
:1049C00000DB85E66940480049B2002900DB84E647
:1049D0006840410040B2002800DB83E6694048009F
:1049E00049B2002900DB82E66840410040B200285D
:1049F00000DB81E66940480049B2002900DA7FE621
:104A00007FE66840410040B2002800DB84E6694050
:104A1000480049B2002900DB83E66840410040B20B
:104A2000002800DB82E66940480049B2002900DB2B
:104A300081E66840410040B2002800DB80E6694022
:104A4000480049B2002900DB7FE66840410040B2DF
:104A5000002800DA7DE67DE66840410040B200288B
:104A600000DB82E66940480049B2002900DB81E6AC
:104A70006840410040B2002800DB80E66940480001
:104A800049B2002900DB7FE66840410040B20028BF
:104A900000DB7EE66940480049B2002900DB7DE684
:104AA0006840410040B2002800DA7BE67BE66840BF
:104AB000410040B2002800DB80E66940480049B26E
:104AC000002900DB7FE66840410040B2002800DB9F
:104AD0007EE66940480049B2002900DB7DE6684077
:104AE000410040B2002800DB7CE66940480049B242
:104AF000002900DB7BE66840410040B2002800DA74
:104B000079E679E66840410040B2002800DB7FE6A4
:104B10006940480049B2002900DB7EE66840410058
:104B200040B2002800DB7DE66940480049B2002918
:104B300000DB7CE66840410040B2002800DB7BE6F9
:104B40006940480049B2002900DB7AE6684041002C
:104B500040B2002800DA78E678E66840410040B2CA
:104B6000002800DB7EE66940480049B2002900DBEE
:104B70007DE66840410040B2002800DB7CE66940E9
:104B8000480049B2002900DB7BE66840410040B2A2
:104B9000002800DB7AE66940480049B2002900DBC2
:104BA00079E66840410040B2002800DA77E677E60F
:104BB0006840410040B2002800DB7DE669404800C3
:104BC00049B2002900DB7CE66840410040B2002881
:104BD00000DB7BE66940480049B2002900DB7AE649
:104BE0006840410040B2002800DB79E66940480097
:104BF00049B2002900DB78E66840410040B2002855
:104C000000DB77E669400248417203B0F0BDC04660
:104C10000A050020F0B584B0644BDF88002F02D075
:104C20000020D88032E0624A624800786249002859
:104C300007D01068884204DCC10B012904D1072287
:104C40001FE0116007221DE0810B012901D106221E
:104C500017E0410B012901D1052212E0010B0129C6
:104C600001D104220DE0C10A012901D1032208E08B
:104C7000810A012901D1022203E0410A491E4A4268
:104C80004A4101461A61114157020F434B480078CF
:104C9000800002904A490E18802373603D0128135A
:104CA0004849085C0190C4001946A143B1603A0923
:104CB00014467C40380A60400F2403942040451974
:104CC00065403A484561019804011C404C40F4603D
:104CD000C0030190039802403A49895C00918A021E
:104CE00001990A43910A19406140316107403548F2
:104CF000C05D019044011443039805403148475D6D
:104D000025463D4329488561500A18404840706156
:104D1000110A19404140B161009AD0001840484042
:104D2000F06111011940414031627F20C0430140D0
:104D300062091A404A407262210919405140B16229
:104D4000E2081A404A40F262019CE10019405140D9
:104D5000316322011A404A4072632946194051408A
:104D6000B16301406A001A404A40F263A900194049
:104D7000514031640022124C029D6251FA001A40E7
:104D80004A407264390119405140B1647A011A40B5
:104D90004A40F264B9011940514031650140F801BF
:104DA000C0B24840706504B0F0BDC046C8030020E2
:104DB000B004002052040020FFFF0000EC0000209F
:104DC000CC06002034630008B0B51C46049D884220
:104DD0000B4600DB0346281B9342154600DC1D46AC
:104DE0006B1A5843511AFCF7B7FA0019B0BD00000E
:104DF0000120800404490A6882430A600A46743A22
:104E000010607039086070478018024010B5C848BB
:104E100000F0ACFBEFF3108072B6C648007800F0EB
:104E2000ABFB792400F022FAA41E14212046FCF7E3
:104E300074FAFDF789FE60080A3080B200F0BCFB0E
:104E40000A20FEF721FB022CECD8FDF7ABFD002475
:104E5000204600F0B1FBB8480480B848008800F054
:104E600085FB62B610BDC046F0B583B00320FDF7E8
:104E70006BFE00243226B04D019403E0641CB61C86
:104E8000AE2E49D200F0F2F9019828802A48801904
:104E90008778FF2FF2D00294C478002C30D00A20FB
:104EA00000F08AFBF72060437D2149014118234827
:104EB000FCF733FA044622482146FCF72EFA054651
:104EC00080B200F053FB9B48007845432846984940
:104ED000FCF723FA80B200F04FFB0298C0B2FE212B
:104EE0004143CD1917482146FCF717FA6843924D04
:104EF0006421FCF712FA80B2FEF7C6FA0024BEE77E
:104F00000024204600F038FB0298C0B2FE21414345
:104F1000C819FEF7B9FAB2E7FDF744FD00242046B0
:104F200000F04AFB8548008800F020FB2C8000F050
:104F30009DF903B0F0BDC0461B0600208096980086
:104F4000003E4900A086010010B5794800F00EFB34
:104F5000282000F031FB7748007800F00DFB02209C
:104F6000FDF7F2FD96242046FEF78EFA00F07EF95A
:104F7000502000F021FB2046FEF786FAFDF712FDD7
:104F80000024204600F018FB6B4804806B48008822
:104F900000F0ECFA10BDC04610B5654800F0E6FA26
:104FA000322000F009FB6348007800F0E5FA0220A7
:104FB000FDF7CAFD96242046FEF766FA00F056F982
:104FC0001E2000F0F9FA2046FEF75EFAFDF7EAFC33
:104FD0000024204600F0F0FA574804805748008823
:104FE00000F0C4FA10BDC04610B5EFF3108072B6E1
:104FF0004F4800F0BBFA00F039F9502000F0DCFA1D
:105000004C48007800F0B8FA0320FDF79DFD6424B9
:105010002046FEF739FA462000F0CEFA2046FEF789
:1050200033FA282000F0C8FA2046FEF72DFAFDF7E3
:10503000B9FC0024204600F0BFFA3F4804803F48F6
:10504000008800F093FA62B610BDC04610B538482B
:1050500000F08CFAEFF3108072B600F007F93C20F4
:1050600000F0AAFA3348007800F086FA0120FDF734
:105070006BFD4B242046FEF707FA502000F09CFA07
:105080002046FEF701FA5A2000F096FA00F0EEF8FA
:105090002046FEF7F9F9FDF785FC0024204600F0D4
:1050A0008BFA254804802548008800F05FFA62B634
:1050B00010BDC04610B5EFF3108072B61B480078E3
:1050C000FF2802D0FFF7D0FE2AE0194800F04EFA80
:1050D0001848007800F050FA0320FDF735FD37201E
:1050E00000F06AFAC8242046FEF7CEF90520FDF745
:1050F0002BFD282000F060FA2046FEF7C5F90620B7
:10510000FDF722FD192000F057FA2046FEF7BCF902
:10511000FDF748FC0024204600F04EFA06480480C3
:105120000648008800F022FA62B610BD30F8000888
:105130006B0A0000140500207804002050000020B5
:10514000B0B503210A050520000703689343012237
:1051500014051B190360930283628B0404689C434B
:105160009304E3180360530283620B0404689C43B6
:105170001304E318036013028362094B1C680825BB
:1051800025430424A5431D601C680225254395433F
:105190001D60890303688B43D10359180160B0BDBA
:1051A00000040050012A05DB0B780370491C401CE9
:1051B000521EF9D17047000070B5CD490868CD4A3C
:1051C00002400A60CC48026802231A430260026867
:1051D0009A4302601F48204AC2600A2242611F4A65
:1051E0001278C2611E4A02628468012214438460FC
:1051F00000248461C24D2C700C68C24D25400446C9
:105200002834102D03D1CC60164C8C6002E08C60E9
:10521000144CCC60144C24784D68CD4E2E4034197B
:105220004C600C681C430C600B6808241C430C6029
:105230000B6813430B60510203680B430360036860
:105240000B4303604169114341610C38016811430C
:10525000016070BD0C04004001600000ED00002002
:10526000FFFF0000180500206C00002001480249E3
:105270000160704700300040AAAA000002480021E7
:10528000416001607047C0462404004010B51549D4
:105290000A78154842708A79C275144A93785B1E61
:1052A0005C425C414474D3785B1E5C425C41847414
:1052B0009279521E53425341C3744A78521E53424C
:1052C000534103758A78521E534253414375C9783E
:1052D000491E4A424A418275B021054A00F00AF847
:1052E00010BDC046100000201B060020380400201E
:1052F00000F80008F0B503AF89B06E46F31D113316
:105300007361F260B1600446C817800F0B18032167
:105310001A468A43D11D072291436A46501A9D10AE
:10532000854630612946FBF7FAFEB06804280FDB9A
:1053300030692946E2781206A3781B049A1863782C
:105340001B02D2182378D21804C0241D491EF1D1A3
:10535000706985600120B0600204384D2B1F1C6805
:105360001442FBD12C68002C03D4F1684C0524D1E5
:1053700009E03348046829460C390C6044680C6025
:10538000F1684C0519D12C68022004432C60F168A7
:10539000CC0AE1002C680C432C602C6814432C6070
:1053A0001C681442FCD11C68E40703D00146B068B5
:1053B000186008462C6884432C600024706944609F
:1053C000046001688468A142B0682FD2F168091DA9
:1053D00071600FE0194D2968A14329602046746966
:1053E0006168083161602168891C21602168A468B6
:1053F000A1421BD22C6804432C6075692C68A40060
:10540000306904596968F0680C502968890030696E
:10541000091849686C687068015119681142FCD11B
:105420001968C907B468D5D01C60D3E7C1072A68DA
:105430000A432A60FC1F053CA546F0BD142002402B
:1054400008000020B0B52A490868C34A024010325B
:105450000A602948026802231A43026002689A43DC
:1054600002604B480246083A60241460032202603E
:10547000224A127882605C22C26004460C3C256895
:105480000122154325601E4C22700C681D4D2540DD
:105490001D4C102D04D1CC60044614348C6003E004
:1054A0008C6004461434CC604C68AE4D2540174CDB
:1054B0002478641917344C600C681C430C600B682A
:1054C00008241C430C600B6813430B605102034615
:1054D000143B1C680C431C60016811430160D1033C
:1054E000436A0B4343622038016811430160B0BD39
:1054F00008000240EFBFFFFF2C10024029040020EB
:105500006107002010400000CC060020EC000020C5
:10551000B0B50E48036808210B430422934303608F
:105520008C4B5C688F4D25408F4C24782C195C6027
:1055300084688025254385601C68012525431D60FE
:10554000036813438B430360B0BDC046003801407D
:105550000000FFFF044900228A6108624A6008686F
:10556000012202430A6070470C2000400149086094
:105570007047C0462C2C014008490860486088608C
:105580007047C046024801680A2291430160704793
:1055900020040040014908607047C046342C014097
:1055A000014908607047C046382C01400149086035
:1055B0007047C0463C2C0140014908607047C04616
:1055C000282C01400B2800D30B2040000149087013
:1055D0007047C04614050020014908607047C04666
:1055E00024000040F0B591B000240F940E940D9467
:1055F0000C940B940A94099408940127BA03504818
:10560000C1681143C160C1680092114002910299C2
:105610000222039201681143016000680192104068
:1056200010900794069705970494109840260296C8
:10563000444802A9FCF72EF9FF20000642490A68F7
:10564000824303208307D2180A60F9063F4A11609B
:105650003F490A6833231343CC2293430B603D4DEB
:1056600029683D4A0A4010322A6001032A688A43A9
:105670002A6029682022914329602968B143296062
:10568000296880220A432A6001022A688A432A6024
:1056900080022968814329600F940C200D900C949E
:1056A0000B940A94E1204002099008942B4C264662
:1056B000083E08A93046FCF7BDFC072041072268D8
:1056C0008A4322604006216881432160780731685F
:1056D000814331600920C002211F0A6882430A60A9
:1056E000206822218843206021680820014321602E
:1056F00031683943316061698902FCD561694902C9
:10570000F9D5009A103229681140102904D11449A2
:10571000E9602034AC6003E01149A9602034EC60FA
:105720006968104A0A401049097851186960296867
:10573000019A1143296029680143296011B0F0BD25
:10574000341002400004005018E400E000E100E0E2
:105750000808024030000240EFBFFFFF0838014058
:105760000A0500200000FFFFF4000020F0B587B01C
:10577000F44E7078022811D0012803D1FDF7EAFB1E
:1057800000207070708D401C7085F07800280BD060
:105790002024305D002809D0708FFEE0FFF73AFA30
:1057A0000020707000F0ABFC708F5BE17D22D100B7
:1057B000E548437B580006914118708F01250595F7
:1057C000EF43F57A002D17D081420BD2DE4A527E8C
:1057D000B578AA4239D100253586B57E002D30D066
:1057E0000599B175069D5F437A19824235DC5900EF
:1057F0006A1A824263D9CDE0814220D2D24B5B7ECD
:10580000B578AB4219D10493B58F01200023C82D80
:10581000054600D31D46039502935025CA4B5D5B98
:105820005B8E9D4200D80298039B1842049B4CD18A
:10583000F07E002849D1D0007087069D56E0069D75
:105840005EE0059DAA1AC04D6A76B27D002A069DCB
:1058500010D05F437A198242C9DDB178059D6D1A77
:10586000B94F7F7EBD4218D1B57E002D11D005996C
:10587000B17510E0B54A00922F3A2F23FFF7A4FA32
:105880003086B148437B708F5F437A198242AEDD28
:10589000E3E7AD4D697600213186B17D002909D15C
:1058A0002F2100910021A94BFFF78EFA3086A648E0
:1058B000437B708F069D59006A1A82426AD8491943
:1058C000814267D30021B17563E0A14800250560DE
:1058D0000120F075C01A9C494876FFF789FA757463
:1058E0009948407B4000069D4119708F974A00926D
:1058F0002F3A2F23FFF768FA30869348437B708F47
:10590000394659434A1982423ADDB178059B0491E0
:10591000591A8D4D6D7EA94215D1B08F0021C8282E
:1059200000D30B4650258848455B408E854205983C
:1059300000D80846184208D1F07E002805D1069DFF
:105940007587284612E0069D10E00120F07580481A
:10595000002505607C4904984876FFF749FA75747C
:105960007948407B4743069D7A19708F2F2100911B
:105970000021764BFFF728FA30867348437B708FFF
:1059800059006A1A824205D84919814202D300217E
:1059900071743186315D002965D07D21CC002146AE
:1059A0002F3188422BD9684D697EB278914220D13F
:1059B000B38F01200022C82B034600D31346069262
:1059C0005027EF5B6A8E974200D80698184205D19F
:1059D000F07E002802D1002070870AE05C48002792
:1059E00007600120F075401A6876FFF701FA7774B6
:1059F000708FA97C4200511A564A89183186014697
:105A0000303989B2A14229D2B1780122531A4E4CC1
:105A1000657EAB421DD1B38F0020C82B134600D347
:105A200003465025655B678EBD4200D802461A4288
:105A300005D1F07E002802D10020708709E0012006
:105A4000F0754348002505606176FFF7D1F975745C
:105A5000708FA17C4200511A313931862F2802D82B
:105A6000002070743086384CE078002810D0F07B2D
:105A700064214143481C617C4143707E814207D2CE
:105A8000FCF790FFFFF7B4F96620707600206CE019
:105A9000B079002805D0308E1D2822D8002131870A
:105AA00045E0307B00285FD0307800281DD0616D44
:105AB000A36D308E00912F21244AFFF785F901460E
:105AC0002548FBF749FCE1794908FBF745FCF084E0
:105AD000308E2E2809D82148002101603187316697
:105AE00044E01E2816D11E2021E0346E1C4D2046B5
:105AF0002946FBF7C4FB0028204600D12846FBF7C7
:105B0000F3FB308717492046FBF7C7FB00282DD150
:105B100030202AE0217B14224A43824207D9A02167
:105B200000911E212F23FFF74FF93087308E227B03
:105B300014215143814219D8044A0092A023FFF74F
:105B400043F912E03804002010000020FF07000095
:105B5000B4040020FFF7FFFF0087930370000020CC
:105B600000E0FF4400004042308E3087708DDA4DF7
:105B7000A84235D92C20345E2046FBF7AAFBD74932
:105B8000FBF731FB0146B06EFBF7D4FAB066D44F99
:105B9000387803280BD0022815D001281ED12420E4
:105BA000305CFF21683141189931022213E0442012
:105BB000305A1921FBF7B1FBC0B27D21C900411851
:105BC0001831012207E0A0B2C0B23221FBF7A5FBD9
:105BD0000322510201433A70C248018000207085BF
:105BE000B07F002845D0F0790028BF4D0DD0482067
:105BF000315A491C31522A791423534389B28B42BA
:105C000003D20021315201207075F07EB74C00287C
:105C100000D037E25027B07F002806974AD0B179EC
:105C2000384648432F30328F904243D8B07E002808
:105C300016D1FCF7B7FEF07D00280CD1B07E00280D
:105C400007D1FDF7DDF8EC53A948FFF7C5FC0120AB
:105C5000B076FDF719FD0120B076A88EF085B179F8
:105C600040202A5A6B8F308F009200290ED0892154
:105C70000DE0307C0028B6D1F07F0028B3D0308E04
:105C8000002855D0462000213152ACE72F21994AF7
:105C9000FFF79AF80446B087708D97494143022078
:105CA000C1419648814270D9F07A00288E4D01D1C9
:105CB0000020B075B07978432F30318F884200D8FA
:105CC0002AE1B07C00280AD0012802D1FFF764F94C
:105CD000B07C022801D1FFF737F90020B074687852
:105CE000002800D1E7E0B07E002800D167E1687F9E
:105CF0003C214143A88C421810463C3803B2FF2196
:105D000068318B4201DD7E4810184A22B0520246AB
:105D1000EF3213B28B4201DD0246793A4E23F25242
:105D20000246773213B28B4200DDEBE01046EAE028
:105D30004620315A491C315289B2A94200D852E753
:105D4000F18E1F2900D2DCE10120B077B07A002863
:105D500000D1FEE14420345AB92041002046FBF72F
:105D6000DCFA3074FF2068300B30844200D2F2E15C
:105D70000024FFF739F96420FDF786FBFFF776FA78
:105D8000641C307C8442F4D3E5E1B17E707B002852
:105D900046D0002944D005912C20305EF249098C70
:105DA0000122D243623A4A431018F14988620A6CD0
:105DB000831A0D6B4A6B8F6B5A43CA630864454361
:105DC000ED198F6CBD423B4600DC2B467F42BB4247
:105DD00000DB1F468F63D219CB6A58431318C86C77
:105DE00083420246E04D00DC1A4640428242069F52
:105DF00000DB10464864FBF76CFADF49FBF7F3F968
:105E0000FBF772FA298E091A0AB2688F824200DB08
:105E1000084601B2A2B28A4200DB04462C860599EC
:105E2000002900D140E77079002800D13CE7CE4935
:105E3000C85B498C401ACE4908658A6E831A8C6DFE
:105E4000CA6D0D6E5A434A668866444365190C6FE5
:105E5000A542234600DC2B466442A34200DB1C46DD
:105E60000C6612194B6D58431318486F8342024653
:105E700000DC1A464042824200DB1046C866FBF74F
:105E800028FABD49FBF7AFF90146706EFBF752F9EE
:105E90000546BA4C2146FBF70EFA002800D12C46E5
:105EA0007466002520462946FBF705FA002800D035
:105EB000FAE67566F8E60020B087B17E002900D0CA
:105EC0002BE1AA4908600120F0753079002800D143
:105ED0001EE1FDF775FC20E1204E00000000B443F8
:105EE000CD030020CE03002010000020102700006A
:105EF00088130000FF070000CDCCCCCCCCCCCC0C60
:105F00005CFEFFFFF1384C217052B079012801D1BD
:105F10000120F0760020B087B77D002F72D1707914
:105F200014221146C140B48F9048006888420BD2B9
:105F3000A88E844202D2B47E4443B487288FA1B293
:105F4000814201D9B08704464220285AA1B2814239
:105F500001D9B0870446707B0028059206D0302016
:105F6000285EA1B2814201DD84B2B487756E002142
:105F700028460491FBF775F9002804D12846FBF761
:105F8000B3F92418B487784D059BA87B002839D035
:105F90007D208000316F814200D83C23EB74F08D6E
:105FA000A1B20A1A9A4223DDC018B0870698285A6F
:105FB000FF2168318D31884222D9012021E06B48D0
:105FC000002101600124F47571773079002800D137
:105FD0009BE0B079002800D089E64020285A697AF1
:105FE000490040181338B087FFF7AAF8B4757EE669
:105FF000411A994204DD04992975C01AB08701E05D
:1060000004982875B07F002815D0B07E002812D0E3
:10601000308F30280FD3A87800281AD00698285A35
:106020004021695A00914B086021C822FEF7CCFE3E
:106030000446E8870EE04020002F11D029462D5A53
:10604000B78FCC8F384660432946FBF766F9281A8C
:106050000DE0EC8F4020295AB78FA0B2784304E0BE
:10606000295AB78FEC8F38466043FBF756F9401C2E
:10607000069D7053F785A0B2FFF778FA705BFFF7C3
:106080007BFA3C4C4020315A491C315288B2A04224
:1060900035D9B17F002917D0FCF784FC0020308768
:1060A000F086F083FFF768FAFFF7E8F801200102B5
:1060B0003348FBF734F8BFF34F8F32483249016061
:1060C000BFF34F8F00BFFDE73049884217D3FCF77D
:1060D00069FC00203087F086F083FFF74DFAFFF768
:1060E000CDF8012001022648FBF719F8BFF34F8FC6
:1060F000244825490160BFF34F8F00BFFDE707B07B
:10610000F0BD00213152F1776DE5FCF74BFCEEE577
:10611000B07D002801D1FCF745FCB77DF07A00285E
:1061200000D1FAE6002F00D1F7E6718F7D25EC0053
:106130002046FDF783FB0019B08780B22901884211
:1061400003D1FDF73DFB084DE6E6FEF7F9FF064DEE
:10615000E2E6FEF749FF2120305C002800D042E54E
:106160000020F0723FE5C04610000020B40400207B
:10617000700000201027000000401C46000016435D
:10618000180500200CED00E00400FA0551C30000E2
:1061900070B53D4800783D4C217800290BD000288F
:1061A00009D03B480078002810D0FFF705F839489F
:1061B0000221017070BD3849097801290CD00029ED
:1061C00022D1FDF777F9FEF7F7FF70BDFFF73AF937
:1061D00030480121017070BD00280AD02C48007899
:1061E000002812D0FEF716FDFCF7B4FEFEF7E4FF20
:1061F00070BD2A48007801280AD029480078012873
:106200000ED02078002816D070BDFFF71BF970BDA6
:10621000FCF7A0FEFEF7D0FF214800780128F0D15E
:10622000FDF760F8FFF7AEF9FEF7C6FFFDF7C0FA1D
:1062300020780028E8D11B4C1B4D2888002807D166
:106240006178002904D119480188491C018070BD7A
:10625000164900260E8016498842D5D32189FDF7BC
:10626000EDFA322801DC2078461C2670F0B2332883
:1062700007D3E078002804D1FEF7C8FD0120000212
:1062800020802888208170BD190600205604002037
:106290006107002039040020570400205804002022
:1062A0005904002024040020680400206E0400200B
:1062B000DD05000002E008C8121F08C1002AFAD15B
:1062C00070477047002001E001C1121F002AFBD176
:1062D0007047000000000000000000000000000007
:1062E00000000000000000000000000000000000AE
:1062F0000000000001000000020000000300000098
:106300000400000006000000070000000800000074
:106310000900000000000000000000000000000074
:106320000000000001000000020000000300000067
:1063300004000000191B12131D1516171A090A0B69
:106340001E0D0E0F6863000800000020C803000047
:106350005014000860660008C8030020A007000071
:10636000C46200080000000025040201401204106D
:106370002A23016745AB89EFCD020101011EFF020F
:106380000E050A0A3C056401016E0A0102010505B9
:1063900006010102040401D007CA146419B4100AEA
:1063A0004C046C07DC054A011E1AD00812781278DA
:1063B0001468013C123C2B6B0A02121412461E9008
:1063C000016B0A641223D43023102723E803122020
:1063D00043204E720A021364292C6350C31A2034DE
:1063E00041293C0110294A54A0860172020A1A323E
:1063F000501324F423070C3AFA8012B412B712BADD
:1064000012BD12C112C412C712CA12CD12D012D3B9
:1064100012D612D912DC12E012E312E612E912ECE3
:1064200012EF12F212F51AF73422FD186701030178
:10643000060109010B010E011101130116011901D9
:106440001B011E0120012301250128012A012C0125
:106450002F0131013301350138013A013C013E0180
:106460004001420144014601470149014B014D01F0
:106470004E01500151015301540156015701580179
:106480005A015B015C015D015E015F016001610118
:10649000620163021C640165021A66023A6702FA2D
:1064A000680249182922292A3A64361A62401A6079
:1064B000481A5E501A5C581A5A601A57681A547073
:1064C0001A51781A4E801A4B881A47901A44981A13
:1064D00040A01A3CA81A38B01A33B81A2FC01A2A8A
:1064E000C81A25D01A20D81A1BE01A16E81A11F07B
:1064F0001A0BF815060103011301FD12FA12F71227
:10650000F512F212EF12EC12E912E612E312E012A7
:10651000DC12D912D612D312D012CD12CA12C7125F
:10652000C412C112BD12BA12B712B412B112AE1215
:10653000AB12A712A412A1129E129B1298129512CE
:1065400092128F128C128812851282127F127C1284
:1065500079127612731271126E126B126812651232
:1065600062125F125D125A125712551252124F12D6
:106570004D124A1248124512431240123E123C126A
:10658000391237123512331230122E122C122A12EF
:10659000281226122412221221121F121D121B125F
:1065A0001A121812171215121412121211121012B6
:1065B0000E120D120C120B120A12091208120712F7
:1065C000061A050212041A03021A020219D9190244
:1065D000011249182922292A3A04361A06401A08B3
:1065E000481A0A501A0C581A0E601A11681A1470B8
:1065F0001A17781A1A801A1D881A21901A24981AC4
:1066000028A01A2CA81A30B01A35B81A39C01A3E68
:10661000C81A43D01A48D81A4DE01A52E81A57F04F
:106620001A5DF8126212651268126B126E12711204
:106630007312761279127C127F12821285128812DE
:106640008C128F129212951298129B129E12A11206
:10665000A412A712AB12AE32B1000000000000007D
:020000040800F2
:10F7E00047454E5F36344B5F4730373100000000ED
:10F7F0000000000000000000000000000000000009
:04000005080010BD22
:00000001FF
