:020000040800F2
:10100000C80D0020AD110008791600084916000827
:101010007516000861150008F518000800000000AA
:10102000000000000000000000000000E5160008BD
:1010300045160008000000007D160008E9160008AB
:10104000C7110008C7110008C7110008C711000820
:10105000C7110008C7110008C7110008C711000810
:10106000000000006515000891150008CD15000866
:10107000F5130008C7110008C711000800000000A0
:10108000CD180008C71100080000000091180008E2
:10109000A5180008BD180008C7110008C7110008EE
:1010A000C7110008C7110008C7110008F11800088F
:1010B000C711000800000000000000000000000050
:1010C000C711000800000000C711000800F002F876
:1010D00000F05CF80AA090E8000C82448344AAF176
:1010E0000107DA4501D100F051F8AFF2090EBAE874
:1010F0000F0013F0010F18BFFB1A43F0010318474C
:10110000545E0000745E00000A444FF0000C10F8BA
:10111000013B13F0070408BF10F8014B1D1108BF75
:1011200010F8015B641E05D010F8016B641E01F815
:10113000016BF9D113F0080F1EBF10F8014BAD1C65
:101140000C1B09D16D1E58BF01F801CBFAD505E083
:1011500014F8016B01F8016B6D1EF9D59142D6D3DD
:10116000704700000023002400250026103A28BF05
:1011700078C1FBD8520728BF30C148BF0B60704709
:101180001FB505F0F7FC1FBD10B510BD00F060F8ED
:101190001146FFF7F5FF02F05BFE00F097F803B48D
:1011A000FFF7F2FF03BC00F0FDF80000094880479C
:1011B00009480047FEE7FEE7FEE7FEE7FEE7FEE739
:1011C000FEE7FEE7FEE7FEE704480549054A064B51
:1011D00070470000ED160008CD100008C807002079
:1011E000C80D0020C8090020C80900204FF00002E7
:1011F00000B5134694469646203922BFA0E80C500D
:10120000A0E80C50B1F12001BFF4F7AF090728BFE7
:10121000A0E80C5048BF0CC05DF804EB890028BF63
:1012200040F8042B08BF704748BF20F8022B11F08C
:10123000804F18BF00F8012B704770477047704708
:1012400000487047CC03002000487047C8030020C6
:101250007546FFF7F9FFAE4605006946534620F094
:101260000700854618B020B5FFF7AEFFBDE8204067
:101270004FF000064FF000074FF000084FF0000B52
:10128000AC46ACE8C009ACE8C009ACE8C009ACE8C1
:10129000C00921F007018D46704700001FB584B0DA
:1012A00000200A9C06AB04AA02A90094AFF30080B8
:1012B00018B1DDE9020108B010BD0348204000F07C
:1012C0000EF800200146F6E70000207C10B5044629
:1012D000AFF300802046BDE81040FFF760BF10B5B7
:1012E00000F00AF8BDE81040AFF30080002801D0FC
:1012F00000F058B87047000010B5022803D0410133
:1013000003D50DA112E0002010BD010101D50FA1F0
:101310000CE0C10001D511A108E0810001D512A1A6
:1013200004E0400001D513A100E0002115A000F069
:101330003FF8012010BD0000496E76616C696420A1
:101340004F7065726174696F6E0000004469766960
:101350006465204279205A65726F00004F7665728D
:10136000666C6F7700000000556E646572666C6F86
:1013700077000000496E657861637420526573756B
:101380006C7400005349474650453A2041726974D5
:10139000686D6574696320657863657074696F6EE4
:1013A0003A20000001491820ABBEFEE726000200EB
:1013B00070B505460C460A2000E06D1C00F011F8DF
:1013C00035B128780028F8D102E0641C00F009F853
:1013D00014B120780028F8D1BDE870400A20AFF39E
:1013E000008008B569468DF800000320ABBE08BD3B
:1013F0007047000040F21440C4F201000168890205
:1014000058BF70474FF40011016002F02BBB000081
:1014100040F26450C2F20000818840F2EC42C2F215
:1014200000021180018840F2F042C2F200021180F5
:10143000408840F2F241C2F200010880704700008B
:10144000F0B587B042F200444FF0904003210022F3
:101450004023C4F20104002702F012FA4FF4A01056
:10146000012101F097FC09200321002203F0D0FAAA
:101470000825C4F20205284601F000FF02AE3046FE
:1014800001F0A6FE0320C0F20010CDF8120040F2D9
:101490006450C2F20000039004F14C00029040F24C
:1014A0000110C0F20120CDF8160028463146ADF8F3
:1014B000107001F09DFE28460221012201F0D6FEA7
:1014C0002846012101F07EFE0920C0F2180001210A
:1014D00001F060FC022001F037FB01AD284600F06E
:1014E00043FA40F20110C0F2003001902046294634
:1014F00000F018FA204603210122032300F05CFAD1
:10150000204606210222032300F056FA204610212D
:101510000322032300F050FA012000F085FB20464F
:101520000721012200F060FB2046012100F034FA7F
:101530002046012100F03AFA204600F019FA00BFD7
:10154000204600F01BFA0028FAD1204600F01AFAD3
:10155000204600F01DFA0028FAD107B0F0BD0000C7
:10156000FEE70000B0B5022001F03AFE012818BFE6
:10157000B0BD0424C4F2020401252560FFF748FF32
:10158000082001F02DFE012808BF2560B0BD000035
:1015900010B51C242020C4F2020401F021FE012811
:1015A00006D1102044F8180C206820F001002060BB
:1015B000802001F015FE012818BF10BD102044F84E
:1015C000180C206820F00100206010BD10B5042424
:1015D0004FF48040C4F2020401F002FE012810D151
:1015E00040F2B940C2F20000007850B140F2204011
:1015F000C4F20000016841F0020101604FF4804034
:1016000020604FF4005001F0EBFD01280FD14FF4A2
:1016100080502060206C20F00100206404F096FDD2
:1016200042F22400C4F200008168023901604FF4E4
:10163000004001F0D5FD012804BF4FF48050206028
:1016400010BD000070470000FEE7000043F20000FC
:10165000C4F2000045F2555101604CF6CC410160E6
:10166000032141604FF47A6181604AF6AA2101604A
:1016700070470000FEE70000704700007047000060
:10168000B0B501F095FD40F20004C2F2000440F252
:101690009845B4F84E00C2F20005B5F8421000EBD0
:1016A000400008448008A4F84E0000F035FEB4F86D
:1016B0004E00A179C2085143EA7DC1EB5000002AD7
:1016C000A986E88708BF01F0FBFD40F21450C2F282
:1016D0000000016842F20F7291429CBF013101602B
:1016E000B0BD0000704700007047000041F20000EC
:1016F000C4F20200016841F001010160016889073C
:101700005FBF01685FEA817101685FEA817102D49D
:1017100001688907F2D5416821F00301416000BFEB
:10172000416811F00C0F0BD0416811F00C0F07D07D
:10173000416811F00C0F03D0416811F00C0FEFD18C
:1017400001684FF6FF72CFF6F2621140016000218E
:10175000416041F61071C1624FF4801101634FF492
:101760001F0181604EF6085041F20001CEF20000E8
:10177000C0F600010160704710B50B20C0F21800E0
:10178000012101F007FB42F60044C4F2010440F6D7
:10179000B830E0620020A06246F66800A0616820D0
:1017A000E06120460021012204F044FC2046022191
:1017B000012204F03FFC20460421012204F03AFCFF
:1017C0002046012104F05AFC606C3C2161F30700C3
:1017D00060641124C0F214042046012101F0DAFAF9
:1017E000601C012101F0D6FA40F20044C4F6000466
:1017F000204602210022022302F042F82046022164
:101800000022012302F03CF84FF090400221002218
:10181000802302F035F820460121022202F03CF834
:1018200020460021022202F037F84FF090400721B5
:10183000022202F031F84FF09040022100224FF4D2
:10184000806302F01DF84FF09040022100224FF417
:10185000007302F015F84FF09040022100224FF47F
:10186000807302F00DF84FF090400A21022202F03E
:1018700013F84FF090400921022202F00DF84FF0CA
:10188000904008210222BDE8104002F005B8000097
:1018900042F21000C4F200004FF6FE71016003F046
:1018A00071BE000044F21000C4F201004FF6FE7158
:1018B00001604FF6FD7101607047000044F2104076
:1018C000C4F2010000210160FFF7DABE40F21040CF
:1018D000C4F200000168890744BF4FF6FD71016042
:1018E0000168C9071CBF4FF6FE7101607047000018
:1018F00070470000FEE700004EF60C50BFF34F8F1C
:10190000CEF200000168042201F4E061C0F2FA5254
:1019100011430160BFF34F8F00BF00BF00BF00BF86
:10192000FAE700000A78436802F0010223F48073AA
:1019300043EA022242604A78836862F3410383608B
:101940008A78836802F0010223F4006343EAC2222A
:101950008260C978C26A013901F00F0122F4700275
:1019600042EA0151C16270474FF0807101607047D7
:10197000816841F008018160704700008068C0F311
:10198000C0007047816841F0040181607047000029
:101990008068C0F380007047826801F0010122F482
:1019A000807242EA0121816070470000826861F321
:1019B0000002826070470000B0B5112900F29780E4
:1019C000DFE801F00A0E181C2024282C303A444C81
:1019D00056606A747E8800BF84465CF8104F38E019
:1019E00084465CF8105F382404EAC30E25F03803FF
:1019F00079E000BF84465CF8104F3CE084465CF818
:101A0000104F42E084465CF8104F48E084465CF892
:101A1000104F4EE084465CF8104F54E084465CF86A
:101A2000104F5AE084465CF8104F03F007034FEA6A
:101A3000036E24F0E06356E084465CF8104F03F038
:101A400007034FEAC36E24F060534CE084465CF811
:101A50000C4F03F0070E24F0070344E084465CF8C3
:101A60000C4F382505EAC30E24F038033BE000BFD5
:101A700084465CF80C4F03F007034FEA831E24F4FE
:101A8000E07330E084465CF80C4F03F007034FEA44
:101A9000432E24F4606326E084465CF80C4F03F088
:101AA00007034FEA033E24F4E0431CE084465CF85D
:101AB0000C4F03F007034FEAC33E24F4603312E0F7
:101AC00084465CF80C4F03F007034FEA834E24F47E
:101AD000E01308E084465CF80C4F03F007034FEA7C
:101AE000435E24F4600343EA0E03CCF80030013A6D
:101AF0000F2A88BFB0BDDFE802F0090D1115191DCE
:101B00002125292D313D49535F6B00BF50F8342FFB
:101B10003EE000BF50F8342F44E000BF50F8342FAF
:101B20004CE000BF50F8342F54E000BF50F8342F81
:101B300016E000BF50F8342F1EE000BF50F8302FE1
:101B400026E000BF50F8302F2CE000BF50F8302FB7
:101B500034E000BF50F8302F3CE000BF50F8302F89
:101B60004FF0F87303EA015122F0F872114301605B
:101B7000B0BD00BF50F8302F4FF0785303EA4161F9
:101B800022F0785211430160B0BD00BF50F82C2FF5
:101B900001F01F0122F01F0211430160B0BD00BF20
:101BA00050F82C2F4FF4787303EA411122F4787225
:101BB00011430160B0BD00BF50F82C2F4FF4F84323
:101BC00003EA812122F4F84211430160B0BD00BF55
:101BD00050F82C2F4FF4782303EAC13122F47822F5
:101BE00011430160B0BD00008368072923F0007332
:101BF00088BF03F100738360836802F0010261F320
:101C000053438360816821F4801141EA025181606D
:101C100070470000826801F0010122F4800242EA6C
:101C2000815181607047000042F20841C4F2010115
:101C30000A6800F0010022F4000242EAC050086085
:101C4000704700002DE9F04140F20004C2F20004A8
:101C500040F29845617EC2F20005B5F84A00D9B15C
:101C6000013801B2002948BF40F26710B5F84C10A6
:101C7000A5F84A0001390AB2002A48BF40F26711AC
:101C8000B5F84E20A5F84C10511E0AB2002A48BFE4
:101C900040F267111AE000BF013001B2B1F5B47F24
:101CA000A8BF0020B5F84C10A5F84A0001310AB2CF
:101CB000B2F5B47FA8BF0021B5F84E20A5F84C10AE
:101CC000511C0AB2B2F5B47FA8BF002140F2DE0871
:101CD00000B2C2F20008A5F84E1038F91000B4F8AE
:101CE0004C10E28F084444F6D3575043C1F26207C8
:101CF00050FB07F0C111227A01EBD07046F2676603
:101D00005043C6F2666650FB06F0810801EBD070C6
:101D100080B203F0E1FAB5F94C00B4F84C1038F990
:101D20001000E28F0844504350FB07F0C111227AA3
:101D300001EBD070504350FB06F0810801EBD070EE
:101D400080B203F0CFFAB5F94E00B4F84C1038F970
:101D50001000E28F0844504350FB07F0C111227A73
:101D600001EBD070504350FB06F0810801EBD070BE
:101D700080B2BDE8F04103F0BBBA0000F0B581B01D
:101D80002825C4F6000505F57674204601210022B9
:101D900002230126022701F073FD4FF0904001213C
:101DA00000224FF48063C5F800744FF4806701F09F
:101DB00067FD20460121002201232F6001F060FD14
:101DC0004FF09040012100224FF40073C5F80064E9
:101DD0004FF4007401F054FD4FF0904001210022B7
:101DE00080232C60802401F04BFD4FF090400121B6
:101DF00000224FF480732C604FF4807401F040FD9A
:101E00002C6001B0F0BD000070B540F20105C2F2D7
:101E10000005287840F20044C4F60004002820465B
:101E200006D002210022022301F02AFD07E000BFB4
:101E3000012100220223022601F022FDA6624FF0BA
:101E40009040022100224FF4806301F019FD2878B0
:101E500030B1204602210022012301F011FD07E0EC
:101E60002046012100220123012601F009FDA6627E
:101E70004FF09040022100224FF4007301F000FD6A
:101E8000287838B14FF0904002210022802301F0E1
:101E9000F7FC0CE04FF090400121002280238025C8
:101EA00001F0EEFC4FF62840CFF6FF7025504FF0C2
:101EB0009040022100224FF48073BDE8704001F091
:101EC000DFBC000040F21D03C2F200031A781C20A0
:101ED000C121C4F20100042AC4F2000101D0012A88
:101EE00003D101F1100202601A78052A01D0022AFA
:101EF00003D101F1200202601A78062A04D0032AD5
:101F000008BF016001E000BF016040F21801C2F2A9
:101F100000010A78D0F8EC1352B121F40011C0F896
:101F2000EC13D0F8F01341F40011C0F8F01370472F
:101F300041F40011C0F8EC13D0F8F01321F40011B3
:101F4000C0F8F01370470000002818BF70471C202D
:101F5000C4F20100026861F30002026070470000F1
:101F6000F0B581B00138052800F2D481DFE800F037
:101F700004185694BEE800BF40F20100C2F200000F
:101F800000782824C4F60004002804F5767000F0D8
:101F9000EB8002210022022301F072FCECE000BF82
:101FA0002825C4F6000505F5767420460121002297
:101FB00002230126022701F063FC4FF0904001212B
:101FC00000224FF48063C5F800744FF4806701F07D
:101FD00057FC20460121002201232F6001F050FC14
:101FE0004FF09040012100224FF40073C5F8F063D8
:101FF0004FF4007401F044FC40F201002C60C2F286
:1020000000000078002800F0EB804FF090400221A3
:102010000022802301F034FCF5E000BF2825C4F63F
:10202000000505F5767420460121002202230126D1
:10203000022701F025FC4FF09040012100224FF4CF
:102040008063C5F8F0734FF4806701F019FC2046F7
:102050000121002201232F6001F012FC4FF090407B
:10206000012100224FF40073C5F800644FF400749E
:1020700001F006FC40F201002C60C2F20000007882
:10208000002800F0B7804FF090400221002280230A
:1020900001F0F6FBB7E000BF2825C4F6000505F502
:1020A000767420460121002202230126022701F036
:1020B000E7FB4FF09040012100224FF48063C5F808
:1020C000F0734FF4806701F0DBFB40F201002F60FA
:1020D000C2F200000078002800F0A0802046022113
:1020E0000022012301F0CCFBA0E000BF2825C4F6AC
:1020F000000505F576742046012100220223012601
:10210000022701F0BDFB4FF09040012100224FF467
:102110008063C5F800744FF4806701F0B1FB40F2B2
:1021200001002F60C2F200000078002800F09080CB
:10213000204602210022012301F0A2FB90E000BF13
:1021400040F20100C2F2000000782824C4F6000426
:10215000002804F5767000F0A380022100220223FB
:1021600001F08EFBA4E000BF012100220223022522
:1021700001F086FBC4F800544FF090400221002289
:102180004FF4806301F07CFB04F57670012100229E
:102190000123012501F074FB4FF090400121002242
:1021A0004FF40073C4F8F0534FF4007501F068FB6E
:1021B0004FF090400121002280232560802501F00E
:1021C0005FFB4FF09040012100224FF480732560A7
:1021D0004FF4807501F054FB256001B0F0BD00BFE5
:1021E0004FF09040012100228023802401F048FB21
:1021F0002C6008E04FF090400121002280238024D1
:1022000001F03EFB2C604FF09040022100224FF481
:10221000807301B0BDE8F04001F032BB20460121DF
:102220000022012301F02CFBC5F800644FF0904020
:10223000022100224FF4007301F022FB4FF0904086
:10224000012100228023802401F01AFB2C6019E078
:10225000204601210022012301F012FBC5F8006491
:102260004FF09040022100224FF4007301F008FB70
:102270004FF09040012100228023802401F000FBD8
:1022800045F8104C4FF09040012100224FF480732C
:102290004FF4807401F0F4FA2C6001B0F0BD00BF7F
:1022A000012100220223022501F0EAFAC4F80054B9
:1022B0004FF09040022100224FF4806301F0E0FAD9
:1022C00004F57670012100220123012501F0D8FADE
:1022D0004FF09040012100224FF40073C4F80054E5
:1022E0004FF4007501F0CCFA4FF09040012100222C
:1022F00080232560802501F0C3FA4FF09040012132
:1023000000224FF4807344F8105C4FF4807501F0A4
:10231000B7FA256001B0F0BD2DE9F04740F2000C9E
:1023200040F2984AC2F2000C40F21459C2F2000A7C
:102330009CF81D10C2F20009BAF8422009F1080702
:1023400007EB410727F8022CB9F80820B9F80A7002
:10235000B9F80C40B9F80E603A44B9F8105022446C
:10236000B9F8120032442A449CF819301044043061
:102370004010012BCAF8780012D10131C8B20728E9
:102380008CF81D1022BF01218CF81D108AF8131043
:1023900001F001029AF816008CF81820B0B912E08A
:1023A000013908068CF81D1005D1062101208CF892
:1023B0001D108AF81300012020EA01029AF8160085
:1023C0008CF8182010B9C8B2FFF7CAFDFFF77AFDE4
:1023D000DAF87000B0F5FA6F08D99AF805009AF8A3
:1023E0000B1008431CBF01208AF817009AF80C0054
:1023F00000210028AAF8221008BFBDE8F0879AF84B
:102400001A00002857D0DAF87800BAF8261040F2FF
:102410005C07C2F20007411A3A69D7E90130DAF8DD
:10242000604000FB01203A6A3960FE689042C8BFF4
:10243000104652429042B8BF1046BA6938618A1AB3
:1024400002FB060002FB06F503FB01007A6A7D61D0
:10245000B9619042C8BF104651428842B8BF084691
:10246000F86104F06BFA44F20001C4F21C6104F05C
:1024700035F90146204604F05BF84EF20001C4F243
:10248000FF41044604F002F900281CBF4EF200048C
:10249000C4F2FF44204600214FF0000804F00BF97D
:1024A000002818BF0024D9F80000CAF8604063284B
:1024B00098BFC7F81080BDE8F08700002DE9F04F05
:1024C00089B040F27857C2F20007D7F87CC097E88D
:1024D0004C00D7E90359ACEB02010791C1F34A1153
:1024E0009A1A8A424FF00002D7E9050ED7F81C80ED
:1024F00088BF01220892AA1B8A424FF00002A0EB7B
:10250000090088BF012288424FF00000069288BF70
:1025100001200590A8EB0E0088424FF0000088BF14
:10252000012007F1200604904DCE4FF0000B101A49
:102530008842A6EB0300D7E90C54D7F838E0FA6BD1
:1025400088BF4FF0010B88424FF00000CDF800B07B
:1025500088BF01200390601B88424FF0000088BFB5
:1025600001200290A2EB0E0088424FF0000088BFCD
:10257000012007F1400301900DCB4FF0000A101A23
:10258000FA6C8842386DA2EB030288BF4FF0010A53
:102590007B6D4FF000098A42A3EB000088BF4FF02B
:1025A0000109D7E916234FF000088842A3EB020087
:1025B00088BF4FF00108D7E9182300258842A3EB14
:1025C000020088BF0125D7E91A328842A2EB030432
:1025D000D7E91C20BB6FA0EB020E4FF00002ACEB62
:1025E000030088BF01228C424FF0000C88BF4FF0DF
:1025F000010C8E454FF000034FF0000788BF012308
:10260000884288BF0127089840F2B64680EA0B004E
:1026100090EA0A0018BF08208C424FEAC204C2F2B6
:10262000000688BF04348E4596F800E040F27866D4
:10263000C2F2000696F800B088BF02345BEA0E06CC
:1026400040F2284BC2F2000BABF808100899CBE916
:10265000132CCBF81C100099039ACBF82C10069978
:10266000CBF83020CBF8201081EA020181EA090181
:1026700061F382000599029ACBF8241081EA0201E5
:1026800081EA0801CBF8342061F341000499019AF2
:10269000079ECBF8281081EA0201ABF80A6081EAB4
:1026A000050104EB070640F27864CBF8485040EA95
:1026B0000105C2F20004CBF83CA0CBF85430CBF8B3
:1026C0004090CBF84480CBF83820CBF858700CD130
:1026D00001F084F848B19BF804000130C1B26529CB
:1026E0008BF8040024BF012020702078002818BF38
:1026F00086F00F06AE4247D10BF11C078FCF49027F
:1027000041EA802040EA0220DBE90C6540EAC31080
:1027100040EA8710DBF8384040EA46100BF13C07EE
:1027200040EA05108ECF40EAC40040EA810040EA4A
:10273000420040EA030140F2D840BBF80C30C2F23C
:10274000000000220280581C012FABF80C0005D1BC
:1027500040F2AD40C2F200000122027030291BDBC2
:102760009BF80100C0B140F2D240C2F200000180EB
:1027700040F27960C2F20000002101708BF8021073
:1027800009B0BDE8F08F00BFBBF80E000130ABF818
:102790000E0009B0BDE8F08F481E2E280ED840F27A
:1027A000D240C2F200000022028040F27962C2F2FE
:1027B0000002C8B21170F8B9EBE700BF31B140F2C6
:1027C0007960C2F200000078B0B9E2E79BF800003F
:1027D00040F2D241012804BF00208BF80100C2F270
:1027E00000010020088040F27961C2F20001087007
:1027F0008BF802000028CCD040F2B241C2F20001B6
:1028000009780029C5D140F2B641C2F20001097829
:102810000029BED09BF8031088421EBF8BF803002E
:1028200000218BF80210052807D39BF80210013114
:10283000CAB2062A8BF80210ABD30138002514283F
:102840008BF8025000F28080DFE800F00C10147E5C
:10285000187E1C2E424A7E5256647E7E7E7E7E6CA0
:10286000740000BF02F03AFA6EE000BF02F070FAA6
:102870006AE000BF02F004F966E000BF02F0A4FACB
:1028800062E000BF40F29A40C2F2000000210170F5
:1028900040F21900C2F200000121017040F2AA408A
:1028A000C2F2000001704FE040F29A40C2F2000014
:1028B0000121017040F21900C2F2000000210170F4
:1028C00040F2AA40C2F20000022101703CE000BFC9
:1028D00040F29B40C2F200000021017034E000BFD2
:1028E00040F29B40C2F20000012101702CE000BFC9
:1028F00002F070FB28E000BF9BF8001001204FF4AD
:1029000060628BF805000129ABF8062008BF8BF840
:10291000010019E000208BF8050040F6FF60ABF8DD
:10292000060011E040F29A40C2F200000078C0F1C7
:10293000010004E040F29A40C2F20000007840F248
:102940001901C2F20001087040F27960C2F2000081
:10295000017840F2C072C2F200021170057009B035
:10296000BDE8F08F70B582B040F27855C2F2000534
:10297000D5E9000140F27652081AA0F2213140F266
:1029800084449142C2F2000436D86178D1B3E17830
:10299000002951D0217940F2E14290420BD840F217
:1029A0002602C2F2000213880131C3EBC3031844AC
:1029B000C00821711080C8B24C2873D340F22600A1
:1029C000C2F2000001880025193101804FF6125033
:1029D000CFF6FF7010FA81F000EBD07040F27A6110
:1029E0004008C2F2000181F82000657002F0F2FA9E
:1029F000257102F00FF955E040F2CE40C2F200001E
:102A000054E000BF40F29B41C2F20001097839B3A3
:102A100040F22A01C2F200010A88904236D940F2FF
:102A20002801C2F200010B88511C4FF4FA661A46C5
:102A300040F2E93332E000BFA17840F228060029D5
:102A40000CBFE080E0880131C2F20006A17031883D
:102A500080B200F0B7FE332846DB0020607064E0EF
:102A600040F2260140F22802C2F20001C2F2000246
:102A70000988128840F2FF762F23009601F0A8FF04
:102A800001462F3818BF08460BE000BF40F2260170
:102A9000C2F2000109884FF47A760023009601F013
:102AA00097FFE06040F2D840C2F2000040F2D2410D
:102AB000C2F2000140F2D806E2680B88C2F20006BA
:102AC0003668D51AB5424FF00005058004DD9A1925
:102AD0000A8002B070BD00BF981AB042C8BF9A1BEE
:102AE0000A8002B070BD00BF3088D5E90012C0EB8B
:102AF000C000511A0844A178C0083329308014D38B
:102B00004FF62A111938CFF6FF71308011FA80F094
:102B100000EBD07040F27A614008C2F2000181F807
:102B200021000120E07002F0A7F8E0783188002849
:102B3000E180B7D0D5E90001081A217940F2E142DD
:102B400090427FF62CAF36E741F20401C4F2020155
:102B50000A6860F38F320A600A68C0F3830060F38A
:102B60001C720A607047000041F20401C4F20201C5
:102B70000A6800F00F0022F0F00242EA001008603C
:102B80007047000041F20401C4F202010A6800F03B
:102B9000070022F4E06242EA00200860704700006B
:102BA00041F20401C4F202010A6800F0070022F4B5
:102BB000605242EAC02008607047000041F25401B0
:102BC000C4F202010A68012822F0300208BF303244
:102BD0000A607047042888BF7047DFE800F0030DE3
:102BE0001B29330041F20000C4F20200026861F3C5
:102BF00000020260704700BF41F20000C4F2020010
:102C0000026801F0010122F4803242EA01410160D0
:102C1000704700BF41F20000C4F20200026801F0F8
:102C2000010122F0807242EA01610160704700BF39
:102C300041F20000C4F20200026A61F30002026283
:102C4000704700BF41F20000C4F20200426A61F323
:102C5000000242627047000070B541F20401C4F204
:102C600002010A68C2F3810341F20022022BC0F282
:102C70007A020DD0002B4BD10B6D9B0548D5CB6A4A
:102C80009B0144BF46F60042C0F2DC2240E000BF98
:102C90000B688C6AC3F30046002C17D40C680B68D1
:102CA000C4F38344C3F341731D010135002B2B464C
:102CB00008BF02230F2C08BF2B46234406BB40F657
:102CC0000012C0F23D025A4322E000BF8B6A8C6AB8
:102CD000C3F3031E8B6A40F6001CC0F23D0CC4F324
:102CE000082403F007031EB10D68AD0358BF9446D6
:102CF0000CFB04F20EFA03F3B2FBF3F208E000BFA0
:102D00000E68B60344BF40F60012C0F23D025A43BB
:102D100002600B6812A6C3F30313F35C46F63A761F
:102D2000DA4042600B68C0F60006C3F30223F35C8E
:102D300022FA03F3C3600B68C3F3C223F35C0426D7
:102D4000DA4082600B68096806EA9363C1F3813157
:102D5000194407A3595CB2FBF1F1016170BD00BFDA
:102D6000000000000000000001020304060708093B
:102D700002040608020C081041F20002010CC4F221
:102D80000202895800F01F0021FA00F000F0010053
:102D90007047000041F2000200F01F034FF0010CE9
:102DA000C4F2020201290CFA03F14FEA10408358E1
:102DB00014BF23EA010119438150704741F2000218
:102DC00000F01F034FF0010CC4F2020201290CFABB
:102DD00003F14FEA1040835814BF23EA010119435D
:102DE0008150704741F20402C4F20202136868B1D4
:102DF00043F4803313601368012807BF23F40033C2
:102E00004FF0007043F40033002002E023F48033DD
:102E100000201360136861F3954313601368C1F3D6
:102E2000021161F35E731360916A21F0E06108435F
:102E30009062704741F20000C4F20200016841F064
:102E400001010160016889075FBF01685FEA817164
:102E500001685FEA817102D401688907F2D541688F
:102E600021F00301416000BF416811F00C0F0BD04D
:102E7000416811F00C0F07D0416811F00C0F03D01E
:102E8000416811F00C0FEFD101684FF6FF72CFF6D9
:102E9000F262114001600021416041F61071C1628F
:102EA0004FF4801101634FF41F01816070470000EF
:102EB00041F20401C4F202010A6860F301020A60EF
:102EC0007047000041F20400C4F202000068C0F341
:102ED0008100704744F62401C4F2010100220A6017
:102EE00007E000BF0A68824228BF70470A68824232
:102EF00005D20A68824202D20A688242F2D370473F
:102F000044F62401C4F2010100220A6042F6E062A4
:102F10004A6051F8102C00EB800042F001024000A2
:102F200041F8102C0A68824208D20A68824205D20F
:102F30000A68824202D20A688242F3D3782048604B
:102F400051F8100C40F0010041F8100C70470000DF
:102F50002DE9F04340F2785CC2F2000C40F2580ECA
:102F6000DCF80040C2F2000E44F62061002300228B
:102F7000AEF8021003E000BF2833782B5CD00CEBD6
:102F8000030045682C1B05D022448C423CBFA1B2F3
:102F9000AEF802408468651B05D02A448D423CBFD0
:102FA000A9B2AEF80250C5682C1B05D022448C4251
:102FB0003CBFA1B2AEF802400469651B05D02A44AB
:102FC0008D423CBFA9B2AEF8025045692C1B05D01A
:102FD00022448C423CBFA1B2AEF802408469651B1A
:102FE00005D02A448D423CBFA9B2AEF80250C56953
:102FF0002C1B05D022448C423CBFA1B2AEF802404B
:10300000046A651B05D02A448D423CBFA9B2AEF8C4
:103010000250456A2C1B05D022448C423CBFA1B211
:10302000AEF80240846A601BA6D0024488423CBFCE
:1030300081B2AEF802009FE740F2B848C2F2000841
:1030400098F8000040F2844C5409C2F2000C0128A8
:10305000CCF8104037D1012935D9D4090E2C98BFAE
:10306000042917D905292ED3182C98BF08292AD846
:1030700040F2D5050124C2F200052C7003258CF81E
:10308000055040F2D405C2F20005072688F800403A
:1030900010E000BF40F2D504C2F200040025257004
:1030A000012440F2D4058CF8054088F80040C2F2B3
:1030B00000050C262E7020258EF8005040F2B745F2
:1030C000C2F200052C7040F2B949C2F2000999F829
:1030D0000060A1F1C905012E14D144F65657BD4236
:1030E00010D840F2D503C2F2000377241C700223EB
:1030F0008EF8003040F2B7430127C2F2000389F88E
:1031000000701F70304323D1022921D3D0090E282B
:1031100098BF04291ED905291AD3182898BF082951
:103120002AD944F65650854288BFBDE8F08340F264
:10313000D501C2F2000177220A7002218EF8001038
:1031400040F2B7410120C2F2000189F80000087086
:10315000BDE8F08340F2D500C2F20000002101700A
:1031600040F2D4010120C2F200010C228CF80500CB
:1031700088F8000010E000BF40F2D5010120C2F243
:103180000001087003218CF8051040F2D40188F882
:103190000000C2F2000107220A7020218EF8001000
:1031A00040F2B741C2F200010870BDE8F0830000B0
:1031B00044F20C40C4F20100016821F001010160F9
:1031C00070470000026861F300020260704700006F
:1031D00000210182C0E90011C0E90211704700001E
:1031E0000021C4F202010968084018BF012070479D
:1031F00002684BF6EF731A4002600A8903681A43AB
:1032000002604A7C036802F0030223F4405343EA5D
:1032100002320260CA7B036802F0030223F44063B7
:1032200043EA822202608A7B036802F0030223F4ED
:10323000407343EA022202604A7B036802F0010203
:1032400023F0800343EAC21202600A7B036862F340
:10325000861303600A7C036862F3451303604A899E
:1032600042600A6882604968C1607047002A02684B
:103270000CBF22EA010111430160704701686FF041
:1032800007024CF6CD4352FA80F2CCF6CC43A2FBB7
:10329000032321F00101016000210422016041604B
:1032A0008160C1606FF00300C4F2020200EA930083
:1032B0000F21136801FA00F01843106070470000F6
:1032C00040F20040C4F20100016841F400110160C5
:1032D0007047000010B542F60044C4F201042046D5
:1032E0000021012202F056FE20460221012202F0B6
:1032F00051FE20460421012202F04CFE204601210D
:10330000012202F047FE20460321012202F042FE84
:1033100020460521012202F03DFE206840F0010018
:103320002060606C40F400406064606940F001001F
:10333000606144F20040C4F20100016840F20044C0
:1033400041F0010101604169C4F2000441F0010152
:103350004161C16821F00101C160D0F8001441F061
:103360000101C0F80014D4F8000C40F00100C4F8CA
:10337000000C41F21400C4F20000016841F00101A8
:10338000016042F20000C4F20000016841F0010156
:103390000160416941F001014161C16841F00101F1
:1033A000C160FEF74DF820460021012202F0F2FD37
:1033B000206840F00100206010BD00004420C4F2ED
:1033C0000200016841F004010160704742F20C0103
:1033D000C4F202010860704742F21000C4F2020019
:1033E000016841F0800101607047000042F20C0169
:1033F000C4F202014A6842F002024A6088604868EA
:1034000040F0400048600868C0070DD108684007D8
:1034100046D40868C0064FF0020058BF03204A682F
:1034200022F002024A6070474FF080420868C007ED
:1034300000F08B800868C00738D00868C0073BD010
:103440000868C0073ED00868C00741D00868C007B8
:1034500044D00868C00747D00868C0074AD0086849
:10346000C0074DD00868C00750D00868C00753D0C7
:103470000868C00756D00868C00759D00868C00758
:103480005CD00868C0075FD00868C00768D0103AF1
:10349000CCD104204A6822F002024A60704700BF83
:1034A00001204A6822F002024A607047013A086827
:1034B00040074DD558E000BF023A0868400747D59D
:1034C00052E000BF033A0868400741D54CE000BF16
:1034D000043A086840073BD546E000BF053A086853
:1034E000400735D540E000BF063A086840072FD5B1
:1034F0003AE000BF073A0868400729D534E000BF2A
:10350000083A0868400723D52EE000BF093A08684A
:1035100040071DD528E000BF0A3A0868400717D5C4
:1035200022E000BF0B3A0868400711D51CE000BF3D
:103530000C3A086840070BD516E000BF0D3A086842
:10354000400705D510E000BF0E3A086840070BD4CD
:103550000868C0064FF0020058BF032005E000BF16
:103560000F3A08684007F3D50120012A08BF04205C
:103570004A6822F002024A607047000042F20400EA
:1035800040F22311C4F20200C4F26751016048F610
:10359000AB11CCF6EF5101607047000042F20C0213
:1035A000C4F20202536843F00103536001601068E3
:1035B000C0070DD11068400746D41068C0064FF010
:1035C000020058BF0320516821F00101516070478B
:1035D0004FF480111068C00700F08B801068C0079E
:1035E00038D01068C0073BD01068C0073ED01068C4
:1035F000C00741D01068C00744D01068C00747D04A
:103600001068C0074AD01068C0074DD01068C007C6
:1036100050D01068C00753D01068C00756D010684B
:10362000C00759D01068C0075CD01068C0075FD0D1
:103630001068C00768D01039CCD10420516821F03F
:1036400001015160704700BF0120516821F0010164
:10365000516070470139106840074DD558E000BFF0
:1036600002391068400747D552E000BF033910689F
:10367000400741D54CE000BF0439106840073BD5F6
:1036800046E000BF05391068400735D540E000BF6F
:103690000639106840072FD53AE000BF0739106897
:1036A000400729D534E000BF08391068400723D50A
:1036B0002EE000BF0939106840071DD528E000BF83
:1036C0000A391068400717D522E000BF0B3910688F
:1036D000400711D51CE000BF0C39106840070BD51E
:1036E00016E000BF0D391068400705D510E000BF97
:1036F0000E39106840070BD41068C0064FF0020066
:1037000058BF032005E000BF0F3910684007F3D50C
:103710000120012908BF0420516821F001015160F6
:1037200070470000F0B581B02825C4F6000505F506
:10373000767420460121002202230126022700F090
:103740009FF84FF09040012100224FF48063C5F8AC
:10375000F0734FF4806700F093F8204601210022B7
:1037600001232F6000F08CF84FF0904001210022DF
:103770004FF40073C5F8F0634FF4007400F080F864
:103780004FF090400121002280232C60802400F023
:1037900077F84FF09040012100224FF4807345F8F4
:1037A000104C4FF4807400F06BF82C6001B0F0BD49
:1037B00042F61440C4F20100016841F001010160C9
:1037C00070470000401A48BF404270471C20C4F2B6
:1037D00001000068C0F380707047000040F21040A4
:1037E000C4F60000006800F01000704741F22400A9
:1037F000C4F20000006880B2704700002DE9F0417B
:103800000A88002A08BFBDE8F0814FF000084FF099
:10381000030C4FF0010E0024002508E0B8EB520F16
:103820004FEA520205F1010504F1020426D0D60741
:10383000F4D006680CFA04F7BE4306608E7903687C
:10384000A6403343036043680EFA05F6B343436072
:103850000B794668AB40334343608368BB43836066
:10386000CB798668A34033438360C368BB43C3609E
:103870004B79C668A3403343C360CFE7BDE8F0810E
:10388000D0F800C05B4303EB43022CEA0202594329
:10389000114301607047000010B51C2303EA810E3C
:1038A00024234FF00F0C11F0F80F08BF2023C45849
:1038B0000CFA0EF124EA0101C150C15802FA0EF2CD
:1038C0001143C15010BD000062B670472DE9F04FA2
:1038D00081B001F02BFD4FF4A0100121FFF75AFA3F
:1038E0004EF20B47CEF2000710204EF20016387051
:1038F000CEF200064FF400603060FDF73DFF40F26D
:10390000010BC0F21C0B0BF103000121FFF742FA7F
:1039100041F22800C4F200004FF6FF7A3B24C0F8C1
:1039200004A004600BF107000121FFF733FA42F213
:103930002800C4F20000322141607721016020207C
:1039400038724FF4002011253060C0F2140528466B
:103950000121FFF71FFA4FF4C0100121FFF71AFAF7
:103960004FF090400321002202234FF00009FFF79F
:1039700087FF4FF09040032100222023FFF780FFB4
:1039800087F801904FF48050306000200121FEF74D
:10399000DBFA1220C0F218000121FFF7FBF944F610
:1039A0002C0044F20048C4F20100C4F20108C0F83F
:1039B00000A0C8F82844D8F80004012140F0800095
:1039C000C8F8000405F58020FFF7E4F94FF4FA7019
:1039D000C8F82C00C8F82840D8F80000012140F0B1
:1039E0008000C8F8000087F80A904FF4001030609B
:1039F000681CFFF7CFF958460121FFF7CBF940F2D9
:103A00000044C4F600042046022100221023FFF7E0
:103A100037FF204604210122FFF73EFF4FF4A0109C
:103A20000121FFF7B7F94420C4F2020040F68A11E1
:103A30000160102139704FF40060306040F20040A6
:103A4000C4F20000C0F82CA08162016841F080013E
:103A50000160016841F00101016001B0BDE8F04F73
:103A600001F016BD70B540F29844C2F20004206F18
:103A70007E282DD3FFF7BAFE7C280DD8A08FC00872
:103A80004A2809D840F21450C2F200000068B0F58C
:103A9000FA7F01D270BD00BFFFF7A8FE40F200011F
:103AA000C2F20001B1F84E10B0EB510F38BF70BD3B
:103AB000207F0130C1B26529207709D300F09CFF37
:103AC00040F21450C2F200000021016070BD00BF3E
:103AD000FFF78CFE40F20005C2F200052A7EA97DA8
:103AE000A4F8420062B1A9B1002600BFFFF76EFE44
:103AF0000028CFD1A87D01368642F7D30AE000BF67
:103B000041B10026FFF762FE0028C3D0A87D013630
:103B10008642F7D300F070FF002001F0FFFBE08F3A
:103B2000297DC840E087BDE8704001F0AFBB0000D0
:103B3000F0B581B040F27A64C2F2000447F6004169
:103B4000C0F600012046B02201F0C2F9607CA17CE1
:103B50000138B0FA80F040F298474009C2F20007FD
:103B6000B870481EE27CB0FA80F04009012AF87073
:103B700004BF0120B871207D617D0138B0FA80F06A
:103B800040F200064009C2F200067070481EA27D95
:103B9000B0FA80F04009B070501EB0FA80F04009D1
:103BA000E37DF070207E042BA0F1080128BF0223E2
:103BB0002829B37116D8182826D2A0F10C010B2998
:103BC00033D900F0FC01082940D141F64C5C0721B3
:103BD000102243F69823CDF800C000F0F9FEF087DC
:103BE00035E000BF41F28830B08741F2883001F003
:103BF0005BFB607EA0F13201642935D99620708686
:103C0000552030873BE000BF40F6C41C182130220D
:103C100041F28833CDF800C000F0DAFE0146207E84
:103C2000F187A0F10C010B29CBD841F2883C0C2183
:103C3000182242F21073CDF800C000F0C9FE014610
:103C4000207EF18700F0FC010829BED0F08F80B201
:103C500001F02AFBF08FA6F84800A6F84000607E2D
:103C6000A0F132016429C9D800F1780171861421CC
:103C700001EB500131871E2101EB50007087A07EBF
:103C8000227F00EB8000142505EBC000F083501E5E
:103C9000637FB0FA80F040093871581EB0FA80F0A6
:103CA000E17E400978710520F17101F02DFB60780B
:103CB000002800F0AF80A07F0B2888BF052001F00E
:103CC00023FBE07F94F820100138B0FA80F040091F
:103CD000F87140F2EE2094F8212000EB410094F8B6
:103CE0002230F08440F2D66000EB4200308503F2CF
:103CF0005E50708594F8230094F824107073481E69
:103D0000B0FA80F094F825104009B87201F1FA0079
:103D100094F82610B085481EB0FA80F04009F87279
:103D200094F828000021421F142A397298BF30737A
:103D300094F82900411E092998BF707294F82A004E
:103D4000411EC9B2082919D8B07200EB80006FF08B
:103D50002D01A1EB4000617EF07251FA80F2728673
:103D60004908B6F8462051FA80F1318752FA80F1BD
:103D7000F28EA6F8461052FA80F0F08694F82B00E6
:103D8000A0F14601462998BF707194F82C00411E9D
:103D9000622903D8400030840120787394F82D0004
:103DA000411E092998BF307294F82E10092909D8AC
:103DB00004290FD807F12100DFE801F004360A0CCE
:103DC0003A0000BF0020388440F22940C2F20000CF
:103DD00001210170F08B202381084A299CBF00211A
:103DE000F17348F21F51C5F2EB11A0FB01124FF223
:103DF000F101CFF2F001A0FB0101F0795209B3FB10
:103E0000F0F00909B2FBF0F2B1FBF0F0A6F84220A5
:103E1000A6F844007078C8210028318604BF00202D
:103E2000F87001B0F0BD00BF012087F82000CBE79B
:103E300040F22840C2F200000121017040F2294006
:103E4000C2F200000021017007F12000C0E700006D
:103E500082B0FFF739FDFFF739FDFFF73BFAFFF7B7
:103E600067FE40F6FC70C0F60000007840F2984B08
:103E7000C2F2000B8BF8250040F2B43140F27A60B8
:103E8000C2F20001C2F200000A78C7784B7840F213
:103E90000009BA42C2F2000902D10779BB4244D0FC
:103EA000C2700371D1F80220D1F80630D1F80A109F
:103EB000C0F80930C0F80D1099F800109BF80330D5
:103EC00041709BF802109BF806700139B1FA81F13C
:103ED00049094174591EB1FA81F149098174791E69
:103EE000C0F8052099F80120B1FA81F14909C1749F
:103EF000511EB1FA81F14909017599F8021099F83A
:103F000003200139B1FA81F149094175511EB1FA15
:103F100081F199F80630490947F600428175C0F6EB
:103F20000002B021C37501F097F89BF8060044F633
:103F3000D35200281CBFB9F83400A9F83200B9F8F0
:103F40003E00B9F83610C1F262024143A1FB0213F0
:103F5000B9F846109BF802704143A1FB0212791E8A
:103F600018BF012189F8191099F80B1099F8017000
:103F700001EBD311A9F83610D109A9F83C00A9F832
:103F80004610002FA9F8480004BF00208BF8060057
:103F90009BF80B0000B34FF47A70A9F8460001209B
:103FA0008BF80300002189F80F00B9F838008BF86E
:103FB0000610A9F8011089F80310B9F83A10323048
:103FC000A9F8380001F13200B9F83210A9F83A0026
:103FD00001F13200A9F8320000F0F6FE4FF0000ABD
:103FE000ABF836A0FDF732FB00F0E4FF00F0A2FFD3
:103FF0009BF8000040F21458C2F200080124002887
:104000001CBF01208BF80C0022E000BF9BF80400CD
:104010008BF80940002800F01D82B9F83E0099F89D
:104020000910B9F83C2000EB410113398BB25A4317
:10403000B2FBF0F2ABF83C10801A0130ABF8500044
:1040400000F00AFFBBF8500001F034F98BF816407D
:1040500000F0B0FFBBF83010D8F80000C8294FF0CE
:10406000000238BF012264284FF0000388BF0123FB
:10407000B0F57A7F00F20881002900F005811A402E
:1040800018BF8BF819A09F2905D89BF80620002A95
:1040900018BF8BF819A09BF80F202AB1090918291D
:1040A00098BF8BF819A005E095298CBF0A216421DF
:1040B00089F81110DBF8781045F25652C5F25552C6
:1040C00051FB02F101EBD1710B28CBF8701022D318
:1040D0009BF81300F8B1D8F80400FFF773FBDBF886
:1040E00070100A097C2A12D84A0890420FD99BF80E
:1040F0000E00C8F800A001308BF80E00B9F83200AD
:104100008BF81AA040088BF81740ABF82E008BF8FC
:1041100013A0C8F80410B9F84E000021972838BF42
:10412000012196284FF0000088BF01204EF20B427B
:1041300009010001CEF20002117050709BF81500C9
:10414000B8B1DBF868009BF82450BBF84460BBF8BA
:104150002C7002F0D1FBBBF8524003462846314692
:104160003A460094012400F09DFA01F081F88BF8A2
:1041700015A09BF814000130C1B265298BF814001A
:10418000C0F08C8042F20040C4F201000121FDF732
:1041900041FDBBF8580040F6E44740F20111784376
:1041A000C0F21001A0FB0112801A02EB500099F836
:1041B0001020C00A504348F21F52BBF85410C5F2F9
:1041C000EB12A0FB0202C1F57A6046F26761C6F20B
:1041D000666150FB01F0C11001EBD0709BF8241018
:1041E000ABF85600C1EBC1010844BBF84410C0084D
:1041F0008BF82400C1EBC100DBF86C1000EB52100F
:10420000BBF85A20C1EB81111144891140F2FF42E1
:10421000CBF86C107943C4F6EC7251FB02F10A1230
:104220009BF80A3002EBD171C0080A04ABF84400D5
:1042300048BF5146ABF82C1073B39BF81010B9F877
:104240002C2080B25143814224D9BBF828009BF82E
:104250001B104FF67C47013044F62063CFF6FF7702
:1042600082B211FB07319142ABF8280014DAABF8A7
:1042700038A0FDF783FD00F0BFFB8BF81AA0ABF868
:1042800036A08BF81EA007E08BF819A09F297FF6B7
:10429000FCAE00E7ABF828A08BF814A09BF81B003D
:1042A0008BF81CA0E0B3BBF838003128FFF4AEAEA9
:1042B0009BF81E1000293FF4A9AE882800F2B480B4
:1042C0009BF8090050B1FEF773FF00F095FB00204A
:1042D00000F0F0FFFDF798FD8BF809A0FDF7B2FCA8
:1042E00099F8071041F65832B2FBF1F340F22A3246
:1042F000BBF83800B2FBF1F730217822009700F0CC
:1043000067FBA9F84A0080B2FEF7E4FDB9F84A005D
:104310004FF41671B1FBF0F0ABF8520098E600BF15
:10432000DBF8780042F2C072C0F209029BF81A1062
:1043300092FBF0F04CF6CD42484381B2CCF6CC4231
:10434000A1FB021299F80F10ABF85200D008ABF89D
:104350005C0069B1B9F84210B9F84420B9F84630A8
:10436000B9F8487080B2009700F032FBA9F840001D
:104370009BF8240099F8052090420AD9B9F84830F2
:10438000A2F10A010A325B08009400F021FBA9F8AF
:104390004000D8F80000B9F84E1064284FF00C0027
:1043A0000ED3B1F5FA7F0BD8DBF8700064214FF41F
:1043B000FA7203230C27009700F00AFBB9F84E109D
:1043C000642938BF0220B9F81E1089F81600890840
:1043D0007C299CBF400089F816009BF81700002834
:1043E00000F0F6809BF81A00002800F0F18000F041
:1043F00003FBFFF7EBF999F81810002960D00028AB
:1044000060D09BF81D0099F81A200130C3B2934286
:104410008BF81D0088BF8BF823A09BF82200002892
:1044200040F0D68057E000BF8BF80940FDF70AFC4A
:10443000BBF83800C82813D95020ABF84AA0A9F817
:104440004A00FEF747FDBBF84A0000287FF400AEA3
:104450000FE000BF002000F02DFFFDF78FFCF7E517
:10446000B9F84A00FEF736FDBBF84A0000287FF491
:10447000EFAD42F22830A9F84E00CBF87000C8F832
:10448000040042F22830ABF81A408BF8174000F0D5
:1044900045FF0A2099F81510C8F800009BF80500A0
:1044A0008BF816A089F81D1000281CBFB9F83A0037
:1044B000A9F83800FDF730FFFFF77AF9C8E500BF2B
:1044C00000289ED09BF8230001308BF823009BF836
:1044D000220000287CD19BF8230079B399F81B10A7
:1044E000884275D98BF82240FFF780F9ABF842007B
:1044F000002000F013FFB9F84E00BBF8421000EBAB
:104500004000084499F81710C0F38F02B2FBF1F194
:104510008208C1EBD000A9F84E20ABF83410ABF8FC
:104520003E0000BFFFF762F9BBF83E10884233D26D
:10453000D8F800000928F5D82EE000BF99F81C1023
:10454000884245D98BF82240FFF750F9ABF842007A
:10455000002000F0E3FEB9F84E00BBF8421000EB7B
:104560004000084499F81710C0F38F02B2FBF1F134
:104570008208C1EBD000A9F84E20ABF83410ABF89C
:104580003E0000BFFFF732F9BBF83E10884203D26D
:10459000D8F800000928F5D8FDF7BEFED8F80000CD
:1045A0009BF805109BF80B20013011438BF823A0DA
:1045B0008BF81DA0C8F8000070D0142808D3B9F8F3
:1045C0004E00B0F5FA6F03D88BF817A0FEF778FE0F
:1045D000FFF70CF94AF6C9718842FFF439AD9BF830
:1045E0001A0001287FF434AD9BF8190001308BF8D4
:1045F000190000F001FABBF838008BF817402F289B
:1046000098BF8BF81AA0C8F800A0FFF7EFF8ABF836
:104610004200002000F082FEB9F84E00BBF84210C4
:1046200000EB4000084499F81710C0F38F02B2FB6A
:10463000F1F18208C1EBD000A9F84E20ABF834109C
:10464000ABF83E00FFF7D2F8BBF83E10884203D229
:10465000D8F800000928F5D8FDF75EFED8F800006C
:104660009BF805109BF80B20013011438BF823A019
:104670008BF81DA0C8F8000008D01428FFF4E8AC9F
:10468000B9F84E00B0F5FA6F03D9E1E41F28FFF442
:10469000DFAC8BF817A0FEF713FED9E41F2893D2E6
:1046A00096E7000010B540F26A5CC2F2000CDDF83B
:1046B00008E00C0A8CF80210110A8CF80310190A91
:1046C0008CF804208CF805108CF806304FEA1E2177
:1046D0008CF808E04FF0000E072200238CF8000051
:1046E0008CF801408CF807105840C3B282EA4304AA
:1046F000000658BF5C0082EA4400230658BF6000F1
:1047000082EA4003040658BF430082EA43001C06C5
:1047100058BF580082EA4003040658BF430082EAAB
:1047200043001C0658BF580082EA4003040658BFE5
:10473000430082EA43001C0658BF5800BEF1080F30
:1047400030D0C3B20CEB0E0044788078634082EA2C
:104750004304190658BF5C0082EA4401230658BF8F
:10476000610082EA41030C0658BF4B0082EA430114
:104770001C0658BF590082EA41030C0658BF4B0083
:1047800082EA43011C0658BF590082EA41040B0625
:1047900058BF4C0082EA44030EF1020E210658BFB6
:1047A0006300A1E78CF8090010BD00002DE9F04F6F
:1047B00081B040F2284CC2F2000CBCF8060018B1DF
:1047C0000021ACF8061029E040F2B240C2F200002D
:1047D0000078002840F21050C2F2000014D00168A6
:1047E000B1F5803F10DA47F6FF7021EA0000B0F51E
:1047F000004F0CD043F6FF7021EA0000B0F5804F67
:1048000040F0B480062203E04FF6FF7101600722FA
:1048100041FA02F040EA4220CCF8102046F64273FA
:1048200080EA1011C0F60003C0F3031481EA1021DE
:1048300040F3132213F804B001F00F019E5C41EA2B
:1048400000114FEA8B2281F00F0142EAC63740F295
:10485000D402CCF8141000F00F0001F00F01C2F2E6
:10486000000213F800805B5C107840F22C71C2F2F9
:104870000001009001EB8002802020EAC60A06F0C9
:1048800008068AEA061E00EA972147EA481481EAE8
:104890000E0100EA572544EA03094D4000EA1727B4
:1048A000CCF818906F400BF0100C87EACC0C0BF092
:1048B000080602F1040B8CEA06168BE8014402F1AB
:1048C000100E8EE8A21000EA541126F07F0787EA46
:1048D000010C00EA14178CEA070A00EAD4001662F9
:1048E00080EA0A0008F0100680EAC60608F008050B
:1048F00086EA051509F080046C4009F0400E24F0AA
:104900007F0181EA4E0109F0200781EA8707C2E9A9
:104910000B0603F01000C2E90F1787EAC00003F08E
:10492000080180EA011103F0040781EA471703F048
:10493000020687EA8616DB01C2E90D54DBB226F0D7
:104940007F05C2E909CA6B4002F1440C8CE8830080
:10495000C2E9146340F22C71009A0020C2F20001F7
:1049600041F8220001B0BDE8F08F00BF41F6FF70B2
:1049700021EA0000B0F5005F02D1052248E700BF40
:1049800040F6FF7021EA0000B0F5805F02D10422FA
:104990003EE700BF40F2FF7021EA0000B0F5006F73
:1049A00002D1032234E700BF40F2FF3021EA0000C9
:1049B000B0F5806F02D102222AE700BF40F2FF105B
:1049C00021EA0000A0F50070B0FA80F042091FE76C
:1049D00080B5DDF808C08842B8BF08469042C8BF1D
:1049E0001046A0EB010EACEB03000EFB00F0511AD9
:1049F00090FBF1F0184480BD40F20040C4F2010089
:104A0000016821F4001101604FF400114161704709
:104A100010B54EF60C5CCEF2000CDCF80030C3F39F
:104A2000022E8EF00704042C28BF0424BEF10303D9
:104A30004FF0FF3E0EFA04F438BF0023A143994023
:104A40000EFA03F39A431143B0F1FF3F4FEA01110D
:104A500010DD4EF20012CEF20002831883F800132C
:104A600000F01F01012303FA01F1400942F8201070
:104A700010BD00BF00F00F006044017210BD0000C7
:104A800070B541F2883000F00FFCEFF3108072B681
:104A900040F27450C2F20000007800F00BFC4CF6BB
:104AA000CD457924CCF6CC450A2600BF023C00F067
:104AB00081FAA4FB05010809FDF752FA06EB540040
:104AC00080B200F01BFC0A20FEF71AFA022CEDD887
:104AD000FDF754F90020002400F010FC40F23E00E5
:104AE000C2F2000040F2D8410088C2F200010C80FE
:104AF00000F0DAFB62B670BD2DE9F04F81B0032003
:104B0000FDF72EFA40F2D84A40F27A6741F2597B1B
:104B10000026C2F2000AC2F20007CDF2B71B4FF026
:104B200000084FF0000907E009F1010908F134001D
:104B300008F10208AE2859D200F03CFA07EB080150
:104B400091F83400AAF80060FF28EDD091F83510F4
:104B5000E1B34FF47A62F72311FB032149F280623B
:104B6000C0F29802B2FBF1F448F2A0625FFA89F158
:104B7000C0F20102C1EBC111B2FBF4F200EB410043
:104B800048F21F515043C5F2EB11A0FB01050A206A
:104B900000F0B4FB43F60060C0F24900B0FBF4F44F
:104BA000A0B200F081FB40F27450C2F20000007825
:104BB0006043A0FB0B01C1F30F3000F07BFBC5F39A
:104BC0004F10FEF79DF94FF00009AFE75FFA89F14A
:104BD000C1EBC11100EB410400204FF0000900F0CF
:104BE00069FB2046FEF78CF9A0E700BFFDF7C6F889
:104BF0000020002400F082FB40F23E00C2F20000E0
:104C0000008800F051FBAAF8004001B0BDE8F04F69
:104C100000F0D0B910B541F2883000F045FB2820F3
:104C200000F06CFB40F27450C2F20000007800F01B
:104C300041FB0220FDF794F99620FEF761F900F0A0
:104C4000B9F9502000F05AFB9620FEF759F9FDF70C
:104C500095F80020002400F051FB40F23E00C2F223
:104C6000000040F2D8410088C2F200010C80BDE88B
:104C7000104000F019BB000010B541F2883000F080
:104C800013FB322000F03AFB40F27450C2F20000F5
:104C9000007800F00FFB0220FDF762F99620FEF786
:104CA0002FF900F087F91E2000F028FB9620FEF770
:104CB00027F9FDF763F80020002400F01FFB40F205
:104CC0003E00C2F2000040F2D8410088C2F200016A
:104CD0000C80BDE8104000F0E7BA000010B5EFF31B
:104CE000108072B641F2883000F0DEFA00F062F90E
:104CF000502000F003FB40F27450C2F20000007834
:104D000000F0D8FA0320FDF72BF96420FEF7F8F83D
:104D1000462000F0F3FA6420FEF7F2F8282000F0B5
:104D2000EDFA6420FEF7ECF8FDF728F800200024E7
:104D300000F0E4FA40F23E00C2F2000040F2D84136
:104D40000088C2F200010C8000F0AEFA62B610BD1D
:104D500010B541F2883000F0A7FAEFF3108072B678
:104D600000F028F93C2000F0C9FA40F27450C2F279
:104D70000000007800F09EFA0120FDF7F1F84B20CA
:104D8000FEF7BEF8502000F0B9FA4B20FEF7B8F855
:104D90005A2000F0B3FA00F00DF94B20FEF7B0F8FE
:104DA000FCF7ECFF0020002400F0A8FA40F23E00DF
:104DB000C2F2000040F2D8410088C2F200010C802B
:104DC00000F072FA62B610BD10B5EFF3108072B643
:104DD00047F63040C0F600000078FF2802D0FFF709
:104DE0008BFE30E041F2883000F05EFA40F2745001
:104DF000C2F20000007800F05DFA0320FDF7B0F881
:104E0000372000F07BFAC820FEF77AF80520FDF77E
:104E1000A7F8282000F072FAC820FEF771F80620E3
:104E2000FDF79EF8192000F069FAC820FEF768F82F
:104E3000FCF7A4FF0020002400F060FA40F2D84004
:104E4000C2F20000048040F23E00C2F2000000887E
:104E500000F02AFA62B610BDB0B54FF090400121C3
:104E600000224FF480634FF48064FEF709FD28258B
:104E7000C4F600054FF09040012100224FF400736A
:104E80002C604FF40074FEF7FBFC4FF090400121C2
:104E900000224FF480732C604FF48074FEF7F0FC16
:104EA0002C6005F576742046022100220223FEF7CD
:104EB000E7FC2046022100220123FEF7E1FC4FF02F
:104EC0009040022100228023BDE8B040FEF7D8BC0C
:104ED00070B5012A20DB531E032B02F0030C01D214
:104EE000002211E022F0030E431C00228D5C9E186C
:104EF0008C1806F8015C65789D54A57804327570AD
:104F0000E4789645B470F1D1BCF1000F04D0535C45
:104F1000BCF1010F835401D170BD00BF531C5E5C16
:104F2000BCF1020FC65408BF70BD0232515C8154FF
:104F300070BD0000B0B54425C4F20205286840F2F7
:104F40000044C4F200042860204601F0A1F847F2B2
:104F5000010040F2D501A061C2F200010B200978E6
:104F600020624FF6FF70A162E0626069002140F0AC
:104F70000100606140F2C170C2F20000017004F1F2
:104F800034006162A86040F27850C2F20000E8602C
:104F900040F25800C2F2000000786860E06840F417
:104FA0000070E060206840F00100206040F68B1047
:104FB0002860B0BD43F20000C4F200004AF6AA2106
:104FC0000160704740F22440C4F20000002181607B
:104FD00001607047B0B540F20001C2F2000140F23A
:104FE0007A600A78C2F20000427040F29842C2F23F
:104FF00000029478D57892794B78013AB2FA82F22D
:105000005209C2745A1E91F802C0B2FA82F25209D1
:105010000275ACF1010291F803E0013CB2FA82F2B0
:10502000B4FA84F4520964094275AEF10102447481
:105030006C1EB2FA82F2B4FA84F452098B796409D4
:10504000827547F600428474C0F60002B021C37531
:10505000BDE8B040AFF300802DE9F04F03AF85B05D
:105060008346C81701EB9070841020F003000730CE
:1050700020F007009246ADEB00088946C546404641
:105080002146FCF7B3F8B9F1040F6FDB601E03286B
:1050900004F0030C47F81C4C02D200211DE000BFB5
:1050A00024F0030E08F10809002000210BEB000496
:1050B0005BF80060A3686568E468043108EB0002EF
:1050C00048F8006009EB000649F800308E4500F111
:1050D000100046F8045CD460E8D157F81C4CBCF1D1
:1050E000000F43D08800831CC21C1BF803301BF840
:1050F000022001301B041BF8000043EA02621BF887
:10510000213042EA00201844BCF1010F48F8210088
:105110002CD0481C8200961CD31C1BF806601BF880
:105120000330013236041BF8022046EA03631BF801
:10513000206043EA02223244BCF1020F48F82020EA
:1051400014D0881C81008B1CCA1C1BF803301BF870
:10515000022001311B041BF8011043EA02621BF814
:10516000203042EA0121194448F8201047F8144C35
:10517000FEF704FA5FEA8A5002D15046FEF736F98C
:10518000002047F8180C57F8180C57F8141C8842E0
:1051900018D200BF57F8180C57F8181C0AEB8000FB
:1051A00058F82110FEF7FAF90320FEF70FF957F827
:1051B000180C013047F8180C57F8180C57F8141C45
:1051C0008842E7D3A7F10C04A546BDE8F04FFEF7EF
:1051D00003B90000B0B54425C4F20205286840F2C6
:1051E000004440F01000C4F200042860204600F0A3
:1051F0004FFF6020A0610320206240F28940C2F28C
:10520000000000780121A0624C20E06240F2C170F1
:10521000C2F200000170606940F00100606104F1B9
:105220003400A86040F22C70C2F20000E86040F246
:10523000D400C2F20000007817306860286840F09F
:1052400002002860286840F008002860286840F0C4
:1052500001002860E06840F40070E060606C40F499
:1052600000406064206840F001002060B0BD000094
:1052700040F2DC00C2F2000000781C21C4F20201FE
:105280004860086840F001000860704744F20C4133
:10529000C4F2010100228A6108624A60086840F095
:1052A000010008607047000042F62C41C4F2010181
:1052B0000860704742F63441C4F20101C1E90000C0
:1052C0008860704740F22040C4F20000016821F07D
:1052D000020101607047000042F63441C4F201014E
:1052E0000860704742F63841C4F201010860704717
:1052F00042F63C41C4F201010860704742F6284181
:10530000C4F20101086070470B2828BF0B2040F24F
:1053100074514000C2F200010870704741F224004D
:10532000C4F20000002101607047000080B542F225
:105330000000C4F2020040F253110160FDF77AFD53
:1053400000200121FDF746FC0120FDF715FD012895
:10535000FAD100201D21FDF745FD02200121FDF7B6
:1053600039FC00BF1920FDF707FD0128FAD1002004
:10537000FDF7FAFB0020FDF713FC0020FDF702FC0F
:105380000120FDF71BFC0220FDF792FDFDF79AFDC1
:105390000228FBD10020FDF711FCBDE8804000F0A1
:1053A00001B80000B0B541F2040441F20025C4F296
:1053B0000204C0F27A05FDF785FD02280CD0002812
:1053C00050D1206D80054DD5E06A800144BF46F67E
:1053D0000045C0F2DC2545E02068A16AC0F300402A
:1053E000002919D421682268C1F38341C2F34172B4
:1053F00013010133002A1A4608BF02220F2908BFF1
:105400001A46002802EB010020D140F60011C0F23C
:105410003D0100FB01F525E0A26AA36AC2F3031C6B
:10542000A26A40F60011C0F23D01C3F30823002830
:1054300002F0070003D02268920358BF294659435F
:105440000CFA00F0B1FBF0F50CE000BF2168890315
:1054500002D4454306E000BF40F60011C0F23D0112
:1054600000FB01F540F2B030C2F200000560216897
:1054700003A2C1F30311515C25FA01F10160B0BD33
:1054800000000000000000000102030406070809F4
:10549000F0B587B00E20C0F218000121FDF77AFCAC
:1054A0001220C0F214000121FDF774FC4FF4A0108B
:1054B0000121FDF76FFC40F20010C0F2021040F233
:1054C000004406904020C4F60004059005A920463B
:1054D000FEF794F92046062100220027FEF7DCF9AA
:1054E0001C25C4F202052846FDF7C8FE6E4630466C
:1054F000FDF76EFE40F2DC00C2F20000007843F6D9
:105500000004ADF80A001020ADF8080040F26A501F
:10551000C2F20000C4F201040190201D00904FF47B
:105520008070039028463146ADF81070FDF760FE9C
:1055300028684FF4E13140F002002860286800221A
:1055400040F0080028602046002300F0B3FE20460B
:10555000012100F007FF2046012100F0EFFE204668
:10556000012100F0F5FE2046012100F08FFE2046CB
:10557000012100F095FE0A2003210022FFF748FADE
:1055800007B0F0BD2DE9F04782B040F29846C2F274
:1055900000067078022813D0012803D1FCF78EFF93
:1055A00000207070708DF17840F200080130C2F276
:1055B0000008708551B196F8200058B1708FD4E082
:1055C000FFF7F4F80020707000F071BC708F308627
:1055D00027E100BFF17A98F80D30708F4FF47A729E
:1055E000002902EB43010DD0814254D298F81920D2
:1055F000B778BA4240D1B77E00253586C7B30121BE
:10560000B17548E0814213D298F81920B3789A42D4
:1056100040F08880B8F84E00B8F8303098426BD827
:10562000F07E002868D14FF47A7070877AE000BF6E
:105630004FF47A74A4EB4302824240F38780B1783E
:1056400098F81930C1F101079F4240F04F84B8F833
:105650004E00B8F83030984200F23484F07E0028D2
:1056600040F030844FF47A70708700F03FBC00BF88
:10567000C2F1010288F81920B27D62B940F2FF77C9
:105680004FF4FA622F230097FFF7A2F90146708FBB
:1056900098F80D3031864FF47A74A4EB43028242BD
:1056A0001DDDB17898F81970C1F10105BD4208D12E
:1056B000B77E002F0EBF88F819100121B1750021A7
:1056C0003186B17D59B92F27002140F2FF73009731
:1056D000FFF77EF90146708F98F80D303186A4EB04
:1056E000430181423DD804EB4301814239D300217B
:1056F0003186B17535E000BFC2F1010088F81900AC
:1057000040F21450C2F20000002404600120F07541
:10571000FFF772F998F80D10708F4FF47A72747465
:1057200002EB410140F2FF774FF4FA622F2300971A
:10573000FFF74EF90146708F98F80D3031864FF41F
:105740007A74A4EB430282423FF779AFA4EB4301A2
:10575000814206D804EB4301814222BF00213186F9
:10576000717496F8201000295BD0B0F5836F26D3B2
:1057700098F81910B27891421AD1B8F84E00B8F8DA
:105780003020904204D8F07E10B9002070870FE0DE
:10579000C1F1010088F8190040F21450C2F2000073
:1057A000002404600120F075FFF726F9708F7474EF
:1057B00098F81210C1EB4001A1F601013186A0F169
:1057C000300189B2C9087C2926D8B17898F8192007
:1057D000C1F10103934219D1B8F84E00B8F8302056
:1057E000904205D8F07E18B9002070870EE000BF07
:1057F00040F21450C2F20000002404600120F07551
:1058000088F81910FFF7F8F8708F747498F8121070
:10581000C1EB4001313931862F2802D80020308673
:10582000707498F8030098B1F07B642398F8112005
:105830005843717E01305043884209D2FCF79EFAEA
:10584000FFF7DAF800203087662070766EE000BF40
:10585000B07928B1308E1D2828D80021318753E037
:10586000307B002860D0307820B3308ED8E91473B4
:105870002F2140F2FF720097FFF7AAF848F200715B
:10588000C0F2933198F8072091FBF0F05108328E66
:1058900090FBF1F02E2AF0840CD840F25C0100203D
:1058A000C2F200013087086030663FE01E281BD13D
:1058B0001E2029E0346E4EF20005C4F2FF4520465A
:1058C000294600F0F8FE002818BF2546284601F0BA
:1058D00013F800213087C4F24021204600F0DDFE9D
:1058E00020BB302021E000BF98F80C1001EB8101B3
:1058F0008A00824208D9A0271E212F230097FFF794
:1059000067F80146308EA9E798F80C1001EB810189
:10591000890081420AD840F2FF7740F2FF72A0234B
:105920000097FFF755F800E0308E3087708D44F611
:105930002161884245D3B6F92C40204600F0FEFF95
:105940000021C4F2B43100F0C9FEB16E024608462F
:10595000114600F0EDFD40F22D41C2F200010A783F
:10596000B066032A0AD0022A16D0012A27D196F857
:105970002400022200F500701BE000BFB6F84400CE
:1059800048F21F52C5F2EB12A0FB0202D00804221B
:1059900062F31F2001220CE0A0B248F21F52C0B2F5
:1059A000C5F2EB12A0FB02024FF4C06040EA1210F5
:1059B000032240F22E43C2F2000318800A70002036
:1059C0007085B07F002800F0A581F07988B1B6F825
:1059D000480098F80410013082B201EB8101B2EB6B
:1059E000810FA6F8480004D9012070750020A6F8A0
:1059F0004800F07E002840F04982B07F4FF02F0928
:105A0000002800F0EE80B279308F02EB820109EBC2
:105A10000111814200F2E580B07EC8B9FCF7AEF911
:105A2000F07D78B9B07E58B9FCF776FC42F2107080
:105A3000A8F84E0041F28830FFF770FC0120B076E4
:105A4000FDF73EFC0120B076B8F83200B279F0855F
:105A5000308FB8F83830B8F83E708921002A40F20B
:105A6000FF7208BF2F210097FEF7B2FF0446708D2A
:105A70004CF6CD41CCF6CC4148434CF6CC414FEAF4
:105A8000B000C0F6CC418842B48700F2A580707B9C
:105A900096F81AA0002818BFBAF1000F48D0B6F93E
:105AA0002C00B8F820106FF0630201FB020240F2F4
:105AB0005C01C2F200018B6BD1E90BC08A6200FB72
:105AC00002308B6C4D6B9842C8BF18465B429842BF
:105AD000B8BF18460B6C8863D31A03FB050003FBA1
:105AE00005F70CFB0200CB6CCF630A649842C8BF79
:105AF00018465A429042B8BF1046486400F01EFF54
:105B000044F20001C4F21C6100F0E8FD00F0F4FE74
:105B1000B8F82E10081AB8F8381002B28A42B8BF86
:105B2000084601B2A2B28A42B8BF2046A8F82E00A9
:105B3000BAF1000F50D0707900284DD0B8F84E005F
:105B4000B8F82210421A40F25C01C2F200010B6E5A
:105B5000D1E915700A6500FB02300B6FCD6D9842DC
:105B6000C8BF18465B429842B8BF18468B6E08669D
:105B7000D31A03FB050003FB05F407FB02004B6F80
:105B80004C668A669842C8BF18465A429042B8BFCF
:105B90001046C86600F0D2FE44F20001C4F21C6157
:105BA00000F09CFD716E02460846114600F0C0FCF4
:105BB0000021C4F21631044600F068FD00281CBF25
:105BC0000024C4F21634204600217466002400F03C
:105BD0005DFD002808BF7466F07A002804BF00202D
:105BE000B075B079318F00EB800009EB001088426E
:105BF00040D9B07C50B1012802D1FFF73DF8B07C0C
:105C0000022808BFFFF706F80020B07498F80100DA
:105C1000002800F08D80B07E002800F0CF8098F83A
:105C20001D00B8F82410C0EB001001EB8000A0F1BB
:105C30003C010AB2B2F5B47FA8BFA0F5D27101F160
:105C4000770002B2A6F84A10B2F5B47FA8BFA1F15E
:105C5000F100A6F84C0001F1EF0002B2B2F5B47FFA
:105C6000B279A8BFA1F17900012AA6F84E0004BFBD
:105C70000120F076B57D002D40F0C68040F2145032
:105C8000C2F2000071790068142222FA01F1B78F84
:105C900088420BD2B8F8320087423CBFB087074633
:105CA000B8F83600874284BFB0870746B8F840008E
:105CB000874284BFB0870746707B28B1B8F92E00B1
:105CC0008742C4BF87B2B787746E0021204600F0B8
:105CD000EBFC20B9204600F00FFE0744B78798F888
:105CE0000E00002800F09080316F3C20B1F5FA7F63
:105CF00088BF1420F18DBAB2531A834288F813007A
:105D00007ADDB8F84E200844B2F5FA7FB08778D92A
:105D1000012077E0307C00287FF457AEF07F002828
:105D20003FF453AE308EB8B10020A6F846004CE6E2
:105D3000B17E00200029B08740F0F1800121F1758B
:105D4000317940F21452C2F200020029106000F0D2
:105D5000E180FDF7E7FCE2E0B6F8460044F6216298
:105D6000013081B29142A6F84600FFF42EAEF08ECB
:105D70001F28C0F09F80B07A01210028B17700F081
:105D8000E980B6F844004DF2B9324108CBF21F1257
:105D9000A1FB0212D109B0F5B97F3174C0F0DC80EB
:105DA0000024FEF79BFF6420FDF7AAF8FFF702F935
:105DB000307C01348442F4D3CEE000BF0120F07582
:105DC00040F214500024C2F2000004603079B4871D
:105DD0000028747772D0B07900287FF420AFB8F82B
:105DE0003E0098F8091000EB41001338B087FFF728
:105DF00033F80120B07512E78A1A8242C4BF081A2C
:105E0000B087002088F81400B17FB07E002918BF49
:105E100000280BD1F5B1B18FB8F83C00B8F83E209E
:105E200000FB01F3B3FBF2F3D21A24E0318F3029E7
:105E3000F0D398F80200A8B1B8F83E70B8F84E0058
:105E40007B086021C8220097FEF7C2FDA8F83C003D
:105E50000AE000BFC0EB00108200B18FB8F83C0030
:105E60000AE000BFB8F83C00B18F82B2B8F83E300B
:105E70004A43B2FBF3F2013280B2A6F85020F1851A
:105E8000FFF712FAB6F85000FFF714FAB6F8400020
:105E900042F21172411C88B29042A6F8401006D31B
:105EA000B17F002960D14CF2513188425CD202B0FE
:105EB000BDE8F0870020F07737E700BFFBF75EFF13
:105EC000B487ACE640F21450C2F200000025056031
:105ED0000120F07588F81910FEF78EFD98F80D1066
:105EE000708F4FF47A727574A2EB41022F27002154
:105EF00040F2FF730097FEF76BFD0146708F98F834
:105F00000D303186A4EB430181427FF623ACFFF7CD
:105F100028BC00BFB07D002808BFFBF72FFFF07A38
:105F2000B57D002818BF002D3FF4A5AE718F4FF44A
:105F30007A70FDF747FC00F57A7081B2B1F5FA6F1F
:105F4000B08703D1FDF7EEFB94E600BFFEF784FFB8
:105F500090E600BFFEF7C2FE96F8210000287FF40D
:105F600034AD0020F07230E5FBF708FF0020F0832D
:105F7000C6F836000020FFF79DF9FFF723F840F23E
:105F80007850C2F200004FF48071FBF72FF9FBF755
:105F9000B3FC0000062988BF7047DFE801F0050F59
:105FA00019232D37410000BF50F8203F02F00101B6
:105FB00023F0010211430160704700BF50F8203FF9
:105FC000042101EA820123F00402114301607047B9
:105FD00050F8203F102101EA021123F01002114372
:105FE0000160704750F8203F402101EA821123F000
:105FF000400211430160704750F8203F02F0010158
:10600000090223F4807211430160704750F8203F69
:1060100002F00101890223F480621143016070479C
:1060200050F8203F02F00101090323F4805211438C
:1060300001607047062988BF7047DFE801F0051E40
:10604000091E0D1E150000BF50F8183F06E000BFE6
:1060500050F8183F0AE000BF50F81C3F082101EA41
:10606000C20123F0080206E050F81C3F02F00101D3
:10607000C90223F40062114301607047026801F015
:10608000010122F0800242EAC11101607047000064
:1060900010B542F6FF31C4F20101884216DD44F228
:1060A000FF31C4F201010B248842C0F20C0425DC4C
:1060B00042F60041C4F2010188423AD044F20001A4
:1060C000C4F2010188423FD1053432E040F2004180
:1060D000C4F20001884221D041F20001C4F2000163
:1060E00088421FD042F20001C4F2000188422BD145
:1060F0000120C0F21000C41D1BE000BF44F20041AB
:10610000C4F20101884213D044F60001C4F2010137
:10611000884218BF10BD07340BE000BF0124C0F255
:10612000100406E00120C0F21000C41C01E000BF12
:10613000063420460121FCF741FE20460021BDE83F
:106140001040FCF73BBE00BF10BD0000B0B540F2F0
:10615000B644C2F2000440F278602178C2F2000036
:106160000078002918BF00280ED140F2B741C2F2D2
:1061700000010978012917D000294BD1FCF7E8FE6E
:10618000BDE8B040FEF7D6BE40F2C170C2F20000DA
:106190000078C8B1FEF7CEFE40F29940C2F200008E
:1061A00002210170B0BD00BFC0B140F2C170C2F2A7
:1061B0000000007880B3FEF7F9FAFCF77FF9BDE83C
:1061C000B040FEF7B7BE00BFFFF704F840F29940B9
:1061D000C2F2000001210170B0BD00BF40F2B84022
:1061E000C2F200000078012803D1FCF767F9FEF73E
:1061F000A1FE40F2B940C2F200000078012807D1A8
:10620000FCF7B0FBFFF75EF8FEF794FEFDF7D6F85B
:10621000207828B1B0BD00BFBDE8B040FEF7DABFBE
:1062200040F2C844C2F20004208840F28445C2F221
:10623000000548B9697839B940F2CE40C2F2000091
:10624000018801310180B0BD40F2CE4140F2DD5302
:10625000C2F20001002298420A8038BFB0BD2989ED
:10626000FDF7B0FA2A78E97801323228C8BF002257
:10627000D0B233282A7005D321B9FEF701FC4FF4C0
:106280008070288020882881B0BD0000426901F01C
:10629000010122F0800242EAC11141617047000011
:1062A000C26801F0010122F4005242EA4131C160AA
:1062B000704700002DE9F04186B001AD0446284644
:1062C000984616460F46FCF7C7FC43F6000105F159
:1062D0000C00C4F201018C4208BF05F108000068FF
:1062E0004CF6CD4100EB80004000B0FBF7F0CCF65F
:1062F000CC41A0FB0112D10801EB8103A0EB4300CC
:106300000428A0684FF0010388BF03EBD201C1EA63
:106310000000A060E06806F0010120F4805040EA2F
:106320000130E060206908F0030120F4405040EAA9
:106330000130206106B0BDE8F0810000C26801F0C4
:10634000010122F0040242EA8101C16070470000AD
:10635000426901F0010122F0080242EAC1014161F3
:1063600070470000C26801F0010122F0080242EA11
:10637000C101C160704700001CF0700F08BF0A46E1
:106380000FB403B42DE90C50FAF75AFFBDE80C50D6
:10639000024603BC11680CF0405030EA814318BF3C
:1063A0004CF0804C4FEA4C034FEAD36323EA1123AD
:1063B00010EA814F18BF23F0100341EA030101F0F6
:1063C000E0734CEA030C11600CF00F030A2B1DBFA5
:1063D000082B0CF070034CEAC30C4FF4003304BFDD
:1063E00033EA0C034CF4400C1CF0005F14D11CF099
:1063F000805F0BD11CF0804F31D11CF0006F12D1A7
:1064000011F4807F0FBC47D000F04FBD11F4806FB6
:106410000FBC2BD000F049BD11F4006F0FBC08BFBA
:10642000704700F042BD11F4007F0FBC40F03D8585
:106430001CF0400F1EBF4FF0004040F001007047BD
:106440001CF0100F14BF81EA030242400CF00F0051
:106450000A2808BF4FF0FF324FF000030FE011F49D
:10646000805F0FBC08BF704700F01FBD2CF0805C40
:106470001CF0800F14BF01F0004200F0004202F057
:1064800000421CF0100F1DBF0FF28C0003C8114317
:10649000234808BF104370471CF0400F40F028808D
:1064A0001CF4404F1BD01CF4004F1CBF1946104673
:1064B0000CF4807218BF8CEA520C1CF0800F0CBFD9
:1064C00040F4800041F400218CEADC0313F0100F4B
:1064D0001CBF2CF00F0C4CF0080C00F08DBC1CF015
:1064E000100F1ABF0FA393E80300104800F084BCFC
:1064F0001CF0800F14BF01F0004200F000421CF0BD
:10650000100F1BBF07A393E803000848114308BFFF
:10651000104300F071BC00BF000000000000F07FDD
:106520000000807F000000000000F87F0000C07FB6
:1065300080EA400281EA410312F0FE4F18BF13F0D7
:10654000FE4F00F04E8090EA010F48BF81F00041FD
:1065500000F12E83421A3CBF801A89184FEAD052AC
:10656000A2EBD1534FF0004C4CEA00204CEA012141
:1065700021FA03FC10EB0C0C22D202F1FF325FEA8D
:106580001C2040EBC25038BF70471CF07F0F4FEA11
:10659000400C18BFBCF17F4F38BF7047C3F12003D8
:1065A000994008BF20F00100BCF17F4F38BF704711
:1065B000A0F1C0404FF0010C4CF0805CFFF7DCBE56
:1065C0004FEA3C00000A40EBC25028BF1CF0FF0F0E
:1065D0004FEA400CE2D018BFBCF17F4F38BF704784
:1065E000E6E74FF07F4C3CEA400218BF3CEA41022C
:1065F00036D090EA010F48BF81F0004100F144839A
:10660000421A3CBF801A89184FEAD052A2EBD153EC
:10661000090219D04FEA002012F0FF0F1CBF40F012
:1066200000405B1EA4D108444FEA102040EAC2504B
:1066300010F4000F18BF70474FF0010200F0B4BB18
:106640005FEA400C08BF00205FEA026C18BF704789
:1066500030F0004C08BF70474FF0010200F0A4BBBF
:1066600010B500F0E7F900BF64FBBE3E0100000476
:1066700010B500F011F90CBF0120002010BD10B5BD
:1066800000F00AF914BF0120002010BD10B500F081
:106690006DF98CBF0120002010BD10B500F066F927
:1066A0002CBF0120002010BD10B500F091F994BF5F
:1066B0000120002010BD10B500F08AF934BF012080
:1066C000002010BD401058BFC0F14040491058BFD5
:1066D000C1F140418142EFF3008070474FF47F0CDD
:1066E0001CEAD0121EBF1CEAD11392EA0C0F93EAE7
:1066F0000C0F00F0958090EA010F48BF42F48072C1
:1067000040F4000C41F400002CF07F4120F07F4069
:1067100000B5A2EB030281420FF21E1CACEB504EFF
:106720009EF800E0C0F100004FEA4E0E00FB0EFCA8
:1067300038BF49004FEA2C1C0CFB0EF34FEACE1E6B
:106740000EEB635E4FEA112C0EFB0CFC4FEAC121ED
:106750004FEA1C5300FB031102F5FA024FEA112C19
:106760000EFB0CFC4FEA01314FEADC4C00FB0C1134
:1067700042EB2242C14228BF09184CEB03335DF8BB
:1067800004EB490018BF11EB000143EBC250B2F516
:106790007C0F38BF704731D512F0F00F08BF70473B
:1067A00000F1C0400A0018BF4FF0804248BF4FF0D0
:1067B000404242F0040200F08ABA0081828384855C
:1067C000868788898B8C8D8E8F91929395969799D9
:1067D0009A9C9D9FA0A2A3A5A7A8AAACAEB0B2B355
:1067E000B5B7B9BCBEC0C2C5C7C9CCCED1D4D7D944
:1067F000DCDFE2E6E9ECF0F3F7FAFE004FEA400CEA
:106800000CF1807CBCF17E4F28BF7047A0F1C040E6
:10681000DFF880C0094218BF4CF0804CFFF7ACBDD8
:106820000CEAD11390EA010F48BF42F4807262452E
:1068300038BF634511D25FEA410C22D05FEA400CB9
:1068400004BFD00570470FF2070C00F06EB94FEA95
:10685000102C4FEA112061465AE710B500F0EAF813
:10686000097EFC3E0400000400F005B880EA010047
:1068700000F00040704780EA010000F0004000F0A6
:1068800080B95FEA400C5FF824C018BF8CF0406C00
:10689000FFF772BD0400001050EA010C00F10D80FA
:1068A0001CF5000F01D48842704710F5000F58BF47
:1068B00011F5000F13D4884270471CF5000F04D562
:1068C0005FEA4C0C18BF814270474FF0807C1CEB94
:1068D000400F38BF1CEB410F01D28142704710B509
:1068E00000F0A8F892244938090012044FF0005033
:1068F0004FF08051FFF7E6BE41000B0ED3F19E0230
:1069000008D950F400034FEA032323FA02F048BFEA
:106910004042704710B500F08DF800BF000000BF86
:1069200048000304B0F14F4F04BF4FF000407047E0
:10693000DFF804C0FFF720BD4800020410F000415A
:1069400048BF4042B0FA80F310FA03F2C3F19D034E
:106950000BD051EAC35101EB1220530638BF7047E8
:1069600000F1010008BF20F00100704750EA010C5F
:1069700000F10D801CF5000F01D48842704710F51E
:10698000000F58BF11F5000F13D4884270471CF553
:10699000000F04D55FEA4C0C18BF814270474FF0DE
:1069A000807C1CEB400F38BF1CEB410F01D28142B1
:1069B000704710B500F03EF80000003F09001304D6
:1069C000FFF780BE4FF080504FF00051FFF77ABEC6
:1069D00050EA010C00F10D801CF5000F01D4884233
:1069E000704710F5000F58BF11F5000F13D48842FF
:1069F00070471CF5000F04D55FEA4C0C18BF8142AC
:106A000070474FF0807C1CEB400F38BF1CEB410FF0
:106A100001D28142704710B500F00CF80000003F31
:106A200009001604FFF74EBE4FF000504FF08051A2
:106A3000FFF748BE0EF1020E2EF0030E5EF8044B77
:106A40004FEA400212F1807218BFB2F5000F22D354
:106A5000244207D44FEA410313F1807318BFB3F502
:106A6000000F18D34FEA400C1CF5000F16D2244239
:106A700004D44FEA410C1CF5000F0FD2002A10D1AC
:106A80004FEAD07C0CEB4C0C0CF1020C002B08BF35
:106A90004CEBD17C07E04FF0090C04E04FF0080C00
:106AA00001E04FEAD17C0CEB4C030EF1040E24FA0A
:106AB00003F404F00704B4F1040C06D20EEB840CCA
:106AC000BDE810404CF0010C6047DFE80CF01F20DF
:106AD00013025EF804CC1B2B08D1002A88BFB2F544
