:020000040800F2
:10100000A80B0020D110000819260008E5170008D9
:1010100000000000000000000000000000000000D0
:101020000000000000000000000000007926000819
:1010300000000000000000001B2600087B260008BE
:10104000E3100008E3100008E3100008E3100008B4
:10105000E3100008E3100008E3100008E3100008A4
:10106000E31000084117000891170008CD1600088A
:10107000A9140008E3100008E3100008E3100008BA
:1010800089270008B1270008E31000084527000859
:10109000E310000861270008E3100008E3100008CF
:1010A000E3100008E3100008E3100008E310000854
:1010B000E3100008E3100008E31000080348854629
:1010C00000F0B4F900480047BD3F0008A80B00201D
:1010D0000448804704480047FEE7FEE7FEE7FEE7D6
:1010E000FEE7FEE735270008BD10000803460B4366
:1010F0009B0703D009E008C9121F08C0042AFAD2CE
:1011000003E00B780370401C491C521EF9D2704753
:10111000D2B201E00270401C491EFBD2704700228F
:10112000F6E710B513460A4604461946FFF7F0FFE6
:10113000204610BDF8B502464A40D40F42004B008D
:1011400052085B089A4202D20246084611464A00FB
:1011500023D0C30D4A00DDB2120EAD1A202D35DAB0
:1011600049020126490AF6058A19002C00D052428C
:1011700020214F1B1146B9402A411018C20D9A4236
:1011800021D0002C17D0012D08DCDA05801AD20FEF
:101190008019D207DBB200F00FF9F8BDDA05801A2A
:1011A000012340001B06C01880185A428018CA0F3D
:1011B0001043490007E04908C2071143DA05801AC5
:1011C00080194008801800F0EFF8F8BD6100012296
:1011D000511A001BF7E70122D2075140AAE701226A
:1011E000D2075040A6E770B502464A40D50F4000EE
:1011F0004A00ED0740085208002814D0002A12D0F7
:10120000C40DD30D41020120C0055202490A520A01
:10121000E41A091812187D34914201D3641C00E0CD
:101220004900002C01DA002070BD0023914201D357
:10123000891A0343400849000028F7D100290AD041
:10124000914202D10121C90705E0914201D2012159
:1012500001E00121C943E005C018401900F0A4F8DD
:1012600070BD0122D207002800DB101A002900DB24
:10127000511A814201D80120704700207047012295
:10128000D207002800DB101A002900DB511A814226
:1012900001D201207047002070470122D2070028A8
:1012A00000DB101A002900DB511A814201D3012012
:1012B0007047002070470122D207002800DB101A77
:1012C000002900DB511A814201D90120704700201A
:1012D0007047C217C10F504010B54018CA07962377
:1012E000002100F069F810BDC20F41004002012347
:1012F000400ADB05D207090EC0187F2901DA002059
:101300007047962903DC9623591AC84001E09639A4
:101310008840002AF4D04042704770B50446002946
:1013200003D000202022012310E0002801D000205B
:10133000C043C046C0460DE02546D5408D4205D38A
:101340000D469540641B1D46954040191546521E9A
:10135000002DF1DC214670BD70B5002504462E46F7
:10136000002911D0002C01DA01254442002901DABC
:10137000012649422046FFF7D0FFB54200D0404247
:10138000002D00D0494270BD002C02DA0121C907AE
:1013900002E0002C00DD03490846C046C046214655
:1013A00070BD0000FFFFFF7F002904DA401C4900E8
:1013B00001D140084000704770B40024050C05D1ED
:1013C0001024000402D1002921D01124050E01D1DE
:1013D00000020834050F01D10001241D850F01D141
:1013E0008000A41C002801DB4000641C002908D0F8
:1013F00020252E1B0D46F540A14000D00121294398
:10140000084301061B1B000ADB1D02D5002070BC2F
:101410007047DB05181880180029F8DA401C4900CD
:10142000F5D170BC4008400070470000064C012513
:10143000064E05E0E36807CC2B430C3C984710347C
:10144000B442F7D3FFF73EFEE465000804660008E7
:1014500070B58C180578401C6B075B0F01D10378C1
:10146000401C2A1106D10278401C03E006780E7059
:10147000401C491C5B1EF9D12B0705D40023521ECA
:101480000DD40B70491CFAE70378401CCB1A921C50
:1014900003E01D780D70491C5B1C521EF9D5A1425A
:1014A000D8D3002070BD000080B5012291040A4805
:1014B00043685B030BD403680B4206D151044268B6
:1014C000920304D402680A4204D0016000E0416043
:1014D00002F0AEFB80BDC0460C1802400548818872
:1014E000054A11804188054A118000880449088016
:1014F0007047C04644050020CC040020D0040020E2
:10150000D2040020F0B597B00027159714971397D1
:101510001297119710970F970E970D970C970B979F
:101520000A970997089701231A0505925E48C16832
:101530001143C160C168114016911699016800936A
:101540001943016000681840169003260796169804
:1015500040200490069005200390040706AD204625
:10156000294600F095F90A97079610200690204624
:10157000294600F08DF94D480168039A1143FA227B
:10158000914301604A4801684A4A1140016033466C
:101590000296310302688A43009E7103511801606C
:1015A000016820220A4302600168049A91430160A5
:1015B000016880220A430260190202688A437102AC
:1015C000511801609A02049201689143B20289188D
:1015D000016039480168394A0A40394951180160A7
:1015E00015971496139712970F20039000031190EC
:1015F0001097344C20461438019010A900F00EF9D1
:10160000201F0168B14301601121490602688A4325
:1016100071065118016071052246083A13680B43A0
:1016200013600168284A0A40F104511801602068DB
:10163000042528430299C943014021602068702194
:1016400001432160204610380168A9430160016808
:101650000822914301600F970E970D970CA90198EE
:1016600000F0C2F8606928430B21884360613003B1
:10167000216881432160606960210143902081439A
:1016800061610C4910312068084020600398000215
:1016900061698143049808186061206805990843CE
:1016A000206017B0F0BDC04634100240040802406C
:1016B0001C000240EFBFFFFF08270140FFEF3F4E35
:1016C000001000B014240140FFFFF73FB0B51948E7
:1016D00001466C390A680A68920216D40968090240
:1016E00012D50121CA43036813400360CB03124C97
:1016F000656C9D4365642368134023600F4A002393
:101700001370683809050160B0BD014668390122CF
:1017100013050B60D14303680B400360D003064AF6
:10172000536C8343536410680840106003480021E1
:101730000170B0BD6C00024000440140580600201A
:1017400080B52648016849070CD50F49097800295A
:1017500008D00E490A6802231343082293430B6002
:10176000042141600168890705D40168090701D592
:101770000121416080BD0121416082688A4382600D
:1017800004F056FE80BDC0469904002020040040AD
:1017900010B5124C2068800609D4206800060DD4CC
:1017A000206880050FD4206800050FD410BD1020DC
:1017B0006060FFF793FE20680006F1D5802060602E
:1017C00020688005EFD50648002101700120010244
:1017D0006160216B8143216310BDC046000002405F
:1017E0008D040020FEE700008268D20712D1C26893
:1017F000094B13404A681A438B681343CA681A435B
:10180000C260032292070369934309681943016187
:101810000020704701207047C73FFFFFB0B58268C6
:10182000D2070CD1C568C2680D4B13400C684A68DA
:10183000AD0206D5F02A04D123431C4604E0012062
:10184000B0BD23438C681C43CB680D6949692343B1
:101850002B430B43C360816A114381620020B0BDFA
:101860003CC2FEFFF0B50268002A0DD40268074BA7
:101870001340F4C909681A4322432A4332433A43C6
:101880000A4302600020F0BD0120F0BD0F7C00FE85
:10189000F0B582B00E460C68002C43D000220096B2
:1018A0000EE0190A494349434D430F234B43416A14
:1018B000994329434162521C34682346D34032D0B5
:1018C000012393402340F6D01C465C4371682646B2
:1018D0004E43032767430568BD4335430560FE4318
:1018E00001914D1E012D06D8009DAD6865438768A6
:1018F00037402F4387603146009E35696543C7688E
:101900000F402F43C76001990229D4D17569FF2B7D
:10191000C7D8644365430F216143036A8B432B435C
:101920000362C8E700247168491E012905D8F168DF
:1019300061434268A2430A434260002002B0F0BD06
:1019400080B57D21C900FFF7E8FC401E03494860CF
:10195000002088600520086080BDC04610E000E0DF
:1019600070B50446904E351F2868382101409048D4
:10197000082921D0102919D1316803220A408B4946
:10198000032A00D00846022A00D0014630684004ED
:10199000400E484331684906490F491CFFF7BDFC1A
:1019A0003168490F491CFFF7B8FC05E00C3E306870
:1019B0008004410F7D48C8402060296889093C2285
:1019C0000A407D4989581F221140C840606029683B
:1019D000890A1C230B407749C9581140C840A060B0
:1019E00070BDC046B0B50C2825D0032851D16E4C2F
:1019F000A06C032108400A048018704A904251D01C
:101A00006F4A904247D06F4A904251D1201F0068E0
:101A1000382202406648082A00D1C4E0102A00D0CB
:101A20008BE022680A406149032A00D00846022A56
:101A30001FD001461DE05C4CA06C0007800F0328FE
:101A400030D0022827D0012854D1201F0068382127
:101A500001405748082900D1A5E010296DD121681F
:101A600003220A405149032A00D00846022A00D026
:101A7000014620684004400E484321684906490F4A
:101A8000491CFFF74AFC2168490F491CFFF745FC38
:101A9000B0BD0020B0BD0C3C20684005C1174348D4
:101AA0000840B0BD0120C103206D80030840B0BDD7
:101AB000251F2868382202403D48082A4AD0102AAB
:101AC00042D122680A403949032A00D00846022A36
:101AD00000D0014620684004400E48432168490672
:101AE000490F491CFFF719FC2168490F491CFFF7F2
:101AF00014FC2FE0251F2868382101402C480829B4
:101B000040D0102938D1216803220A402749032AEE
:101B100000D00846022A00D0014620684004400E4A
:101B2000484321684906490F491CFFF7F6FB216825
:101B3000490F491CFFF7F1FB24E00C3C20688004AE
:101B4000410F1A48C840B0BD0C3C20688004410FCA
:101B50001648C84029682A68920A1C231340154A6F
:101B6000D2581F231A4089093C240C4012490959B4
:101B70001940C840D040B0BD0C3C20688004410FE3
:101B80000A48C84029682A68920A1C231340094A57
:101B9000D2581F231A4089093C240C400649095990
:101BA0001940C840D040B0BD0C1002400024F400E1
:101BB00000127A00B4650008746500080300030091
:101BC0000200030001000300014908607047C0469D
:101BD000E8000020B0B51F22D30234C99C433F2344
:101BE0009B029D430B782B4323430F242403A243E2
:101BF0001A4303239B034C689C4314434A88154BA8
:101C0000134023430A6A1A433D4B0C39984202D0D1
:101C100042640020B0BD104B1A404B690F4C1C4071
:101C200014438A690E4B13402343232212064C6A45
:101C300094431C4311225206CB6993432343012250
:101C400052070C6A94431C438A6A22434264002070
:101C5000B0BDC046FF1F0000FFFF00CCFFFF0FCC50
:101C6000FFFF0FDCB0B5056801229407A04205D044
:101C7000234B984202D0234B984217D170239D43A7
:101C80004B682B43204DA84214DD204CA04206DCBB
:101C90001B4CA04216D0204CA04213D02EE01C4C6E
:101CA000A0420FD01B4CA0420CD027E02B46164D73
:101CB000A842EADCA04205D0124CA04202D0174C48
:101CC000A0421BD103242402A343CC681C4304601C
:101CD0008B68C3620B888362CE4BC3180A24E3412E
:101CE000072B06D814469C40E1231C4201D0097CF6
:101CF00001634169114341610020B0BD1C46E6E724
:101D0000002C014000040040FF2B0140FF43014034
:101D100000480140004401400040014000200040D4
:101D2000F0B584B00123BA4CA1424EDC012900D1A8
:101D30008BE0102900D1C3E001273C02A14200D072
:101D400080E0016AA1430162B749491C13691B0283
:101D50000B40032102910902046A8C431C43116861
:101D6000039151680B022343AA4941180A24E14117
:101D70004568C46907291DD88F40E1210F4219D059
:101D8000029F39038D43516901919169D66900968B
:101D90000901A44E0E402E4300994D013543B9026E
:101DA0008B43A249091D019EB6020E401E43916855
:101DB0008B023343456099490C4003990C43C4613D
:101DC000D168C163036200233CE001242503A942DA
:101DD00000D1B4E02504A94200D1E2E02505A942E2
:101DE00030D1016AA94301628A4943180A21CB41D3
:101DF000016A1568039555681669476D072B11D858
:101E0000029131462E4625469D40E1231D4235462E
:101E10000E46029906D0A30444689C4393699B0232
:101E2000234343607C4B1F40039B1B023B434365A2
:101E3000D268C265032212059143720852050A4313
:101E40002905DBE0184604B0F0BD0127F943036A19
:101E50000B40036213690B40046A032102918C4317
:101E60001C431668516821436A4BC3180A24E34196
:101E700045688469072B1BD803963E469E40E123A4
:101E80001E4214D0029B1B029D437B0256690296A0
:101E90009769D6699F432F4375003D430C239943AF
:101EA000029B5B08DB000B43916889001943039E8A
:101EB00045605A4B1C4034438461D26842639EE0C3
:101EC000016A102399430162016A3023994313691F
:101ED0005B085C010C4317685168090121434D4CB4
:101EE00006190A24E64145688469072E1ED803971F
:101EF0000127B740E126374217D00326B602B54383
:101F0000536902939769D369BF002646474C3C400A
:101F10002C43DD0025433446C0239943029B5B08D4
:101F2000DB010B43916889011943039F45603C4BDA
:101F30001C403B0223438361D26882635FE0016AF5
:101F4000A9430162334945180A21CD41016A43681A
:101F500016680296566817690397C769072D55D802
:101F600001962646AE40E1252E424DD0A403A34360
:101F70009469A4011C43019E4460294B1F40029BAD
:101F80001B023B43C361D2680264032212039143E4
:101F9000244A1032039B1B0313400B4331031943A4
:101FA0002DE01E4F7337016A394001621949461806
:101FB0000A21CE41016A156853680393136902939D
:101FC000436D072E09D8B440E126344205D0446859
:101FD0003C409669360226434660104CE41C234080
:101FE0002B434365836DD2688265032212049143BB
:101FF000029A520852040A430399090411430162E8
:102000000023184604B0F0BD1C46B4E71C46B3E7F5
:10201000FF0F000000D4FEBFFF8FFFFE8CFFFEFF0E
:10202000FF8CFFFEF0DFFFFFFFFDFFFFFCF7FFFF70
:10203000F0B583B004460068C00724D10D4620687F
:1020400033490140A8680843296901436869084386
:10205000E969014321600320010362688A43E9685A
:10206000114361600002A1688143A8690843A06030
:102070000126284884420ADC2948844216D029488F
:1020800084420CD03BE00126304603B0F0BD22482C
:10209000844204D02148844231D1032007E06846BD
:1020A000FFF75EFC0298002805D128E00C20FFF71E
:1020B00099FC002823D06F68002F20D029680026C3
:1020C0000B291CD8890018A25158FFF726F90121C5
:1020D000C903EA698A420BD17908400040183946A1
:1020E000FFF71BF91C4901400007400F401805E0AD
:1020F000790840183946FFF710F980B2E060E06ACD
:102100000F21884329880143E162304603B0F0BDC6
:10211000F369FFEFFF4B0040004C004000380140E6
:1021200000440040004800400100000002000000A0
:102130000400000006000000080000000A00000083
:102140000C00000010000000200000004000000013
:102150008000000000010000F0FF0000F0B58FB02B
:1021600000270D970C970B970A97099708970797E1
:10217000069705970497D94A1068012101910843F1
:102180001060106808400E900E98106802210843F5
:102190001060106808400E900326039604200290F9
:1021A0000E9805200007009002AC2146FFF770FB57
:1021B000069703960825029500982146FFF768FBCD
:1021C000069703960295C9482146FFF761FB0697DB
:1021D000039680250295C5482146FFF759FBBF4A63
:1021E000D06801990843D060D06808400E90480537
:1021F0000D900C970B970A950D46480209900E9882
:102200001D4C08A92046FFF72DFBB004216881432F
:1022100021602068194908402060201F02680A4098
:1022200002602168164A1140216001681140016076
:102230000E97144800681449FFF76FF8C82141430E
:102240000E910E98002805D00E98401E0E900E9804
:102250000028F9D10D4841680D4A114041600168DC
:10226000114001600B480168FF229143016028037F
:10227000E74908600FB0F0BD04020140FFF7FFFF1F
:10228000FFBFFFFFE800002080841E00801802408E
:10229000FFFFFBFF0CE400E0074808490160084924
:1022A00001600021416007498160C2685207FCD18A
:1022B000016105490160704700300040CCCC00004E
:1022C00055550000FF0F0000AAAA0000F0B5A7B006
:1022D00000242594249423942294219420941F94E0
:1022E0001E941D941C941B941A9419940DA802908A
:1022F0003021FEF714FF0C940B940A94099408946F
:1023000007940125EB020693BB4AD0681843D060BE
:1023100021A90C740C80D068184026902494704831
:102320002390229426986F4F3846FFF79BFC38681D
:102330008021009108433860B8690821059108435D
:10234000B8611A941B941C941D941E941F9420949D
:102350006020199019AE384629463246FFF7E0FC56
:102360000420C1430491B8690840B861B86906996E
:102370000843B8611B941A94102138463246FFF77F
:10238000CFFCB86958490840B861F8690599084315
:10239000F8611B941A942902019138463246FFF7DE
:1023A000BFFCF86904990840F861F8690699084388
:1023B000F8611B941A94290338463246FFF7B0FCA3
:1023C000F86949490840F861786D059908437865CE
:1023D0001B941A94290438463246FFF7A1FC786D05
:1023E00004990840786578687021884378600F20E8
:1023F00000057968814379600299CC813C2008739B
:10240000B868009EB043B860189417941694680694
:102410001590149413941294680311900F940E94D1
:102420000D943846FFF7D6FB7349086828430860C7
:1024300008682840039526902698086802273843A4
:1024400008600868384026900C970B940A94099409
:1024500008970796269805200007069007AE314694
:10246000FFF716FA0C970B940A94099408970795AE
:10247000624D28463146FFF70BFA0C970B940A94ED
:1024800009940897079728463146FFF701FA0C97F9
:102490000B940A940994089701980790069D284682
:1024A0003146FFF7F5F90C970B940A9409940897B5
:1024B00003984002079028463146FFF7E9F90C9748
:1024C0000B940A9409940897039880020790284671
:1024D0003146FFF7DDF927B0F0BDC04634100240A9
:1024E000B80B0000002C0140FFFBFFFF0004005070
:1024F000F0B58DB000240B940A94099408940794C5
:10250000022502953C488168294381608168294001
:102510000C910C99016829430160006828400C90D7
:10252000059404940394102001900C9801200690C7
:102530000746324801A9FFF7ABF93148016820226C
:102540001143DF23994301602E480168F94B0B408A
:10255000036003210B0306689E43066003689343F0
:102560000360026840239A43026002688026324377
:1025700002600A020368934300973A029A180260C5
:10258000890202688A43F902511801601E480168F5
:10259000FF22914301601D480990401CE1490860F9
:1025A00007A90C800A9408941A4F3C46183C204610
:1025B000FFF758FBF0432168014021603946143988
:1025C0000A6870239A430A60394610390A68024043
:1025D0000A60386800990843A843386038680C21BD
:1025E000884338603868F02188433860B8680A2129
:1025F0000143B9600DB0F0BD34100240000400503A
:10260000000802400800024010E400E0FFFF000064
:1026100000E100E0180400407047704770B501F019
:10262000B5F84220104C205A5025104E715B032201
:102630004A4310188008705300F09AFC705BC10880
:10264000B2794A43A2864008801AE087E07D0028DC
:1026500001D101F0D1F806480168064A914201D83B
:10266000491C016070BDC0467804002010000020A5
:10267000F40400200F2700007047704770B5284A07
:1026800013680220034305218B431360126801265F
:102690003302244D2A46083A14681C431460136818
:1026A0005B05FCD5AB6D3343AB65AB6D9B07FCD5D0
:1026B0006B681D4C1C401D4BE3186B60330614689F
:1026C0001C43146033076C681C436C6013689B01E7
:1026D000FCD50F2212022B6893432B602A68024319
:1026E0008A432A602868382101401029FAD107203E
:1026F00000032968814329600D4C2046FFF720F92B
:102700002046FFF761FA2046FFF75EFAB005E96C54
:102710008143E96403208007E96C8143E96470BD6B
:1027200000200240081002408C80FF1F0208002099
:102730000090D0030120C006014908607047C046E0
:1027400008ED00E010B5054C2068C00704D0FFF785
:1027500065FF0120C043206010BDC046102000402E
:102760000220C04307490A68920703D40A68D207C7
:1027700004D1704708600A68D207FAD0401C08608C
:102780007047C046104401400220C04307490A6810
:10279000920703D40A68D20704D1704708600A6818
:1027A000D207FAD0401C08607047C04610040040B1
:1027B00080B505480168C90704D00121C9430160FB
:1027C00003F046F980BDC04610100040F0B5A3B03C
:1027D000FF20000652490A6882430326B0071018FA
:1027E00008600124E0024F490860002721972097E4
:1027F0001F971E971D971C971B971A971997189745
:1028000017971697159709A802903021FEF787FCB5
:102810000897079706970597049703976004424A1D
:10282000D1680143D160D1680140229122983F488C
:1028300001682C220A43D3218A4302603C48016884
:102840003C4A0A4010320260310302688A43610345
:1028500001915118016001682022914301600168D3
:1028600040229143016001688025294301603102C3
:1028700002688A432102009151180160B102026886
:102880008A43A102511801601DA90F740F8020977F
:102890004F201F9010201E90274E3046FFF7E2F980
:1028A000306828433060B06908210143B161169750
:1028B0001797189719971A971B971C9760201590D0
:1028C00015AA30462146FFF72BFAB0690421884348
:1028D000B0610299CF810F7309970A970B971497EC
:1028E0000E9701980D903046FFF774F90E4A106864
:1028F0000221084310601068084022900891079751
:10290000069705910491009803902298BD4803A969
:10291000FEF7BEFF306A2043306223B0F0BDC046F0
:1029200008E400E000E100E0341002401408024036
:102930006C000240EFBFFFFF00440140B0B582B021
:10294000002001900090254C2068C00744D12068E9
:102950002349014001252807081820602148006804
:102960002149FEF7DAFC400001900198002805D0CB
:102970000198401E019001980028F9D16068032158
:1029800008400090606888436060226817480240F1
:102990001218183222602268002AFCD4009A636858
:1029A0008B4313436360402101910199002905D0B5
:1029B0000199491E019101990029F9D1216801402D
:1029C00029432160204608380068C007FAD0E8058E
:1029D00007490A6802430A6002B0B0BD08240140FA
:1029E000E8FFFF6FE8000020400D0300E8FFFF7FD5
:1029F00008270140F0B583B04A23434DE95AFF2030
:102A00006830424E727E002A18D04A1E11B2002948
:102A1000014600D41146E9524C22AB5A5B1E1CB24F
:102A2000002C044600D41C46AC524E22AA5A521E18
:102A300013B2002B00D41046024619E04C1C21B200
:102A400000228142114600DC2146E9524C232F46E8
:102A5000EC5A641C25B28542154600DC2546FD5221
:102A60003D464E23FB5A5B1C1CB2844200DC1A46D6
:102A70004E27EA53F05B09B24900254A515E4118DE
:102A8000344640200290305A48437D21090101918B
:102A9000FEF762FC317A48430A263146FEF75CFCB9
:102AA00080B202F0E9FE2346E05B4C21695E4900FA
:102AB000174A515E4118029C185B4843019D294604
:102AC000FEF74AFC1149097A48433146FEF744FCB7
:102AD00080B202F0D7FE0D4BD85B0B49C95F4900AD
:102AE0000B4A515E4118185B1C4648432946FEF7C5
:102AF00033FC217A48433146FEF72EFC80B202F0C7
:102B0000C7FE03B0F0BDC0467804002010000020CE
:102B10002601002070B53B4B1868042101430820B2
:102B20008143196002249C6203210A0505200007E5
:102B30000568954301221605AD1905609502856269
:102B40001D681543A5431D609A628B0404689C436D
:102B50009304E3180360530283628B0304689C436D
:102B60009303E318036080238362090403688B43A3
:102B70001104591801601102816270BD70B5FA49E3
:102B80000A78FA4C20680C239843002A03D00822C4
:102B90001043206004E00422104320600220A06261
:102BA000032213050520000705689D4301235E05E8
:102BB000AD1905600E7825689543002E03D00226D6
:102BC0003543256002E01D432560A3629404056837
:102BD000A543DC042C1904600C7895030168A94313
:102BE000002C03D0DC032143016004E09C0321435B
:102BF000016080218162110402688A4359045118DE
:102C0000016070BD00040050B0B5244A1378132051
:102C100040012349042B01D0012B08D1214B1B6813
:102C20001C680C400546203525431D601378052B94
:102C300001D0022B08D11B4B1B681C680C400546B9
:102C4000103525431D601378062B01D0032B05D1C9
:102C5000144A126813680B40034313601248037848
:102C600012481349134A002B0BD003680B40036032
:102C70000168114001600B49496842680A4342609B
:102C8000B0BD084B5B6804681C4304604368134094
:102C9000436042680A404260B0BDC0462D0000203B
:102CA0000FFCFFFF00000020280000200018024059
:102CB000FFFFFBFFFFFFFDFF70B5401E052800D999
:102CC00050E1C0467844007940008744020F3D6AD5
:102CD00088A6A5480278A54908680C239843002ACD
:102CE00000D1A6E0082210430860A7E09F4B1868B7
:102CF0000421014308208143196002249C620321BE
:102D00000A05052000070568954301221605AD193F
:102D10000560950285621D681543A5431D609A6193
:102D20008B0404689C439304E3180360530283629A
:102D30008D4B1C788D030368AB43002C00D1A6E0BB
:102D4000D40323430360ADE0884B1868042101439A
:102D500008208143196002249C6103210A05052093
:102D600000070568954301221605AD190560950217
:102D700085621D681543A5431D609A628B04046833
:102D80009C439304E318036053028362764B1C78E0
:102D90008D030368AB43002C7FD0D403234303602F
:102DA00080E0724B186804210143082081431960B8
:102DB00002249C6103210A0505200007056895434C
:102DC00001221605AD19056095028562664D2E78C3
:102DD0001D688D43002E6CD025431D606CE0634B55
:102DE00018680421014308208143196002249C6271
:102DF00003210A05052000070568954301221605F1
:102E0000AD19056095028562574D2E781D688D437A
:102E1000002E60D025431D6060E05348027853497E
:102E200008680C239843002A6FD0082210430860DA
:102E300070E0042210430860022088620322130518
:102E40000520000704689C4301235D0564190460A4
:102E50000C681C430225AC430C608B619104046830
:102E60008C439904611801605902816291030468DE
:102E70008C4399036118016080218162110402680A
:102E80008A431904511801601902816270BD9403CC
:102E9000234303608023836204E09403234303609D
:102EA00080238362090403688B435104591801602D
:102EB00070BD15431D609A628B0404689C43D30463
:102EC000E31803608B0304689C439303E3180360D7
:102ED0008023836210E015431D609A628B040468AE
:102EE0009C43D304E31803608B0304689C4393035F
:102EF000E318036080238361090403688B43110492
:102F0000591801601102816270BD042210430860EB
:102F100002208862032213050520000704689C43F1
:102F200001235D05641904600C681C430225AC4351
:102F30000C608B62910404688C43990461180160F1
:102F400059028162910304688C43990361180160FE
:102F500080218161110402688A43190451180160BB
:102F60001902816270BDC0461100002000040050AB
:102F7000F0B581B042204C4E325A4C4D2B460833AE
:102F80004B48417F4C00E3189B1E1A806A892B89AD
:102F90009A18AB89D218EB89D2182B8AD2186B8A6F
:102FA000D218121D5210B267427E012A0ED1491C5E
:102FB0004177CAB2072A02D30121F1744177012275
:102FC0000A400276B07D002811D10DE0491E4177FC
:102FD0000A0603D10121F1740621417701228A43B7
:102FE0000276B07D002802D1C8B2FFF765FEFFF778
:102FF0000BFE306F2F49884205D37079F17A014377
:1030000001D00120F07500247484307B002849D061
:10301000B07E002846D0F08CB16F081A264F386079
:10302000B969421ABB68F9683D6951437961B86171
:1030300043435D193B6A9D421A4600DC2A465B42C7
:103040009A4200DB13463B61C9187A6850430A185C
:10305000786A8242014600DC11464042814200DB30
:103060000846F861FEF735F91449FEF7BCF8014649
:10307000306EFEF75FF80646114D2946FEF71BF944
:10308000002800D1354628462146FEF7F8F80028EA
:1030900000D12C460448046604480068632801D81F
:1030A0000020386101B0F0BD78040020F404002055
:1030B00010000020D10700007000002000401C46D6
:1030C00000E0FF44F0B58FB0D74806C8436F0D93BA
:1030D0005B1AD64F7B811B045B0D3B81511A012586
:1030E00000220E9208389942294600D80E990C9178
:1030F000F9618168C268511A9942294600D80E992F
:103100000B91396201694269511A9942294600D8E6
:103110000E990A9179628169C269511A99422946C8
:1031200000D80E990991B962016A426A511A99420E
:103130002E4600D80E9EFE62816AC26A511A9942DA
:10314000294600D80E993963026B446BA21A9A4241
:103150002A4600D80E9A7A63846BC76B3C1B9C424C
:103160002C4600D80E9C0894B04FBC63046C476C8E
:103170003C1B9C422F4600D80E9FAC4C0797E76340
:10318000846CC76C3C1B9C422F4600D80E9FA74CFA
:1031900006972764046D476D3C1B9C422F4600D860
:1031A0000E9FA24C05976764846DC76D3C1B9C42C3
:1031B0002F4600D80E9F9D4C0497A764046E476E5F
:1031C0003C1B9C422F4600D80E9F984C0397E76407
:1031D000846EC76E3C1B9C422F4600D80E9F934CBA
:1031E00002972765046F476F3C1B9C422F4600D80F
:1031F0000E9F01978D4C6765806F0D9F381A98421E
:1032000000D80E9DA5650C98464007984640701E54
:103210008641F0000B9B5940069B59404B1E99413B
:10322000890001430A98424005984240501E82415D
:1032300057000F430998089E46400498464003985B
:10324000C00002998900081801994900441878487B
:103250000078784A1178014346D06019B91912787C
:10326000002A01D00F225040704E884237D11C36C0
:103270007CCE6E48076B6D48416B6C48806B920248
:103280005B02134322021A43EB011343B2011A43B8
:103290007B01664E134309011943C00008433446BD
:1032A0003C341ECC8D000543510029431943C74AC5
:1032B00000201080B289521CB281012C02D15E4ADA
:1032C0000123137030291EDB7278002A1BD05B4863
:1032D00000220270C1480180B2700FB0F0BDF089C9
:1032E000401CF0810FB0F0BD00F074FB514A002883
:1032F000B3D04E490879401C0871C0B26528ACD3E0
:1033000001201070A9E74A1E2E2A08D84B480170E8
:10331000B24800220280C8B2002813D1E2E7002997
:1033200004D04648007800280CD1DBE73178012929
:1033300001D10021717041490870A8490880B0701E
:103340000028CFD03E4909780029CBD138490978E7
:103350000029C7D0F178884202D00021B170F07006
:10336000052805D3B178491CB170C9B20629B9D373
:103370000024B470401E14284FD8C0467844007909
:10338000400087440A0D104A134A161E272A4A3E57
:10339000412E4A4A4A4A4A34390001F0DBFE3CE0F9
:1033A00001F00AFF39E001F0E7FD36E001F038FFF7
:1033B00033E0254801210170224804702348017040
:1033C0002BE0214804701F48012101701F48022191
:1033D000017022E07F4804701FE07E4801210170E7
:1033E0001BE0747107204002FF30F08015E01548A3
:1033F00000780121081A01E012480078124908708B
:103400000BE001F0F9FF08E001207071072149028B
:10341000F1803178012900D17070084801780C4A98
:10342000117004700FB0F0BD580500200804002092
:1034300096040020590600208D0400205A06002022
:10344000920400207A040020290000208A04002031
:10345000A0070020F0B581B0C54E03CE081A554C28
:103460000119564A083E91420BD8C24D697800298D
:1034700009D0E97800295FD1A97800292DD0E88802
:103480002CE04D4E7FE05349097800290DD0524978
:103490000A887D21CB00904216D9494C2488090125
:1034A0000091511C5B1C224612E045490A8848499C
:1034B00009887D231B012F3300932F2301F03AFD50
:1034C0002F2807D1002005E04149098800930023F7
:1034D00001F030FDE8603D4E55E0E880491CA970E0
:1034E000374F398880B200F067FA332802DB0020BA
:1034F00068701AE038880721414305CE101A401839
:10350000C0083880A978083E33290ED3193881B213
:103510002C4A8918CA0F8918490821222A4B995424
:103520000121E970388001F0EDFD3888E880E87805
:103530000028D0D003CE081A29797D22D200FA3291
:10354000904208D2491C2971214A138807265E43FC
:103550003018C0081080C8B21C4E4C2813D31C4829
:10356000018819318AB2A2183332D30FD218520807
:103570002023154CE25400246C70018001F03CFFC4
:103580002C7101F097FD00203080144802887949A1
:10359000C9688C1A124B1B689C4201DDD11806E0E9
:1035A000541A9C4203DDD11A018001B0F0BD0180A4
:1035B00001B0F0BDDFFCFFFFAE0400207605000087
:1035C000380000202AF9FFFF5B060020B804002025
:1035D000360000207B0400203A000020B2040020C6
:1035E00020010020034900220A600A688242FCD3BD
:1035F0007047C04624480140094900220A617D22E3
:1036000052024A610B68012213430B600B6983422B
:10361000FCD3402048610868104308607047C046EA
:1036200014480140F0B581B04F4BC9334F48438037
:103630004F490E680022042404E09219241D7C2CBA
:103640002E4608D00D59AE1BF8D09FB2BE42F4D220
:1036500046803346F1E75109464E3161464D2F7899
:103660000F21C9010091012F28D199B2012925D933
:10367000009CA2420FD204290DD8002171713F4C49
:103680002170012129703E4C0C25257020240470E6
:103690003C4C217012E0052910D3D409182C0DD808
:1036A00008290BD8354901240C702C7074713449E9
:1036B00007250D702021017032490C701C46C93C51
:1036C00031490D78012D0DD1A1B2274EB14209D259
:1036D0002A493F260E7001212B4E317002260670BA
:1036E000284E31703D433DD19BB2022B3AD3009915
:1036F0008A4212D2042B10D800211E4A51711F4A4F
:10370000117001211C4A11701D4A0C2313702022D4
:1037100002701C48017001B0F0BD052B22D3D10905
:10372000182911D8082B0FD8144901220A70124900
:103730000A7010494A71124907230B702021017049
:103740001048027001B0F0BDA1B2074A914209D2FF
:103750000A493F220A7001210B4A117002220270AD
:103760000848017001B0F0BD574D00006C0000200A
:10377000580500206404002098040020ED0000207B
:10378000EC000020970400209904002063480168A1
:103790000122914301607047FF20000410490A682C
:1037A00082430320800510180860012081020D4A21
:1037B00011600D490D4A8A600D4ACA604A680D4B76
:1037C0001340DA1C4A600A68022313430B600A683C
:1037D000082313430B600A6802430A607047C0461F
:1037E00008E400E000E100E01C0002404024014049
:1037F000440500200000FFFF7548406802490A6840
:1038000002430A607047C04680180240B0B582B0DB
:1038100040480168012529430160016810220A43DC
:103820000260290202680A430260016804220A4316
:103830000260016840220A430260A90202680A434A
:103840000260290402680A430260290302680A43ED
:10385000026064210162014620390A682A430A6035
:10386000E903426A0A4342620C3801682943016055
:103870002948016A29430162016829430160FF2048
:1038800000242146224601F0FBFE244801460C3963
:103890000A682A430A6081682943816001682943D4
:1038A00001600168A9430160DF48016829430160A4
:1038B000416929434161A8070168294301604169C1
:1038C00029434161D948016829430160416929437D
:1038D0004161C1682943C160FDF714FEFFF75CFF39
:1038E000FFF72CF801940E480168294301600D4848
:1038F00000680D49FDF711FDC000019001980028F6
:1039000005D00198401E019001980028F9D102B01D
:10391000B0BDC046202C0140000400400C200040F7
:1039200004020140E8000020400D03000248016845
:1039300004220A43026070470800024070B5194B28
:1039400018680421014308208143196002249C6106
:1039500003210A0505200007056895430122160585
:10396000AD190560950285621D681543A5431D606C
:103970009A618B0404689C439304E3180360530228
:1039800083628B0304689C439303E31803608023E2
:103990008361090403688B43110459180160110203
:1039A000816270BD000400500248016801220A4390
:1039B00002607047142C0140401AC117401848405B
:1039C000704700000248006800684000C00F704760
:1039D0000000002002480168102008407047C046DF
:1039E000100400500148006880B270472400004075
:1039F00002480349016062B67047C04608ED00E026
:103A000000100008F0B58DB07D4A506801252843AC
:103A100050605068284007900798280711680143B4
:103A200011601168144601400791079875480168B4
:103A300008220A43026001681022059211430160C6
:103A4000280271490A6802430A60FEF717FE204601
:103A500008380168294301600168294007910799E6
:103A60000168022211430160006810400790079826
:103A7000201F0168294301600068284007900798CB
:103A8000624A106862490840A90340181060680241
:103A9000604908600B46FF200290000411688143D2
:103AA000A80508181060A8021860FEF757FBFEF77B
:103AB0000DFC00270B970A9709970897079720682E
:103AC0002843206007A91F20009008802068284014
:103AD0000C90514809900C98504E3446083C2046B2
:103AE000FEF7C0F880200390C143206808400A46D2
:103AF0000691206030684A49014031607020C3431C
:103B00000493301F01681940016030681040306034
:103B1000FEF7EEFC0B970A97099708970797EA03B9
:103B20000192374948681043486048680E46104083
:103B30000C900C9802980006344A91688143916079
:103B4000E8043449086007A9009808800A973248B9
:103B500009900897334C2046FEF784F820680699B0
:103B6000084020600B970A97099708970797A804C1
:103B7000324671680143716007A90F743F260E80B9
:103B8000526802400C92244809900C98264C20461A
:103B9000FEF768F820680399084320600B970A979E
:103BA000099708970797164A106805990843106007
:103BB000106808400C900C98144A9068144908400A
:103BC00001994018906068041249086007A90E80A6
:103BD000322009900897154C2046FEF743F82068DC
:103BE0000699084020606068049A10406060A068F0
:103BF0000840A06001F068FEFEF7E8FD0DB0F0BDE2
:103C00003C100240000001400020024008E400E0B7
:103C1000FF00FFFF00E100E0FFFF000008000040A0
:103C2000F8BFFEFF002000400048014000100040A7
:103C300070B5D54C206F7E2821D3FFF7D3FE7C28AA
:103C400009D8A08FC0084A2805D8234800688008F2
:103C50007D2800D270BDFFF7C5FE5021CB4A515AD6
:103C600049088842F6D3207F401C2077C0B26528DF
:103C700005D301F073F918480021016070BDFFF70A
:103C8000B1FE42216052C14DA87D297E00290BD092
:103C9000002814D00026FFF795FE0028DAD1761C04
:103CA000A87D8642F7D30AE0002808D00026FFF757
:103CB00089FE0028CED0761CA87D8642F7D301F07D
:103CC0004DF9002001F0FAFD297DE08FC840E08722
:103CD00001F0B2FD70BDC046F4040020F0B583B021
:103CE000A74CA849B022204601F012FB607C401E80
:103CF00041424141A44DA970A07C401E4142414136
:103D0000E970E07C012801D10120A871E07D042840
:103D100000D302209D4FB871207D401E4142414199
:103D20007970607D401E41424141B970A07D401EC6
:103D300041424141F970207E01460839282928D89E
:103D4000934D182809D393490091182130222B460E
:103D500001F0F0F840217852207E01460C390B2901
:103D600008D800950C2118228B4B01F0E3F8402174
:103D70007852207E844DFC21014008290ED18749CC
:103D8000009107211022864B01F0D4F8402178528F
:103D900006E07F48F88701F05BFD0AE04020385AD2
:103DA00080B201F055FD4020385A4A217852422114
:103DB0007852607E01463239642908D8410878304B
:103DC000B88608461E30B8871431798703E055203D
:103DD00078879620B886E07EF871A07E282670430A
:103DE0001430F883207F401E414241412971607F99
:103DF000401E4142414169710525284601F054FDAC
:103E00006078002800D1A2E0A07F0B2800D80546EA
:103E1000284601F049FD00205B4D28722321615C9A
:103E200079732221615C5F4A891879852521615C5B
:103E3000FA31B98520210291625C52005A4BD218A6
:103E4000FA842122A25C5200584BD2183A85E27FB4
:103E5000521E53425341EB712422A25C521E534224
:103E60005341AB722622A25C521E53425341EB7265
:103E7000A25D531F142B00D83A732922A25C531E53
:103E8000092B00D87A722A22A25C531EDBB2082BBF
:103E900018D848257E5B0923D94351432E39CBB22C
:103EA000F6187E53384DBA72F972617E4A08D218FC
:103EB0007A87C918B986398FC91839873C490A6881
:103EC0001A430A602B21625C11464639462900D804
:103ED0007A712C21625C511E622903D80121697319
:103EE000510039842D21625C511E092900D83A7293
:103EF0002E21635C092B0AD8042B0CD82A462132C8
:103F00007B441B795B009F44022E04063200288408
:103F1000284A01211170FC8BA1084A2900D8F873A6
:103F2000F9792020FDF7F9F9054611212046FDF722
:103F3000F4F92946FDF7F1F946217852642120462B
:103F4000FDF7EBF92946FDF7E8F944217852C8203E
:103F500078867878002801D003B0F0BD00200A49A7
:103F6000C87003B0F0BD0121029AA954D0E71149ED
:103F70000870114901220A702A462032C9E7C0465A
:103F80005B06002000F800087804002010000020E4
:103F90006B0A000035050000D61400009F0F0000DA
:103FA000411F00005E050000EE020000D606000082
:103FB000442C0140090400200804002000B58BB007
:103FC000FFF716FDFFF71EFDFFF720FCFFF786FE4B
:103FD000EF4800782521EF4D6854EF4CEF494A78BF
:103FE0000878E378984202D123799A422ED0227140
:103FF000E070601D891C0C22FDF778F8E848017814
:1040000061708179E175A978491E4A424A4162741A
:10401000E978491E4A424A41A274A979491E4A4296
:104020004A41E2744178491E4A424A4122758178E8
:10403000491E4A424A416275C078401E4142414190
:10404000A175B021D74A204601F00AFAA8790028C4
:1040500002D0D348C18E81864020D14F04903E5A71
:104060004A200A903E524824385B70437D210691D5
:1040700009010991FDF751F902943853FE87A87898
:10408000401E411E88417876388F70430999FDF7AC
:1040900044F9F97A401838877878002800D13DE350
:1040A000E87AC149002813D00846BE3002997852F8
:1040B0000020A8710121E970F97378807870788FF9
:1040C00032307887B88F3230B887B88E3230B886C1
:1040D00001F0A6F800200590E886FEF7DDF801F073
:1040E0007BF901F01FF9287800280A9E01D00120F1
:1040F000287306988000099005E0002001F0AEFBCF
:10410000FEF708FD0A9E01F067F9288E0121C828F4
:104110000A4600D3059AA54B1C68642CA04F00D812
:104120000599069BDB009C4203D8002801D0114072
:1041300001D0002169769F2804D8A979002901D0EF
:1041400000216976E97B002907D00999643989B291
:10415000884208D20020687605E0952801D86420BE
:1041600000E00A207874A86F03210891FDF7F4F8A5
:1041700028670B2C8E4C20D30146E87C00281CD0ED
:1041800037468A4E7068FFF717FC296F0A097C2AA8
:104190000ED84A0890420BD900203060A876012042
:1041A000E875A87B401CA8737D48808E4008E88590
:1041B00071600020E8743E46794FFF2002022168BA
:1041C000914350220792BA5A972A05D32160616819
:1041D00004980143BF2004E00122920311432160AF
:1041E000616881436160687D002811D0A86EFDF789
:1041F0007BF803464420295A2420285C5222AC5ADA
:10420000AA8D009400F0A4FA01F0F4FA0020687579
:10421000287D401C2875C0B265287AD365481C38B3
:10422000006840000321FDF778F8401C81B2FF8F41
:10423000B94200D807465A48C7855420285A5E49D3
:1042400048435E49FDF769F85D490A88498C891A37
:10425000801A64246043FDF77FF81E3056216852AF
:10426000B9B2544A183A1160564A1168564B19406F
:10427000091D116024216A5C07235A431018C008E5
:1042800068544427EE5B5E435820285A4A49484305
:104290004E49FDF742F84249097C48432146FDF763
:1042A0003CF88019C408EC535A20285AE96E3F2282
:1042B0004A4310188011E8663F4948434449FDF7D6
:1042C0004BF8010400D50020A885A87A0028344FB7
:1042D0000A9E1CD0287CB98D4143A0B2814214D9DA
:1042E000288D401C2885E97E3A4A51433A4A89186C
:1042F00080B281420BDA00242C87FEF70BFC00F021
:104300002DFEEC86AC76AC7701E0002028850020FD
:10431000287500242C77E87E00285FD0288F31286C
:1043200000D2A5E0A97F002900D1A1E0882800D90A
:10433000EBE0687A002809D0FFF728FA00F00EFEBB
:10434000204601F08BFAFEF719FC6C72FEF752FB67
:10435000FC79F7482146FCF7E0FF0646F94821467C
:10436000FCF7DBFF0346288F00963021782200F00F
:10437000E1FD4C24385380B2FFF734F9395B0998DA
:104380006430FCF7CAFF522168520A9EBBE6C04661
:10439000FC0F0008780400205B060020F6030020D4
:1043A0001000002000F800082A030000F404002098
:1043B00008E400E0582C0140E40C0000B80B0000B9
:1043C000A875FF1F08240140E8FFFF7FFF0F0000D2
:1043D000490500007CFCFFFF204E0000A96FDA4871
:1043E000FCF7BAFFA97E41435220295288B20A2124
:1043F000FCF793FF5C216852F97B00290ED00299EB
:104400007B5A46217A5A4421795A0A9EBE5B00960D
:104410000A9E80B200F08EFD422178522420285C52
:104420007A7990420AD9B95B012300934B0811466F
:104430000A390A3200F07EFD42217852502007905E
:10444000395ABF480068642832D3099881422FD86E
:104450000520BA490860286F0C21009164210323CC
:10446000099A00F067FD0799795A642926D326E056
:1044700001266E722879002800D13EE604983C5A45
:10448000787A40003A462718133FB9B2D08F484394
:104490002146FCF742FF201A401C50242853AF87C6
:1044A00000F004FF285B01F0D9F9AE750A9E2AE6F8
:1044B0006420A24A10600C20642900D20220B87542
:1044C000F98B099A914201D24000B875E87D002825
:1044D00000D1C8E0A87E002800D1C4E000F03EFD75
:1044E000FFF770FA397E002946D0002846D0687F51
:1044F000401C6877BA7EC0B2904201D923202C5468
:1045000022202A5C002A41D0ADE001276F72FEF71D
:1045100071FA288FC8280BD94C208449079A0A526F
:10452000AC531046FFF75EF8A85B002809D0EAE517
:104530004C207E49085AFFF755F8A85B002800D0A8
:10454000E1E57A4E7C48079970526F83EF752867D2
:104550007B4F786001F0B2F9AC750A203860707D4D
:1045600070776879002801D0B08F7087FEF700FD62
:10457000FFF71AFA0A9EC6E50028B8D023202A5C65
:10458000521C2A5422202A5C002A6CD12323EA5C84
:10459000002927D0F97E8A4265D903930121295445
:1045A000FFF720FA4226A8530020019001F086F977
:1045B000A85B079BF95A089A51430E18B008F852A5
:1045C00080B2F97DFCF7A9FEA886F108081AE887F1
:1045D0005B4EFFF707FAE98F88422BD23068092833
:1045E000F7D827E0397F8A423DD903930121295426
:1045F000FFF7F8F93E464227E8530020019001F00A
:104600005DF9E85B079BF15A089A51430F18B80807
:10461000F05280B2F17DFCF780FEA886F908081AF6
:10462000E887474EFFF7DEF9E98F884202D230680B
:104630000928F7D8FEF79CFC0398019B2B546B7755
:104640003068401C30606979EA7A0A4362D01428E5
:1046500036480A9E07D30799405A3649884202D203
:10466000EB75FFF7C9F8FFF7BDF93849884200D26A
:1046700049E5A87E012800D045E5687E401C6876A3
:1046800000F06CFC0120E875288F2F2800D8AC764C
:104690002B4F3C60FFF7A6F94226A853039420460F
:1046A00001F00CF9A85B214A079C115B089B4B4366
:1046B0001E18B008105380B2D17DFCF72EFEA886DC
:1046C000F108081AE887FFF78DF9E98F884202D2CE
:1046D00038680928F7D8FEF74BFC2320039B2B549E
:1046E0006B773868401C38606979EA7A0A430A9E19
:1046F00009D0142800D206E50C480799405A0D4904
:10470000884203D3FFE41F2800D2FCE4EB75FFF7D7
:1047100073F8F8E41F280A9EA2D2A4E70020A8712B
:10472000E87A0349002800D0BEE4D1E4100000205C
:104730002A030000D107000028230000582C014064
:10474000F4040020581B0000C0270900C9AF000076
:10475000F0B583B0EF4C089D2572A3712271A17052
:10476000207002952D0A0195E57100931B0A637173
:10477000170AE7700E0A66704400072540B2002849
:1047800000DA71E1600064B2002C00DA72E14400EA
:1047900040B2002800DA73E1600064B2002C00DA55
:1047A00074E1440040B2002800DA75E1600064B2B0
:1047B000002C00DA76E1440040B2002800DA77E10C
:1047C000600064B2002C00DA68407040440040B2DF
:1047D000002800DA73E1600064B2002C00DA74E1B2
:1047E000440040B2002800DA75E1600064B2002C99
:1047F00000DA76E1440040B2002800DA77E1600098
:1048000064B2002C00DA78E1440040B2002800DAFB
:1048100079E1600064B2002C00DA68404840410051
:1048200040B2002800DA77E1480049B2002900DAF6
:1048300078E1410040B2002800DA79E1480049B24D
:10484000002900DA7AE1410040B2002800DA7BE179
:10485000480049B2002900DA7CE1410040B200285A
:1048600000DA7DE1480049B2002900DA684047409B
:10487000780079B2002900DA79E1410040B20028DD
:1048800000DA7AE1480049B2002900DA7BE1410010
:1048900040B2002800DA7CE1480049B2002900DA81
:1048A0007DE1410040B2002800DA7EE1480049B2D3
:1048B000002900DA7FE1410040B2002800DA6940B7
:1048C0004A40500051B2002900DA7BE1410040B279
:1048D000002800DA7CE1480049B2002900DA7DE1D5
:1048E000410040B2002800DA7EE1480049B20029C8
:1048F00000DA7FE1410040B2002800DA80E14800A0
:1049000049B2002900DA81E1410040B2002800DA12
:1049100069404B40580059B2002900DA7DE141005E
:1049200040B2002800DA7EE1480049B2002900DAEE
:104930007FE1410040B2002800DA80E1480049B23E
:10494000002900DA81E1410040B2002800DA82E16A
:10495000480049B2002900DA83E1410040B2002852
:1049600000DA6940009A4A40500051B2002900DA4A
:104970007EE1410040B2002800DA7FE1480049B200
:10498000002900DA80E1410040B2002800DA81E12C
:10499000480049B2002900DA82E1410040B2002813
:1049A00000DA83E1480049B2002900DA84E14100DD
:1049B00040B2002800DA6940019A4A40500051B2E2
:1049C000002900DA7FE1410040B2002800DA80E1EE
:1049D000480049B2002900DA81E1410040B20028D4
:1049E00000DA82E1480049B2002900DA83E141009F
:1049F00040B2002800DA84E1480049B2002900DA18
:104A000085E1410040B2002800DA6940029A4A403C
:104A1000500051B2002900DA80E1410040B2002884
:104A200000DA81E1480049B2002900DA82E1410060
:104A300040B2002800DA83E1480049B2002900DAD8
:104A400084E1410040B2002800DA85E1480049B223
:104A5000002900DA86E1410040B2002800DA87E14F
:104A6000C648417203B0F0BD6C40600064B2002CD7
:104A700000DB8CE66840440040B2002800DB8BE697
:104A80006C40600064B2002C00DB8AE668404400A1
:104A900040B2002800DB89E66C40600064B2002C64
:104AA00000DB88E66840440040B2002800DB87E66F
:104AB0006C40600064B2002C00DA85E685E66C404C
:104AC000600064B2002C00DB8AE66840440040B21B
:104AD000002800DB89E66C40600064B2002C00DB3B
:104AE00088E66840440040B2002800DB87E66C405E
:104AF000600064B2002C00DB86E66840440040B2EF
:104B0000002800DB85E66C40600064B2002C00DA0F
:104B100083E683E64A0500206940480049B200293F
:104B200000DB86E66840410040B2002800DB85E6F5
:104B30006940480049B2002900DB84E66840410032
:104B400040B2002800DB83E66940480049B20029F2
:104B500000DB82E66840410040B2002800DB81E6CD
:104B60006940480049B2002900DA7FE67FE66840E4
:104B7000410040B2002800DB84E66940480049B2A9
:104B8000002900DB83E66840410040B2002800DBDA
:104B900082E66940480049B2002900DB81E66840AE
:104BA000410040B2002800DB80E66940480049B27D
:104BB000002900DB7FE66840410040B2002800DAAF
:104BC0007DE67DE66840410040B2002800DB82E6D9
:104BD0006940480049B2002900DB81E66840410095
:104BE00040B2002800DB80E66940480049B2002955
:104BF00000DB7FE66840410040B2002800DB7EE633
:104C00006940480049B2002900DB7DE66840410068
:104C100040B2002800DA7BE67BE66840410040B203
:104C2000002800DB80E66940480049B2002900DB2B
:104C30007FE66840410040B2002800DB7EE6694024
:104C4000480049B2002900DB7DE66840410040B2DF
:104C5000002800DB7CE66940480049B2002900DBFF
:104C60007BE66840410040B2002800DA79E679E648
:104C70006840410040B2002800DB7FE66940480000
:104C800049B2002900DB7EE66840410040B20028BE
:104C900000DB7DE66940480049B2002900DB7CE684
:104CA0006840410040B2002800DB7BE669404800D4
:104CB00049B2002900DB7AE66840410040B2002892
:104CC00000DA78E678E66840410040B2002800DB70
:104CD0007EE66940480049B2002900DB7DE6684075
:104CE000410040B2002800DB7CE66940480049B240
:104CF000002900DB7BE66840410040B2002800DB71
:104D00007AE66940480049B2002900DB79E668404C
:104D1000410040B2002800DA77E677E668404100BB
:104D200040B2002800DB7DE66940480049B2002916
:104D300000DB7CE66840410040B2002800DB7BE6F7
:104D40006940480049B2002900DB7AE6684041002A
:104D500040B2002800DB79E66940480049B20029EA
:104D600000DB78E66840410040B2002800DB77E6CF
:104D700069400248417203B0F0BDC0464A050020B8
:104D8000F0B584B0644BDF88002F02D00020D880BB
:104D900032E0624A624800786249002807D0106811
:104DA000884204DCC10B012904D107221FE01160F5
:104DB00007221DE0810B012901D1062217E0410BDA
:104DC000012901D1052212E0010B012901D10422A0
:104DD0000DE0C10A012901D1032208E0810A01295D
:104DE00001D1022203E0410A491E4A424A410146DA
:104DF0001A61114157020F434B480078800002901E
:104E00004A490E18802373603D0128134849085C05
:104E10000190C4001946A143B1603A0914467C4090
:104E2000380A60400F2403942040451965403A48F1
:104E30004561019804011C404C40F460C00301909E
:104E4000039802403A49895C00918A0201990A4319
:104E5000910A19406140316107403548C05D0190B9
:104E600044011443039805403148475D25463D43BE
:104E700029488561500A184048407061110A19405C
:104E80004140B161009AD00018404840F0611101E2
:104E90001940414031627F20C043014062091A40FD
:104EA0004A407262210919405140B162E2081A4039
:104EB0004A40F262019CE1001940514031632201F5
:104EC0001A404A407263294619405140B16301407B
:104ED0006A001A404A40F263A90019405140316407
:104EE0000022124C029D6251FA001A404A4072643C
:104EF000390119405140B1647A011A404A40F264C4
:104F0000B9011940514031650140F801C0B2484033
:104F1000706504B0F0BDC04608040020F004002015
:104F200092040020FFFF0000EC0000200C0700208E
:104F3000D4650008B0B51C46049D88420B4600DBD2
:104F40000346281B9342154600DC1D466B1A584346
:104F5000511AFCF701FA0019B0BD000001208004CD
:104F600004490A6882430A600A46743A106070393C
:104F7000086070478018024010B5C84800F068FC0F
:104F8000EFF3108072B6C648007800F067FC792411
:104F900000F022FAA41E14212046FCF7BEF9FDF70A
:104FA0008BFE60080A3080B200F078FC0A20FEF721
:104FB00023FB022CECD8FDF7ADFD0024204600F0C9
:104FC0006DFCB8480480B848008800F041FC62B627
:104FD00010BDC046F0B583B00320FDF76DFE002480
:104FE0003226B04D019403E0641CB61CAE2E49D2AB
:104FF00000F0F2F9019828802A4880198778FF2F5D
:10500000F2D00294C478002C30D00A2000F046FC84
:10501000F72060437D21490141182348FCF77DF9C1
:10502000044622482146FCF778F9054680B200F094
:105030000FFC9B480078454328469849FCF76DF9DA
:1050400080B200F00BFC0298C0B2FE214143CD19A2
:1050500017482146FCF761F96843924D6421FCF73B
:105060005CF980B2FEF7C8FA0024BEE700242046AF
:1050700000F0F4FB0298C0B2FE214143C819FEF7CC
:10508000BBFAB2E7FDF746FD0024204600F006FC1F
:105090008548008800F0DCFB2C8000F09DF903B00F
:1050A000F0BDC0465B06002080969800003E490097
:1050B000A086010010B5794800F0CAFB282000F056
:1050C000EDFB7748007800F0C9FB0220FDF7F4FD06
:1050D00096242046FEF790FA00F07EF9502000F06A
:1050E000DDFB2046FEF788FAFDF714FD002420467C
:1050F00000F0D4FB6B4804806B48008800F0A8FBEC
:1051000010BDC04610B5654800F0A2FB322000F08B
:10511000C5FB6348007800F0A1FB0220FDF7CCFD41
:1051200096242046FEF768FA00F056F91E2000F09B
:10513000B5FB2046FEF760FAFDF7ECFC00242046A4
:1051400000F0ACFB574804805748008800F080FB13
:1051500010BDC04610B5EFF3108072B64F4800F096
:1051600077FB00F039F9502000F098FB4C480078AC
:1051700000F074FB0320FDF79FFD64242046FEF73A
:105180003BFA462000F08AFB2046FEF735FA28203D
:1051900000F084FB2046FEF72FFAFDF7BBFC00244D
:1051A000204600F07BFB3F4804803F48008800F029
:1051B0004FFB62B610BDC04610B5384800F048FB42
:1051C000EFF3108072B600F007F93C2000F066FBA8
:1051D0003348007800F042FB0120FDF76DFD4B24C1
:1051E0002046FEF709FA502000F058FB2046FEF753
:1051F00003FA5A2000F052FB00F0EEF82046FEF7CA
:10520000FBF9FDF787FC0024204600F047FB25480A
:1052100004802548008800F01BFB62B610BDC04624
:1052200010B5EFF3108072B61B480078FF2802D04B
:10523000FFF7D0FE2AE0194800F00AFB1848007872
:1052400000F00CFB0320FDF737FD372000F026FBB4
:10525000C8242046FEF7D0F90520FDF72DFD2820B3
:1052600000F01CFB2046FEF7C7F90620FDF724FDE1
:10527000192000F013FB2046FEF7BEF9FDF74AFCAB
:105280000024204600F00AFB0648048006480088F7
:1052900000F0DEFA62B610BD30F800086B0A0000BC
:1052A00054050020B804002050000020B0B50321B0
:1052B0000A050520000703689343012214051B1902
:1052C0000360930283628B0404689C439304E31895
:1052D0000360530283620B0404689C431304E318C5
:1052E000036013028362094B1C68082525430424CC
:1052F000A5431D601C680225254395431D60890355
:1053000003688B43D10359180160B0BD00040050FD
:10531000012A05DB0B780370491C401C521EF9D191
:105320007047000070B5CD490868CD4A02400A6058
:10533000CC48026802231A43026002689A43026062
:105340001F48204AC2600A2242611F4A1278C26185
:105350001E4A02628468012214438460002484612E
:10536000C24D2C700C68C24D254004462834102DC7
:1053700003D1CC60164C8C6002E08C60144CCC6085
:10538000144C24784D68BC4E2E4034194C600C6887
:105390001C430C600B6808241C430C600B6813430F
:1053A0000B60510203680B43036003680B43036007
:1053B0004169114341610C3801681143016070BDBE
:1053C0000C04004001600000ED000020FFFF000021
:1053D000580500206C000020014802490160704718
:1053E00000300040AAAA000002480021416001608C
:1053F0007047C0462404004010B515490A78154886
:1054000042708A79C275144A93785B1E5C425C4193
:105410004474D3785B1E5C425C4184749279521E62
:1054200053425341C3744A78521E53425341037549
:105430008A78521E534253414375C978491E4A42E5
:105440004A418275B021054A00F00AF810BDC046F5
:10545000100000205B0600207804002000F80008FF
:10546000F0B503AF89B06E46F31D11337361F2607E
:10547000B1600446C817800F0B1803211A468A43EF
:10548000D11D072291436A46501A9D10854630610E
:105490002946FBF744FEB06804280FDB3069294633
:1054A000E2781206A3781B049A1863781B02D218BC
:1054B0002378D21804C0241D491EF1D1706985607B
:1054C0000120B0600204384D2B1F1C681442FBD130
:1054D0002C68002C03D4F1684C0524D109E0334832
:1054E000046829460C390C6044680C60F1684C056E
:1054F00019D12C68022004432C60F168CC0AE10029
:105500002C680C432C602C6814432C601C681442DB
:10551000FCD11C68E40703D00146B0681860084657
:105520002C6884432C600024706944600460016826
:105530008468A142B0682FD2F168091D71600FE044
:10554000194D2968A14329602046746961680831B2
:1055500061602168891C21602168A468A1421BD276
:105560002C6804432C6075692C68A40030690459C8
:105570006968F0680C502968890030690918496821
:105580006C687068015119681142FCD11968C9072B
:10559000B468D5D01C60D3E7C1072A680A432A60E3
:1055A000FC1F053CA546F0BD142002400800002069
:1055B000B0B52A4908682A4A024010320A602948D0
:1055C000026802231A43026002689A430260A948F3
:1055D0000246083A6024146003220260224A1278CC
:1055E00082605C22C26004460C3C2568012215439F
:1055F00025601E4C22700C687D4D25401D4C102DE1
:1056000004D1CC60044614348C6003E08C60044602
:105610001434CC604C68874D2540184C24786419AC
:1056200017344C600C681C430C600B6808241C4346
:105630000C600B6813430B6051020346143B1C685B
:105640000C431C60016811430160D103436A0B43A2
:1056500043622038016811430160B0BD0800024078
:10566000EFBFFFFF2C10024069040020A1070020BB
:10567000104000000C0700200000FFFFEC0000209D
:10568000F0B5574C2378002B00D0F0BD012317460E
:105690001F40282677431437524DEF85D7097743AB
:1056A00014372F8407461F4077431437EF83C70909
:1056B000774314372F820F461F4077431437EF810B
:1056C000CF09774314372F809707FF0F774314379D
:1056D000AF855707FF0F774314376F851707FF0F05
:1056E000774314372F85D706FF0F77431437EF849E
:1056F0009706FF0F77431437AF845206D20F7243D9
:1057000014326A848207D20F72431432AA8342078A
:10571000D20F724314326A830207D20F72431432DB
:105720002A83C206D20F72431432EA828206D20F53
:1057300072431432AA824006C00F7043143068824C
:105740008807C00F70431430A8814807C00F70430A
:10575000143068810807C00F704314302881C806D0
:10576000C00F70431430E8808806C00F70431430B7
:10577000A8804806C00F7043143068801A48002182
:105780004162237019490A68194C1440102C04D145
:10579000CD60024634328A6003E08D6002463432C6
:1057A000CA604A68A84C144018344C600A68022445
:1057B00014430C600A68082414430C600A681A43F6
:1057C0000A605902C2680A43C260016A1943016251
:1057D000D903426C0A434264016819430160F0BD79
:1057E00058060020EE000020004401406C000240FA
:1057F00010400000B0B50E48036808210B43042296
:10580000934303608C4B5C688F4D25408F4C24780C
:105810002C195C6084688025254385601C680125FF
:1058200025431D60036813438B430360B0BDC0462E
:10583000003801400000FFFF044900228A6108622D
:105840004A600868012202430A6070470C20004049
:10585000014908607047C0462C2C01400849086087
:10586000486088607047C046024801680A22914338
:105870000160704720040040014908607047C0463D
:10588000342C0140014908607047C046382C014063
:10589000014908607047C0463C2C0140014908603E
:1058A0007047C046282C01400B2800D30B20400035
:1058B000014908707047C04654050020014908603E
:1058C0007047C04624000040F0B591B000240F940A
:1058D0000E940D940C940B940A9409940894012747
:1058E000BA035048C1681143C160C16800921140B9
:1058F000029102990222039201681143016000683B
:105900000192104010900794069705970494109800
:1059100040260296444802A9FBF7BAFFFF20000682
:1059200042490A68824303208307D2180A60F906B5
:105930003F4A11603F490A6833231343CC22934303
:105940000B603D4D29683D4A0A4010322A60010330
:105950002A688A432A60296820229143296029689D
:10596000B1432960296880220A432A6001022A681B
:105970008A432A6080022968814329600F940C20A1
:105980000D900C940B940A94E12040020990089425
:105990002B4C2646083E08A93046FCF749FB072059
:1059A000410722688A4322604006216881432160C2
:1059B00078073168814331600920C002211F0A68DD
:1059C00082430A60206822218843206021680820E1
:1059D0000143216031683943316061698902FCD536
:1059E00061694902F9D5009A1032296811401029DD
:1059F00004D11449E9602034AC6003E01149A96086
:105A00002034EC606968104A0A401049097851183E
:105A100069602968019A1143296029680143296056
:105A200011B0F0BD341002400004005018E400E052
:105A300000E100E00808024030000240EFBFFFFF35
:105A4000083801404A0500200000FFFF2401002023
:105A5000F0B585B0F44F7878022811D0012803D131
:105A6000FDF730FB00207870788D401C7885F87841
:105A700000280BD02024385D002809D0788FE4E07E
:105A8000FFF77EF90020787000F0B2FC788F2CE1EF
:105A90007D22D100E548437B580004914118788F5E
:105AA00001250395EE43FD7A002D17D081420BD2DC
:105AB000DE4A527EBD78AA422AD100253D86BD7EAF
:105AC000002D21D00399B975049D5E43721982425D
:105AD00026DC59006A1A824254D9B3E0814211D2BD
:105AE000D24B5B7EBD78AB420AD15020CF4D285AB5
:105AF0006D8EA8424CD8F87E002849D1D000788716
:105B0000049D56E0049D5EE0039DAA1AC74D6A7687
:105B1000BA7D002A049D10D05E4372198242D8DDFE
:105B2000B978039D6D1AC14E767EB54218D1BD7EFF
:105B3000002D11D00399B97510E0BD4A00922F3A9B
:105B40002F23FFF7F7F93886B848437B788F5E43F9
:105B500072198242BDDDE3E7B44D697600213986D2
:105B6000B97D002909D12F2100910021B04BFFF709
:105B7000E1F93886AD48437B788F049D59006A1A55
:105B800082425FD8491981425CD30021B97558E03F
:105B9000A848002505600398F875C01AA3494876FF
:105BA000FFF7DCF97D74A148407B4000049D41195A
:105BB000788F9F4A00922F3A2F23FFF7BBF9388640
:105BC0009A48437B788F314659434A1982422FDDE8
:105BD000BB7803990293CB1A94494D7EAB420BD10B
:105BE0005020085A4B8E984208D8F87E002805D1DC
:105BF000049D7D87284611E0049D0FE00398F87509
:105C00008C480025056002984876FFF7A7F97D7457
:105C10008648407B4643049D7219788F2F2100915E
:105C20000021834BFFF786F938868048437B788FC5
:105C300059006A1A824205D84919814202D30021CB
:105C400079743986395D002950D07D21CC002146F8
:105C50002F31884220D9754D697EBA78914215D18D
:105C60005020285A6A8E904205D8F87E002802D12A
:105C7000002078870AE06F48002606600120F8754A
:105C8000401A6876FFF76AF97E74788FA97C420023
:105C9000511A694A891839860146303989B2A142B8
:105CA0001FD2B9780122531A604C657EAB4213D1E2
:105CB0005020205A638E984205D8F87E002802D1E1
:105CC0000020788708E0FA755A480025056061765B
:105CD000FFF744F97D74788FA17C4200511A313965
:105CE00039862F2802D80020787438864F4CE07807
:105CF000002810D0F87B64214143481C617C41435B
:105D0000787E814207D2FCF705FFFFF727F966206E
:105D1000787600205AE0B879002805D0388E1D2802
:105D200022D80021398745E0387B00284DD03878CB
:105D300000281DD0616DA36D388E00912F213C4A43
:105D4000FFF7F8F801463D48FBF706FBE179490803
:105D5000FBF702FBF884388E2E2809D8384800213A
:105D600001603987396632E01E2816D11E2021E0F5
:105D70003C6E344D20462946FBF781FA0028204628
:105D800000D12846FBF7B0FA38872F492046FBF7A9
:105D900084FA00281BD1302018E0217B14224A43CA
:105DA000824207D9A02100911E212F23FFF7C2F8BC
:105DB0003887388E227B14215143814207D81C4AF0
:105DC0000092A023FFF7B6F800E0388E3887788D70
:105DD0001E4DA8424DD92C203C5E2046FBF779FA97
:105DE0001B49FBF700FA0146B86EFBF7A3F9B8664A
:105DF000184E307803280BD002282DD0012836D138
:105E00002420385CFF2168314118993102222BE0AF
:105E10004420385A1921FBF780FAC0B27D21C9000D
:105E20004118183101221FE07804002010000020E2
:105E3000FF070000F4040020FFF7FFFF0087930333
:105E40007000002000E0FF4400004042204E0000AF
:105E50000000B4430D040020A0B2C0B23221FBF711
:105E60005CFA0322510201433270E94801800020AC
:105E70007885B87F002845D0F8790028E54E0DD008
:105E80004820395A491C395232791423534389B274
:105E90008B4203D20021395201207875F87EDE4C06
:105EA000002800D067E25025B87F002804954BD029
:105EB000B979284648432F303A8F904244D8B87E6B
:105EC000002816D1FCF726FEF87D00280CD1B87EFC
:105ED000002807D1FDF74CF87453D048FFF7EEFCCB
:105EE0000120B876FDF788FC0120B876B08EF885E1
:105EF000B9794020325A738F388F009200290ED022
:105F000089210DE0387C0028B6D1F87F0028B3D075
:105F1000388E002856D0462000213952ACE72F2178
:105F2000BF4AFFF707F80446B887788DBD4941435B
:105F30000220C141BC4881427ED9F87A0028B54E82
:105F4000049D01D10020B875B87968432F30398F8E
:105F5000884200D86FE1B87C00280AD0012802D11D
:105F6000FFF7D0F8B87C022801D1FFF7A3F8002092
:105F7000B8747078002800D1F4E0B87E002800D111
:105F800008E1707F3C214143B08C421810463C38F8
:105F900003B2FF2168318B4201DDA44810184A2268
:105FA000B8520246EF3213B28B4201DD0246793A13
:105FB0004E23FA520246773213B28B4200DDE0E004
:105FC0001046DFE04620395A491C395289B2A942AD
:105FD00000D851E7F98E1F2900D2F6E00120B877EA
:105FE0007D20C000FDF7FEFAFF250024204629464B
:105FF0002246FFF745FB387C002800D0FAE1B87A4A
:10600000002800D1F6E144203E5AB9204100304634
:10601000FBF783F9387468350B35AE4200D2EBE1FB
:10602000FFF798F86420FDF7E7FAFFF7D5F9641C4D
:10603000387C8442F4D3DFE1B97E787B002845D0F8
:10604000002943D003912C20385EEF49098C0122AE
:10605000D243623A4A431018ED4988620A6C831AA7
:106060000D6B4A6B8E6B5A43CA6308644543AD1986
:106070008E6CB542334600DC2B467642B34200DBE1
:106080001E468E639219CB6A58431318C86C83421C
:106090000246DD4D00DC1A464042824200DB1046DB
:1060A0004864FBF716F9DC49FBF79DF8FBF71CF990
:1060B000298E091A0AB2688F824200DB084601B2B3
:1060C000A2B28A4200DB04462C860399002900D143
:1060D00033E77879002800D12FE7CB490498085A94
:1060E000498C401ACA4908658A6E831A8C6DCA6D3C
:1060F0000D6E5A434A668866444365190C6FA54283
:10610000234600DC2B466442A34200DB1C460C669F
:1061100012194B6D58431318486F8342024600DC36
:106120001A464042824200DB1046C866FBF7D1F8AF
:10613000B949FBF758F80146786EFAF7FBFF0546B8
:10614000B64C2146FBF7B7F8002800D12C467C66F8
:10615000002520462946FBF7AEF8002800D0ECE6E3
:106160007D66EAE60020B887B97E00293BD1A749C1
:1061700008600120F875387900282FD0FDF7DEFB84
:1061800031E0F1384C217852B879012853D10120FF
:10619000F87650E00121F9750025BD879B48056020
:1061A0007D773879002814D0B8790028964E00D031
:1061B000E7E64020305A0C46717A490040181338FF
:1061C000B887FFF773F8BC75DBE600213952F97721
:1061D00052E6FCF79FFCBD878B4ED2E6B87D0028C7
:1061E00001D1FCF797FCBB7DF87A002824D0002B66
:1061F00022D0798F7D25EC002046FDF7DDFB0019CC
:10620000B88780B22901884212D1FDF797FB11E0CF
:106210000E0400201000002010270000881300004A
:10622000FF070000CDCCCCCCCCCCCC0C5CFEFFFF6F
:10623000FFF73CF8744EBB7D002B58D178791422BF
:106240001146C140BC8F71480068884209D2B08EA7
:10625000844201D2B8870446308F844201D9B8877E
:1062600004464220305A844201D9B8870446787BDC
:1062700000280393029205D03020305E844201DD75
:1062800084B2BC877D6E002628463146FAF7E9FFC6
:106290000028019604D12846FBF726F82418BC876D
:1062A000594E039B029DB07B002820D07D208000AA
:1062B000396F814200D83C25F574F88DA1B20A1AD5
:1062C000AA420ADD4019B8870498305AFF21683184
:1062D0008D31884209D9012008E0411AA94204DD24
:1062E00001993175401BB88701E001983075B87E7F
:1062F000B97F002914D0002812D0398F30290FD34C
:10630000B07800281DD0049D705B4021715A009127
:106310004B086021C822FEF70DFE0446F08712E00C
:10632000002B1AD040203146355ABE8FCC8F3046D4
:1063300060432946FAF7F1FF281A401C049D785360
:1063400011E0F48F049D4020315ABE8FA0B27043FB
:10635000FAF7E3FF401C785305E03C214143049DDC
:106360007953F48FBE8FFE85A0B2FFF771FA785B88
:10637000FFF774FA274C4020395A491C395288B229
:10638000A04235D9B97F002917D0FCF7C3FB002004
:106390003887F886F883FFF761FAFFF725F80120C0
:1063A00001021F48FAF7BBFEBFF34F8F1D481E497D
:1063B0000160BFF34F8F00BFFDE71C49884217D330
:1063C000FCF7A8FB00203887F886F883FFF746FA29
:1063D000FFF70AF8012001021148FAF7A0FEBFF307
:1063E0004F8F104810490160BFF34F8F00BFFDE78A
:1063F00005B0F0BDFEF7AEFE2120385C002800D0CD
:106400003AE50020F87237E510000020F40400207F
:10641000700000201027000000401C4600001643BA
:10642000580500200CED00E00400FA0551C30000FF
:1064300070B53D4800783D4C217800290BD00028EC
:1064400009D03B480078002810D0FEF76BFF394890
:106450000221017070BD3849097801290CD000294A
:1064600022D1FDF7DFF8FEF75DFF70BDFFF7A0F862
:1064700030480121017070BD00280AD02C480078F6
:10648000002812D0FEF77CFCFCF71CFEFEF74AFF4A
:1064900070BD2A48007801280AD0294800780128D0
:1064A0000ED02078002816D070BDFFF781F870BD9F
:1064B000FCF708FEFEF736FF214800780128F0D1EE
:1064C000FCF7C8FFFFF7D0F9FEF72CFFFDF72EFA17
:1064D00020780028E8D11B4C1B4D2888002807D1C4
:1064E0006178002904D119480188491C018070BDD8
:1064F000164900260E8016498842D5D32189FDF71A
:106500005BFA322801DC2078461C2670F0B2332872
:1065100007D3E078002804D1FEF72EFD0120000209
:1065200020802888208170BD590600209604002014
:10653000A10700207904002097040020980400207F
:106540009904002064040020A8040020AE04002068
:10655000DD05000002E008C8121F08C1002AFAD1B8
:1065600070477047002001E001C1121F002AFBD1D3
:106570007047000000000000000000000000000064
:10658000000000000000000000000000000000000B
:1065900000000000010000000200000003000000F5
:1065A00004000000060000000700000008000000D2
:1065B00009000000000000000000000000000000D2
:1065C00000000000010000000200000003000000C5
:1065D00004000000191B12131D1516171A090A0BC7
:1065E0001E0D0E0F086600080000002008040000C1
:1065F000501400081869000808040020A0070000D3
:106600006465000800000000250402014012041027
:106610002A23016745AB89EFCD020101011EFF026C
:106620000E050A0A3C05640101D20A0102010505B2
:1066300006010102040401D007CA146419B4100A47
:106640004C046C07DC054A011E1AD0081278127837
:106650001468013C123C2B6B0A02121412461E9065
:10666000016B0A641223D43023102723E80312207D
:1066700043204E720A021364292C6350C31A20343B
:1066800041293C0110294A54A0860172020A1A329B
:10669000501324F414070C14C90229B4A902E920E8
:1066A000213AFAB012B412B712BA12BD12C112C412
:1066B00012C712CA12CD12D012D312D612D912DCBE
:1066C00012E012E312E612E912EC12EF12F212F5E6
:1066D0001AF73422FD1867010301060109010B01B5
:1066E0000E0111011301160119011B011E012001E8
:1066F0002301250128012A012C012F013101330139
:10670000350138013A013C013E014001420144019A
:106710004601470149014B014D014E015001510114
:10672000530154015601570158015A015B015C01A4
:106730005D015E015F0160016101620163021C6431
:106740000165021A66023A6702FA680249182922AC
:10675000292A3A64361A62401A60481A5E501A5C56
:10676000581A5A601A57681A54701A51781A4E807B
:106770001A4B881A47901A44981A40A01A3CA81A33
:1067800038B01A33B81A2FC01A2AC81A25D01A20BE
:10679000D81A1BE01A16E81A11F01A0BF8150601A0
:1067A00003011301FD12FA12F712F512F212EF12A1
:1067B000EC12E912E612E312E012DC12D912D61240
:1067C000D312D012CD12CA12C712C412C112BD12F6
:1067D000BA12B712B412B112AE12AB12A712A412AF
:1067E000A1129E129B129812951292128F128C1265
:1067F0008812851282127F127C127912761273121D
:1068000071126E126B126812651262125F125D12C3
:106810005A125712551252124F124D124A12481262
:106820004512431240123E123C12391237123512F1
:10683000331230122E122C122A122812261224126F
:10684000221221121F121D121B121A1218121712D5
:10685000151214121212111210120E120D120C1225
:106860000B120A12091208120712061A0502120464
:106870001A03021A020219D919020112491829220F
:10688000292A3A04361A06401A08481A0A501A0CDD
:10689000581A0E601A11681A14701A17781A1A808A
:1068A0001A1D881A21901A24981A28A01A2CA81A9E
:1068B00030B01A35B81A39C01A3EC81A43D01A482F
:1068C000D81A4DE01A52E81A57F01A5DF8126212FF
:1068D000651268126B126E127112731276127912AF
:1068E0007C127F128212851288128C128F129212E1
:1068F000951298129B129E12A112A412A712AB120B
:10690000AE1AB1A2400D4E657574726F6E5243207F
:08691000473000000000000008
:04000005080010BD22
:00000001FF
